:400000000080002011000000850C0000850C000080B500AF00F040FE80B500AF284B12221A6001F035F9274B180001F009FC012001F03EF9302000F0B3FE234B234A1A60A8
:40004000234B8022D2051A60224B224A126802210A431A60204B214A1A60214B00221A60204B204A126808218A431A60FA23DB00180000F08BFF1C4B180001F0A9F81B4BCA
:40008000802292001A601A4B1A4A1A601A4B802212061A60194B8022D2021A60184B40221A60184B1900082000F0BAFF082001F031F8074B8022D2051A60C046BD4680BD09
:4000C00030001040001BB70004010B40060000800C020B4078002E407C002E40D0D0000064F02E406CF02E40DC050000000301400000014040FF008008010B4000010B40BE
:40010000040101400514000080B582B000AF72B6394B00221A60FB1D00221A7022E0FB1D1A7813005B009B185B00344A9B183B603B681A78597809020A43997809040A4381
:40014000DB781B06134318003B681A795B791B0213439BB2190000F071FDFB1D1A78FB1D01321A70FB1D1B78012BD8D9244B254A1A60254BFF2212061A60244B992212049A
:400180001A60234B992212041A60224B992212041A60214B992212041A60204A1F4B1B78DBB206210B43DBB213701D4B10221A601C4B1D4A1A601D4B10221A601C4BD0225B
:4001C0001A601C4B1C4A1A601C4BC0221A601C4B1D221A601B4B1C4A1A601C4BD822D2031A601B4B03221A60FFF716FF00F036FDC046BD4602B080BD6CF02E40841A0000D2
:40020000000002400000FFEE0001024000500F4010500F4020500F4030500F4000700F40000004400800044000E0D8001800044000010440080104400060D80018010440E6
:40024000000204400802044001490000080304400804044010B5064C2378002B07D1054B002B02D0044800E000BF0123237010BD500C002000000000801A0000084B10B562
:40028000002B03D00749084800E000BF07480368002B00D110BD064B002BFBD09847F9E700000000540C0020801A0000A80B00200000000080B500AF62B600F005F800F0B2
:4002C00021F801F039FBFCE780B500AF01F02AF9012001F067FA012000F04EF8012000F0FFFB012000F0AAFB0A21012000F0CEFBFF2000F0BBFB012001F07CFAC046BD46FF
:4003000080BDC04680B582B000AF3B00184A1A60002000F0ABFB174B180000F0C7FA00237B600AE07B68DBB2180000F09FFB012000F028FF7B6801337B607B68FF2BF1DD6D
:4003400000F0B0F96421642000F0D6F91F2000F009FA3B00180001F0E8FA03009AB23B001100180000F044FAC046BD4602B080BD31313300FFFF000090B585B000AF02002D
:40038000FB1D1A70214BFA1D12781A701F4B1B78002B08D11E4BF02252001A801D4B882252001A800EE0194B1B78012B08D1184BC82292001A80174BF02252001A8001E0FA
:4003C00000231FE0012001F0C5F9002001F0EAF9642000F0D7FE012001F0E4F90A2000F0D1FE0F23FC18002000F0AAFB030023700F23FB181B781900002000F089FB00F0F0
:4004000033F801231800BD4605B090BD9B1300209C1300209E13002080B500AF114B1B78002B0ED10A21882000F072FB012000F0A9FE0221892000F06BFB012000F0A2FE4A
:400440000DE00A21882000F063FB012000F09AFE0221892000F05CFB012000F093FEC046BD4680BD9B13002080B584B000AFFFF7D3FF0C21102000F04BFB874B1B78002BF9
:400480001FD10F23FB1882221A700B23FB180A221A700E23FB1808221A700D23FB1830221A700C23FB1800221A700823FB1803221A80BB1D08221A800A23FB180A221A704E
:4004C0001EE00F23FB1881221A700B23FB181A221A700E23FB1820221A700D23FB1860221A700C23FB1800221A700823FB1820221A80BB1D17221A800A23FB1802221A7085
:400500000F23FB181B781900042000F001FB012000F038FE614B1B88DB089BB2DBB2013BDBB21900142000F0F3FA0C23FB181B781900152000F0ECFA0B23FB181A780C2379
:40054000FB181B78D31A023B002B00DA0733DB10DBB21900162000F0DBFA0E23FB181B78DB08DBB2013BDBB21900172000F0D0FA0D23FB181B78DB08DBB2013BDBB219009E
:40058000182000F0C5FA464B1B88DBB2013BDBB21900192000F0BCFA414B1B88013B9BB21B0A9BB2DBB219001A2000F0B1FA0823FB181B88DBB2013BDBB219001B2000F0B2
:4005C000A7FA0823FB181B881B0A9BB2DBB219001C2000F09DFABB1D1B88DBB2013BDBB219001D2000F094FABB1D1B881B0A9BB2DBB219001E2000F08BFA0A23FB181B78E0
:40060000013BDBB219001F2000F082FA0021302000F07EFA0021312000F07AFA1F4B1B88DBB2013BDBB21900342000F071FA1B4B1B88013B9BB21B0A9BB2DBB21900352054
:4006400000F066FA0021322000F062FA0021332000F05EFA124B1B88DBB2013BDBB21900362000F055FA0E4B1B88013B9BB21B0A9BB2DBB21900372000F04AFA80218E2034
:4006800000F046FAFA235B00180000F07BFDC046BD4604B080BDC0469B1300209C1300209E13002090B583B000AF402000F0AEFAFC1D00F06FFA03002370FB1D80221A7039
:4006C000FB1D1B78180000F04DFA212000F09EFAFC1D00F05FFA03002370FB1DFA1D12785F210A401A70FB1D1B78180000F03AFAC046BD4603B090BD80B582B000AF02002A
:40070000BB1D1A803B1D0A1C1A802A2000F07EFABB1D1B88DBB2180000F024FA2B2000F075FABB1D1B881B0A9BB2DBB2180000F019FA2C2000F06AFA3B1D1B88DBB21800D0
:4007400000F010FA2D2000F061FA3B1D1B881B0A9BB2DBB2180000F005FAC046BD4602B080BDC04690B585B000AF0200BB1D1A80632000F04BFABB1D1B88DB0A9BB2DBB259
:40078000180000F0EFF9642000F040FABB1D1B885B11DBB23F221340DBB2180000F0E2F9652000F033FABB1D1B88DBB21F221340DBB2180000F0D6F9222000F027FA0F23DC
:4007C000FC1800F0E7F9030023700F23FB180F22BA18127840210A431A700F23FB181B78180000F0BFF9C046BD4605B090BDC04680B584B000AF78600A00BB1C1A80BB1C8A
:400800001B88002B06D17B68180001F08EF80200BB1C1A80022000F0F9F90E23FB1800221A8016E00E23FB181B887A68D3181B78180000F097F90C4B1B78002B02D001204D
:4008400000F0A0FC0E23FB181A880E23FB1801321A800E23FA18BB1C12881B889A42E1D3C046BD4604B080BD9913002090B585B000AF0200FB1D1A70BB1D0A1C1A700F23C1
:40088000FC18FB1D1B78180000F05AF9030023700F23FB18BA1D1B7812781340DBB2002BEDD101231800BD4605B090BD80B584B002AF0200BB1D1A800B4B1B88013B9BB235
:4008C0001AB20A4B1B88013B9BB219B201230193BB1D1B8800930B000021002000F008F8C046BD4602B080BD9C1300209E130020B0B582B000AF05000C0010001900BB1DEE
:400900002A1C1A803B1D221C1A80BB1C021C1A803B000A1C1A80912000F078F9BB1D1B88DBB2180000F01EF9922000F06FF9BB1D00229B5E1B121BB2DBB2180000F012F94D
:40094000932000F063F93B1D1B88DBB2180000F009F9942000F05AF93B1D00229B5E1B121BB2DBB2180000F0FDF8952000F04EF9BB1C1B88DBB2180000F0F4F8962000F06B
:4009800045F9BB1C00229B5E1B121BB2DBB2180000F0E8F8972000F039F93B001B88DBB2180000F0DFF8982000F030F93B0000229B5E1B121BB2DBB2180000F0D3F8632071
:4009C00000F024F91823FB181B88DB0A9BB2DBB2180000F0C7F8642000F018F91823FB181B885B11DBB23F221340DBB2180000F0B9F8652000F00AF91823FB181B88DBB214
:400A00001F221340DBB2180000F0ACF8902000F0FDF81C23FB181B78002B03D0B02000F0A1F802E0902000F09DF880219020FFF71DFFC046BD4602B0B0BDC04680B582B009
:400A400000AF0200FB1D1A70FB1D1B78002B04D00121C72000F05CF803E00021C72000F057F8C046BD4602B080BDC04680B582B000AF0200FB1D1A70FB1D1B7819008B20DB
:400A800000F046F8C046BD4602B080BD80B582B000AF0200FB1D1A70BB1D0A1C1A70FB1D1B78002B0FD0BB1D1B785BB20F2213405BB28022524213435BB2DBB219008A2027
:400AC00000F026F808E0BB1D1B780F221340DBB219008A2000F01CF8C046BD4602B080BD80B582B000AF0200FB1D1A70FB1D1B78002B04D08021012000F00AF803E00021A9
:400B0000012000F005F8C046BD4602B080BDC04680B582B000AF0200FB1D1A70BB1D0A1C1A70FB1D1B78180000F070F8BB1D1B78180000F017F8C046BD4602B080BDC046CC
:400B400080B582B000AF0200FB1D1A70FB1D1B78180000F05BF800F01DF803001800BD4602B080BD80B582B000AF0200FB1D1A70012000F007FB002000F02CFDFB1D1B78F2
:400B8000180000F027FD012000F0FCFAC046BD4602B080BD80B582B000AFFB1D00221A70012000F0EFFA184B802292001A6000F0FBFC402000F00EFD002000F00BFDC046C5
:400BC000114B1A6880239B001340F9D002E0012000F0D8FA00F0D8FC031EF8D001E000F0C3FC00F0D1FC0300012BF8D800F0BCFC0200FB1D1A70012000F0C4FAFB1D1B7839
:400C00001800BD4602B080BD000F244080B582B000AF0200FB1D1A70012000F0B3FA802000F0D8FCFB1D1B78180000F0D3FC012000F0A8FAC046BD4602B080BD80B582B0C7
:400C400000AF786039603A687B680021180000F064FEC046BD4602B080BDC04680B500AF054B03221A60054B03221A60044B00221A60C046BD4680BD300030403000314012
:400C8000000E3F4080B500AF00F012FE03001B680C2B00D1FEE7FEE780B586B000AF224B7B61224B3B61204B7B6135E03B691B68FB603B695B68BB603B699B683B6000233A
:400CC0007B600CE0FB681A68BB681A60BB680433BB60FB680433FB607B6804337B607A683B689A42EED13B69DB683B6000237B6008E0BB6800221A60BB680433BB607B68AD
:400D000004337B607A683B689A42F2D13B6910333B617B69013B7B617B69002BC6D100F0CDFDFFF7C7FAFEE701000000E41A000080B582B000AF154B144A126801218A43C6
:400D40001A6000237B600FE07B68032B04D8104B7A689200D35800E00E4B0F4A796889008B507B6801337B607B682F2BECD9FFF7CBF90A4B00221A60044B044A1268012176
:400D80000A431A60C046BD4602B080BD0000104000000000850C000000000020C000002090B585B000AF78600C23FC1800F051FD030023707B68022B00D8B3E07B68302BC2
:400DC00000D9AFE05E4B1B78DBB21A007B689A420AD35C4A0F23FB1812781A705A4A0E23FB1812781A703FE0584B1B78DBB21A007B689A420AD3564A0F23FB1812781A7080
:400E0000544A0E23FB1812781A702DE0524B1B78DBB21A007B689A420AD3504A0F23FB1812781A704E4A0E23FB1812781A701BE04C4B1B78DBB21A007B689A420AD34A4A5D
:400E40000F23FB1812781A70484A0E23FB1812781A7009E0464A0F23FB1812781A70454A0E23FB1812781A707B68DA1E0B23FB1841498A5C1A700B23FB181B782F2B0DD94C
:400E80007B682A2B0AD93D4B19221A60052000F0D7FC0D23FB1819221A7007E0374B1B68DAB20D23FB183F210A401A700B23FA180D23FB1812781B789A4208D22F4B7A6849
:400EC000033A2D498A5C1A60052000F0B9FC7B68284A9A180A23FB1812781A70284B0A22BA1812781A60274B0F22BA1812781A60254B0E22BA1812781A60052000F068F9E0
:400F00000B23FA180D23FB1812781B789A420CD91A4B7A68033A18498A5C1A60052000F08FFC02E0002000F021F90C23FB181B78180000F092FCC046BD4605B090BDC046E3
:400F400040F3FF0F41F3FF0F42F3FF0F43F3FF0F44F3FF0F45F3FF0F46F3FF0F47F3FF0F48F3FF0F49F3FF0F4AF3FF0F4BF3FF0F4CF3FF0F4DF3FF0F901A00002CFF0B4068
:400F800028FF0B401CFF0B4020FF0B4080B584B000AF78600023FB60154B154A126801210A431A60134B144A1A60144B134A1268802109020A431A607B68002B12D010235D
:400FC000FB600CE0012000F003F900F019F8031E02D00023FB6005E07B68013B7B607B68002BEFD1FB681800BD4604B080BDC04660F02E4078002E400220000010002E40C5
:4010000080B582B000AF054B1B68012213407B607B681800BD4602B080BDC0460C002E4080B584B000AF02003960FB1D1A7080239B05FB60FB1D1B781F2B02D9002000F036
:4010400095F8FB1D1B7810339B00FA68D3181B68BB60FB1D1B7810339B00FA68D3183A681A60BB681800BD4604B080BD90B587B000AF0200FB1D1A70BB1D0A1C1A70BB1D1F
:401080001B78032B02D9002000F070F8FB1D1B781F2B02D9002000F069F8FB1D1B7803221340DB0006337B611323FC1800F0D1FB03002370FB1D1B789B08DBB29B00144A58
:4010C000944663441B68FB6003227B699A401300DA43FB681340FB60BB1D1A787B699A401300FA681343FB60FB1D1B789B08DBB29B00074A94466344FA681A601323FB18B2
:401100001B78180000F0A9FBC046BD4607B090BD00E400E080B582B000AF0200FB1D1A70064BFA1D12781F210A40012191400A001A60C046BD4602B080BDC04600E100E033
:4011400080B582B000AF0200FB1D1A70064BFA1D12781F210A40012191400A001A60C046BD4602B080BDC04680E100E080B582B000AF0200FB1D1A7001BEC046BD4602B04F
:4011800080BDC04680B582B000AF786009E00D4B1B68180000F054FB7B680B4A944663447B607A6880231B029A42F0D8074B1B687A685343180000F043FBC046BD4602B0BB
:4011C00080BDC046B80B00200080FFFFB00B002080B582B000AF0200BB1D1A80BB1D1B88044A12785343180000F02AFBC046BD4602B080BDB40B002080B500AF0F4B0F4A62
:40120000126801218A431A600C4B0C4A126802218A431A600A4B0A4A126830218A4310210A431A60064B064A126807218A4301210A431A60C046BD4680BDC04600F02E405E
:4012400000FF2E4080B500AF0F4B0F4A126802218A431A600D4B0D4A126807218A4302210A431A60094B094A126830218A4320210A431A60044B044A126801210A431A6037
:40128000C046BD4680BDC04600F02E4000FF2E4080B500AFFFF7B0FF044B044A1268802109060A431A60C046BD4680BD00F02E4080B584B000AF78600C4B1B68012213401C
:4012C000FB607B68002B02D0012B03D005E0FFF793FF06E0FFF7B6FF03E00020FFF746FFC046FB681800BD4604B080BD00F02E4090B583B000AFFC1D00F0ABFA030023703A
:40130000074B074A1268C02109020A431A60FB1D1B78180000F0A1FAC046BD4603B090BD00010B4080B500AF054B1A68C0231B02134001D0012300E000231800BD4680BDE1
:4013400000010B4090B583B000AFFC1D00F081FA030023700D4B0D4A12680D490A408021C9010A431A60094B084A126808490A40802109020A431A60FB1D1B78180000F004
:401380006CFAC046BD4603B090BDC04600010B40FF3FFFFF90B585B000AF78600B23FC1800F057FA03002370FFF7BCFF031E04D00123FB60FFF7C6FF01E00023FB607B68F4
:4013C0000D4A13407B600D4B0C4A12680C4911407A680A431A60094B1B68FB68012B01D1FFF786FF0B23FB181B78180000F035FAC046BD4605B090BD0404040010020B40BF
:40140000FBFBFBFF80B500AF344B1B68042213401FD0334B1B680422134017D0314B1B6804221340DA432E4B1B681A402C4B1A602C4B1B68042293431A002A4B1A602A4BBD
:401440001B68002B02D0284B1B6898470420FFF7A1FF224B1A688023DB00134022D0204B1A688023DB00134017D01E4B1A688023DB001340DA431A4B1B681A40184B1A600E
:40148000184B1B68194A1A40164B1A60164B5B68002B02D0144B5B6898478023DB001800FFF778FF0D4B1A688023DB02134011D00B4B1A688023DB02134006D00A4B9B6822
:4014C000002B02D0084B9B6898478023DB021800FFF760FFC046BD4680BDC04610020B40C40B0020740C0020780C0020FFFBFFFF80B500AF00F084F8C046BD4680BDC0465D
:4015000080B500AF064B064A1268802109060A431A6000F019F800F01FF8C046BD4680BD0000244080B500AF064B1B78002B04D1FFF7DEFF034B01221A70FFF7E1FFC04611
:40154000BD4680BD940C002080B500AF0920FFF7E1FDC046BD4680BD80B500AF00F0B0F8C046BD4680BDC04680B582B000AF00237B60044B1B687B607B681800BD4602B00B
:4015800080BDC0464003244080B582B000AF054B1B681F2213407B607B681800BD4602B080BDC0460803244080B500AF074B074A1268802149020A431A60044B034A1268BD
:4015C00003490A401A60C046BD4680BD04032440FFFFFEFF80B582B000AF7860C046064B1B681F221340102BF9D0044B7A681A60C046BD4602B080BD080224404002244018
:4016000080B500AF1D4B1E4A1A601E4B1E4A1A601E4B1F4A1A601F4B07221A601E4B1C4A1A601E4B00221A600920FFF789FD03210920FFF71BFD1A4B19000920FFF7F0FC01
:40164000184B00221A60184B00221A60174B00221A60174B00221A60164B00221A60164B00221A60144B1B689AB2144B1A80002000F044F8C046BD4680BDC0460000244053
:401680000F080001200024400D000080000324400701008004032440000224400402244039170000880E2440C80E2440480F2440080F2440C80F2440880F2440960C002025
:4016C00080B500AF0A4B0A4A1268F02109060A431A60074B064A1268F02109050A431A60044B054A12881A60C046BD4680BDC04600010240880F2440960C002080B584B093
:4017000000AF78600A4B1B68FB60FB68094A1340FB607B689A06C0231B051340FA681343FB60034BFA681A60C046BD4604B080BD20002440FFFFFFF380B500AF044B1B6851
:40174000002B02D0024B1B689847C046BD4680BD980C002080B584B000AF0200FB1D1A700F4B1B68DAB20F23FB1840218A431A70FB1D1B789B01DBB240221340D9B20F234B
:40178000FB180F22BA1812780A431A70044B0F22BA1812781A60C046BD4604B080BDC0460001044080B584B000AF0200FB1D1A700F4B1B68DAB20F23FB1810218A431A7025
:4017C000FB1D1B781B01DBB210221340D9B20F23FB180F22BA1812780A431A70044B0F22BA1812781A60C046BD4604B080BDC0460001044080B584B000AF0200FB1D1A7085
:401800000E4B1B68DAB20F23FB1801218A431A70FB1D1B7801221340D9B20F23FB180F22BA1812780A431A70044B0F22BA1812781A60C046BD4604B080BDC0460002044091
:401840000230800803D00138FDD1C046C046C0467047EFF3108072B6704780F31088704780B500AF00F00CF8C046BD4680BDC04680B500AF00F010F8C046BD4680BDC046AC
:4018800080B500AF034B802252011A60C046BD4680BDC04600E100E080B500AF034B802252011A60C046BD4680BDC04680E100E0014B18687047C0464C0C00200E4B70B5CD
:4018C00000251E000D4CE41AA410A54204D0AB00F35898470135F8E700F0F2F8084B00251E00084CE41AA410A54204D0AB00F35898470135F8E770BDCC1A0000CC1A0000E1
:40190000CC1A0000D41A0000002310B59A4203D0CC5CC4540133F9E710BD03008218934202D019700133FAE770470023C25C0133002AFBD1581E704710B500F001F810BD6F
:4019400010B503480078012801D100F067F810BDC80B0020002803DB07490968884202D90020C043704704491422091D096850431030085870470000CC0B0020F3B50026C6
:40198000F64381B0002841DB2349096888423DD8029900293AD0204F142204463F1D54432546396810354859401C2FD0FFF760FF3868415900292BD0211D009146580C2173
:4019C000005971430F46C1190C220298FFF79CFF11480021001D0068761C00590C34C0190160416081600C48001D00680159B14200D100260849009A091D8650086841595E
:401A0000491E4151FFF72CFF0020FEBD3046FEBDFFF726FFFAE70000CC0B0020FEB50027164EFF433D4600240EE01C20316860430818017A002906D04068FFF78BFF002816
:401A400001D0254603E0641C3079A042EDDA681C12D01C2130684D434419FFF709FF69466068FFF78BFF0546FFF7FAFE002DD9D1216868468847D5E7FEBD0000E40B0020BC
:401A80000000000000300F40000400400F400004030405060708090A0B0C0E0F101112131415161718191B1C1D1E1F2021222325262728292A2B2E2F3031323334354300DD
:401AC000F8B5C046F8BC08BC9E4670477D020000310D0000F8B5C046F8BC08BC9E46704755020000881D0000A80B0020A800000050070000000000000000000000000000CF
:401B000000000000000000000000000000000000000000000000000000000000000000000000000000000000000000000000000000000000000000000000000000000000A5
:401B40000000000000000000000000000000000000000000000000000000000000000000000000000000000000000000000000000000000000000000000000000000000065
:401B80000000000000000000000000000000000000000000000000000000000000000000000000000000000000000000000000000000000000000000000000000000000025
:401BC00000000000000000000000000000000000000000000000000000000000000000000000000000000000000000000000000000000000000000000000000000000000E5
:401C000000000000000000000000000000000000000000000000000000000000000000000000000000000000000000000000000000000000000000000000000000000000A4
:401C40000000000000000000000000000000000000000000000000000000000000000000000000000000000000000000000000000000000000000000000000000000000064
:401C80000000000000000000000000000000000000000000000000000000000000000000000000000000000000000000000000000000000000000000000000000000000024
:401CC00000000000000000000000000000000000000000000000000000000000000000000000000000000000000000000000000000000000000000000000000000000000E4
:401D000000000000000000000000000000000000000000000000000000000000000000000000000000000000000000000000000000000000000000000000000000000000A3
:401D40000000000000000000000000000000000000000000000000000000000000000000000000000000000000000000000000000000000000000000000000000000000063
:401D8000000000020500000000000000006CDC0280BB0000300000000000C05D01000000F0000000040404000000000000000000000000000000000000000000000000004D
:401DC0000000000000000000000000000000000000000000000000000000000000000000000000000000000000000000BE1A0000000000000000000000000000000000000B
:401E00000000000000000000000000000000000000000000000000000000000000000000000000000000000000000000EC0B0020000000000000000000000000000000008B
:401E40000000000000000000000000000000000000000000000000000000000000000000000000000000000000000000000000000000000000000000000000000000000062
:401E80000000000000000000000000000000000000000000000000000000000000000000000000000000000000000000000000000000000000000000000000000000000022
:401EC00000000000000000000000000000000000000000000000000000000000000000000000000000000000000000000000000000000000000000000000000000000000E2
:401F000000000000000000000000000000000000000000000000000000000000000000000000000000000000000000000000000000000000000000000000000000000000A1
:020000040003F7
:0200000490303A
:0200000095BAAF
:0200000490402A
:4000000000000000000000000000000000000000000000000000000000000000000000000000000000000000000000000000000000000000000000000000000000000000C0
:400040000000000000000000000000000000000000000000000000000000000000000000000000000000000000000000000000000000000000000000000000000000000080
:0200000490501A
:0C00000000021A6E11AA00011A77A76412
:0200000490600A
:0100000001FE
:00000001FF