:400000000080002011000000950F0000950F000080B500AF00F0C8FF80B500AF284B12221A6001F01DFF274B180002F0D9F9012001F026FF302001F09BFC234B234A1A6068
:40004000234B8022D2051A60224B224A126802210A431A60204B214A1A60214B00221A60204B204A126808218A431A60FA23DB00180001F073FD1C4B180001F091FE1B4BF5
:40008000802292001A601A4B1A4A1A601A4B802212061A60194B8022D2021A60184B40221A60184B1900082001F0A2FD082001F019FE074B8022D2051A60C046BD4680BD34
:4000C00030001040001BB70004010B40060000800C020B4078002E407C002E40D0D0000064F02E406CF02E40DC050000000301400000014040FF008008010B4000010B40BE
:4001000004010140D51F000080B582B000AF72B6344B00221A60FB1D00221A7022E0FB1D1A7813005B009B185B002F4A9B183B603B681A78597809020A43997809040A43B0
:40014000DB781B06134318003B681A795B791B0213439BB2190000F0F9FEFB1D1A78FB1D01321A70FB1D1B78012BD8D91F4B204A1A60204BFF2212061A601F4B9922120425
:400180001A601E4B992212041A601D4B992212041A601C4A1B4B1B78DBB206210B43DBB21370194B10221A60184B194A1A60194B10221A60184BD0221A60184B184A1A607F
:4001C000184BC0221A60184B0D221A60174B184A1A60FFF721FF00F0C9FEC046BD4602B080BDC0466CF02E40A84D0100000002400000FFEE0001024000500F4010500F40AB
:4002000020500F4000700F40000004400800044000E0D8001800044000010440080104400060D8001801044000020440080204400109000010B5064C2378002B07D1054BD2
:40024000002B02D0044800E000BF0123237010BDE00F0020000000006C4D0100084B10B5002B03D00749084800E000BF07480368002B00D110BD064B002BFBD09847F9E76B
:4002800000000000E40F00206C4D0100A80B00200000000080B500AF62B601F02BFF00F067F800F0FBF8034B180000F057FF03F0F7F8FCE7B902000090B589B000AF786024
:4002C00039607B68012B02D0202B07D03FE0224B224A1A60224B234A1A6038E00823FB183A6813CA13C303CA03C30823FB181B78042B2BD01F23FB1800221A701BE01A4B02
:400300001B7818001F23FB181A780823FB1859681F23FB181B78CB181C7814490300DB001B1ACB18211C99541F23FB181A781F23FB1801321A701F23FB181B78052BDED988
:40034000094B1B780133DAB2074B1A70C046C046BD4609B090BDC04660F02E40310300000800034002030080FC0F00206021002090B58FB000AF2823FB18404A03CA03C3A3
:400380001188198092789A701C23FB183C4A03CA03C312881A801023FB183A4A03CA03C312881A803B1D384A13CA13C33623FB18C8221A80012001F0B7FF012000F0DEF89B
:4003C000012000F023FD012000F014FC0A21012000F038FCFF2000F025FC012001F0CCFF2A4B180000F094FA3623FB181B88180001F0B0FCF8231B02180000F089FA362343
:40040000FB181B88180001F0A5FC214B180000F07FFA3623FB181B88180001F09BFCFC23DB00180000F074FA3623FB181B88180001F090FC1F2000F06BFA3623FB181B8809
:40044000180001F087FC134B180000F061FA3623FB181B88180001F07DFC0F4B180000F057FA3623FB181B88180001F073FC002000F04EFAC046BD460FB090BD704D010039
:400480007C4D0100884D0100944D0100FFFF0000E0FF0000FF0700001FF8000090B585B000AF0F23FB1801221A70012000F0F4FB00F0FAF90300180002F022FE031C191C41
:4004C0008920C00502F05AFB031CBB6000F0F6F90300180002F014FE031C191C8920C00502F04CFB031C7B603A00BB1C1100180000F02CFC0A2001F02DFC34E001F062FF1E
:40050000031E30D100F012FC031E2CD03A00BB1C1100180000F01AFCBB1C1B88180002F0EFFD031CB968181C02F028FB031C181C02F00CFB03009BB21CB23B001B881800E5
:4005400002F0DEFD031C7968181C02F017FB031C181C02F0FBFA03009BB219B2064B0422200000F0F7F90F23FB181B78002BC5D1C046BD4605B090BDFFFF000090B585B08E
:4005800000AF0200FB1D1A70214BFA1D12781A701F4B1B78002B08D11E4BF02252001A801D4B882252001A800EE0194B1B78012B08D1184BC82292001A80174BF0225200C2
:4005C0001A8001E000231FE0012001F085FE002001F0AAFE642001F0BDFB012001F0A4FE0A2001F0B7FB0F23FC18002000F03EFC030023700F23FB181B781900002000F03B
:400600001DFC00F033F801231800BD4605B090BD5B2800205C2800205E28002080B500AF114B1B78002B0ED10A21882000F006FC012001F08FFB0221892000F0FFFB012043
:4006400001F088FB0DE00A21882000F0F7FB012001F080FB0221892000F0F0FB012001F079FBC046BD4680BD5B28002080B584B000AFFFF7D3FF0C21102000F0DFFB874BE8
:400680001B78002B1FD10F23FB1882221A700B23FB180A221A700E23FB1808221A700D23FB1830221A700C23FB1800221A700823FB1803221A80BB1D08221A800A23FB1844
:4006C0000A221A701EE00F23FB1881221A700B23FB181A221A700E23FB1820221A700D23FB1860221A700C23FB1800221A700823FB1820221A80BB1D17221A800A23FB187B
:4007000002221A700F23FB181B781900042000F095FB012001F01EFB614B1B88DB089BB2DBB2013BDBB21900142000F087FB0C23FB181B781900152000F080FB0B23FB18E8
:400740001A780C23FB181B78D31A023B002B00DA0733DB10DBB21900162000F06FFB0E23FB181B78DB08DBB2013BDBB21900172000F064FB0D23FB181B78DB08DBB2013B57
:40078000DBB21900182000F059FB464B1B88DBB2013BDBB21900192000F050FB414B1B88013B9BB21B0A9BB2DBB219001A2000F045FB0823FB181B88DBB2013BDBB2190076
:4007C0001B2000F03BFB0823FB181B881B0A9BB2DBB219001C2000F031FBBB1D1B88DBB2013BDBB219001D2000F028FBBB1D1B881B0A9BB2DBB219001E2000F01FFB0A2305
:40080000FB181B78013BDBB219001F2000F016FB0021302000F012FB0021312000F00EFB1F4B1B88DBB2013BDBB21900342000F005FB1B4B1B88013B9BB21B0A9BB2DBB2C6
:400840001900352000F0FAFA0021322000F0F6FA0021332000F0F2FA124B1B88DBB2013BDBB21900362000F0E9FA0E4B1B88013B9BB21B0A9BB2DBB21900372000F0DEFA2F
:4008800080218E2000F0DAFAFA235B00180001F061FAC046BD4604B080BDC0465B2800205C2800205E28002080B500AF024B1B881800BD4680BDC0465C28002080B500AFA2
:4008C000024B1B881800BD4680BDC0465E28002090B585B000AF0200FB1D1A70BB1D0A1C1A700F23FC18FB1D1B78180000F0BEFA030023700F23FB18BA1D1B7812781340DC
:40090000DBB2002BEDD101231800BD4605B090BD80B584B002AF0200BB1D1A800B4B1B88013B9BB21AB20A4B1B88013B9BB219B201230193BB1D1B8800930B0000210020C6
:4009400000F0B2F8C046BD4602B080BD5C2800205E280020B0B584B002AF05000C0010001900BB1D2A1C1A803B1D221C1A80BB1C021C1A803B000A1C1A803B001C88BB1CEF
:4009800000229A5E3B1D0021595EBB1D0020185E01230093230000F005F8C046BD4602B0B0BDC046B0B582B000AF05000C0010001900BB1D2A1C1A803B1D221C1A80BB1C4B
:4009C000021C1A803B000A1C1A80992000F0A6FABB1D1B88DBB2180000F05AFA9A2000F09DFABB1D00229B5E1B121BB2DBB2180000F04EFA9B2000F091FA3B1D1B88DBB2CE
:400A0000180000F045FA9C2000F088FA3B1D00229B5E1B121BB2DBB2180000F039FA9D2000F07CFABB1C1B88DBB2180000F030FA632000F073FA3B001B88DB0A9BB2DBB233
:400A4000180000F025FA642000F068FA3B001B885B11DBB23F221340DBB2180000F018FA652000F05BFA3B001B88DBB21F221340DBB2180000F00CFA902000F04FFA1823BF
:400A8000FB181B78002B03D0602000F001FA02E0402000F0FDF940219020FFF719FFC046BD4602B0B0BDC046B0B582B000AF05000C0010001900BB1D2A1C1A803B1D221CE4
:400AC0001A80BB1C021C1A803B000A1C1A80912000F024FABB1D1B88DBB2180000F0D8F9922000F01BFABB1D00229B5E1B121BB2DBB2180000F0CCF9932000F00FFA3B1D30
:400B00001B88DBB2180000F0C3F9942000F006FA3B1D00229B5E1B121BB2DBB2180000F0B7F9952000F0FAF9BB1C1B88DBB2180000F0AEF9962000F0F1F9BB1C00229B5E9B
:400B40001B121BB2DBB2180000F0A2F9972000F0E5F93B001B88DBB2180000F099F9982000F0DCF93B0000229B5E1B121BB2DBB2180000F08DF9632000F0D0F91823FB184F
:400B80001B88DB0A9BB2DBB2180000F081F9642000F0C4F91823FB181B885B11DBB23F221340DBB2180000F073F9652000F0B6F91823FB181B88DBB21F221340DBB21800A6
:400BC00000F066F9902000F0A9F91C23FB181B78002B03D0B02000F05BF902E0902000F057F980219020FFF773FEC046BD4602B0B0BDC04680B582B000AF0200FB1D1A70FB
:400C0000FB1D1B78002B04D00121C72000F016F903E00021C72000F011F9C046BD4602B080BDC04680B582B000AF0200FB1D1A70FB1D1B7819008B2000F000F9C046BD4604
:400C400002B080BD80B582B000AF0200FB1D1A70BB1D0A1C1A70FB1D1B78002B0FD0BB1D1B785BB20F2213405BB28022524213435BB2DBB219008A2000F0E0F808E0BB1D14
:400C80001B780F221340DBB219008A2000F0D6F8C046BD4602B080BD80B584B000AF0200FB1D1A700F23FB1802221A701E4B1B78012B03D10F23FB1804221A70FB1D1B78CC
:400CC000002B1BD00F23FB181B78482252421343DBB21900702000F0B1F80421712000F0ADF8F02000F0C2F803001A0004231343DBB21900F02000F0A1F810E0F02000F015
:400D0000B5F803001A0004239A431300DBB21900F02000F093F80021702000F08FF8C046BD4604B080BDC0465B28002080B500AFF12000F09BF803001A000423134001D0F6
:400D4000012300E000231800BD4680BD90B585B000AF78603960722000F088F803001A000E23FB181A80732000F080F803001A000C23FB181A800B23FC18742000F076F835
:400D8000030023700E23FB180E22BA18128892001A800C23FB180C22BA18128892001A800B23FB181B781BB2032213401AB20E23FB1800215B5E13431AB20E23FB181A8086
:400DC0000B23FB181B789B08DBB21BB2032213401AB20C23FB1800215B5E13431AB20C23FB181A807B680E22BA1812881A803B680C22BA1812881A800421F12000F01EF898
:400E000001231800BD4605B090BDC04680B582B000AF0200FB1D1A70FB1D1B78002B04D08021012000F00AF803E00021012000F005F8C046BD4602B080BDC04680B582B0DC
:400E400000AF0200FB1D1A70BB1D0A1C1A70FB1D1B78180000F062F8BB1D1B78180000F017F8C046BD4602B080BDC04680B582B000AF0200FB1D1A70FB1D1B78180000F09D
:400E80004DF800F01DF803001800BD4602B080BD80B582B000AF0200FB1D1A70012000F059FF002001F058F9FB1D1B78180001F053F9012000F04EFFC046BD4602B080BD00
:400EC00080B582B000AFFB1D00221A70BB1D00221A70012000F03EFF0F4B802292001A60402001F039F9002001F036F9C0460A4B1A6880239B001340F9D001F01DF902003B
:400F0000FB1D1A70012000F025FFFB1D1B781800BD4602B080BDC046000F244080B582B000AF0200FB1D1A70012000F013FF802001F012F9FB1D1B78180001F00DF9012058
:400F400000F008FFC046BD4602B080BD80B582B000AF786039603A687B680021180002F063FAC046BD4602B080BDC04680B500AF054B03221A60054B03221A60044B0022BD
:400F80001A60C046BD4680BD3000304030003140000E3F4080B500AF02F002FA03001B680C2B00D1FEE7FEE780B586B000AF224B7B61224B3B61204B7B6135E03B691B688A
:400FC000FB603B695B68BB603B699B683B6000237B600CE0FB681A68BB681A60BB680433BB60FB680433FB607B6804337B607A683B689A42EED13B69DB683B6000237B6067
:4010000008E0BB6800221A60BB680433BB607B6804337B607A683B689A42F2D13B6910333B617B69013B7B617B69002BC6D102F0BDF9FFF72FF9FEE7010000001C5001003D
:4010400080B582B000AF154B144A126801218A431A6000237B600FE07B68032B04D8104B7A689200D35800E00E4B0F4A796889008B507B6801337B607B682F2BECD9FFF724
:4010800043F80A4B00221A60044B044A126801210A431A60C046BD4602B080BD0000104000000000950F000000000020C000002080B500AF1D4B00221A701D4B00221A700C
:4010C0001C4B00221A701C4B5A881C4B1A801A4B9A881A4B5A80184B9A79184B1A73164BDA79164B1A71154B0622DA81134B28221A82124B00225A82104BFA2292009A8220
:401100000E4B0022DA820D4B012252421A830C4B1E221A8000F01AF80A4B00221A700A4B00221A70C046BD4680BDC046932800208C28002092280020AC0B00206C28002097
:4011400086280020602800206828002080B500AF00F008FCC046BD4680BDC046B0B594B004AF78603E23FB1800221A802823FA183D4B1000190014231A0002F04CF93B4BA5
:401180001B78002B04D1FFF793FF384B01221A707B68002B5CD0364B7A681A603E23FB181B88002B29D11023FB181C22BA185A601023FB182022BA181A601023FB18002245
:4011C0001A812023FB181B221A802023FB181B225A802023FB1804221A711C23FB1808221A703E23FC180E23FA181023FB181100180002F031FA030023803E23FB181B88AC
:40120000002B29D13E23FC182823FD18AE231A0118491948194B0293194B0193052300932B0002F06FF9030023803E23FB181B88002B11D1134B01221A703E23FC18124B2E
:401240000A22112118000EF089FE0300238003E03E23FB1801221A803E23FB181B881800BD4610B0B0BDC046B44D0100FD0F002064280020C8000020991500007902000069
:40128000005901008A280020F04D010090B585B000AF0200FB1D1A70FB1D1B78022B04D90E23FB1801221A8035E0FB1D1B78002B09D11C4B1E221A811A4B30225A80194B45
:4012C00030229A800EE0FB1D1B78012B0AD1154B96221A81134B802212015A80114BE122D2009A80104BFA1D12781A700E23FC180C4B18000CF02EFF030023800E23FB18AA
:401300001B88002B07D1094B1B78DBB204221343DAB2064B1A700E23FB181B881800BD4605B090BDAC0B0020922800209328002090B583B000AF104B1B78042B04D0BB1D30
:401340000422FF321A8011E0BC1D0CF0F5FE030023800A4B1B88002B01D009F021FFBB1D1B88002B02D1044B05221A70BB1D1B881800BD4603B090BD8A2800208628002061
:4013800080B582B000AF78607B681B789AB27B6801331B789BB21B029BB213439BB21800BD4602B080BDC04690B585B000AF78600F23FB1800221A707B689B890D2293426C
:4013C00032D17B68181D7A680F23FC18402300210EF0DCFD030023700F23FB181B78002B1AD17B685B681800FFF7CAFF03001A00022313409BB2002B07D00F4B1B687968AC
:40140000822252001000984706E00B4B1B6879680622FF3210009847084B1B78DBB201229343DAB2054B1A700F23FB181B781800BD4605B090BDC04664280020932800208B
:4014400090B585B000AF78600F23FC187B681800FFF7AAFF03002370154B1B78DBB21A00012313401FD10F23FB181B78002B16D00823FB1812229A707B689A890823FB184B
:401480001A800823FB180F22BA181278DA700823FA187B68110018680DF0E2FE03E07B6818680DF05FFFC046BD4605B090BDC0469328002080B582B000AF7860C046BD466B
:4014C00002B080BD80B500AF044B00225A70034B00221A70C046BD4680BDC0469028002080B582B000AF78607B681B78042B05D1044B1B78042B01D1FFF71AFFC046BD465C
:4015000002B080BD8A28002080B500AFC046BD4680BDC04680B584B000AF78600E23FB1800221A707B689B79002B1CD10F23FB1800221A7012E00F23FB181B787A68D35CFF
:40154000002B04D00E23FB1801221A700BE00F23FB181A780F23FB1801321A700F23FB181B78052BE7D90E23FB181B781800BD4604B080BD80B582B000AF0200BB1D1A8082
:40158000C046BD4602B080BD80B582B000AF7860C046BD4602B080BD80B586B000AF02003960FB1D1A70CA4B1B78DBB201221343DAB2C74B1A70FB1D1B78412B00D137E120
:4015C00023DC212B00D1B0E00DDC022B00D182E002DC012B3BD0A6E1052B00D180E0062B00D182E09FE1282B00D1CDE006DC242B00D1B1E0272B00D1B8E094E12A2B00D15B
:40160000AFE02B2B00D1C3E08DE14F2B00D17DE10BDC432B00D12BE100DA26E14C2B00D143E14E2B00D173E17DE1572B00D171E106DC502B00D16FE1542B00D13AE172E1DE
:40164000712B00D1EEE0FA2B00D138E16BE10C23FB1808221A700C23FB1800225A700C23FB18180003F0E4FE0C23FB1808221A700C23FB1801225A700C23FB18180003F00F
:40168000D7FE0923002B01D001F002FF914B1B681800FFF73FFF031E05D08E4B1B68180001F002FF03E08C4B180001F0FDFE00200CF03CFC0823FB183F221A700823FB18BB
:4016C00000225A700823FB1818000CF04DFC834B05221A7027E13B681800FFF701FF22E13B681A787E4B1A701DE13B683B613B691B78002B00D011E13B695B78002B0BD1C1
:40170000784B0022DA80774B00229A80754B764A1A603B69734A5A606D4B1B78DBB201229343DAB26A4B1A70F8E0694B1B78DBB21A002023134000D0F2E06C4B1B78102B38
:4017400002D16A4B0522DA70694B1B78674A110018000CF025FAE3E03B685A78654B1A70E1E03B681800FFF70FFFDCE03B681800FFF70AFF604B1B88002B01D009F010FD7C
:40178000564B02221A70CEE0544B05221A70CAE0524B1B78022B00D1C4E04D4B1B78DBB21A000123134000D1BCE0494B1B78DBB21A00042313400BD0484B03221A70444BB6
:4017C0001B78DBB204229343DAB2414B1A70A9E03F4B1B78DBB21A00082313400BD03F4B05221A703A4B1B78DBB208229343DAB2374B1A7096E0394B1B78032B00D091E011
:40180000364B05221A703D4B1B78002B00D089E00120FFF73BFD031E00D083E02F4B03221A707FE03B681B881800FFF7A3FE7AE02F4A3B681000190002231A0001F0EBFD20
:40184000274B00221A702A4B1B783D33FF335A002B4BD31801332B4A1000190002231A0001F0D9FDFFF750FE5DE0FFF72BFE5AE03B685B88162B05D81623FB183A685288C7
:401880001A8003E01623FB1817221A801623FB1819883B681A8800231204120C1B0C1B04134318000DF0E6FC3DE03B681800FFF7C7FD38E03B681800FFF7FCFD33E0124BAC
:4018C0001B7801221343DAB20F4B1A702BE0C04693280020C00B0020B80B00208A2800208C28002000100020A80B0020380C00209028002068280020862800209228002075
:40190000005901008828002060280020C0460AE0C04608E0C04606E0C04604E0C04602E0C04600E0C0460D4B1B78DBB21A00112313400ED0094B1B78DBB201229343DAB25D
:40194000064B1A70064B1B68FA1D1278396810009847C046BD4606B080BDC046932800206428002080B500AFC046BD4680BDC04690B585B000AF78600C23FC1800F039FD64
:40198000030023707B68022B00D8B3E07B68302B00D9AFE05E4B1B78DBB21A007B689A420AD35C4A0F23FB1812781A705A4A0E23FB1812781A703FE0584B1B78DBB21A00FA
:4019C0007B689A420AD3564A0F23FB1812781A70544A0E23FB1812781A702DE0524B1B78DBB21A007B689A420AD3504A0F23FB1812781A704E4A0E23FB1812781A701BE0FE
:401A00004C4B1B78DBB21A007B689A420AD34A4A0F23FB1812781A70484A0E23FB1812781A7009E0464A0F23FB1812781A70454A0E23FB1812781A707B68DA1E0B23FB188D
:401A400041498A5C1A700B23FB181B782F2B0DD97B682A2B0AD93D4B19221A60052000F0BFFC0D23FB1819221A7007E0374B1B68DAB20D23FB183F210A401A700B23FA18F9
:401A80000D23FB1812781B789A4208D22F4B7A68033A2D498A5C1A60052000F0A1FC7B68284A9A180A23FB1812781A70284B0A22BA1812781A60274B0F22BA1812781A60A6
:401AC000254B0E22BA1812781A60052000F068F90B23FA180D23FB1812781B789A420CD91A4B7A68033A18498A5C1A60052000F077FC02E0002000F021F90C23FB181B78EB
:401B0000180000F07AFCC046BD4605B090BDC04640F3FF0F41F3FF0F42F3FF0F43F3FF0F44F3FF0F45F3FF0F46F3FF0F47F3FF0F48F3FF0F49F3FF0F4AF3FF0F4BF3FF0FC8
:401B40004CF3FF0F4DF3FF0F444F01002CFF0B4028FF0B401CFF0B4020FF0B4080B584B000AF78600023FB60154B154A126801210A431A60134B144A1A60144B134A126882
:401B8000802109020A431A607B68002B12D01023FB600CE0012000F003F900F019F8031E02D00023FB6005E07B68013B7B607B68002BEFD1FB681800BD4604B080BDC046A7
:401BC00060F02E4078002E400220000010002E4080B582B000AF054B1B68012213407B607B681800BD4602B080BDC0460C002E4080B584B000AF02003960FB1D1A70802302
:401C00009B05FB60FB1D1B781F2B02D9002000F095F8FB1D1B7810339B00FA68D3181B68BB60FB1D1B7810339B00FA68D3183A681A60BB681800BD4604B080BD90B587B02B
:401C400000AF0200FB1D1A70BB1D0A1C1A70BB1D1B78032B02D9002000F070F8FB1D1B781F2B02D9002000F069F8FB1D1B7803221340DB0006337B611323FC1800F0B9FB5B
:401C800003002370FB1D1B789B08DBB29B00144A944663441B68FB6003227B699A401300DA43FB681340FB60BB1D1A787B699A401300FA681343FB60FB1D1B789B08DBB20E
:401CC0009B00074A94466344FA681A601323FB181B78180000F091FBC046BD4607B090BD00E400E080B582B000AF0200FB1D1A70064BFA1D12781F210A40012191400A0027
:401D00001A60C046BD4602B080BDC04600E100E080B582B000AF0200FB1D1A70064BFA1D12781F210A40012191400A001A60C046BD4602B080BDC04680E100E080B582B017
:401D400000AF0200FB1D1A7001BEC046BD4602B080BDC04680B582B000AF786009E00D4B1B68180000F03CFB7B680B4A944663447B607A6880231B029A42F0D8074B1B68B3
:401D80007A685343180000F02BFBC046BD4602B080BDC0464C0C00200080FFFF440C002080B582B000AF0200BB1D1A80BB1D1B88044A12785343180000F012FBC046BD4688
:401DC00002B080BD480C002080B500AF0F4B0F4A126801218A431A600C4B0C4A126802218A431A600A4B0A4A126830218A4310210A431A60064B064A126807218A4301210A
:401E00000A431A60C046BD4680BDC04600F02E4000FF2E4080B500AF0F4B0F4A126802218A431A600D4B0D4A126807218A4302210A431A60094B094A126830218A432021C1
:401E40000A431A60044B044A126801210A431A60C046BD4680BDC04600F02E4000FF2E4080B500AFFFF7B0FF044B044A1268802109060A431A60C046BD4680BD00F02E40C9
:401E800080B584B000AF78600C4B1B6801221340FB607B68002B02D0012B03D005E0FFF793FF06E0FFF7B6FF03E00020FFF746FFC046FB681800BD4604B080BD00F02E4099
:401EC00090B583B000AFFC1D00F093FA03002370074B074A1268C02109020A431A60FB1D1B78180000F089FAC046BD4603B090BD00010B4080B500AF054B1A68C0231B027E
:401F0000134001D0012300E000231800BD4680BD00010B4090B583B000AFFC1D00F069FA030023700D4B0D4A12680D490A408021C9010A431A60094B084A126808490A40D3
:401F4000802109020A431A60FB1D1B78180000F054FAC046BD4603B090BDC04600010B40FF3FFFFF90B585B000AF78600B23FC1800F03FFA03002370FFF7BCFF031E04D0AE
:401F80000123FB60FFF7C6FF01E00023FB607B680D4A13407B600D4B0C4A12680C4911407A680A431A60094B1B68FB68012B01D1FFF786FF0B23FB181B78180000F01DFA03
:401FC000C046BD4605B090BD0404040010020B40FBFBFBFF80B500AF344B1B68042213401FD0334B1B680422134017D0314B1B6804221340DA432E4B1B681A402C4B1A60F2
:402000002C4B1B68042293431A002A4B1A602A4B1B68002B02D0284B1B6898470420FFF7A1FF224B1A688023DB00134022D0204B1A688023DB00134017D01E4B1A68802338
:40204000DB001340DA431A4B1B681A40184B1A60184B1B68194A1A40164B1A60164B5B68002B02D0144B5B6898478023DB001800FFF778FF0D4B1A688023DB02134011D0C5
:402080000B4B1A688023DB02134006D00A4B9B68002B02D0084B9B6898478023DB021800FFF760FFC046BD4680BDC04610020B40580C00201010002014100020FFFBFFFF7F
:4020C00080B500AF00F05EF8C046BD4680BDC04680B500AF064B064A1268802109060A431A6000F019F800F01FF8C046BD4680BD0000244080B500AF064B1B78002B04D17A
:40210000FFF7DEFF034B01221A70FFF7E1FFC046BD4680BD3010002080B500AF0920FFF7E1FDC046BD4680BD80B500AF00F08AF8C046BD4680BDC04680B582B000AF002353
:402140007B60044B1B687B607B681800BD4602B080BDC0464003244080B582B000AF7860C046064B1B681F221340082BF9D0044B7A681A60C046BD4602B080BD08022440D4
:402180004002244080B500AF1D4B1E4A1A601E4B1E4A1A601E4B1F4A1A601F4B07221A601E4B1C4A1A601E4B00221A600920FFF7AFFD03210920FFF741FD1A4B1900092066
:4021C000FFF716FD184B00221A60184B00221A60174B00221A60174B00221A60164B00221A60164B00221A60144B1B689AB2144B1A80002000F044F8C046BD4680BDC04623
:40220000000024400F000001200024400D0000800003244007010080040324400002244004022440BD220000880E2440C80E2440480F2440080F2440C80F2440880F244070
:402240003210002080B500AF0A4B0A4A1268F02109060A431A60074B064A1268F02109050A431A60044B054A12881A60C046BD4680BDC04600010240880F2440321000206E
:4022800080B584B000AF78600A4B1B68FB60FB68094A1340FB607B689A06C0231B051340FA681343FB60034BFA681A60C046BD4604B080BD20002440FFFFFFF380B500AF2F
:4022C000044B1B68002B02D0024B1B689847C046BD4680BD3410002080B584B000AF0200FB1D1A700F4B1B68DAB20F23FB1840218A431A70FB1D1B789B01DBB2402213400B
:40230000D9B20F23FB180F22BA1812780A431A70044B0F22BA1812781A60C046BD4604B080BDC0460001044080B584B000AF0200FB1D1A700F4B1B68DAB20F23FB18102133
:402340008A431A70FB1D1B781B01DBB210221340D9B20F23FB180F22BA1812780A431A70044B0F22BA1812781A60C046BD4604B080BDC0460001044080B584B000AF020044
:40238000FB1D1A700E4B1B68DAB20F23FB1801218A431A70FB1D1B7801221340D9B20F23FB180F22BA1812780A431A70044B0F22BA1812781A60C046BD4604B080BDC046AA
:4023C0000002044080B500AF044B1B68DBB201221340DBB21800BD4680BDC046040204400230800803D00138FDD1C046C046C0467047EFF3108072B6704780F31088704739
:4024000080B582B000AF78600A00BB1C1A80BB1C1A887B681A60C046BD4602B080BDC04680B582B000AF78600A00BB1C1A80BB1C1A887B681A60C046BD4602B080BDC04622
:4024400080B584B000AF494B1B78DBB21B02484A1278D2B21343FB60464B1B78DBB21B02454A1278D2B21343BB60BB68434A934207D1FB68072B04D1414BBB600423FB6056
:4024800009E0BA68D4231B019A4204D1FB68042B01D13B4BBB603B4BBA681A603A4BFA681A603A4B1B78DBB21B02394A1278D2B21343FB60FA6880239B019A4202D0FB680F
:4024C000002B01D1334BFB60334BFA681A60334B1B78DBB21B02324A1278D2B21343FB60FB68304A934206D0FB682F4A934202D0FB68052B01D12D4BFB602D4BFA681A601F
:402500002C4B1B681B097B602B4B1B68AA2B29D17B68012B26D9214B1B78DBB20E2B21D1264B1B78DBB29BB21B0299B2244B1B78DBB29AB2BB1C0A431A80224BBA1C128859
:402540001A60214B1B78DBB29BB21B0299B21F4B1B78DBB29AB23B000A431A801C4B3A0012881A60C046BD4604B080BD59F1FF0F58F1FF0F5FF1FF0F5EF1FF0F580B00002C
:40258000580D00006C002E4074002E405BF1FF0F5AF1FF0F0220000078002E405DF1FF0F5CF1FF0F0F0F000005050000050F000080002E40EC0F00F0E00F00F06DF2FF0F27
:4025C0006CF2FF0F84002E406FF2FF0F6EF2FF0F94002E4080B582B000AF0200BB1D1A80BB1D1B881800FFF7DBFBC046BD4602B080BDC04680B582B000AF78607B681800CE
:40260000FFF7A8FBC046BD4602B080BD80B500AF00F0ECF8C046BD4680BDC04680B500AF00F0F0F8C046BD4680BDC04680B500AF00F0E8F8044B180000F0A2F8032000F045
:40264000ADF8C046BD4680BD5128000080B500AF034B180000F080F8C046BD4680BDC0465128000080B500AF014B1800BD4680BD0202000080B582B000AF78602B2318009F
:40268000BD4602B080BDC04680B582B000AF78602B231800BD4602B080BDC04680B582B000AF78602B231800BD4602B080BDC04680B582B000AF78602B231800BD4602B081
:4026C00080BDC04680B582B000AF78602B231800BD4602B080BDC04680B582B000AF78602B231800BD4602B080BDC04680B582B000AF78602B231800BD4602B080BDC046B3
:4027000080B582B000AF78602B231800BD4602B080BDC04680B500AF2B231800BD4680BD80B582B000AF0200FB1D1A702B231800BD4602B080BDC04680B582B000AF7860BD
:4027400039602B231800BD4602B080BD80B500AFC046BD4680BDC04680B582B000AF786000F050F87B68180000F00AF8032000F015F800F03BF8C046BD4602B080BDC046E4
:4027800080B582B000AF7860034B7A681A67C046BD4602B080BDC0460000002090B585B000AF0200FB1D1A700623FB600B23FC18FFF71FFE030023700B4B0B4A1268C0211A
:4027C0008A431100FA1D1078FA68904002000A431A600B23FB181B781800FFF70EFEC046BD4605B090BDC0460CE400E080B500AF034B802252011A60C046BD4680BDC046A5
:4028000000E100E080B500AF034B802252011A60C046BD4680BDC04680E100E090B583B000AFFC1DFFF7E5FD03002370074B074A126804218A431A6030BFFB1D1B781800C0
:40284000FFF7DBFDC046BD4603B090BD10ED00E080B500AF12F076FAC046BD4680BDC046002243088B4274D303098B425FD3030A8B4244D3030B8B4228D3030C8B420DD3F3
:40288000FF22090212BA030C8B4202D31212090265D0030B8B4219D300E0090AC30B8B4201D3CB03C01A5241830B8B4201D38B03C01A5241430B8B4201D34B03C01A5241D3
:4028C000030B8B4201D30B03C01A5241C30A8B4201D3CB02C01A5241830A8B4201D38B02C01A5241430A8B4201D34B02C01A5241030A8B4201D30B02C01A5241CDD2C309A3
:402900008B4201D3CB01C01A524183098B4201D38B01C01A524143098B4201D34B01C01A524103098B4201D30B01C01A5241C3088B4201D3CB00C01A524183088B4201D3FB
:402940008B00C01A524143088B4201D34B00C01A5241411A00D20146524110467047FFE701B5002000F0F0F802BDC0460029F7D076E7704703460B437FD4002243088B4226
:4029800074D303098B425FD3030A8B4244D3030B8B4228D3030C8B420DD3FF22090212BA030C8B4202D31212090265D0030B8B4219D300E0090AC30B8B4201D3CB03C01A64
:4029C0005241830B8B4201D38B03C01A5241430B8B4201D34B03C01A5241030B8B4201D30B03C01A5241C30A8B4201D3CB02C01A5241830A8B4201D38B02C01A5241430A29
:402A00008B4201D34B02C01A5241030A8B4201D30B02C01A5241CDD2C3098B4201D3CB01C01A524183098B4201D38B01C01A524143098B4201D34B01C01A524103098B4229
:402A400001D30B01C01A5241C3088B4201D3CB00C01A524183088B4201D38B00C01A524143088B4201D34B00C01A5241411A00D201465241104670475DE0CA0F00D0494218
:402A8000031000D34042534000229C4603098B422DD3030A8B4212D3FC22890112BA030A8B420CD3890192118B4208D3890192118B4204D389013AD0921100E08909C30937
:402AC0008B4201D3CB01C01A524183098B4201D38B01C01A524143098B4201D34B01C01A524103098B4201D30B01C01A5241C3088B4201D3CB00C01A524183088B4201D33A
:402B00008B00C01A5241D9D243088B4201D34B00C01A5241411A00D20146634652415B10104601D34042002B00D54942704763465B1000D3404201B5002000F005F802BD5A
:402B40000029F8D016E770477047C0469E2110B5C905041C00F04CFB002803D1201C00F0ADFA10BD9E21201CC90500F021F900F0A5FA80231B069C466044F2E7F0B55646E8
:402B800044465F464D46F0B444024600C70F83B08846650A360EBA463DD0FF2E22D00023EC00802599469B46ED0425437F3E43465C025800DB0F640A000E984636D0FF2833
:402BC00030D080230021E400DB041C437F38301A0190484642460843724E800030587A4013008746002D44D108239946063B9B46DDE70122FF2000241A406402C305640A0C
:402C0000D2071C431443200003B03CBC90469946A246AB46F0BD002D20D104239946033B9B46C4E7002C17D1022102E0002C0AD10121321A01924A4643460A435A48920056
:402C400082587B409746200000F0DCFA431F76309C4040420021BAE70321B8E7280000F0D1FA431F9D4000237630464299469B469DE70C239946093B9B4698E780240022E2
:402C8000E403FF20B9E70024C2468B465A465346022AAED0032A7DD0012A31D1012200201A400024A9E70122101A1B2856DD1A4000200024A1E78023DB031D424BD180230E
:402CC000DB032B435C02640A3A00FF2095E76D016001854230D2019A0024013A01921B220127290064006D00002901DBA84201D82D1A3C43013A002AF3D16A1E95412C43DF
:402D000001987F300028CEDD620704D00F222240042A00D00434220103D5244A019814408030FE2800DD64E70122A401640AC0B21A4062E72C00A9E72D1A1A220124CFE7B9
:402D40006B02BCD500248023DB031C436402640A4246FF2051E71C42B3D1F4E721002022C140101A8440621E94410C43620704D00F222240042A00D00434620104D5012286
:402D800001201A40002438E70122A401640A1A40002032E78023DB031C436402640A5246FF202AE7744F0100B44F0100FFFFFFF7F8B54A024E0043024400240EC50F9B09DA
:402DC000360EC90F9209FF2E00D183E001204140A01BA9425CD0002800DC95E0002E1CD1002A00D081E05A0704D00F221A40042A00D004335A013BD50134FF2C00D191E056
:402E000001209B015B0AE4B205405B02E4055B0AED0723432B431800F8BDFF2CE3D08021C9040A431B2800DD90E016002021C640081A8240511E8A4132439B1A5A0115D542
:402E40009B019E09300000F0DDF90538864084426CDC041B330020200134E340041BA640721E964100243343BDE70D005A07BCD1DF0801231D40FF2C33D1002F00D190E072
:402E80008022D20313003B435B025B0AFF24BCE700284FDD002E2ED0FF2CA4D08025ED042A431B2800DD97E016002025C640281A8240501E824132439B185A01D5D50134D1
:402EC000FF2C6DD001227B481A405B08034013430D0088E7002A00D07AE777E7031EC5D100257B025B0AE4B28FE701380028A4D0FF2C97D177E7002A00D174E701380028B2
:402F0000DAD0FF2CCDD16EE7002821D1601CC0B2012858DD80279E1AFF0437402FD0D61A0D008FE701231D4000236EE7624B241A334058E7002851D1601CC6B2012E33DD05
:402F4000FF282DD09B185B0804004CE7012274E7002C1AD0FF2E1FD08024E404404223431B2800DD96E01D002024C540201A8340581E83412B43D31A34000D005EE7002E7A
:402F800000D05FE700250024ABE7002B44D0C0430028F0D0FF2EE3D11300FF240D0022E70D00FF24002330E7002C5DD1002B7DD0002A00D117E79B185A0100D456E73E4AED
:402FC000040013400FE7002C1ED1002B2FD1002A65D013000D0006E701226DE7002C1FD1002B59D0C04300280BD0FF2E4FD01B285EDC1D002024C540201A8340581E83417F
:403000002B439B18340058E7002B1CD1002A49D013000D00FF24E6E6130034000D00E2E6FF2E34D08024E40440422343DFE7002A00D1D8E68027981AFF04074000D14DE7AA
:40304000D31A0D00CFE6FF24002A00D1CBE68020DB08C003034204D0D208024201D113000D00DB00FF24BEE6002B10D0FF24002A00D1B8E68020DB08C003034203D0D208C2
:40308000024200D11300DB000D00FF24ABE61300FF24A8E601236EE713003400A3E6002700251EE780270025FF03E9E613009AE60123A6E7FFFFFF7DFFFFFFFB4302590AF3
:4030C0004300C20F1B0E00207E2B0EDD9D2B0DDC802000040143952B0BDC9620C31AD9400B005842002A00D118007047034BD018FBE7963B99400B00F3E7C046FFFFFF7F5B
:4031000070B5002830D0C317C5185D40C40F280000F078F89E231B1A962B0DDC9622D21A95406A02520AD8B25202C005520AE40702432243100070BD992B19DC9922D21A81
:403140009540124A2A40690704D00F210D40042D00D00432510103D50C4B1A409F231B1A9201520AD8B2DFE7002400200022DBE705222E00121AB921D6402A00C91A8A403B
:40318000551EAA4135001543DBE7C046FFFFFFFB8446081C6146FFE71FB500F0BDF8002801D40021C8421FBD10B500F049F84042013010BD10B500F0AFF8002801DB002076
:4031C00010BD012010BDC04610B500F0A5F8002801DD002010BD012010BDC04610B500F057F8002801DC002010BD012010BDC04610B500F04DF8002801DA002010BD0120E0
:4032000010BDC0461C2101231B04984201D3000C10391B0A984201D3000A08391B09984201D30009043902A2105C40187047C04604030202010101010000000000000000CE
:40324000430270B542004C005D0AC30F4802120E460A240EC90FFF2A0FD0FF2C11D00120A24200D070BDB542FCD18B420DD0002AF8D12800431E9841F4E70120002DF1D195
:40328000EBE70120002EEDD1E9E70020EAE7C0464302F0B542005D0AC30F4802440A4800120E000EC90FFF2A1FD0FF2822D0002A09D16E426E4100280FD1002C0DD1002057
:4032C000002D09D005E0002801D1002C01D08B4213D0584201231843F0BD002EF7D048424141012049420843F6E7002DDDD002204042F1E7002CDAD0F9E78242E9DC04DB2D
:40330000A542E6D80020A542E6D25842434101205B421843E0E7C0464302F0B542004C005E0AC30F4802120E450A240EC90FFF2A17D0FF2C19D0002A0BD170427041002CF7
:4033400017D0002807D048424141012049420843F0BD002C13D08B4214D0584201231843F6E70220002EF3D1E3E70220002DEFD1E1E7002DE5D10020002EE9D0EDE7002D61
:40338000E9D1EAE7A242E8DC04DBAE42E5D80020AE42DDD25842434101205B421843D7E7014B18687047C046D80F00200E4B70B500251E000D4CE41AA410A54204D0AB00D8
:4033C000F35898470135F8E711F016FE084B00251E00084CE41AA410A54204D0AB00F35898470135F8E770BD0450010004500100045001000C50010030B50024A24208D0EA
:40340000035D651C0C5DA34201D0181B02E02C00F4E7002030BD002310B59A4203D0CC5CC4540133F9E710BD03008218934202D019700133FAE77047134A1088810703D0C2
:403440008107890F401A001D11791030484381B25088820703D08207920F801A001D800040180A494030098980B2CA0701D0503080B2890706D504495422091F09785143FA
:40348000081880B270470000620C00204410002010B501F0EDFE10BD10B501F0EFFE10BD10B500F055FA10BD10B50749044609780220002907D1204601F030FF002802D1CE
:4034C00020460AF01FFE10BDF20D002070B504460120002C12D02368002B0FD0616800290CD0074D06222889208118462968FFF792FF6968606809780170002070BD000046
:4035000044100020FFB585B0002768460E9D07734F481C460078002802D0082009B0F0BD10990F9801900095029105A807C800F001F90028F2D16946264603AB84460873D3
:40354000002C19D0002115E08A00B75A082F09D990198078002805D0083FB7521878401C187005E0002914D00027B75290198770491CC9B2A942E7D360460028CED10F98AF
:40358000002809D0109901F023FA002804D00120C4E701208446EFE701F070FE2D480021416081600599016021888180022D07D3A1798171A17AC171A1890181218A41812F
:4035C00000211EE0481C19E082008B00A75AE65ABE46BE4211D26F463E80B4461E190296B678BE7001967646E6521719029EBB78B3706646A652019EBE70401CA842E3D364
:40360000491CA942DED3134822460C3000906846037B0799069800F015F90028B8D168460B4C007B60700B480C3001F057FE0028AED1084907480C3107F068FD0028A7D13C
:4036400007F082FD0028A3D10121217066E700005C0C002038100020F8B5054633480E460078002802D002242046F8BD002E5BD000242F49002D16D02A89D0070DD02868CF
:40368000002808D003881B3BE12B04D24088FB2801D81B2801D2012409E0900707D56868002804D1F7E70020088108604860002CDAD11F482F8907811C481B21801D01804C
:4036C00041800421017119490020891C0870F80705D016480622801D2968FFF79CFE1449B80703D56A681148127882700F480D46801D0860001F486001F036FE0B48801D95
:4037000001F024FE28890DF02DFD28890DF062FE03461033FFF790FE1F21C018890140180249308088809FE701249DE75C0C002044100020FFB58446384F1C460020BB888E
:403740003F78054602460646002F11D100290ED0029999420BD36146002908D0002C06D00A99002906D02E4B0B99994202D2012004B0F0BD002144E0AB001F19BF78002F1F
:403780003BD0E35A002B38D07B43591889B22B0000F04AF8050410161C253100A7782388BC46FF27233BEB37BB4222D26346032B1FD322E0A388002B1FD0302B19D31CE070
:4037C0002389002B19D0282B13D316E0A289002A13D01346134F233BBB420AD20DE0268A002A0AD033460F4F233BBB4201D2964203D901200EE0002001E000280AD16D1CBA
:40380000EDB2099B9D42B7D31C2463435B1802998B42ACD89642AAD8AAE700005C0C002079020000BAFF000030B47446641E2578641CAB4200D21D46635D5B00E31830BC8F
:4038400018470000FFB583B0002469460C801F4606468C80002806D00598002803D004983043800701D0012466E0002FFBD03449049809888842F6D3FEF7E8FEFEF7CEFEAB
:4038800000F012FC002855D100F062FD002851D12C49084601F0D0F805042D0C4AD12A480499066081800021C18007810C98007AC00704D0684601F0FAFC040007D10C981C
:4038C000007A800703D501A801F0FAFC0446BF1DFEB2002C20D13146059800F05DF804001AD10DF085FD040016D16A461088928808368518144AF1B29088D288AEB29319FE
:40390000984207D3401B801A80B201F085FB050007D000E0FF25012400F05EFA002D04D008E0F8B200F01CF9F6E700F081FA07490120087000F0CAFB204607B0F0BD0000A6
:40394000600C0020853A000050100020680C002010B503480078012801D101F0FFF910BD680C002070B5084B0446DA889E8800205518B54206D81D68AA182260DA885118DB
:40398000D98070BD032070BD50100020014800897047000050100020F0B587B007460D4600208900009006916846FFF7DBFF844600285DD1304800990160002117E02E4BBB
:4039C00088001A680629115406D22C4C0419667882185670628805E0C419203CA67A8218567022891B68C018491C4280C9B2A942E5D300242DE0601CC2B2059025E01E4F83
:403A0000A30039689600581840887118039604904E88B04217D938466F46FE80B6464F786E4677710297049F4F800168039F5E18767879184E700168764659184E80006861
:403A4000029F18184770521CD2B2AA42D7D30598C4B2AC42CFD36046002809D168460699FFF780FF8446002802D1054900980860604607B0F0BD00006C0C002030500100F3
:403A8000700C00207047000010B5002809D005494A68002A05D0011F08788000105801F069FA10BD6C0C002010B50446FFF76EFFC0B2801DA0420CD307484068002808D074
:403AC000A100405801F0C8F9002801D00470001D10BD002010BD00006C0C0020F8B516460D460446FFF752FFC0B2801DA04203D20020C0430090F8BDB2B2E9B2684601F046
:403B0000D1F90099481C03D0024AA000526811500098F8BD6C0C0020F8B50746FFF736FF801DC6B20A49002005460C680DE06178002907D06188B94202D32078FFF7B4FFD3
:403B4000002804D1241D6D1CEDB2B542EFD3F8BD6C0C002010B5002801D0FFF795FF10BD70B506460948002504680BE06178002905D062882078121D0023FFF7AFFF241DF6
:403B80006D1CEDB2B542F1D370BD00006C0C0020FFB581B00A9F16000C4620D000F0F2F8054604281BD0002F0CD03846FFF7B4FF20492A0151184860002810D03A4604993F
:403BC000FFF729FC1B4928010E504618778101980570200406D47D20C000444304E0FF2005B0F0BD6404640C00F0BAF80746042807D000F04FFAA0420BD800F04BFA201ADD
:403C000003E0204600F0AAFA0020F06035720020E6E700F03FFA009000F0B6FA00980121001B009000F0ECF802493A0151180098C860E6E75C100020F8B5060116483418AB
:403C4000217A042903D0E068002802D017E00020F8BD00F01FFA054600F096FA00F0A0F804280CD001010C480F18F8680021451900F0C6F80020F860284600F06FFA606826
:403C8000054D002801D0FFF765FF042020720020A8516081E060DAE75C100020FEB500266A46304601232549050169180D7A042D02D0C96800291BD000211154401CC0B2E7
:403CC0000428F0D300246846005D002830D01B48210108184189476805680291002101604160042241810272C160002E02D015E01354E3E700F054F804280ED001010F48FB
:403D000008180190C6680021304600F079F801980021C160304600F021FA0126002D07D038460299A847002F02D03846FFF712FF641CE4B2042CC6D3FEBD00005C10002071
:403D40000EB5002005216A460090118150810348694600680EF0B1F90EBD0000740C0020074A0020010189180B7A042B02D0C968002903D0401CC0B20428F3D370470000E4
:403D80005C1000200549002002015218127A042A03D0401CC0B20428F6D370475C10002030B50A4B04200A4C00210A011219157A042D06D0D268002A03D09A4201D808462E
:403DC0001346491CC9B20429EFD330BDFFFF00005C1000207047000030B50020074C05460423020111190B72A5504D60401C4D81C0B2CD600428F4D330BD00005C10002022
:403E000030B5094C00231A011219157A042D04D0D568002906D02D18D5605B1CDBB2042BF1D330BD2D1AF7E75C100020002070471CB5002469460C70142001902346054A8C
:403E400005480EF03FF904480068401C00D1FF2420461CBDAD3E0000740C00203EB5124A0146FF2000230124126800290DD0012914D0042908D104206946009308814B81A5
:403E800010460EF01AF980B23EBD6846009304814381694610460EF00BF9F4E768460093048143816946EBE7740C002070B545890468416800890300FFF7B6FC08280509DD
:403EC000091E22282628002005F0A8FE1EE0022908D0C8B22A4621460CF070FA2046FFF739FE13E002202A4621460CF067FA2946204600F00DF809E000200DF0DDFD05E025
:403F00002046FFF7CBFE01E0FEF720FC002070BD014B0022DB681847780C002070B5448905680089022803D0032809D0FF2070BD2246094C0023A46829460120A04708E0E9
:403F4000FFF7AAFA241DA2B200232946022006F090FF002070BD0000780C002070470000024800214160018041807047780C002070B50C46002186B016460391012802D0CF
:403F8000022859D116E003A9012006F0C7FF01281BD1039D324621462846FFF73CFA0095287801900220694608814E816846FFF7B5FF41E0214D002B686809D0049004A915
:403FC000022006F0ABFF01281DD0022006B070BD002812D0298840182146FFF71CFA28880024801980B228806988091D884206D12C801348FFF792FF03E00320E6E7884234
:404000001AD96C6018E004986860E278A378110219430B4A698000231060E3565360032313815181A1788170E178C1706178417021780170042028800020C7E7780C0020D2
:404040009C1000203EB515460C46022803D004280CD000203EBD0091019002206946088107484A8100680EF028F807E00CF0A6F9044B0022DB6829462046984701203EBD92
:40408000740C0020780C0020014AD16090607047780C0020034801688068081A0A21484300097047A810002010B5FEF7BFFA482204490548FFF7AFF903490120C87000200F
:4040C00010BD00004C500100AC14002010B5FEF79DFA10BD70B5134C2368002B08D0207B1149C20705D04008400020738868A08070BD88680B4AA18880B29268814203D922
:404100000A4D691A091802E0814202D2411A5118A160A080A0689842EAD30DF0EBFF00F013F870BDA8100020C0102E40FFFF000010B508461946FFF7A7FF10BD704710B50D
:40414000FFF780FF10BD000003480021016041608160C16070470000A8100020024610B5FF20002A0CD0FFF7EFFF064C0321207B0843207310010A21FEF7F8FB2060002035
:4041800010BD0000A810002000B504480A21806848430209FFF7D8FF104600BDA81000200248007B8007C00F70470000A810002010B54B490868002802DA4A4B01221A703F
:4041C000022290430860484800694549C00B4031096A0246C907C90F0A4259D0012000F07FFA3F480E216C30FEF71AF93E4820218430FEF715F93C4814219C30FEF710F9E0
:404200003948FF21C131A430FEF70AF93648FF212F31B030FEF704F933483449BC30FEF7FFF831483249AC30FEF7FAF830492E48491CB430FEF7F4F82B482E49B830FEF7E8
:40424000EFF829482C49CC30FEF7EAF826482B490830FEF7E5F824482949A830FEF7E0F8214828498830FEF7DBF81F4826498C30FEF7D6F81C481921C9029030FEF7D0F89A
:40428000FEF7DEF8FEF7EEF9C0B2022812D01FE000290BD0002101420AD0114801216030FEF7BEF80120FEF7A5F997E70121F2E7FF2010BD15491648FEF7B2F814481549B4
:4042C000001DFEF7ADF8124800210830FEF7A8F854200449C043891C0870002010BD000000F02E40880C002000002E40320300002F3F00003102000010520000EC16000037
:40430000FA12000031D000003AE300009956000080012E40F80F000070B50646581C80B245086D00002408E0304600F0A9F81055000A1119A41C4870A4B2AC42F4D3D8078F
:4043400005D0D0182038D15CC47FD454C17770BD10B5FF2000F0C4F90F49FF2048700E481021801D41800121417001700A490020C91C4870FFF71CFF04000AD100F010F949
:4043800007210648FEF73CF8044807211830FEF737F8204610BD0000880C0020CC112E4070B5002405465B1E0AE0284600F068F8010A161971702D1D1055A41CADB2A4B258
:4043C0009C42F2DB9C4203D1284600F059F8105570BD000070B500210A4D5B1E0AE0541864782602545C344346193480001D891C80B289B29942F2DB994202D1515C4019EA
:40440000018070BD00102E40F0B50599091FCFB200217E1E0BE0541864782502545C2C43164D45192C80001D891C80B289B2B142F1DBFC0712D01C78515C24020F4A0C43DF
:4044400081180C809C785D78001D210280B2294384182180001D80B2D9780CE059781A7809021143054A84182180001DD9789B78090280B2194380180180F0BD00102E40DB
:40448000014940180088704700102E4010B50B490020487000F084F8002000F047F9002000F034F907210648FDF7AAFF044807211830FDF7A5FF002010BD00008B0C0020A8
:4044C000CC112E4010B50B46062812D006DC01280CD0032801D1FFF7D9FF10BD0A28FCD00B28FAD105480078107010BDFFF730FF10BD1146184600F035F910BD8E0C002072
:40450000F8B5244DAC6A0127A007234E002816DA307806280ED1286A384328621F480069F903084381B21D481030FDF779FF042000F0D6F8174802212830FDF761FFE00751
:4045400018D000F01DFF01280FD1002000F06AFF062000F0C5F81049FF20C91E48707078002802D1686B384368630A4801212830FDF746FFE0050BD53078042802D1052049
:4045800000F0AEF80348FF2101312830FDF738FFF8BD000040F02E408B0C002000002E4010B503212348FDF73BFF0120FEF712F820483038406A204C80076178800F8900CD
:4045C00001431C480C38FDF72BFF6078002808D0401E022181401820FEF7B2FAC000083800E0B82081B21548FDF71AFF1348032109021438FDF714FF10481149B830FDF7FE
:404600000FFF612189010F48FDF70AFF0D480321001FFDF705FF0C490C48FDF701FF0B480B496038FDF7FCFE084801218838FDF7F7FE10BD70F02E408E0C0020D8102E40EC
:4046400090890000041E2E40FF0F000058122E40209000000849087806280BD148780749002803D1486B400840004863C86A01221043C862704700008B0C002040F02E4050
:4046800001480078704700008B0C002000B50300FFF7CAF8080D050D0B070507090D012000BD032000BD042000BD022000BDFF2000BD0000074A9168D26889B2064B92B252
:4046C000994204D105498A4201D1012100E000210170704780002E4033D000003FE3000010B50446FDF79AFF072C01D9FF2C01D102480470FDF78AFF10BD00008B0C00205B
:404700000149487070470000880C002010B5064A012805D01921C9021046FDF781FE10BD1D21C902F8E7000090002E4010B50A4A141D012808D009491046FDF771FE0849D1
:404740002046FDF76DFE10BD04491046891CFDF767FE0349491DF3E788002E4031D000003AE3000070B50C460546FDF77BFFC0B202280E49287804D0FF2810D04C280CD870
:4047800010E0FF2809D10A4AD0680004800F032801D0087807E09069000A553803E00878207070BD4F382070087070BD8A0C002000002E40F0B50122002834D0002932D0D7
:4047C0000424420600D00524792342065B06D21800D0641C034600221EE00C2516466E43124D00277519AF72104F002ABB51696007D0661EB24209D10D4E86197606760E74
:4048000005E05E06760E8027BE1B00E080269B198919521C2E81D2B2A242DED303480549006B002288611046F0BD00003413002079020000940C002018B500206946087051
:404840000A48006900280ED0132149014018047E684604704F21C900054800F059F8A04201D0012018BD002018BD0000940C0020B8100020074900200C2242435218927A57
:40488000012A05D0401CC0B20628F5D3002070470120704734130020F8B50E000446154609D0194F19497868A04202D94018A04201D38D4201D90120F8BD31462046FEF71F
:4048C0009BFD00281ED02A4631462046FEF7A3FDE8B200210C224A43D21913895568EE18A6420BD90126641B1B1B9672834209DA1469C01A044AC0B220329676491CC9B2BB
:404900000629E7D30020F8BD3413002079020000034610B50020024604E09C5C2018521CC0B292B28A42F8D310BD000070B500F05FF8084C064A216907480D46FEF76BFD2C
:4049400005492846FFF736FFFFF776FF207070BD79020000940C0020B8100020002070470020054A002902D0012902D002E0906000E0D06000207047940C002070B5084CD6
:40498000154608460549E26889182A46FEF743FDE0684019E06028B270BD0000B8100020940C00203EB50A226946FFF7E7FF044606480A2200686946FEF71EFD002802D051
:4049C0000020C0433EBD20463EBD0000980C0020002802D0044A914201D2FF20704703494A6108610020704779020000940C0020024800218160C16070470000940C00205A
:404A000070B5074C15460548A26880182A46FFF743FFA0684019A06028B270BDB8100020940C002010B503490A220968FFF7E8FF10BD0000980C002010B50F4A002313602C
:404A40000E4A13600E4B18600E4801600E49012008600E490860000290600E490C4808600D4914300860FF381538506000F0BCF800F0CAF9002010BDC80C0020B00C0020F5
:404A8000DC0C0020E00C0020CC0C0020BC0C00207C140020C00C0020D40C0020014610B50020002910D0094B1A689C685118A14209D25868196080188A0704D08A07920FC8
:404AC000891A091D196010BD002010BDB00C0020F8B50024164E671E321F3D463168136806E01422624310328A58521C1BD0641C9C42F6D36A1C14D02C46142254432246C6
:404B00000C3288500C214843FFF7C8FF3168002808510AD031680020103408517068401C70602846F8BD2546E4E73846F8BD0000C00C0020F3B50026F64381B000281BDBCE
:404B40001E490968884217D80299002914D01B4F142204463F1D54432546396810354859401C09D0FDF75AFD38682F1F4159C359994203DBFDF74AFD3046FEBD2146083144
:404B80000091465801590C20704308180C220299FEF741FC0948761C001D0068C159B14200D100260549009A091D865008684159491C4151FDF72AFD0020FEBDBC0C002043
:404BC000002803DB07490968884202D90020C043704704491422091D096850431030085870470000BC0C0020F0B500200D4A451E0346171F50600FE0142601467143146835
:404C00000E1DA3510C461668083433511668083435511468401C635039688842ECD30020F0BD0000C00C0020F3B50026F64381B0002841DB2349096888423DD8029900291B
:404C40003AD0204F142204463F1D54432546396810354859401C2FD0FDF7E0FC3868415900292BD0211D009146580C21005971430F46C1190C220298FEF7CDFB11480021F8
:404C8000001D0068761C00590C34C0190160416081600C48001D00680159B14200D100260849009A091D865008684159491E4151FDF7ACFC0020FEBD3046FEBDFDF7A6FC43
:404CC000FAE70000BC0C0020FEB504460D4600201E49089E0860471E009001900290002C11D0486885420ED2002A0CD0002E0AD0642E08D808460C3001681C2068430C180C
:404D0000207A002801D03846FEBD0120226020721846FFF7DDFE6060401C13D06681A6810A4827610C3067610179A94200D205710021684601810A462846029B00F040F8D7
:404D40002846FEBD00202072DDE70000C80C002038B50124009400F039F838BDFEB50027164EFF433D4600240EE01C20316860430818017A002906D04068FFF721FF0028D7
:404D800001D0254603E0641C3079A042EDDA681C12D01C2130684D434419FDF73FFC69466068FFF741FF0546FDF730FC002DD9D1216868468847D5E7FEBD0000D40C00203F
:404DC00038B50024009400F001F838BD1FB500220C49541E0A60002811DB496888420ED808491C220C31096850430818406801A9FFF7A0FE401C02D0002004B010BD204689
:404E0000FBE70000C80C0020F0B50021114A4D1E174611710C3F0B46BD6016E008461C2460431668041D355114680646235014680836A3551468361DA353044616680A3474
:404E4000335318301468491C255078688142E5D30020F0BDD40C002038B500210091002811DB0F49097888420DDA0D4D04010C3529680859002807D0201D0818694600F01C
:404E80006FF9002801D0002038BDFDF7C7FB28680F34015D491E0155FDF7B8FB009838BDE40C0020F7B582B0002502986E1E06602E48D21C024017462D4A2C4610460C387F
:404EC0000178106805E02301C358002B0FD0641CE4B28C42F7D3711C28D03401211D40180191039900F02AF900281FD101E02646F1E71F48016820460C300F521C48039944
:404F0000026820460E30115419480399026820460F3011540398784300F0A0F8144900280968085102D00024009011E001251AE00F48016801980818009900F02CF900287A
:404F400001D0012502E00098C0190090641CE4B203988442ECD3002D05D10298066004480179491C0171284605B0F0BDFCFF0000F00C0020F8B50D4600216A468C46118066
:404F8000002839DB23490978884235DA214B04010C3319680A59002A2ED020460C300B5A801C0E5C184670438018954224D3854222D2002006E007465F43BF18AF4206D061
:404FC000401CC0B2B042F6D36046002814D0114E271DC8190C366A46294600F006F900280AD168460088012808D030682946C01900F0D1F8002803D00120F8BD0020F8BD29
:40500000FDF70CFB30680F34015D491C0155FDF7FDFAF3E7E40C0020F8B50F46002400F031F8002817D10C4900220B460C334A600EE021011D680E466A501D680C36AA5345
:40504000B61C1D680F31AA551D68641C6A54E4B2BC42EED31A71F8BDE40C002000280BD0C01C074A81085068890053884118994203D89368516018187047002070470000E4
:40508000E40C0020F8B5064600200F4D009029700C0121466846FEF765FC00280CD129460C3100980860301B001F84B221466846FEF758FC002801D0FF20F8BD6C800098CA
:4050C000A8600020F8BD0000E40C0020F8B5002827DB19490978884223DA174C05010C342168485900281CD028460C30085A009028460E300E5C401C0E5420682F1DC0193E
:4051000000F064F800280CD12068002445590EE0094829460C300068C01900F03CF8002801D00120F8BD00982D18641CE4B2B442EED30020F8BD0000E40C002030B50D46EF
:4051400004000BD0A800FFF789FF6060002805D000202570C0436080002030BD012030BD70B50D46040005D0002D03D00220205E002801DA012070BDFDF750FA0221615E58
:4051800060688900405828606088401E6080FDF73DFA002070BD70B50D46040007D0002D05D002212078615E401E814201DB012070BDFDF733FA6088401C00B26080616806
:4051C00080000D50FDF722FA002070BD10B5040009D0227800216068FEF726F90020C0436080002010BD012010BDF0B500231D46002802D00224045F0AE00120F0BD46684A
:405200009F00F6598E4201D1012503E05B1CDBB29C42F4DA15700020F0BD00000148007870470000F80C00207CB505460024FEF733F9A8796946087000A8062229460130BE
:40524000FEF7E9F80021684604F0AEFF0C2806D0072806D01F2806D0122806D006E0022404E0042402E0272400E0012420467CBD0148012141717047B415002010B500F051
:4052800075F9FFF7FDF9FFF701FA10BD70B504460025FEF701F9002C06D0A079012803D8214602F009FD00E00125284670BD01460120002902D05020088000207047000002
:4052C00001460120002905D003485422007850430880002070470000FA0C002010B502460D49FE204870032410460DF009FA002810D10DF0ADF900280CD105F06BFE00280A
:4053000008D100F04FFB002804D105F01DFA002800D10024204610BDF80C002070B50025044600280ED0A07901280BD8FEF7B4F8A0790028204602D003F002F803E002F042
:40534000D7FF00E00125284670BD0000014610B50120002904D006220248FEF75CF8002010BD0000040D002001460120002903D0087802490870002070470000FA0C00200F
:405380000148007970470000B415002038B504460120002C20D0617801291DD800290BD0FF25E535FEF778F80C4828180088C0B22070072803D00EE0FF25CD35F2E700204B
:4053C000694608706846FFF775F969460878012801D108202070002038BD000000102E40014A002192681047F80C002008B500226B461A7026280CD0094A342852680BD096
:40540000352805D1900703D50021352005F0BEFE08BD19462620F9E7D007F9D03420F5E7F80C00200149087170470000B4150020F8B504460120002C26D06178012902D9EA
:405440002278092A20D8002905D0FF25E5352078092803D004E0FF25CD35F8E708202070FEF71AF82078114F114E08280DD00020FFF75CF970780128207810D00D496918B8
:405480000880FE2070700020F8BD0120FFF74EF90720B8810549203188800120F2E7B8810248217820308180EBE70000C0112E40F80C002000102E4070B50E46050001D0C3
:4054C000002400E00C4C002C11D0E28A500609D5D107C90F022003F00DF8E08A40218843E08204E0D107C90F012003F003F83146284602F0E7FC70BD14150020F8B5054616
:40550000002004460D4E009013E022466946284600F0A6FE0098002801D00DF0D3F8A878214602F01BFBA878214602F009FB641CE4B2308AA042E8D8F8BD0000DC1500206D
:40554000064A02235188891C89B25180814201D8102900D953805088704700000A0D002001484078704700000A0D002038B51E4CFFF786F8042813D0052811D0062812D0FE
:4055800003282AD007280AD100206946087002460120FEF797FFFFF773F80128FBD138BD00F0E1FB38BD02F045FB00F0DCFB02F0A5FB8007800F0228F4D10C48418800299F
:4055C000F0D05B21095D0029ECD101210170A07D0140022002F08EFF38BD02F02FFB0120FFF77EF838BD0000141500200E0D0020F8B50646002402F0DBFF0546304602F0DE
:40560000F1FF03460A480021068A0DE001228A401046174628401F40002803D0002F01D1224394B2491CC9B28E42EFD82046F8BDDC1500201CB50020694648706846FFF794
:40564000A5FE01AA69460A20FEF73CFF6946042008561CBD70B50D4601F0A8F904000BD02079002808D0FDF717FFE178A0782A4602F0BEFC002070BD022070BD0148007853
:4056800070470000EC1400204030C07E002800D00120704700B500F001F800BD902148430749084A40186030417F491CC9B24177D289914201D300214177C8B27047000010
:4056C000F4140020DC15002013B501F06FF904000BD001F032FE002807D0214601AA0A310620FEF7EFFE00201CBD02201CBD000010B50C4601F05AF900280AD001F01DFE9F
:40570000002806D0224604490A20FEF7DBFE002010BD022010BD0000D5140020F3B581B0074601460026029802F03AFF0446002F01D0002500E0154D002D21D0284601F053
:405740006BF9032C04D13946029802F085FF06463846029902F0F4F9032C06D0002C10D00121384601F008FB03E03146384603F007F9284602F0ECF80221284602F002F9BC
:40578000FEBD3846029902F0DBF9FEBD1415002010B5044600F0D0FA002804D104F07AF8002801D00C2010BD2078611C02F01CFDFF2801D01F2010BD02F062FDFF280AD0B7
:4057C0002178621C02F052F9044821780068026B601C904710BD072010BD00002C0D002010B504F057F8002801D00C2010BD02F0DDFC03480068C06A8047002010BD0000D8
:405800002C0D002070B50D46044610210CF09AFE1021601806460CF095FE334610221946204604F065F8102130460CF08BFE02202870204604F0ACFE70BD0000F8B5044635
:405840004078217802028006870FE0781143A67809050002090D0643084601F0A7F800210546F2B2002812D0002C10D0022F0ED0032F0CD0002A0AD00279092A07D0002AAA
:4058800005D0134A5A23527E1B5C9A4207D82889002104F073FD20460CF014FFFF21002914D10C48224600682946436930469847C0B2FF280AD128464030817EF2B2491C70
:4058C0008176FF232146284600F009F9F8BD0000AC140020480D00200020704710B5044603F0D8FF002801D00C2010BD2078611C02F07AFCFF2808D002F0BEFB0448217810
:405900000068426B601C904710BD1F2010BD00002C0D002010B500F0A9F904F015FF002010BD000010B504460F4801F02FFD012817D00D4805222146AC30FDF76CFD0A497F
:405940000522AC310846BC38FDF765FD00F03CFD054880222038C17B1143C17300F0BCF910BD3A2010BD00001415002010B5044600786178E2780843A1781143084321791E
:4059800008436179084305D003F076FF002803D00C2010BD122010BD204602F0D1FC002010BD000010B5FCF75DFE02F023FE044803F0FEFF02F06AFB012000F003F810BDA3
:4059C000BC140020F1B586B003A8009005A8019028489F22817A114081726846FDF776FD002845D169460989C90705D0224806990068C2686846904769460989890706D5ED
:405A0000002835D11D480068816A0698884700282ED11B4E0025757075737571F575357675767575B570F570B5713746F5730120CC3738731F20F880FF2130467972A03055
:405A40000176457603F074FC01F058FC00242046069901F005FC002803D1641C2406240EF5D0FD720649BD72B573C0310D600D7107B0F0BDAC140020480D00202C0D002091
:405A8000F414002070B505460E46084602F090FD0446304602F0A6FD0121A9400A46224001400A4301D0012070BD002070BD10B50446084602F096FD0121A140014201D028
:405AC000012010BD002010BD10B5FEF7D9FD032804D102F0B3F80120FEF702FE10BDFEB51C4616460F46054601F032FFA878FFF7D1FD02460190334639460094284600F0E1
:405B00000DF8002808D1A8780199FFF7D5FCFF2C02D138460CF0D6FDFEBD0000FFB585B005460E980C46FF2810D02B49C00009680A5840180179C0795278814201D9012605
:405B400001E09006860F6846038108E06078A1788006860FE0780002014368460181284601F000FC070007D021462846079A00F023FB384609B0F0BD304600F009FC04AE67
:405B80000346039002AA29460096204600F00FFA3C20405D002818D0284601F0E3FB012813D0684600890096C0B20190A878231DFF22079902F03AF968460089039BC2B248
:405BC000A878079902F07EFCD3E7684600890021C0B20091E9E70000440D0020F8B5002600253046FFF704FD07001DD090201149704340186030447F12E0601CFCF7B6FE4D
:405C0000CCB23846E040C007C00F07D02146304601F08EFF21463046FFF780FD6D1CEDB20548018AA942E8D8761C3606360ED7D0F8BD0000F4140020DC15002070B5002495
:405C4000094D03E0002C01D0002000E028464121095C012901D100F068FA641C2406240EF0D000F039F870BD1415002010B502F00DFA0020FFF7A6FE0CF0BAFD002010BD20
:405C8000F8B5002403F0F0FA012800D10224114F00203E46203601230425082203E0002801D0002100E031460979002907D001290BD002290BD0114681402143CCB2401C0E
:405CC0000006000EEBD07C70F8BD1C43F7E72C43F5E70000F414002070B5144E0024F07BC00921D03546203503E0002C01D0002000E0284601F02CFB012814D0641C2406C7
:405D0000240EF2D0F07B4006400EF073002403E0002C01D0002000E0284600F006FA641C2406240EF4D0002070BD0000F414002010B5FFF7A5FF10BD10B5044604F0E1FE88
:405D4000002802D1601C00F001F810BD1CB500240094062269460194FDF74EFB002800D1122420461CBD10B5FCF743FB0446FEF787FC012809D0FEF783FC022805D0FCF736
:405D80004DFD2046FCF739FBEEE72046FCF735FB10BD10B50B4681791943817103D08078114602F047FB10BD10B582798A43827102D1807802F052FB10BD00000346084870
:405DC00000B5834209D8184600F0F0FD002804D00089984201D1012000BD002000BD0000FF0E0000074A9179491C8906890E917138220A4092014907090E114308430249A4
:405E000008407047F4140020FF0E0000C006C00E70470000F8B507460E4600240D4803E0002C01D0002500E005462979002905D0641C2406240EF3D00020F8BD0021204651
:405E400001F00EFA2E712046FFF7CCFF28813C700120F8BD14150020F7B53D20405C88B015460C46002802D02878042802D200200BB0F0BD6946087200262046FFF704FC98
:405E8000012800D00126204603A938300191009023460327A17E34333246206A03F0A8FD02A8089900900B46019120463A4603A9243003F0FDFC02466846007A2870204675
:405EC00001F0BAF91046D3E7FFB587B00C4605461078694608723D20005D1746002826D000262046FFF7D0FB012800D00126204603A93830019100902346A17E3433324610
:405F0000206A03F075FD02A80090291D019120462B1D03A924300A9A03F0CAFC02006846007A388002D1204601F086F910460BB0F0BDF0B505463C20405C89B016460C463D
:405F400000280CD0307869460873002806D000272046FFF799FB012803D003E01F2009B0F0BD012703200890204604A93830019100902346E17E34333A46E06903F038FD12
:405F80006846007B03A928180290009120462B46019504A92430089A03F0BEFC02466846007B3070204601F051F91046D7E7FFB505463C20405C89B016460C46002810D040
:405FC000084601F0CFF901280BD0308869468883002809D000272046FFF756FB012805D005E000200DB0F0BD0220FBE70127204603A93830019100902346E17E34333A466B
:40600000E06903F0F5FC291D2B1D07A8129A6D4607C5204603A924300C9A03F07DFC02466846808B3080204601F010F91046D9E710B518490446484028D0002101231A4697
:406040008A40904221D0491C2029F8D300212046C840C243520618D0400616D0491C1929F5D3A0B2210C020AC3B2884201D193420BD01F21204600F090F9182805D8A00E75
:40608000062100F08AF9022801D2002010BD012010BD0000D6BE898E002801D0002000E003484030C07F012800D0002070470000141500200146002049070ED50021084BA9
:4060C00003E0002901D0002200E01A461279022A04D0491C0906090EF3D0704701207047141500200146002049070ED50021084B03E0002901D0002200E01A461279022AAC
:4061000004D0491C0906090EF3D07047012070471415002010B5044680346068002803D00CF0E4FA0020606010BD38B50546002000902846FFF7A8FA01281FD1284601F0F2
:40614000FCF800281AD028792C46C01E40340300FDF76AFB07050511110511141100284601F006F9012806D068460CF051FA002805D0012008E060780028FAD038BD284665
:40618000009902F043FD0220607038BD40308170704770B50546403528780C46052904D0002C05D1801E022802D8022002F0BEFE2C7070BD0171704792001018C16670473E
:4061C00010B5002801D0002000E00348002802D0008904F047F910BD1415002010B5002801D0002000E00448002804D00179072901D100F08BF810BD1415002010B5412197
:40620000095C012901D1FFF790FF002010BD000070B50546008A00281ED01049F122897A1140C90618D5294640314A8A098A521C4A4392B2D10800D10121540801E0621AF4
:4062400094B2A042FBD9FEF7E9FF012804D1298AA878224601F072FE70BD0000AC14002010B50023054C0B60248A944204D992001018C26E0A60C36610BD0000DC1500203E
:40628000FEB506460020009001908020855968460CF0BEF9002801D00720FEBD20213046009FFFF781FD34464034A08AE080608AA080208A2081304602F09EFEA88C218A6A
:4062C000884207D1288A618A884203D1688AA18A884203D0F07920210843F071688AA082288A6082A88C2082E98CE182FFF728F9E081208AFFF734F960733946304602F05C
:40630000ADFC0120A0700198FEBD000038B5044600200090A079002814D14020015D052901D00E290ED168460CF072F9002809D12046009902F074FD03481021C28A2046A8
:40634000FFF727FD38BD0000AC14002010B50446807802F081FE204601F088F9002010BD10B50B4604460146184602F0A9F9002802D020460CF0B0F910BD13B5044601AAC9
:4063800011460620FEF79EF86846818861811CBD002800D102207047704770B500231A46491E0CE00446D440E507ED0F541C0646E640F407E40FA54200D05B1C521C8A4261
:4063C000F0D3D8B270BD000030B50021124C0A46A05C002308E0C50701D0491CC9B201290AD840085B1CDBB20028F4D1012903D8521CD2B2052AEBD302290BD207488118D2
:40640000C87B0122082B03D29A400243D0B200E01043C87330BD0000C0150020F41400207FB504468034616805460E46183108226846FCF7F0FF31462031082202A8FCF7A9
:40644000EAFF102168460CF07DF86068102108300CF078F860682B46083024331022694603F046FA7FBD10B504460821FFF79CFC10212046FFF798FC2079052822D0062861
:4064800020D008281DD12189002003F05DFF072020712046FFF7F8F8012819D00E212046FFF777FE002158200155204601F064F92046FFF72FFE2046FFF7AAFE2046FFF713
:4064C0009DFE10BD20890122002103F021FFDEE70521E4E7FFB581B01F4604460821FFF763FC10212046FFF75FFC2079082803D0092804D0042503E00425012601E0092578
:406500000026204600F010FF00212046FFF741FE25712046FFF7FEFD0398002E02D0012808D00BE001280AD120890022029903F0EFFE04E02189029803F006FF01272046A8
:40654000002140300176012F07D0204601F014F92046FFF753FE05B0F0BD02990173204602F0A1FC054605480121C28A2046FFF710FC002DEFD109202071ECE7AC140020CD
:4065800070B50C460546FFF77FF8012809D108212846FFF709FC0023012221462846FFF799FF70BD10B5044600F0BEFE2046FFF7B1FD00212046FFF7ECFD10BD70B50546D9
:4065C0001A24FFF761F8012809D108212846FFF7EBFB0023012221462846FFF77BFF70BD38B505460021684600910CF011F8002801D00D2038BD2846009C00F0E5FE2146E4
:40660000284602F0B7FB06480821C28A2846FFF7C0FB06212846FFF7BCFD002038BD0000AC140020F8B50446002000900E4668460BF0EEFF002801D00D20F8BD2046042136
:406640003430009D00F0ADF9842000590821183000F0A7F9012E02D1204600F0B5FE2946204602F041FB06480821C28A2046FFF790FB02212046FFF78CFD0020F8BD0000F0
:40668000AC14002010B50446FFF7CAFE03212046FFF77FFD204601F05BF910BD10B50021FFF7C0FF10BD000038B504460021684600910BF0ADFF002811D12046009A00F019
:4066C00033FE1146204602F060FB05480821C28A2046FFF75EFB07212046FFF75AFD38BDAC14002038B504460021684600910BF08FFF002810D12046009902F0C9FB07480B
:406700000821C28A2046FFF744FB04212046FFF740FD204601F01CF938BD0000AC14002010B5FFF7A0FE10BD00787047F8B5002569460D70002801D0002400E01E4C002C64
:4067400018D0204600F0F9FD002813D0207903280BD005280CD026464036B18AA07801F061FEB078012806D01CE0042020711CE006202071F8BD0021204601F0D1FF2746B8
:4067800080373868002802D00BF0B0FF3D600020B0702046FFF732FD2079072802D12046FFF736FD20790428E4D1207A694608703420FEF71BFEF8BD1415002010B54C227E
:4067C000115400F04CF810BD10B50446FF21FFF7EBFA09202071A07801F04AFE10BD000038B5FF216A461180002801D0002400E0084C002C0DD011460620FDF763FE684629
:4068000001882046FFF7B9FD03480068C1692046884738BD14150020480D002010B504468079002809D022214C200155FF212046FFF7BAFA204600F012F810BD10B503794C
:4068400002464032002B03D01173092B02D003E0002100E02221117300F001F810BDFEB50446008900270090278120792646403600281AD0012818D0022816D0002002F0D0
:4068800055FB09E002AA01A9204601F007FF002807D101980BF020FF204601F027FF0028F0D02046FEF72AFEB776254680352868002802D00BF01AFF2F606868002802D00D
:4068C0000BF014FF6F60317B002916D0009800F061F8A078002101F085F9A07801F05EFAA07800F037FFFF212046FFF75DFA0B20FFF71EFA00F0CAFDFEBD1F213173E5E7AA
:40690000F8B517460E46054603F032F804003CD020460C3001F0F8F92046062200211830FCF782FD2046062200211230FCF77CFD1648224600683946436A28469847074643
:4069400026702846FEF7A0FE012148406070002D10D02889608028464030C1782171002E0FD169796171018AE180418A2181808A608106E00648008BC005C00F20710020B5
:4069800060803946204603F062FCF8BD2C0D002000102E400A4610B50146002003F07AFD10BD10B50BF0AAFB10BD000000B50146FFF72CFA002801D0002000E003480028CC
:4069C00002D002898A4200D0002000BD1415002038B5044680346068002806D168460BF027FE002801D100986060606838BD000010B5014600F0B6FC0128887802D0FEF74B
:406A00004DFE10BD90214843024940186030007F10BD0000F414002070B5054604464035A87F012811D1A1789020084A484380186030067F3046FFF725F8002805D10220FE
:406A4000A877A078314601F047FA70BDF414002010B50C4CA07A002813D0FFF7BFF80A48027F417F408B00F025FD012809D10020A07201F00DF905498989090B01D000F021
:406A800023FB10BDC0150020F4140020A0102E4070477047490510B5490F0B00FCF7C4FE060704080C0C0F073E21FFF787FE10BD0821FFF7C3FE10BDFFF7D1FE10BDFFF7F4
:406AC000ADFE10BDF8B507460025002D01D0002600E0204E01F09CF83046403044890021418101F09FF8304600F027FC01282BD1A00702D52846FFF719FEE00602D5284618
:406B0000FFF76EFEA00601D5FFF768F8600601D500F04EFC200602D5284600F01DF8600702D5284600F036FB380402D52846FFF755FB780402D52846FFF742FBE00703D0F9
:406B400021463046FFF7A6FF6D1C2D062D0EBCD0F8BD000014150020F8B5002801D0002400E0144C002C23D025464035A87801281ED1FF278820493700593E46002805D0B3
:406B80000D49897A890601D5878AC68A2046FEF77BFD01280CD10096E88A2A8A3B46014602F008FAE882A2780146104601F080FBF8BD000014150020AC140020014909683F
:406BC00009680847480D002070B505460088FFF7EDFE04002AD000F0B0FB002826D02079092823D0204600F0D1FB012820D02046FEF74AFD0646E07920210843E07120464E
:406C000001F0A6FD002815D0294600F093FE4220005D002810D02325E079DF210840E0712946204601F0E9FD284670BD022070BD3A2070BD072070BD002E05D02046FFF7F2
:406C40001FFB0500E8D1EFE70C2070BD70B50E460C2500F0E7FD040012D0002522892946094803F047F8FF2202212046FFF748FEA07800F09BFF2046FFF7F1FD022000E013
:406C800000203070284670BD0E200000FEB5044600F0C8FD002801D00C20FEBD022101A8FFF7B8F8012859D168460079304F002801D0002601E03E462036002E4ED0002107
:406CC0003046FFF766FA3546002040356870A8700620FFF72DF8208A6882228AE189A08902F0B6F928820246608AFF23A88249330093E18AA08A02F05DF9E882288AFEF7EE
:406D00002FFC6873288AFEF71BFCE881184806228778A11DB030FCF77EFB207901281FD06079E870A01D01F0F7FAFB20074010488770217EC278012917D0FB210A40C270E1
:406D40000C4821460068826830469047B178204601F030F93046FFF7F9FAFEBD0920FEBD0020E87004200743E1E704210A43E6E7F41400202C0D002070B50D460026194AA3
:406D80000146002801D0002401E014462034002C26D0204600F0E6FA01280AD19020484380186030007FFEF76DFE002801D101F0F7FF0D48006881692046884700280CD081
:406DC00020464030817EA94202D3491B817600E086762089294603F0D1FA204600F0B8FD70BD0000F4140020480D002070B503460088FFF7DBFD040013D000F09EFA0028C1
:406E00000FD02079092819D02546997840352973204602F048F80646A878012803D0AA8A02E0022070BDEA880A20424301212046FEF7AFFF002E01D109202071002070BD7B
:406E40000EB5002217216B460292198100905A810120029B00990BF0E9FC0EBDF8B518480024807A002822D1164E0025B089000B22E0204600F068FF1249A03940180788BC
:406E80002A462146384600F015FB012810D00E480122478305770A4944778A72002D01D0002000E02030002801D000F051FDF8BDB089000B641CE4B20028DAD1F8BD00008F
:406EC000C0150020A0102E40F414002010B50446C0060ED500200B4A03E0002801D0002100E011460979022909D0401C0006000EF3D00548006881692046884710BD00F0AC
:406F000005F8F6E7141500202C0D002070B51A4D002801D0002401E02C4620342179022904D0002901D001F0A3FA70BD01225B210A5500F01DFF032020710820FEF7F8FE66
:406F400000212046FFF725F9204643300121064600F0EAFE09480068016A30468847024600212046FFF7CCFCA078FFF727FEA87B401CA87370BD0000F41400202C0D0020E6
:406F800010B50C46002121700088FFF70FFD03000BD000F0D2F9002807D00948F121807A0840C00603D4112010BD022010BD022020701A8A1889002103F088FA002010BD3D
:406FC000AC14002070B50088FFF7F0FC040008D000F0B3F9002804D0E079C10903D0002070BD022070BDC1068025002908DA2843E07108480221C28A2046FEF7CAFEEEE732
:40700000204600F01BFA0028ECD1E1792943E17170BD0000AC140020F8B50F46002100910088FFF7C3FC040012D000F086F900280ED0E079410641D4617E02264A07002A58
:4070400008DB8907402500291ADA2843E07135E00220F8BD02F08CFC0021017021894180A1898180217E4170E189C1803E7005460178134802F0FEFE284603F0CBF91DE0F9
:40708000204600F075F9012806D068460BF0C0FA002803D00720F8BD2A20F8BDE07900992843E071204601F027FF607E0421304360760448C28A2046FEF76BFE0020F8BD2C
:4070C0001D040000AC1400203EB500220F236C460292238100910190628169460EC900200BF0A4FB3EBD0000F8B50446002000902088FFF75BFC05001AD0FEF7C5FA0028B7
:4071000012D02348807AC00710D0284600F015F900280DD0287903280CD004280AD0072808D009282AD103E00C20F8BD1120F8BD0220F8BD2F464037387801281ED028466D
:40714000FFF746FC06001BD00822211DFCF763F93046A1782030017261881022090A417221460C311838FCF756F9B878002809D001212846FFF70DF80098F8BD0D20F8BDDB
:407180000720F8BD284600F053FA0090F8BD0000AC14002010B5002801D0002400E00B4C002C11D0214640314878022801D100204870A07DC107C90F002001F09BF92046C9
:4071C000FFF71CF8FEF73AFD10BD00001415002070B503460D460088FFF7E8FB04000BD000F0ABF8002807D01248F121807A0840C00603D4112070BD022070BD20464030E2
:40720000418A008A491C41430804C10C5888884201D2122070BD20822079072802D12046FEF7F6FF022028702089002103F076F9002070BDAC140020016A491C016204D1B3
