:400000000080002011000000E1220000E122000080B500AF02F06EF980B500AF284B12221A6004F097FD274B180005F019F9012004F0A0FD302004F015FB234B234A1A6053
:40004000234B8022D2051A60224B224A126802210A431A60204B214A1A60214B00221A60204B204A126808218A431A60FA23DB00180004F0EDFB1C4B180004F00BFD1B4BFE
:40008000802292001A601A4B1A4A1A601A4B802212061A60194B8022D2021A60184B40221A60184B1900082004F01CFC082004F093FC074B8022D2051A60C046BD4680BD3D
:4000C00030001040001BB70004010B40060000800C020B4078002E407C002E40D0D0000064F02E406CF02E40DC050000000301400000014040FF008008010B4000010B40BE
:4001000004010140C94C000080B582B000AF72B6394B00221A60FB1D00221A7022E0FB1D1A7813005B009B185B00344A9B183B603B681A78597809020A43997809040A4385
:40014000DB781B06134318003B681A795B791B0213439BB2190002F09FF8FB1D1A78FB1D01321A70FB1D1B78012BD8D9244B254A1A60254BFF2212061A60244B992212046F
:400180001A60234B992212041A60224B992212041A60214B992212041A60204A1F4B1B78DBB206210B43DBB213701D4B10221A601C4B1D4A1A601D4B10221A601C4BD0225B
:4001C0001A601C4B1C4A1A601C4BC0221A601C4B1D221A601B4B1C4A1A601C4BD822D2031A601B4B03221A60FFF716FF02F064F8C046BD4602B080BD6CF02E405C83010065
:40020000000002400000FFEE0001024000500F4010500F4020500F4030500F4000700F40000004400800044000E0D8001800044000010440080104400060D80018010440E6
:40024000000204400802044001490000080304400804044010B5064C2378002B07D1054B002B02D0044800E000BF0123237010BDF00F00200000000074810100084B10B563
:40028000002B03D00749084800E000BF07480368002B00D110BD064B002BFBD09847F9E700000000F40F002074810100A80B00200000000080B500AF62B6002004F080FFFD
:4002C00000F056F900F0ACF900F068FA0C4B180002F004F901F0AEF80A4B1A780A4B1A70094B1B78052B01D101F0A4F800F060F901F05AF901F040F906F02EF9ECE7C046FA
:400300000D030000D62800209928002090B5BDB000AF78603960E023FB18844A13CA13C31188198092789A70CC23FB18804A13CA13C303CA03C3B823FB187E4A13CA13C384
:400340001168196012791A71A423FB187A4A13CA13C31168196092889A809423FB18774A13CA13C312681A608423FB18744A13CA13C312881A808023FB1820221A80682350
:40038000FB18704A13CA13C303CA03C312881A807B68412B00D1BDE006D8202B16D0272B4ED0012B0BD0BCE0522B00D181E01222FF32934200D1AFE0462B50D0B1E0624BFF
:4003C000624A1A60624B634A1A60AAE05423FB183A6813CA13C303CA03C35423FB181B78042B00D19AE0EF23FB1800221A701BE0594B1B781800EF23FB181A785423FB1814
:400400005968EF23FB181B78CB181C7853490300DB001B1ACB18211C9954EF23FB181A78EF23FB1801321A70EF23FB181B78052BDED9494B1B780133DAB2474B1A706DE088
:40044000474B1A785B781B021A4300231204120C1B0C1B041343180002F026FA61E03023FB183A6813CA13C3EF23FB1802221A7015E0EF23FB181B789A1E3023FB18596893
:40048000EF23FB181B78CB1819780823FB189954EF23FB181A78EF23FB1801321A70EF23FB181B789AB23023FB181B899A42E0D337E02023FB183A6813CA13C312681A60F9
:4004C000284B1B785A1CD1B2264A11701A002023FB185B681978244B9954224B1B78042B1ED12023FB189B89122B06D11E4A1F4B1100180000F0E6FE08E02023FB189B890F
:40050000162B03D1184B180000F0F0FE154B00221A7005E0C04604E0C04602E0C04600E0C046C046BD463DB090BDC04678810100888101009C810100B0810100C4810100BB
:40054000D4810100E481010060F02E403103000008000340020300800C10002098210020E82800200D10002094280020A028002080B500AF04F088FC012004F0C5FD012063
:4005800001F024F8012001F0D9FD012001F0CAFC0A21012001F0EEFCFF2001F0DBFC012004F0DAFD012001F00FFDC046BD4680BD80B584B000AF01F09FF90300180005F05F
:4005C000F3FD031C191C8920C00505F017FA031CFB6001F09BF90300180005F0E5FD031C191C8920C00505F009FA031CBB6004F0D9FD031E0FD101F031FD031E0BD03A1D21
:40060000BB1D1100180001F039FD3A1DBB1D1100180000F047FDC046BD4604B080BDC04690B597B002AF3823FB18544A13CA13C31168196012791A712823FB18504A13CA2D
:4006400013C31188198092789A700823FB184D4A13CA13C313CA13C3116819609188998092799A713B1D484A1188198092789A70002001F06FFC454B180001F08BFB0023FB
:40068000FB640AE0FB6CDBB2180001F063FC012004F0DAF9FB6C0133FB64FB6CFF2BF1DD01F03EF93A4A1F230093AF2355214B2001F03AFB032001F045FA344B180001F01F
:4006C000FBF96421642001F055F93823FB18180005F006FF03009AB23823FB181100180001F074FAAF21642001F044F92823FB18180005F0F5FE03009AB22823FB1811005B
:40070000180001F063FA022001F01CFAFC23DB00180001F0D1F94623FF3319004B2001F029F90823FB18180005F0DAFE03009AB20823FB181100180001F048FA012001F00D
:4007400001FA002001F0B8F9D7235B00114A1900100001F00FF93B1D180005F0C1FE03009AB23B1D1100180001F030FA0A4B180004F06AF9C046BD4615B090BD2C8201004D
:40078000408201005082010070820100FFFF00008A020000EE020000B80B0000B0B598B002AF3023FB18CD4A13CA13C313CA13C303CA03C32823FB18C94A11681960928822
:4007C0009A802023FB18C74A116819609188998092799A711823FB18C34A1168196012791A711023FB18C14A1168196012791A710823FB18BE4A03CA03C33B00BD4A1168EE
:4008000019609188998092799A71C8239B007B65F0235B003B65FF2001F09CFBB64B180001F0B8FA01F07CF87B6D9BB2283B9BB21AB2FC23DB00009332231421142001F0CE
:4008400073FA022001F07EF9002001F035F91221192001F08FF83023FB18180005F040FE03009AB23023FB181100180001F0AEF97B6D0321180004F0BDFF03009BB2283BB0
:400880009BB21AB23B6D002B00DA01335B109BB232339BB219B2002300930B004621142001F042FA032001F04DF9934B180001F003F94621322001F05DF82823FB181800CE
:4008C00005F00EFE03009AB22823FB181100180001F07CF900F016F901F022F83B6D002B00DA01335B109BB278339BB21CB27B6D0321180004F07EFF03009BB2283B9BB2BD
:400900001AB23B6D002B00DA01335B109BB28C3B9BB219B21F2300930B002100142001F003FA032001F00EF9734B180001F0C4F83B6D002B00DA01335B109BB287339BB212
:4009400019003C2001F016F81023FB18180005F0C7FD03009AB21023FB181100180001F035F97B6D0321180004F044FF03009BB2143B9BB21CB27B6D0321180004F03AFFA9
:4009800003001AB23B6D002B00DA01335B109BB232339BB219B2594B00930B004621200001F0C2F9032001F0CDF8002001F084F87B6D0321180004F01DFF03009BB246218C
:4009C000180000F0D7FF0823FB18180005F088FD03009AB20823FB181100180001F0F6F800F092F900F09CFF7B6D5B000321180004F000FF03009BB2143B9BB21CB27B6D9A
:400A00000321180004F0F6FE03001AB23B6D002B00DA01335B109BB232339BB219B2F8231B0200930B004621200001F07DF9032001F088F8002001F03FF87B6D5B000321A6
:400A4000180004F0D7FE03009BB214339BB24621180000F08FFF3B00180005F041FD03009AB23B001100180001F0B0F800F012F900F056FF7B6D0321180004F0BBFE0300CE
:400A80009BB2143B9BB21CB23B6D002B00DA01335B109BB278339BB21DB27B6D5B000321180004F0A7FE03001AB23B6D002B00DA01335B109BB28C3B9BB219B2104B0093D2
:400AC0000B002900200001F02FF900F057F901F0BBF8C046BD4616B0B0BDC04674820100948201009C820100A4820100AC820100B4820100BC820100FFFF0000FF07000066
:400B0000E0FF000080B58AB002AF1023FB185C4A1168196092889A800823FB18594A116819609188998092799A713B00564A1168196012791A71C8239B00FB61F0235B0056
:400B4000BB6100F0EDFEFB690321180004F052FE03009BB2283B9BB21AB200230093C8239621142001F0E0F8484B1B78002B3DD1474B00933C23B422AA21282001F0D4F8F0
:400B8000022000F0DFFF002000F096FFAF213C2000F0F0FE0823FB18180005F0A1FC03009AB20823FB181100180001F00FF887235900374B00933C23B422282001F07EF804
:400BC000334B180000F078FF1423FF331900502000F0D0FE3B00180005F082FC03009AB23B001100180000F0F1FF40E0274B1B78012B3CD1264B00933C23B422AA21282045
:400C000001F05CF8022000F09DFF214B180000F053FFAF213C2000F0ADFE0823FB18180005F05EFC03009AB20823FB181100180000F0CCFF87235900154B00933C23B422F3
:400C4000282001F071F8002000F036FF1423FF331900502000F08EFE3B00180005F040FC03009AB23B001100180000F0AFFF00F085F800F0E9FFC046BD4608B080BDC04601
:400C8000948201009C820100A482010094210020FFFF000080B582B000AF3B0020221A80C8239B007B6000F03BFE042000F04AFFF8231B021900002000F092FE7B685B00C1
:400CC0000321180004F096FD03009BB232339BB2AA21180000F04EFE0A4B1B68181C00F055FB3B00180005F0FBFB03009AB23B001100180000F06AFF00F0A6FFC046BD46DC
:400D000002B080BDA028002080B582B000AF3B0020221A80C8239B007B6000F001FE042000F010FF134B1900002000F059FE7B680321180004F05EFD03009BB232339BB2EE
:400D4000AA21180000F016FE0B4B1B68181C00F01DFB3B00180005F0C3FB03009AB23B001100180000F032FF00F06EFFC046BD4602B080BDFF07000090210020B0B588B0D4
:400D800002AF0C23FB18C14A1188198092789A700823FB18BE4A1A603B00BE4A1168196012791A71C8239B007B61F0235B003B6100F0B6FD7B690321180004F01BFD0300A6
:400DC0009BB2143B9BB21CB23B69002B00DA01335B109BB278339BB21DB27B695B000321180004F007FD03001AB23B69002B00DA01335B109BB28C3B9BB219B2A64B0093A6
:400E00000B002900200000F08FFFA44B1B78002B00D035E1032000F095FE002000F04CFE7B690321180004F0E5FC03009BB20A339AB23B69002B00DA01335B109BB2873330
:400E40009BB21900100000F095FD3B00180005F047FB03009AB23B001100180000F0B6FE8F4B5B79002B00D085E07B690321180004F0C0FC03009BB2B4339BB218B23B69C9
:400E8000002B00DA01335B109BB287339BB219B2002300934623782200F046FF032000F051FE7D4B180000F007FE7B690321180004F0A0FC03009BB2C3339AB23B69002B39
:400EC00000DA01335B109BB287339BB21900100000F050FD0823FB18180005F001FB03009AB20823FB181100180000F06FFE7B695B000321180004F07DFC03009BB25033AA
:400F00009BB218B23B69002B00DA01335B109BB287339BB219B2002300934623782200F0CDFE032000F00EFE002000F0C5FD7B695B000321180004F05DFC03009BB26E3315
:400F40009AB23B69002B00DA01335B109BB287339BB21900100000F00DFD0C23FB18180005F0BEFA03009AB20C23FB181100180000F02CFE84E07B690321180004F03AFCDD
:400F800003009BB2B4339BB218B23B69002B00DA01335B109BB287339BB219B2002300934623782200F08AFE032000F0CBFD002000F082FD7B690321180004F01BFC0300B3
:400FC0009BB2C3339AB23B69002B00DA01335B109BB287339BB21900100000F0CBFC0823FB18180005F07CFA03009AB20823FB181100180000F0EAFD7B695B00032118001D
:4010000004F0F8FB03009BB250339BB218B23B69002B00DA01335B109BB287339BB219B2002300934623782200F07EFE032000F089FD194B180000F03FFD7B695B000321AF
:40104000180004F0D7FB03009BB26E339AB23B69002B00DA01335B109BB287339BB21900100000F087FC0C23FB18180005F038FA03009AB20C23FB181100180000F0A6FD4F
:4010800000F0E2FDC046BD4606B0B0BDC48201004F464600C8820100E0FF000094210020A028002090B589B000AF7860396000F023FC0300180005F077F8031C191C892003
:4010C000C00504F09BFC031CFB6100F01FFC0300180005F069F8031C191C8920C00504F08DFC031CBB617B681B88180005F05CF8031CF969181C04F081FC031C1622BC18F7
:40110000181C04F063FC030023803B681B88180005F04AF8031CB969181C04F06FFC031C1422BC18181C04F051FC03002380C8239B003B61F0235B00FB601623FB181B88FB
:40114000282B19D91623FB181B88A92B14D81423FB181B88AA2B0FD91423FB181B88E52B0AD8564B1B78002B00D1A3E0534B00221A70FFF7C7FC9DE01623FB181B88282B7D
:401180001DD91623FB181A880E23FF339A4216D81423FB181B88AA2B11D91423FB181A884A23FF339A420AD8444B1B78012B00D180E0424B01221A70FFF7A4FC7AE0162347
:4011C000FB181C883B690321180004F013FB0300B4339C4230DD1623FB181C883B690321180004F007FB03002D33FF339C4223DA1423FB181A88FB68002B00DA01335B1058
:4012000087339A4218DD1423FB181A88FB68002B00DA01335B10CD339A420DDA274B1B78002B09D1264B5B79002B43D0244B00225A71FFF7A3FD3DE01623FB181C883B693D
:401240005B000321180004F0D5FA030050339C4230DD1623FB181C883B695B000321180004F0C8FA0300C8339C4223DA1423FB181A88FB68002B00DA01335B1087339A4260
:4012800018DD1423FB181A88FB68002B00DA01335B10CD339A420DDA084B1B78002B09D1074B5B79012B05D0054B01225A71FFF765FDFFE7C046BD4609B090BD9421002011
:4012C000A028002080B584B000AF786039600C23FB1820221A803B681A687B681A60FFF7D9FCC046BD4604B080BDC04680B584B000AF78600C23FB1820221A807B681A689F
:40130000034B1A60FFF700FDC046BD4604B080BD9021002090B585B000AF0200FB1D1A700C23FB1830221A800F23FC18FB1D1B780A21180004F05AFA0B0023700F23FB18CD
:401340001B783033DAB20C23FB181A70FB1D1B78092B0AD9FB1D1B780A21180004F0C0F90300DBB21800FFF7D5FF0C23FB18180005F0B6F803009AB20C23FB181100180099
:4013800000F024FCC046BD4605B090BD80B586B000AF78600C23FB182D221A800823FB182E221A80786804F0DDFE03007B61786904F0FAFE031C191C786804F04DFD031CE1
:4013C0003B617B69002B0FDA0C23FB18180005F087F803009AB20C23FB181100180000F0F5FB7B695B427B617B69DBB21800FFF791FF0823FB18180005F072F803009AB281
:401400000823FB181100180000F0E0FB0849386904F00EFC031C3B61386904F0A3FE0300DBB21800FFF776FFC046BD4606B080BD0000204190B5B9B000AFCC23FB18464A3A
:4014400013CA13C31188198092789A70B823FB18424A13CA13C303CA03C39823FB18404A13CA13C313CA13C31168196092889A807823FB183B4A13CA13C313CA13C31168BD
:40148000196092889A805023FB18374A13CA13C313CA13C313CA13C312781A703423FB18324A13CA13C313CA13C312881A803A002F4B1000190007231A0005F000F805F0C8
:4014C0004BF8DE23FC18002001F0A4F803002380DE23FB181B88002B02D1002003F092FC05F03AF801F0E8F805F036F8DC23FC183B00180001F0F2F80300238005F02CF8D0
:40150000DC23FB181B88002B0FD1002003F052FCFA235B00180003F097FA012003F04AFCFA235B00180003F08FFADB23FB18114A12781A70DB23FB181B78022B03D10020CB
:4015400003F038FC02E0012003F034FC05F004F8C046BD4639B090BD7881010088810100D0820100F0820100108301003883010054830100D628002080B582B000AFFB1DB0
:40158000084A12781A70FB1D1B78022B03D1002003F010FC02E0012003F00CFCC046BD4602B080BDD628002080B500AF064B5B79012B03D1012003F02BFE02E0002003F0AB
:4015C00027FEC046BD4680BDA028002090B585B000AF0200FB1D1A70214BFA1D12781A701F4B1B78002B08D11E4BF02252001A801D4B882252001A800EE0194B1B78012BBD
:4016000008D1184BC82292001A80174BF02252001A8001E000231FE0012003F04DFD002003F072FD642003F00FFA012003F06CFD0A2003F009FA0F23FC18002000F0AEFDF7
:40164000030023700F23FB181B781900002000F08DFD00F033F801231800BD4605B090BD9A2800209C280020A828002080B500AF114B1B78002B0ED10A21882000F076FD24
:40168000012003F0E1F90221892000F06FFD012003F0DAF90DE00A21882000F067FD012003F0D2F90221892000F060FD012003F0CBF9C046BD4680BD9A28002080B584B0B8
:4016C00000AFFFF7D3FF0C21102000F04FFD874B1B78002B1FD10F23FB1882221A700B23FB180A221A700E23FB1808221A700D23FB1830221A700C23FB1800221A700823C0
:40170000FB1803221A80BB1D08221A800A23FB180A221A701EE00F23FB1881221A700B23FB181A221A700E23FB1820221A700D23FB1860221A700C23FB1800221A70082356
:40174000FB1820221A80BB1D17221A800A23FB1802221A700F23FB181B781900042000F005FD012003F070F9614B1B88DB089BB2DBB2013BDBB21900142000F0F7FC0C2329
:40178000FB181B781900152000F0F0FC0B23FB181A780C23FB181B78D31A023B002B00DA0733DB10DBB21900162000F0DFFC0E23FB181B78DB08DBB2013BDBB21900172056
:4017C00000F0D4FC0D23FB181B78DB08DBB2013BDBB21900182000F0C9FC464B1B88DBB2013BDBB21900192000F0C0FC414B1B88013B9BB21B0A9BB2DBB219001A2000F092
:40180000B5FC0823FB181B88DBB2013BDBB219001B2000F0ABFC0823FB181B881B0A9BB2DBB219001C2000F0A1FCBB1D1B88DBB2013BDBB219001D2000F098FCBB1D1B88ED
:401840001B0A9BB2DBB219001E2000F08FFC0A23FB181B78013BDBB219001F2000F086FC0021302000F082FC0021312000F07EFC1F4B1B88DBB2013BDBB21900342000F0B6
:4018800075FC1B4B1B88013B9BB21B0A9BB2DBB21900352000F06AFC0021322000F066FC0021332000F062FC124B1B88DBB2013BDBB21900362000F059FC0E4B1B88013B99
:4018C0009BB21B0A9BB2DBB21900372000F04EFC80218E2000F04AFCFA235B00180003F0B3F8C046BD4604B080BDC0469A2800209C280020A828002080B500AF024B1B88B5
:401900001800BD4680BDC0469C28002080B500AF024B1B881800BD4680BDC046A828002090B583B000AF402000F09EFCFC1D00F05FFC03002370FB1D80221A70FB1D1B7849
:40194000180000F03DFC212000F08EFCFC1D00F04FFC03002370FB1DFA1D12785F210A401A70FB1D1B78180000F02AFCC046BD4603B090BD80B582B000AF0200BB1D1A8008
:401980003B1D0A1C1A802A2000F06EFCBB1D1B88DBB2180000F014FC2B2000F065FCBB1D1B881B0A9BB2DBB2180000F009FC2C2000F05AFC3B1D1B88DBB2180000F000FC0A
:4019C0002D2000F051FC3B1D1B881B0A9BB2DBB2180000F0F5FBC046BD4602B080BDC04690B585B000AF0200BB1D1A803B1D0A1C1A80632000F038FCBB1D1B88DB0A9BB264
:401A0000DBB2180000F0DCFB642000F02DFCBB1D1B885B11DBB23F221340DBB2180000F0CFFB652000F020FCBB1D1B88DBB21F221340DBB2180000F0C3FB602000F014FC16
:401A40003B1D1B88DB0A9BB2DBB2180000F0B8FB612000F009FC3B1D1B885B11DBB23F221340DBB2180000F0ABFB622000F0FCFB3B1D1B88DBB21F221340DBB2180000F07E
:401A80009FFB222000F0F0FB0F23FC1800F0B0FB030023700F23FB180F22BA18127840218A431A700F23FB181B78180000F088FBC046BD4605B090BD90B585B000AF0200D5
:401AC000BB1D1A80632000F0CFFBBB1D1B88DB0A9BB2DBB2180000F073FB642000F0C4FBBB1D1B885B11DBB23F221340DBB2180000F066FB652000F0B7FBBB1D1B88DBB207
:401B00001F221340DBB2180000F05AFB222000F0ABFB0F23FC1800F06BFB030023700F23FB180F22BA18127840210A431A700F23FB181B78180000F043FBC046BD4605B037
:401B400090BDC04690B585B000AF0200FB1D1A70FB1D1B78032B02D9FB1D03221A70222000F082FB0F23FC1800F042FB030023700F23FB180F22BA1812780F218A431A70B9
:401B8000FB1D1B789B005AB20F23FB181B785BB213435AB20F23FB181A700F23FB180F22B918FA1D097812780A431A700F23FB181B78180000F004FB034BFA1D12781A7025
:401BC000C046BD4605B090BD9128002080B584B000AF78600A00BB1C1A80BB1C1B88002B06D17B68180004F07BFC0200BB1C1A80022000F039FB0E23FB1800221A8016E005
:401C00000E23FB181B887A68D3181B78180000F0D7FA0C4B1B78002B02D0012002F014FF0E23FB181A880E23FB1801321A800E23FA18BB1C12881B889A42E1D3C046BD4690
:401C400004B080BD9128002090B583B000AF402000F00AFBFC1D00F0CBFA03002370FB1DFA1D12787F210A401A70FB1D1B78180000F0A6FAC046BD4603B090BD90B585B0B7
:401C800000AF0200FB1D1A70BB1D0A1C1A700F23FC18FB1D1B78180000F080FA030023700F23FB18BA1D1B7812781340DBB2002BEDD101231800BD4605B090BDB0B584B064
:401CC00002AF05000C0010001900BB1D2A1C1A803B1D221C1A80BB1C021C1A803B000A1C1A80BB1D1A88BB1C1B88D3189BB21CB23B1D1A883B001B88D3189BB21AB23B1D59
:401D00000021595EBB1D0020185E002301931823FB181B8800931300220000F05DF8C046BD4602B0B0BDC046B0B584B002AF05000C0010001900BB1D2A1C1A803B1D221CA8
:401D40001A80BB1C021C1A803B000A1C1A80BB1D1A88BB1C1B88D3189BB21CB23B1D1A883B001B88D3189BB21AB23B1D0021595EBB1D0020185E012301931823FB181B8822
:401D800000931300220000F027F8C046BD4602B0B0BDC04680B584B002AF0200BB1D1A800B4B1B88013B9BB21AB20A4B1B88013B9BB219B201230193BB1D1B8800930B0025
:401DC0000021002000F008F8C046BD4602B080BD9C280020A8280020B0B582B000AF05000C0010001900BB1D2A1C1A803B1D221C1A80BB1C021C1A803B000A1C1A80912043
:401E000000F032FABB1D1B88DBB2180000F0D8F9922000F029FABB1D00229B5E1B121BB2DBB2180000F0CCF9932000F01DFA3B1D1B88DBB2180000F0C3F9942000F014FAE1
:401E40003B1D00229B5E1B121BB2DBB2180000F0B7F9952000F008FABB1C1B88DBB2180000F0AEF9962000F0FFF9BB1C00229B5E1B121BB2DBB2180000F0A2F9972000F0F2
:401E8000F3F93B001B88DBB2180000F099F9982000F0EAF93B0000229B5E1B121BB2DBB2180000F08DF9632000F0DEF91823FB181B88DB0A9BB2DBB2180000F081F964203B
:401EC00000F0D2F91823FB181B885B11DBB23F221340DBB2180000F073F9652000F0C4F91823FB181B88DBB21F221340DBB2180000F066F9902000F0B7F91C23FB181B781B
:401F0000002B03D0B02000F05BF902E0902000F057F980219020FFF7B1FEC046BD4602B0B0BDC04680B582B000AF0200FB1D1A70FB1D1B78002B04D00121C72000F016F92D
:401F400003E00021C72000F011F9C046BD4602B080BDC04680B582B000AF0200FB1D1A70FB1D1B7819008B2000F000F9C046BD4602B080BD80B582B000AF0200FB1D1A70BA
:401F8000BB1D0A1C1A70FB1D1B78002B0FD0BB1D1B785BB20F2213405BB28022524213435BB2DBB219008A2000F0E0F808E0BB1D1B780F221340DBB219008A2000F0D6F845
:401FC000C046BD4602B080BD80B584B000AF0200FB1D1A700F23FB1802221A701E4B1B78012B03D10F23FB1804221A70FB1D1B78002B1BD00F23FB181B784822524213435C
:40200000DBB21900702000F0B1F80421712000F0ADF8F02000F0C2F803001A0004231343DBB21900F02000F0A1F810E0F02000F0B5F803001A0004239A431300DBB219007C
:40204000F02000F093F80021702000F08FF8C046BD4604B080BDC0469A28002080B500AFF12000F09BF803001A000423134001D0012300E000231800BD4680BD90B585B0F2
:4020800000AF78603960722000F088F803001A000E23FB181A80732000F080F803001A000C23FB181A800B23FC18742000F076F8030023700E23FB180E22BA1812889200D3
:4020C0001A800C23FB180C22BA18128892001A800B23FB181B781BB2032213401AB20E23FB1800215B5E13431AB20E23FB181A800B23FB181B789B08DBB21BB203221340F2
:402100001AB20C23FB1800215B5E13431AB20C23FB181A807B680E22BA1812881A803B680C22BA1812881A800421F12000F01EF801231800BD4605B090BDC04680B582B0DF
:4021400000AF0200FB1D1A70FB1D1B78002B04D08021012000F00AF803E00021012000F005F8C046BD4602B080BDC04680B582B000AF0200FB1D1A70BB1D0A1C1A70FB1D44
:402180001B78180000F070F8BB1D1B78180000F017F8C046BD4602B080BDC04680B582B000AF0200FB1D1A70FB1D1B78180000F05BF800F01DF803001800BD4602B080BDCA
:4021C00080B582B000AF0200FB1D1A70012002F03BFC002002F0B0FEFB1D1B78180002F0ABFE012002F030FCC046BD4602B080BD80B582B000AFFB1D00221A70012002F099
:4022000023FC184B802292001A6002F07FFE402002F092FE002002F08FFEC046114B1A6880239B001340F9D002E0012002F00CFC02F05CFE031EF8D001E002F047FE02F004
:4022400055FE0300012BF8D802F040FE0200FB1D1A70012002F0F8FBFB1D1B781800BD4602B080BD000F244080B582B000AF0200FB1D1A70012002F0E7FB802002F05CFE6F
:40228000FB1D1B78180002F057FE012002F0DCFBC046BD4602B080BD80B582B000AF786039603A687B680021180004F011F9C046BD4602B080BDC04680B500AF054B032298
:4022C0001A60054B03221A60044B00221A60C046BD4680BD3000304030003140000E3F4080B500AF04F0B0F803001B680C2B00D1FEE7FEE780B586B000AF224B7B61224BCE
:402300003B61204B7B6135E03B691B68FB603B695B68BB603B699B683B6000237B600CE0FB681A68BB681A60BB680433BB60FB680433FB607B6804337B607A683B689A4233
:40234000EED13B69DB683B6000237B6008E0BB6800221A60BB680433BB607B6804337B607A683B689A42F2D13B6910333B617B69013B7B617B69002BC6D104F06BF8FDF779
:4023800099FFFEE701000000C889010080B582B000AF154B144A126801218A431A6000237B600FE07B68032B04D8104B7A689200D35800E00E4B0F4A796889008B507B6808
:4023C00001337B607B682F2BECD9FDF79DFE0A4B00221A60044B044A126801210A431A60C046BD4602B080BD0000104000000000E122000000000020C000002080B500AF1D
:402400001D4B00221A701D4B00221A701C4B00221A701C4B5A881C4B1A801A4B9A881A4B5A80184B9A79184B1A73164BDA79164B1A71154B0622DA81134B28221A82124BC7
:4024400000225A82104BFA2292009A820E4B0022DA820D4B012252421A830C4B1E221A8000F01AF80A4B00221A700A4B00221A70C046BD4680BDC046FC280020E4280020C5
:40248000FA280020AC0B0020B8280020D2280020AC280020B428002080B500AF0C4B1B88002B05D10B4B0E220021180004F010F8074BDB88002B05D1074B062200211800F6
:4024C00004F006F801F044FDC046BD4680BDC046080C0020EC280020DC280020B0B594B004AF78603E23FB1800221A802823FA183E4B1000190014231A0003F0E0FF3C4BC3
:402500001B78002B04D1FFF779FF394B01221A707B68002B5FD0374B7A681A603E23FB181B88002B29D11023FB181C22BA185A601023FB182022BA181A601023FB180022C6
:402540001A812023FB181B221A802023FB181B225A802023FB1804221A711C23FB1808221A703E23FC180E23FA181023FB181100180004F0CDF8030023803E23FB181B887C
:40258000002B2CD13E23FC182823FD18AE231A0119491A481A4B02931A4B0193052300932B0004F00BF8030023803E23FB181B88002B14D1144B01221A70144B08221A70B2
:4025C0003E23FC18124B0A220D21180010F042FE0300238003E03E23FB1801221A803E23FB181B881800BD4610B0B0BD688301000E100020B0280020C8000020B92E00004D
:402600007902000000920100D6280020D72800208483010090B585B000AF0200FB1D1A70FB1D1B78022B04D90E23FB1801221A8035E0FB1D1B78002B09D11C4B1E221A81BD
:402640001A4B30225A80194B30229A800EE0FB1D1B78012B0AD1154B96221A81134B802212015A80114BE122D2009A80104BFA1D12781A700E23FC180C4B18000EF056FEE2
:40268000030023800E23FB181B88002B07D1094B1B78DBB204221343DAB2064B1A700E23FB181B881800BD4605B090BDAC0B0020FA280020FC28002080B500AF0EF062FE90
:4026C000054B1B78DBB208221343DAB2024B1A70C046BD4680BDC046FC28002090B585B000AF7860294B1B78052B05D00E23FB180422FF321A8041E07B68002B04D10E2380
:40270000FB1801221A8039E00D23FB1800221A7012E00D23FB181B780D22BA1812787968895C1B4AD3180A1C5A710D23FB181A780D23FB1801321A700D23FB181B78052B8C
:40274000E7D97B689A79124BDA720E23FC18104B18000EF091FD030023800E23FB181B88002B0BD1094B04221A700A4B1B88002B04D0084B1B8818000BF06EFD0E23FB186F
:402780001B881800BD4605B090BDC046D6280020B8280020D228002090B583B000AF104B1B78042B04D0BB1D0422FF321A8011E0BC1D0EF053FD030023800A4B1B88002B59
:4027C00001D00BF063FDBB1D1B88002B02D1044B05221A70BB1D1B881800BD4603B090BDD6280020D228002080B582B000AF78607B681B789AB27B6801331B789BB21B02A2
:402800009BB213439BB21800BD4602B080BDC04690B585B000AF78600F23FB1800221A707B689B890D22934232D17B68181D7A680F23FC184023002110F024FD030023701D
:402840000F23FB181B78002B1AD17B685B681800FFF7CAFF03001A00022313409BB2002B07D00F4B1B687968822252001000984706E00B4B1B6879680622FF32100098477E
:40288000084B1B78DBB201229343DAB2054B1A700F23FB181B781800BD4605B090BDC046B0280020FC28002090B585B000AF3B1D1880304B1B78022B07D12F4B1B78002BAB
:4028C00009D02D4B1B78052B05D00C23FB180422FF321A8047E00F23FB1800221A7014E00F23FB181A7813005B009B185B00234A9B1804220021180003F0EAFD0F23FB18BF
:402900001A780F23FB1801321A700F23FB181B78022BE5D91A4A3B1D1000190002231A0003F0CDFD174B01221A80164B012252425A80FFF7B1FD0C23FC183B1D18680FF090
:40294000B9FA030023800C23FB181B88002B0AD1094B01221A700C4B1B78DBB202221343DAB2094B1A700C23FB181B881800BD4605B090BDD6280020D7280020080C002044
:40298000E8280020D8280020FC28002080B582B000AF78607B68DB880D4A934214D10D4B5B88002B08D17B689A880A4B5A807B689A78084B1A7007E0074B1B687A68911DAD
:4029C0008622520010009847C046BD4602B080BD052A0000DC280020B028002080B582B000AF78607B689B880B4A934210D10B4B9B88002B04D17B685A88084B9A8007E01A
:402A0000074B1B687A68111D8622520010009847C046BD4602B080BD02290000DC280020B028002080B582B000AF78600C4B5A887B689B899A420ED10A4B1B687968832242
:402A4000520010009847084B1B78DBB201229343DAB2054B1A70C046BD4602B080BDC046DC280020B0280020FC28002090B585B000AF78600F23FC187B681800FFF7C8FEE7
:402A800003002370154B1B78DBB21A00012313401FD10F23FB181B78002B16D00823FB1812229A707B689A890823FB181A800823FB180F22BA181278DA700823FA187B6807
:402AC000110018680FF048FD03E07B6818680FF0C5FDC046BD4605B090BDC046FC28002080B582B000AF7860C046BD4602B080BD80B582B000AF7860C046BD4602B080BDD9
:402B000080B582B000AF7860C046BD4602B080BD80B582B000AF7860C046BD4602B080BD80B588B000AF7860394B1B78022B6AD1384B1B88002B66D00C23F918354B0222EB
:402B400008009B180422190003F0B9FC7B6859687B681B891A000C23FB180433180003F0AEFC0C23FB18180001F066FA294B1B8801339AB20C23FB181A80274B1B78190004
:402B8000264A0B005B005B185B00D31802331A880C23FB185A800C23FB181A880C23FB185B889A4221D80C23F9181D4B1A785B781B021A4300231204120C1B0C1B0413433B
:402BC00018000FF08FF9031E12D0164B1B6884225200002110009847134B1B78DBB202229343DAB2104B1A7002E0012000F022FC0D4B1B78DBB201229343DAB20A4B1A7071
:402C0000044B00221A80C046BD4608B080BDC046D728002010100020FB280020080C0020E8280020B0280020FC28002080B588B000AF7860394B1B78022B6AD1384B1B88AA
:402C4000002B66D00C23F918354B022208009B180422190003F033FC7B6859687B681B891A000C23FB180433180003F028FC0C23FB18180001F0E0F9294B1B8801339AB24B
:402C80000C23FB181A80274B1B781900264A0B005B005B185B00D31802331A880C23FB185A800C23FB181A880C23FB185B889A4221D80C23F9181D4B1A785B781B021A4333
:402CC00000231204120C1B0C1B04134318000FF009F9031E12D0164B1B6884225200002110009847134B1B78DBB202229343DAB2104B1A7002E0012000F09CFB0D4B1B787B
:402D0000DBB201229343DAB20A4B1A70044B00221A80C046BD4608B080BDC046D728002010100020FB280020080C0020E8280020B0280020FC28002080B500AF094B0022F7
:402D40005A70084B00221A70074B1B78052B03D1054B07221A7002E0034B08221A70C046BD4680BDE8280020D728002080B582B000AF78607B681B78032B3ED1264B1B7880
:402D8000DBB21A000223134037D0244B1B78022B10D002DC012B05D024E0032B12D0042B18D01FE01E4B1B680822FF3200211000984717E01A4B1B68842252000021100076
:402DC00098470FE0164B1B680A22FF3200211000984707E0124B1B6885225200002110009847C0460C4B1B78DBB202229343DAB2094B1A70094B00221A707B681B78042B5E
:402E000005D1084B1B78042B01D1FFF7C5FCC046BD4602B080BDC046FC280020D7280020B0280020D628002080B500AFC046BD4680BDC04680B584B000AF78600E23FB1843
:402E400000221A707B689B79002B1CD10F23FB1800221A7012E00F23FB181B787A68D35C002B04D00E23FB1801221A700BE00F23FB181A780F23FB1801321A700F23FB18D2
:402E80001B78052BE7D90E23FB181B781800BD4604B080BD80B582B000AF0200BB1D1A80C046BD4602B080BD80B582B000AF7860C046BD4602B080BD80B586B000AF020028
:402EC0003960FB1D1A70C74B1B78DBB201221343DAB2C44B1A70FB1D1B78FA2B00D978E19A00C14BD3181B689F460C23FB1808221A700C23FB1800225A700C23FB1818004E
:402F000005F0F2FA0C23FB1808221A700C23FB1801225A700C23FB18180005F0E5FA0923002B01D003F010FBB04B1B681800FFF781FF031E05D0AD4B1B68180003F010FBA4
:402F400003E0AB4B180003F00BFB00200EF080F80823FB183F221A700823FB1800225A700823FB1818000EF091F8A24B05221A7059E13B681800FFF7F9FE54E13B681A78B7
:402F80009D4B1A704FE13B683B613B691B78002B00D020E13B695B78002B0BD1974B0022DA80964B00229A80944B954A1A603B69924A5A608B4B1B78DBB201229343DAB217
:402FC000884B1A7007E1874B1B78DBB21A002023134000D001E18B4B1B78102B02D1894B0522DA70884B1B78864A110018000DF069FEF2E03B685A78844B1A7013E13B6882
:403000001800FFF751FF0EE13B681800FFF74CFF7F4B1B88002B01D00BF038F9754B02221A7000E1734B05221A70FCE0714B1B78022B00D1D3E06B4B1B78DBB21A00012304
:40304000134000D1CBE0674B1B78DBB21A00042313400BD0674B03221A70624B1B78DBB204229343DAB25F4B1A70B8E05D4B1B78DBB21A00082313400BD05E4B05221A7029
:40308000584B1B78DBB208229343DAB2554B1A70A5E0584B1B78032B00D0A0E0554B05221A709CE03B681B881800FFF7F3FEBAE0554A3B681000190002231A0003F0FFF91D
:4030C0004D4B00221A70504B1B783D33FF335A00504BD3180133504A1000190002231A0003F0EDF94D4B00221A70FFF79DFE9AE0FFF722FE97E03B685B88162B05D8162314
:40310000FB183A6852881A8003E01623FB1817221A801623FB1819883B681A8800231204120C1B0C1B04134318000FF01FFA7AE03B681800FFF79AFC75E03B681800FFF768
:40314000CFFC70E03B68180000F08CF86BE03B68180000F0A7FA66E000F092FE63E03B68180000F039FD5EE03B68180000F0D8FE59E03B681800FFF7C3FC54E03B6818002D
:40318000FFF750FC3B681800FFF7C2FC154B1B78DBB21A000123134044D13B6818680EF04FFE3FE03B681800FFF7BAFC3BE03B681800FFF73BFD36E03B681800FFF798FCE5
:4031C00031E0174B1B7801221343DAB2144B1A7029E0C04627E0C04625E0C04623E0C04621E0C046FC28002094840100C00B0020B80B0020D6280020E428002028100020D7
:40320000A80B00201C0C0020E8280020B4280020D228002000920100D4280020D7280020AC280020C0460D4B1B78DBB21A00112313400ED0094B1B78DBB201229343DAB275
:40324000064B1A70064B1B68FA1D1278396810009847C046BD4606B080BDC046FC280020B028002080B586B000AF78600023FB606B4B1B78012B00D0CDE06A4B1B78DBB2F9
:403280001A000223134000D1C5E00A23FB187A6812891A800A23FB181B88062B05D00A23FB181B88142B00D0AEE00823FB187A6852891A801423FB1800221A8092E07B6856
:4032C0005A681423FB181B88D318FB601323FB1800221A70FB681A88534B1B889A4200D276E0FB681A88504B5B889A4200D96FE00A23FB181B88062B00D065E01623FB189E
:4033000000221A8055E01623FB181A88474913005B009B185B00CB1804331A88FB689B889A423FD11623FB181A88404913005B009B185B005B5A002B13D11623FB181A88CF
:403340003A4913005B009B185B00FA68CB1811000422180003F0B3F81323FB1801221A7020E01623FB181B88012B0FD81623FB181B885A1C2D4913005B009B185B00CB18EA
:4033800004331A88FB689B889A420BD0284B1B68FA68111D0C22FF32100098471323FB1801221A701623FB181A881623FB1801321A801623FB181B88022B09D81323FB18E0
:4033C0001B78002B9FD003E0FB68180000F034FE1423FB181422B9180A22BA18098812888A181A801423FA180823FB1812881B889A4200D263E70B4B1B78DBB2012293433F
:40340000DAB2084B1A7006E0094B1B680822FF32002110009847C046BD4606B080BDC046D7280020FC280020D8280020080C0020B028002080B582B000AF0200FB1D1A7090
:40344000FB1D1B78002B06D0344B1B780133DAB2324B1A700CE0314B00221A70304B00221A8005E02D4B1B780133DAB22B4B1A702A4B1B78022B19D8284B1B781900294A14
:403480000B005B005B185B009A5A274B1B889A42E8D3224B1B781900224A0B005B005B185B009A5A204B5B889A42DBD81B4B1B78022B28D8194B1B781A0013005B009B1856
:4034C0005B00184A9918194B1A785B781B021A4300231204120C1B0C1B04134318000EF001FD031E15D0124B1B68842252000021100098470F4B1B78DBB202229343DAB226
:403500000C4B1A7005E00C4B03221A70002000F0ADFAC046BD4602B080BDC046FB28002010100020080C0020D8280020E8280020B0280020FC280020D728002080B582B041
:4035400000AF78607B68DB884F4A934200D184E04D4A93420BDC4D4A934224D04B4A934200DD68E0A822920193420AD087E0484A93423CD0474A93424BD0474A934224D0D8
:403580007DE0464B1B88002B04D17B689A88434B1A8074E0424B1B687A68911D86225200100098476BE03D4B5B88002B04D17B689A883A4B5A8062E0394B1B687A68911D7D
:4035C000862252001000984759E0344B1B89002B04D17B689A88314B1A8150E0304B1B687A68911D862252001000984747E02B4B5B89002B04D17B689A88284B5A813EE0D1
:40360000274B1B687A68911D862252001000984735E0224B9B89002B04D17B689A881F4B9A812CE01E4B1B687A68911D862252001000984723E0194B9B88002B04D17B680E
:403640009A88164B9A801AE0154B1B687A68911D862252001000984711E0104BDB88002B04D17B689A880D4BDA8007E00C4B1B687A68911D8622520010009847C046C046AB
:40368000BD4602B080BDC046032A0000012A0000A62A0000C92A0000042A0000EC280020B028002090B593B000AF7860D44B1B78DBB21A000223134000D1D1E13E23FB18C6
:4036C0007A6812891A803C23FB187A6852891A807B685B683B64CB4B1B78032B00D0C7E04623FB1800221A80B8E03B6C1800FFF77BF803001A002423FB181A803B6C023372
:403700003B643B6C1A782423FB189A703B6C01333B643B6C1800FFF767F803001A002423FB189A803B6C02333B643E23FB181B88152B33D12423FB1802229A752423FB1871
:403740000622396C9B181022180002F0B8FE3B6C10333B64AC4B1B781900AC4A0B005B005B185B00D31804331B881A00A84B9A425DD0A54B1B78012B5BD9A34B1B78022B15
:4037800057D8A14B1B789BB2023B9BB22422BA181100180000F0B8FCC0464AE03E23FB181B88072B48D12423FB1801229A753B6C1800FFF719F803001A002423FB18DA80EA
:4037C0003B6C02333B64904B1B7819008F4A0B005B005B185B00D31804331B88C0225201934203D08B4A934206D00BE02423FB181800FFF7A3FE1FE02423FB181800FFF73D
:40380000C5F819E0804B1B78012B14D97E4B1B78022B10D87C4B1B789BB2023B9BB22422BA181100180000F06FFCC04603E0C04602E0C04600E0C046714B1B78DBB2012261
:403840009343DAB26E4B1A704623FB184622B9183E22BA18098812888A181A804623FA183C23FB1812881B889A4200D23DE7F7E0644B1B78022B00D0F2E04623FB180022D3
:403880001A80E4E03B6C1800FEF7AEFF03001A000C23FB181A803B6C02333B643B6C1800FEF7A2FF03001A000C23FB185A803B6C02333B643B6C1800FEF796FF03001A0066
:4038C0000C23FB189A803B6C02333B643E23FB181B88062B30D10C23FB1802229A750EF07DFB0C23FB1859884B4B1A785B781B021A4300231204120C1B0C1B04134318001A
:403900000EF00EFB031E07D1444B0C22BA1813CA13C313CA13C388E0414B1B6884225200002110009847364B1B78DBB202229343DAB2334B1A7078E03E23FB181B88082B42
:4039400000D072E00C23FB1801229A753B6C1800FEF74AFF03001A000C23FB18DA803B6C02333B644423FB1800221A8033E04423FB181A88254913005B009B185B00CB184E
:4039800004331A880C23FB18DB889A421CD14423FB181A881D4913005B009B185B005B5A002B11D14423FB181A88184913005B009B185B000C22BA180220CB1811180422B3
:4039C000180002F07CFD0BE04423FB181A884423FB1801321A804423FB181B88022BC6D9094B1B781900094A0B005B005B185B00D31804331B881A000A4B9A4214D014E09E
:403A0000FC280020D7280020FB280020080C0020FEFF000001180000E828002010100020B028002012180000C0460F4B1B78DBB201229343DAB20C4B1A704623FB1846223A
:403A4000B9183E22BA18098812888A181A804623FA183C23FB1812881B889A4200D211E7C046BD4613B090BDFC28002080B582B000AF0200FB1D1A70FB1D1B78002B06D049
:403A8000354B1B780133DAB2334B1A7009E0324B00221A7005E0304B1B780133DAB22E4B1A702D4B1B78022B19D82B4B1B7819002A4A0B005B005B185B009A5A284B1B8866
:403AC0009A42E8D3244B1B781900244A0B005B005B185B009A5A224B5B889A42DBD81E4B1B78022B2DD81C4B1B781A001B4913005B009B185B001B4A585ACB185B881B0481
:403B0000034319001378527812021A4300231204120C1B0C1B04134318000EF0AFF9031E15D0114B1B680A22FF320021100098470E4B1B78DBB202229343DAB20B4B1A707E
:403B400005E00B4B04221A70002000F0E9F8C046BD4602B080BDC046FB280020080C0020D8280020E8280020B0280020FC280020D728002080B582B000AF3B0000221A803C
:403B80003B0000225A80114B1B78002B09D1104B5B8801339AB23B001A800E4B1A893B005A803B1D3A0012681A603A1D002311880904090C1B0C1B040B43528812041B04D8
:403BC0001B0C13431800BD4602B080BDFB280020DC280020080C002080B58AB000AF78600823FB1800225A804A4B1B78042B00D08BE0494B1B78DBB21A000223134000D1CA
:403C000083E01E23FB187A6812891A807B681A7B0823FB181A750823FB187A6812881A800823FB181B7D012B04D12623FB1804221A8003E02623FB1812221A807B685B6877
:403C40003B622423FB1800221A804EE03B6A1800FEF7CAFD03001A000823FB185A803B6A02333B620823FB181B7D022B15D10823FB183A6A043311001022180002F01FFCD4
:403C80003B6A10333B62254B1B78012B23D10823FB18180000F0FEFB1DE03B6A1800FEF7A3FD03001A000823FB189A803B6A02333B621A4B1B78002B04D10823FB18180094
:403CC000FEF78CFE154B1B78012B04D10823FB18180000F0DFFB2423FB182422B9182622BA18098812888A181A802423FA181E23FB1812881B889A42A8D3074B1B78DBB28C
:403D000001229343DAB2044B1A70C046BD460AB080BDC046D7280020FC280020FB28002080B584B000AF0200FB1D1A700C23FB1800221A800C23FB1800225A804A4B1B7859
:403D4000012B17D0FB1D1B78002B0DD0464B1B780133DAB2444B1A70434B1B78012B09D1FB1D00221A7005E03F4B00221A70FB1D01221A703C4B1B78012B0CD1FB1D1B78E7
:403D8000180000F0C5FA03001A000C23FB181A60FB1D01221A70344B1B78012B06D0FFF7E9FE03001A000C23FB181A600C23FB181A882E4B1B889A4215D90C23FB181A8826
:403DC0002A4B5B889A420ED80C23FB185A88274B1B889A4207D30C23FB181A880C23FB185B889A4203D9204B1B78012BA6D91E4B1B78012B21D80C23F9181D4B1A785B7822
:403E00001B021A4300231204120C1B0C1B04134318000EF01DF8031E21D0164B1B6885225200002110009847134B1B78DBB202229343DAB2104B1A7011E0104B05221A7005
:403E40000C4B1B681222FF320021100098470A4B1B78DBB202229343DAB2074B1A70C046BD4604B080BDC046FB280020D8280020E8280020B0280020FC280020D72800202E
:403E800080B500AF244B1B78DBB21A00022313403FD0224B1B78022B17D002DC012B05D037E0032B1DD0042B27D032E01B4B02221A700020FFF7BEFA174B1B78DBB201220A
:403EC0009343DAB2144B1A7023E00120FFF7B2FA114B1B78DBB201229343DAB20E4B1A7017E00120FFF7C2FD0B4B1B78DBB201229343DAB2084B1A700BE00120FFF710FF17
:403F0000054B1B78DBB201229343DAB2024B1A70C046C046BD4680BDFC280020D728002080B582B000AF7860084B1B78DBB21A000223134005D07B689B790A2B01D1FFF74A
:403F40009FFFC046BD4602B080BDC046FC28002080B582B000AFBB1D00221A8060E0BB1D1B889A1C324913005B009B185B005B5A002B50D13B1D00221A8040E0BB1D1B889F
:403F80002C4A1B01D3180C331A683B1D1B881B01D31800221A80BB1C00221A8019E0BB1D1B88244A1B01D3180C331A683B1D1B881B01D318D968BB1C1A8813005B009B18EB
:403FC0009B00CB1800221A80BB1C1A88BB1C01321A80BB1D1B88174A1B01D3180C331A683B1D1B881B01D3189B7A9BB2BA1C12889A42D4D33B1D1A883B1D01321A80BB1D78
:404000001B880C4A1B01D31809331B789BB23A1D12889A42B2D3BB1D1A88BB1D01321A80BB1D1B88002B9AD0C046BD4602B080BD080C0020400C002080B584B000AF78605B
:404040000D23FB1800221A700E23FB1800221A8046E00E23FB181B88284A1B01D31808331B78022B35D10E23FB181B88234A1B01D318043318687B6804331022190002F061
:404080000FFA031E25D10E23FB181B889A1C1C4913005B009B185B005B5A002B19D10E23FB181B889A1C164913005B009B185B007A68CB1811000422180002F000FA114BC4
:4040C0001B780133DAB20F4B1A700D23FB1801221A700E23FB181A880E23FB1801321A800E23FB181B88002B04D10D23FB181B78002BAED0C046BD4604B080BD400C0020D6
:40410000080C0020FB28002080B584B000AF02003960BB1D1A800D23FB1800221A70774B1B68002B0FD0764B1B88BA1D12889A4206D1724B1B683A681288013A92B21A8088
:404140006E4B00221A600E23FB1800221A80ABE00C23FB1800221A703B689B7D022B27D1BB1D1B88674A1B01D3180C331A680E23FB181B881B01D3181B7A022B18D1BB1D2C
:404180001B88604A1B01D3180C331A680E23FB181B881B01D31858683B6806331022190002F07EF9031E03D10C23FB1801221A703B689B7D012B27D1BB1D1B88514A1B01B7
:4041C000D3180C331A680E23FB181B881B01D3181B7A012B18D1BB1D1B884A4A1B01D3180C331A680E23FB181B881B01D31858683B6806330222190002F052F9031E03D1AB
:404200000C23FB1801221A700C23FB181B78012B43D1BB1D1B883B4A1B01D3180C331A680E23FB181B881B01D3181B88002B34D1BB1D1B88334A1B01D3180C331A680E2300
:40424000FB181B881B01D3183A6892881A80BB1D1B882C4A1B01D3180C331A680E23FB181B881B01D3183A6892785A72BB1D1B88244A1B01D3180C331A680E23FB181B8874
:404280001B01D3189A1C1D4B1A601D4BBA1D12881A800D23FB1801221A700E23FB181A880E23FB1801321A80BB1D1B88154A1B01D31809331B789BB20E22BA1812889A4290
:4042C00005D20D23FB181B78002B00D140E70B4B1B68002B0DD0094B1A680B4B1B7818000A4903005B001B185B00CB1802331B881380C046BD4604B080BDC0463410002045
:4043000038100020400C0020FB280020080C002080B584B000AF0200FB1D1A700823FB1800221A800823FB1800225A80FB1D1B78002B2DD0524B1B880133524A128852492A
:4043400012018A1809321278934206D24C4B1B8801339AB24A4B1A8023E04A4B1B88013309D1484B1B8801339AB2464B1A80444B00221A8015E0454B1B780133DAB2434B52
:404380001A703F4B1B8801339AB23D4B1A8008E03C4B00221A803A4B00221A80FB1D01221A70384B1B88384A1B01D31809331B789AB2334B1B889A421FD9324B1B88324A18
:4043C0001B01D3180C331A682D4B1B881B01D3181B8801339AB20823FB181A80294B1B88294A1B01D3180C331A68254B1B881B01D3185A880823FB185A800823FB181A8892
:40440000234B1B889A4215D90823FB181A88204B5B889A420ED80823FB185A881C4B1B889A4207D30823FB181A880823FB185B889A420CD9134B1B88134A1B01D31809336E
:404440001B789AB20E4B1B889A4200D96EE70C23FB180822BA1812681A600C23FA18002311880904090C1B0C1B040B43528812041B041B0C13431800BD4604B080BDC046D4
:404480003210002030100020400C0020FB280020D828002080B584B000AF78600E23FB1800221A700F23FB1800221A70B9E00D23FB1800221A707B681B7D022B37D1664BB1
:4044C0001B88664A1B01D3180C331A68644B1B881B01D318D9680F23FB181A7813005B009B189B00CB181B7A022B20D15A4B1B885A4A1B01D3180C331A68594B1B881B01C7
:40450000D318D9680F23FB181A7813005B009B189B00CB1858687B6804331022190001F0BFFF031E03D10D23FB1801221A707B681B7D012B37D1484B1B88484A1B01D318A2
:404540000C331A68464B1B881B01D318D9680F23FB181A7813005B009B189B00CB181B7A012B20D13C4B1B883C4A1B01D3180C331A683B4B1B881B01D318D9680F23FB18A8
:404580001A7813005B009B189B00CB1858687B6804330222190001F083FF031E03D10D23FB1801221A700D23FB181B78012B31D1294B1B88294A1B01D3180C331A68284B92
:4045C0001B881B01D318D9680F23FB181A7813005B009B189B00CB181B88002B1AD11E4B1B881E4A1B01D3180C331A681C4B1B881B01D318D9680F23FB181A7813005B00CE
:404600009B189B00CB187A6852881A800E23FB1801221A700F23FB181A780F23FB1801321A700D4B1B880D4A1B01D3180C331A680B4B1B881B01D3189B7A0F22BA1812786D
:404640009A4205D20E23FB181B78002B00D12EE7C046BD4604B080BD30100020400C00203210002090B585B000AF78600C23FC1800F0FFFD030023707B68022B00D8B3E036
:404680007B68302B00D9AFE05E4B1B78DBB21A007B689A420AD35C4A0F23FB1812781A705A4A0E23FB1812781A703FE0584B1B78DBB21A007B689A420AD3564A0F23FB185D
:4046C00012781A70544A0E23FB1812781A702DE0524B1B78DBB21A007B689A420AD3504A0F23FB1812781A704E4A0E23FB1812781A701BE04C4B1B78DBB21A007B689A42C2
:404700000AD34A4A0F23FB1812781A70484A0E23FB1812781A7009E0464A0F23FB1812781A70454A0E23FB1812781A707B68DA1E0B23FB1841498A5C1A700B23FB181B7822
:404740002F2B0DD97B682A2B0AD93D4B19221A60052000F085FD0D23FB1819221A7007E0374B1B68DAB20D23FB183F210A401A700B23FA180D23FB1812781B789A4208D2BD
:404780002F4B7A68033A2D498A5C1A60052000F067FD7B68284A9A180A23FB1812781A70284B0A22BA1812781A60274B0F22BA1812781A60254B0E22BA1812781A6005202D
:4047C00000F068F90B23FA180D23FB1812781B789A420CD91A4B7A68033A18498A5C1A60052000F03DFD02E0002000F021F90C23FB181B78180000F040FDC046BD4605B08F
:4048000090BDC04640F3FF0F41F3FF0F42F3FF0F43F3FF0F44F3FF0F45F3FF0F46F3FF0F47F3FF0F48F3FF0F49F3FF0F4AF3FF0F4BF3FF0F4CF3FF0F4DF3FF0FB088010003
:404840002CFF0B4028FF0B401CFF0B4020FF0B4080B584B000AF78600023FB60154B154A126801210A431A60134B144A1A60144B134A1268802109020A431A607B68002B03
:4048800012D01023FB600CE0012000F003F900F019F8031E02D00023FB6005E07B68013B7B607B68002BEFD1FB681800BD4604B080BDC04660F02E4078002E400220000035
:4048C00010002E4080B582B000AF054B1B68012213407B607B681800BD4602B080BDC0460C002E4080B584B000AF02003960FB1D1A7080239B05FB60FB1D1B781F2B02D9D0
:40490000002000F095F8FB1D1B7810339B00FA68D3181B68BB60FB1D1B7810339B00FA68D3183A681A60BB681800BD4604B080BD90B587B000AF0200FB1D1A70BB1D0A1C78
:404940001A70BB1D1B78032B02D9002000F070F8FB1D1B781F2B02D9002000F069F8FB1D1B7803221340DB0006337B611323FC1800F07FFC03002370FB1D1B789B08DBB247
:404980009B00144A944663441B68FB6003227B699A401300DA43FB681340FB60BB1D1A787B699A401300FA681343FB60FB1D1B789B08DBB29B00074A94466344FA681A6009
:4049C0001323FB181B78180000F057FCC046BD4607B090BD00E400E080B582B000AF0200FB1D1A70064BFA1D12781F210A40012191400A001A60C046BD4602B080BDC04604
:404A000000E100E080B582B000AF0200FB1D1A70064BFA1D12781F210A40012191400A001A60C046BD4602B080BDC04680E100E080B582B000AF0200FB1D1A7001BEC0464A
:404A4000BD4602B080BDC04680B582B000AF786009E00D4B1B68180000F002FC7B680B4A944663447B607A6880231B029A42F0D8074B1B687A685343180000F0F1FBC04665
:404A8000BD4602B080BDC0465C0C00200080FFFF540C002080B582B000AF0200BB1D1A80BB1D1B88044A12785343180000F0D8FBC046BD4602B080BD580C002080B500AFCA
:404AC0000F4B0F4A126801218A431A600C4B0C4A126802218A431A600A4B0A4A126830218A4310210A431A60064B064A126807218A4301210A431A60C046BD4680BDC04611
:404B000000F02E4000FF2E4080B500AF0F4B0F4A126802218A431A600D4B0D4A126807218A4302210A431A60094B094A126830218A4320210A431A60044B044A12680121A7
:404B40000A431A60C046BD4680BDC04600F02E4000FF2E4080B500AFFFF7B0FF044B044A1268802109060A431A60C046BD4680BD00F02E4080B584B000AF78600C4B1B68D2
:404B800001221340FB607B68002B02D0012B03D005E0FFF793FF06E0FFF7B6FF03E00020FFF746FFC046FB681800BD4604B080BD00F02E4090B583B000AFFC1D00F059FBB2
:404BC00003002370074B074A1268C02109020A431A60FB1D1B78180000F04FFBC046BD4603B090BD00010B4080B500AF054B1A68C0231B02134001D0012300E000231800E4
:404C0000BD4680BD00010B4090B583B000AFFC1D00F02FFB030023700D4B0D4A12680D490A408021C9010A431A60094B084A126808490A40802109020A431A60FB1D1B7824
:404C4000180000F01AFBC046BD4603B090BDC04600010B40FF3FFFFF90B585B000AF78600B23FC1800F005FB03002370FFF7BCFF031E04D00123FB60FFF7C6FF01E00023D3
:404C8000FB607B680D4A13407B600D4B0C4A12680C4911407A680A431A60094B1B68FB68012B01D1FFF786FF0B23FB181B78180000F0E3FAC046BD4605B090BD0404040037
:404CC00010020B40FBFBFBFF80B500AF344B1B68042213401FD0334B1B680422134017D0314B1B6804221340DA432E4B1B681A402C4B1A602C4B1B68042293431A002A4B57
:404D00001A602A4B1B68002B02D0284B1B6898470420FFF7A1FF224B1A688023DB00134022D0204B1A688023DB00134017D01E4B1A688023DB001340DA431A4B1B681A4003
:404D4000184B1A60184B1B68194A1A40164B1A60164B5B68002B02D0144B5B6898478023DB001800FFF778FF0D4B1A688023DB02134011D00B4B1A688023DB02134006D0A4
:404D80000A4B9B68002B02D0084B9B6898478023DB021800FFF760FFC046BD4680BDC04610020B40680C00204410002048100020FFFBFFFF80B584B000AF0200FB1D1A709F
:404DC0000F4B1B68DAB20F23FB1804218A431A70FB1D1B789B00DBB204221340D9B20F23FB180F22BA1812780A431A70044B0F22BA1812781A60C046BD4604B080BDC046B3
:404E00000002044080B584B000AF0200FB1D1A700F4B1B68DAB20F23FB1808218A431A70FB1D1B78DB00DBB208221340D9B20F23FB180F22BA1812780A431A70044B0F22FE
:404E4000BA1812781A60C046BD4604B080BDC0460002044080B500AF00F084F8C046BD4680BDC04680B500AF064B064A1268802109060A431A6000F019F800F01FF8C046F6
:404E8000BD4680BD0000244080B500AF064B1B78002B04D1FFF7DEFF034B01221A70FFF7E1FFC046BD4680BD6410002080B500AF0920FFF791FDC046BD4680BD80B500AF4D
:404EC00000F0B0F8C046BD4680BDC04680B582B000AF00237B60044B1B687B607B681800BD4602B080BDC0464003244080B582B000AF054B1B681F2213407B607B68180020
:404F0000BD4602B080BDC0460803244080B500AF074B074A1268802149020A431A60044B034A126803490A401A60C046BD4680BD04032440FFFFFEFF80B582B000AF786096
:404F4000C046064B1B681F221340102BF9D0044B7A681A60C046BD4602B080BD080224404002244080B500AF1D4B1E4A1A601E4B1E4A1A601E4B1F4A1A601F4B07221A6036
:404F80001E4B1C4A1A601E4B00221A600920FFF739FD03210920FFF7CBFC1A4B19000920FFF7A0FC184B00221A60184B00221A60174B00221A60174B00221A60164B00228E
:404FC0001A60164B00221A60144B1B689AB2144B1A80002000F044F8C046BD4680BDC046000024400F080001200024400D000080000324400701008004032440000224402E
:40500000040224409D500000880E2440C80E2440480F2440080F2440C80F2440880F24406610002080B500AF0A4B0A4A1268F02109060A431A60074B064A1268F0210905BA
:405040000A431A60044B054A12881A60C046BD4680BDC04600010240880F24406610002080B584B000AF78600A4B1B68FB60FB68094A1340FB607B689A06C0231B05134037
:40508000FA681343FB60034BFA681A60C046BD4604B080BD20002440FFFFFFF380B500AF044B1B68002B02D0024B1B689847C046BD4680BD6810002080B584B000AF0200EB
:4050C000FB1D1A700F4B1B68DAB20F23FB1840218A431A70FB1D1B789B01DBB240221340D9B20F23FB180F22BA1812780A431A70044B0F22BA1812781A60C046BD4604B0D8
:4051000080BDC0460001044080B584B000AF0200FB1D1A700F4B1B68DAB20F23FB1810218A431A70FB1D1B781B01DBB210221340D9B20F23FB180F22BA1812780A431A70E8
:40514000044B0F22BA1812781A60C046BD4604B080BDC0460001044080B584B000AF0200FB1D1A700E4B1B68DAB20F23FB1801218A431A70FB1D1B7801221340D9B20F23D4
:40518000FB180F22BA1812780A431A70044B0F22BA1812781A60C046BD4604B080BDC0460002044080B500AF044B1B68DBB201221340DBB21800BD4680BDC04604020440EE
:4051C00080B584B000AF0200FB1D1A700F4B1B68DAB20F23FB1810218A431A70FB1D1B781B01DBB210221340D9B20F23FB180F22BA1812780A431A70044B0F22BA181278D4
:405200001A60C046BD4604B080BDC0460002044080B584B000AF0200FB1D1A700E4B1B68DAB20F23FB1801218A431A70FB1D1B7801221340D9B20F23FB180F22BA1812784E
:405240000A431A70044B0F22BA1812781A60C046BD4604B080BDC04600040440000000000230800803D00138FDD1C046C046C0467047EFF3108072B6704780F31088704749
:4052800080B582B000AF78600A00BB1C1A80BB1C1A887B681A60C046BD4602B080BDC04680B582B000AF78600A00BB1C1A80BB1C1A887B681A60C046BD4602B080BDC04674
:4052C00080B584B000AF494B1B78DBB21B02484A1278D2B21343FB60464B1B78DBB21B02454A1278D2B21343BB60BB68434A934207D1FB68072B04D1414BBB600423FB60A8
:4053000009E0BA68D4231B019A4204D1FB68042B01D13B4BBB603B4BBA681A603A4BFA681A603A4B1B78DBB21B02394A1278D2B21343FB60FA6880239B019A4202D0FB6860
:40534000002B01D1334BFB60334BFA681A60334B1B78DBB21B02324A1278D2B21343FB60FB68304A934206D0FB682F4A934202D0FB68052B01D12D4BFB602D4BFA681A6070
:405380002C4B1B681B097B602B4B1B68AA2B29D17B68012B26D9214B1B78DBB20E2B21D1264B1B78DBB29BB21B0299B2244B1B78DBB29AB2BB1C0A431A80224BBA1C1288AB
:4053C0001A60214B1B78DBB29BB21B0299B21F4B1B78DBB29AB23B000A431A801C4B3A0012881A60C046BD4604B080BD59F1FF0F58F1FF0F5FF1FF0F5EF1FF0F580B00007E
:40540000580D00006C002E4074002E405BF1FF0F5AF1FF0F0220000078002E405DF1FF0F5CF1FF0F0F0F000005050000050F000080002E40EC0F00F0E00F00F06DF2FF0F78
:405440006CF2FF0F84002E406FF2FF0F6EF2FF0F94002E4080B582B000AF0200BB1D1A80BB1D1B881800FFF715FBC046BD4602B080BDC04680B582B000AF78607B681800E5
:40548000FFF7E2FAC046BD4602B080BD80B500AF00F0ECF8C046BD4680BDC04680B500AF00F0F0F8C046BD4680BDC04680B500AF00F0E8F8044B180000F0A2F8032000F05E
:4054C000ADF8C046BD4680BDD156000080B500AF034B180000F080F8C046BD4680BDC046D156000080B500AF014B1800BD4680BD0202000080B582B000AF78602B23180095
:40550000BD4602B080BDC04680B582B000AF78602B231800BD4602B080BDC04680B582B000AF78602B231800BD4602B080BDC04680B582B000AF78602B231800BD4602B0D2
:4055400080BDC04680B582B000AF78602B231800BD4602B080BDC04680B582B000AF78602B231800BD4602B080BDC04680B582B000AF78602B231800BD4602B080BDC04604
:4055800080B582B000AF78602B231800BD4602B080BDC04680B500AF2B231800BD4680BD80B582B000AF0200FB1D1A702B231800BD4602B080BDC04680B582B000AF78600F
:4055C00039602B231800BD4602B080BD80B500AFC046BD4680BDC04680B582B000AF786000F050F87B68180000F00AF8032000F015F800F03BF8C046BD4602B080BDC04636
:4056000080B582B000AF7860034B7A681A67C046BD4602B080BDC0460000002090B585B000AF0200FB1D1A700623FB600B23FC18FFF71FFE030023700B4B0B4A1268C0216B
:405640008A431100FA1D1078FA68904002000A431A600B23FB181B781800FFF70EFEC046BD4605B090BDC0460CE400E080B500AF034B802252011A60C046BD4680BDC046F6
:4056800000E100E080B500AF034B802252011A60C046BD4680BDC04680E100E090B583B000AFFC1DFFF7E5FD03002370074B074A126804218A431A6030BFFB1D1B78180012
:4056C000FFF7DBFDC046BD4603B090BD10ED00E080B500AF12F03AFDC046BD4680BDC046002243088B4274D303098B425FD3030A8B4244D3030B8B4228D3030C8B420DD37E
:40570000FF22090212BA030C8B4202D31212090265D0030B8B4219D300E0090AC30B8B4201D3CB03C01A5241830B8B4201D38B03C01A5241430B8B4201D34B03C01A524124
:40574000030B8B4201D30B03C01A5241C30A8B4201D3CB02C01A5241830A8B4201D38B02C01A5241430A8B4201D34B02C01A5241030A8B4201D30B02C01A5241CDD2C309F4
:405780008B4201D3CB01C01A524183098B4201D38B01C01A524143098B4201D34B01C01A524103098B4201D30B01C01A5241C3088B4201D3CB00C01A524183088B4201D34D
:4057C0008B00C01A524143088B4201D34B00C01A5241411A00D20146524110467047FFE701B5002000F0F0F802BDC0460029F7D076E7704703460B437FD4002243088B4278
:4058000074D303098B425FD3030A8B4244D3030B8B4228D3030C8B420DD3FF22090212BA030C8B4202D31212090265D0030B8B4219D300E0090AC30B8B4201D3CB03C01AB5
:405840005241830B8B4201D38B03C01A5241430B8B4201D34B03C01A5241030B8B4201D30B03C01A5241C30A8B4201D3CB02C01A5241830A8B4201D38B02C01A5241430A7A
:405880008B4201D34B02C01A5241030A8B4201D30B02C01A5241CDD2C3098B4201D3CB01C01A524183098B4201D38B01C01A524143098B4201D34B01C01A524103098B427B
:4058C00001D30B01C01A5241C3088B4201D3CB00C01A524183088B4201D38B00C01A524143088B4201D34B00C01A5241411A00D201465241104670475DE0CA0F00D049426A
:40590000031000D34042534000229C4603098B422DD3030A8B4212D3FC22890112BA030A8B420CD3890192118B4208D3890192118B4204D389013AD0921100E08909C30988
:405940008B4201D3CB01C01A524183098B4201D38B01C01A524143098B4201D34B01C01A524103098B4201D30B01C01A5241C3088B4201D3CB00C01A524183088B4201D38B
:405980008B00C01A5241D9D243088B4201D34B00C01A5241411A00D20146634652415B10104601D34042002B00D54942704763465B1000D3404201B5002000F005F802BDAC
:4059C0000029F8D016E770477047C0469E2110B5C905041C00F060FC002803D1201C00F0C1FB10BD9E21201CC90500F035FA00F0B9FB80231B069C466044F2E7F0B55646E6
:405A000044465F464D46F0B444024600C70F83B08846650A360EBA463DD0FF2E22D00023EC00802599469B46ED0425437F3E43465C025800DB0F640A000E984636D0FF2884
:405A400030D080230021E400DB041C437F38301A0190484642460843724E800030587A4013008746002D44D108239946063B9B46DDE70122FF2000241A406402C305640A5D
:405A8000D2071C431443200003B03CBC90469946A246AB46F0BD002D20D104239946033B9B46C4E7002C17D1022102E0002C0AD10121321A01924A4643460A435A489200A8
:405AC00082587B409746200000F0F0FB431F76309C4040420021BAE70321B8E7280000F0E5FB431F9D4000237630464299469B469DE70C239946093B9B4698E7802400220A
:405B0000E403FF20B9E70024C2468B465A465346022AAED0032A7DD0012A31D1012200201A400024A9E70122101A1B2856DD1A4000200024A1E78023DB031D424BD180235F
:405B4000DB032B435C02640A3A00FF2095E76D016001854230D2019A0024013A01921B220127290064006D00002901DBA84201D82D1A3C43013A002AF3D16A1E95412C4330
:405B800001987F300028CEDD620704D00F222240042A00D00434220103D5244A019814408030FE2800DD64E70122A401640AC0B21A4062E72C00A9E72D1A1A220124CFE70B
:405BC0006B02BCD500248023DB031C436402640A4246FF2051E71C42B3D1F4E721002022C140101A8440621E94410C43620704D00F222240042A00D00434620104D50122D8
:405C000001201A40002438E70122A401640A1A40002032E78023DB031C436402640A5246FF202AE7E088010020890100FFFFFFF7F0B557464E4645464300E0B4460288460C
:405C4000760A1F0EC40F002F47D0FF2F25D0002380259A469946F600ED042E437F3F434642465D02D20F5B006D0A1B0E904640D0FF2B39D080220020ED00D20415437F3BA2
:405C8000FB1842465746591C62408C4607430F2F5CD86F49BF00C9598F46002E45D108239A46063B9946DAE7424602282DD0032800D1C3E0012800D0A2E000250026024013
:405CC000D4B27602ED05760A2E43E407264330001CBC90469946A246F0BD002E1AD104239A46033B9946BAE72A00511E8A41901CC6E70120002DC3D0280000F0D7FA431F56
:405D000076309D4043420020BAE70124FF2514400026D6E7300000F0C9FA431F9E400023763047429A46994699E70C239A46093B994694E780260024F603FF25C1E73500F5
:405D40004846B2E7350022004846AEE72904090C0800370C3604360C2C0C7943704367437443060C64183619B14203D980214902884647440004000C310409188D01681E06
:405D80008541890E2943350CED19AD010D43290104D5012369081D4063460D4319007F31002925DD680704D00F202840042800D00435280103D5274980330D401900FE2933
:405DC000A3DC0124AD016E0A1440CDB279E78020C003064207D0054205D128434602760A4446FF256DE706437602760AFF2568E70124611A1B2905DD14400025002660E772
:405E00006346CBE72E002023CE40591A8D406B1E9D412E43730704D00F233340042B00D00436730104D5012401251440002648E70124B601760A1440002542E7802601243A
:405E4000F6032E437602760A1440FF2539E7C04660890100FFFFFFF7F8B54A024E0043024400240EC50F9B09360EC90F9209FF2E00D183E001204140A01BA9425CD0002816
:405E800000DC95E0002E1CD1002A00D081E05A0704D00F221A40042A00D004335A013BD50134FF2C00D191E001209B015B0AE4B205405B02E4055B0AED0723432B43180091
:405EC000F8BDFF2CE3D08021C9040A431B2800DD90E016002021C640081A8240511E8A4132439B1A5A0115D59B019E09300000F0DDF90538864084426CDC041B33002020FE
:405F00000134E340041BA640721E964100243343BDE70D005A07BCD1DF0801231D40FF2C33D1002F00D190E08022D20313003B435B025B0AFF24BCE700284FDD002E2ED04D
:405F4000FF2CA4D08025ED042A431B2800DD97E016002025C640281A8240501E824132439B185A01D5D50134FF2C6DD001227B481A405B08034013430D0088E7002A00D0D6
:405F80007AE777E7031EC5D100257B025B0AE4B28FE701380028A4D0FF2C97D177E7002A00D174E701380028DAD0FF2CCDD16EE7002821D1601CC0B2012858DD80279E1A4E
:405FC000FF0437402FD0D61A0D008FE701231D4000236EE7624B241A334058E7002851D1601CC6B2012E33DDFF282DD09B185B0804004CE7012274E7002C1AD0FF2E1FD081
:406000008024E404404223431B2800DD96E01D002024C540201A8340581E83412B43D31A34000D005EE7002E00D05FE700250024ABE7002B44D0C0430028F0D0FF2EE3D1AE
:406040001300FF240D0022E70D00FF24002330E7002C5DD1002B7DD0002A00D117E79B185A0100D456E73E4A040013400FE7002C1ED1002B2FD1002A65D013000D0006E7F9
:4060800001226DE7002C1FD1002B59D0C04300280BD0FF2E4FD01B285EDC1D002024C540201A8340581E83412B439B18340058E7002B1CD1002A49D013000D00FF24E6E68F
:4060C000130034000D00E2E6FF2E34D08024E40440422343DFE7002A00D1D8E68027981AFF04074000D14DE7D31A0D00CFE6FF24002A00D1CBE68020DB08C003034204D0DB
:40610000D208024201D113000D00DB00FF24BEE6002B10D0FF24002A00D1B8E68020DB08C003034203D0D208024200D11300DB000D00FF24ABE61300FF24A8E601236EE7AD
:4061400013003400A3E6002700251EE780270025FF03E9E613009AE60123A6E7FFFFFF7DFFFFFFFB4302590A4300C20F1B0E00207E2B0EDD9D2B0DDC802000040143952BB9
:406180000BDC9620C31AD9400B005842002A00D118007047034BD018FBE7963B99400B00F3E7C046FFFFFF7F70B5002830D0C317C5185D40C40F280000F078F89E231B1AC2
:4061C000962B0DDC9622D21A95406A02520AD8B25202C005520AE40702432243100070BD992B19DC9922D21A9540124A2A40690704D00F210D40042D00D00432510103D5C6
:406200000C4B1A409F231B1A9201520AD8B2DFE7002400200022DBE705222E00121AB921D6402A00C91A8A40551EAA4135001543DBE7C046FFFFFFFB8446081C6146FFE7E1
:406240001FB500F0BDF8002801D40021C8421FBD10B500F049F84042013010BD10B500F0AFF8002801DB002010BD012010BDC04610B500F0A5F8002801DD002010BD012084
:4062800010BDC04610B500F057F8002801DC002010BD012010BDC04610B500F04DF8002801DA002010BD012010BDC0461C2101231B04984201D3000C10391B0A984201D3ED
:4062C000000A08391B09984201D30009043902A2105C40187047C04604030202010101010000000000000000430270B542004C005D0AC30F4802120E460A240EC90FFF2AE9
:406300000FD0FF2C11D00120A24200D070BDB542FCD18B420DD0002AF8D12800431E9841F4E70120002DF1D1EBE70120002EEDD1E9E70020EAE7C0464302F0B542005D0A89
:40634000C30F4802440A4800120E000EC90FFF2A1FD0FF2822D0002A09D16E426E4100280FD1002C0DD10020002D09D005E0002801D1002C01D08B4213D0584201231843F4
:40638000F0BD002EF7D048424141012049420843F6E7002DDDD002204042F1E7002CDAD0F9E78242E9DC04DBA542E6D80020A542E6D25842434101205B421843E0E7C0467F
:4063C0004302F0B542004C005E0AC30F4802120E450A240EC90FFF2A17D0FF2C19D0002A0BD170427041002C17D0002807D048424141012049420843F0BD002C13D08B42FD
:4064000014D0584201231843F6E70220002EF3D1E3E70220002DEFD1E1E7002DE5D10020002EE9D0EDE7002DE9D1EAE7A242E8DC04DBAE42E5D80020AE42DDD25842434146
:4064400001205B421843D7E7014B18687047C046E80F00200E4B70B500251E000D4CE41AA410A54204D0AB00F35898470135F8E712F098FA084B00251E00084CE41AA41004
:40648000A54204D0AB00F35898470135F8E770BDB0890100B0890100B0890100B889010030B50024A24208D0035D651C0C5DA34201D0181B02E02C00F4E7002030BD002309
:4064C00010B59A4203D0CC5CC4540133F9E710BD03008218934202D019700133FAE770470023C25C0133002AFBD1581E70470000134A1088810703D08107890F401A001DEF
:4065000011791030484381B25088820703D08207920F801A001D800040180A494030098980B2CA0701D0503080B2890706D504495422091F09785143081880B27047000097
:40654000720C00207810002010B501F0EDFE10BD10B501F0EFFE10BD10B500F055FA10BD10B50749044609780220002907D1204601F030FF002802D120460AF055FE10BD22
:40658000020E002070B504460120002C12D02368002B0FD0616800290CD0074D06222889208118462968FFF78AFF6968606809780170002070BD000078100020FFB585B005
:4065C000002768460E9D07734F481C460078002802D0082009B0F0BD10990F9801900095029105A807C800F001F90028F2D16946264603AB84460873002C19D0002115E015
:406600008A00B75A082F09D990198078002805D0083FB7521878401C187005E0002914D00027B75290198770491CC9B2A942E7D360460028CED10F98002809D0109901F04E
:4066400023FA002804D00120C4E701208446EFE701F070FE2D480021416081600599016021888180022D07D3A1798171A17AC171A1890181218A418100211EE0481C19E05D
:4066800082008B00A75AE65ABE46BE4211D26F463E80B4461E190296B678BE7001967646E6521719029EBB78B3706646A652019EBE70401CA842E3D3491CA942DED3134893
:4066C00022460C3000906846037B0799069800F015F90028B8D168460B4C007B60700B480C3001F057FE0028AED1084907480C3107F068FD0028A7D107F082FD0028A3D196
:406700000121217066E700006C0C00206C100020F8B5054633480E460078002802D002242046F8BD002E5BD000242F49002D16D02A89D0070DD02868002808D003881B3BCB
:40674000E12B04D24088FB2801D81B2801D2012409E0900707D56868002804D1F7E70020088108604860002CDAD11F482F8907811C481B21801D0180418004210171194982
:406780000020891C0870F80705D016480622801D2968FFF794FE1449B80703D56A681148127882700F480D46801D0860001F486001F036FE0B48801D01F024FE28890DF0A5
:4067C000D5FE28890EF00AF803461033FFF790FE1F21C018890140180249308088809FE701249DE76C0C002078100020FFB58446384F1C460020BB883F7805460246064639
:40680000002F11D100290ED0029999420BD36146002908D0002C06D00A99002906D02E4B0B99994202D2012004B0F0BD002144E0AB001F19BF78002F3BD0E35A002B38D049
:406840007B43591889B22B0000F04AF8050410161C253100A7782388BC46FF27233BEB37BB4222D26346032B1FD322E0A388002B1FD0302B19D31CE02389002B19D0282BE7
:4068800013D316E0A289002A13D01346134F233BBB420AD20DE0268A002A0AD033460F4F233BBB4201D2964203D901200EE0002001E000280AD16D1CEDB2099B9D42B7D330
:4068C0001C2463435B1802998B42ACD89642AAD8AAE700006C0C002079020000BAFF000030B47446641E2578641CAB4200D21D46635D5B00E31830BC18470000FFB583B0F5
:40690000002469460C801F4606468C80002806D00598002803D004983043800701D0012466E0002FFBD03449049809888842F6D3FEF7CCFDFEF7B2FD00F012FC002855D1EE
:4069400000F062FD002851D12C49084601F0D0F805042D0C4AD12A480499066081800021C18007810C98007AC00704D0684601F0FAFC040007D10C98007A800703D501A8F5
:4069800001F0FAFC0446BF1DFEB2002C20D13146059800F05DF804001AD10DF02DFF040016D16A461088928808368518144AF1B29088D288AEB29319984207D3401B801A3C
:4069C00080B201F085FB050007D000E0FF25012400F05EFA002D04D008E0F8B200F01CF9F6E700F081FA07490120087000F0CAFB204607B0F0BD0000700C00203D6B00001B
:406A000084100020780C002010B503480078012801D101F0FFF910BD780C002070B5084B0446DA889E8800205518B54206D81D68AA182260DA885118D98070BD032070BD0B
:406A400084100020014800897047000084100020F0B587B007460D4600208900009006916846FFF7DBFF844600285DD1304800990160002117E02E4B88001A68062911549A
:406A800006D22C4C0419667882185670628805E0C419203CA67A8218567022891B68C018491C4280C9B2A942E5D300242DE0601CC2B2059025E01E4FA300396896005818E6
:406AC00040887118039604904E88B04217D938466F46FE80B6464F786E4677710297049F4F800168039F5E18767879184E700168764659184E800068029F18184770521CC5
:406B0000D2B2AA42D7D30598C4B2AC42CFD36046002809D168460699FFF780FF8446002802D1054900980860604607B0F0BD00007C0C0020D8890100800C002070470000A4
:406B400010B5002809D005494A68002A05D0011F08788000105801F069FA10BD7C0C002010B50446FFF76EFFC0B2801DA0420CD307484068002808D0A100405801F0C8F9DB
:406B8000002801D00470001D10BD002010BD00007C0C0020F8B516460D460446FFF752FFC0B2801DA04203D20020C0430090F8BDB2B2E9B2684601F0D1F90099481C03D096
:406BC000024AA000526811500098F8BD7C0C0020F8B50746FFF736FF801DC6B20A49002005460C680DE06178002907D06188B94202D32078FFF7B4FF002804D1241D6D1CA6
:406C0000EDB2B542EFD3F8BD7C0C002010B5002801D0FFF795FF10BD70B506460948002504680BE06178002905D062882078121D0023FFF7AFFF241D6D1CEDB2B542F1D3D9
:406C400070BD00007C0C0020FFB581B00A9F16000C4620D000F0F2F8054604281BD0002F0CD03846FFF7B4FF20492A0151184860002810D03A460499FFF721FC1B49280181
:406C80000E504618778101980570200406D47D20C000444304E0FF2005B0F0BD6404640C00F0BAF80746042807D000F04FFAA0420BD800F04BFA201A03E0204600F0AAFAB7
:406CC0000020F06035720020E6E700F03FFA009000F0B6FA00980121001B009000F0ECF802493A0151180098C860E6E790100020F8B5060116483418217A042903D0E06881
:406D0000002802D017E00020F8BD00F01FFA054600F096FA00F0A0F804280CD001010C480F18F8680021451900F0C6F80020F860284600F06FFA6068054D002801D0FFF7D7
:406D400065FF042020720020A8516081E060DAE790100020FEB500266A46304601232549050169180D7A042D02D0C96800291BD000211154401CC0B20428F0D30024684642
:406D8000005D002830D01B48210108184189476805680291002101604160042241810272C160002E02D015E01354E3E700F054F804280ED001010F4808180190C6680021CB
:406DC000304600F079F801980021C160304600F021FA0126002D07D038460299A847002F02D03846FFF712FF641CE4B2042CC6D3FEBD0000901000200EB5002005216A4694
:406E00000090118150810348694600680EF059FB0EBD0000840C0020074A0020010189180B7A042B02D0C968002903D0401CC0B20428F3D3704700009010002005490020C4
:406E400002015218127A042A03D0401CC0B20428F6D370479010002030B50A4B04200A4C00210A011219157A042D06D0D268002A03D09A4201D808461346491CC9B204299D
:406E8000EFD330BDFFFF0000901000207047000030B50020074C05460423020111190B72A5504D60401C4D81C0B2CD600428F4D330BD00009010002030B5094C00231A01B7
:406EC0001219157A042D04D0D568002906D02D18D5605B1CDBB2042BF1D330BD2D1AF7E790100020002070471CB5002469460C70142001902346054A05480EF0E7FA044868
:406F00000068401C00D1FF2420461CBD656F0000840C00203EB5124A0146FF2000230124126800290DD0012914D0042908D104206946009308814B8110460EF0C2FA80B248
:406F40003EBD6846009304814381694610460EF0B3FAF4E768460093048143816946EBE7840C002070B545890468416800890300FFF7B6FC08280509091E222826280020ED
:406F800005F0A8FE1EE0022908D0C8B22A4621460CF090FB2046FFF739FE13E002202A4621460CF087FB2946204600F00DF809E000200DF085FF05E02046FFF7CBFE01E021
:406FC000FEF704FB002070BD014B0022DB681847880C002070B5448905680089022803D0032809D0FF2070BD2246094C0023A46829460120A04708E0FFF7AAFA241DA2B2DD
:4070000000232946022006F090FF002070BD0000880C002070470000024800214160018041807047880C002070B50C46002186B016460391012802D0022859D116E003A9F7
:40704000012006F0C7FF01281BD1039D324621462846FFF734FA0095287801900220694608814E816846FFF7B5FF41E0214D002B686809D0049004A9022006F0ABFF012837
:407080001DD0022006B070BD002812D0298840182146FFF714FA28880024801980B228806988091D884206D12C801348FFF792FF03E00320E6E788421AD96C6018E00498E3
:4070C0006860E278A378110219430B4A698000231060E3565360032313815181A1788170E178C1706178417021780170042028800020C7E7880C0020D01000203EB51546D7
:407100000C46022803D004280CD000203EBD0091019002206946088107484A8100680EF0D0F907E00CF0C6FA044B0022DB6829462046984701203EBD840C0020880C00208D
:40714000014AD16090607047880C0020034801688068081A0A21484300097047DC10002010B5FEF7A3F9482204490548FFF7A7F903490120C870002010BD0000F4890100F8
:40718000E014002010B5FEF781F910BD70B5134C2368002B08D0207B1149C20705D04008400020738868A08070BD88680B4AA18880B29268814203D90A4D691A091802E0A7
:4071C000814202D2411A5118A160A080A0689842EAD30EF093F900F013F870BDDC100020C0102E40FFFF000010B508461946FFF7A7FF10BD704710B5FFF780FF10BD0000E1
:4072000003480021016041608160C16070470000DC100020024610B5FF20002A0CD0FFF7EFFF064C0321207B0843207310010A21FEF7DCFA2060002010BD0000DC10002096
