:400000000080002011000000050500000505000080B500AF00F080FA80B500AF284B12221A6001F0C1F9274B180001F0EDFA012001F0CAF9302000F0A9FF234B234A1A6089
:40004000234B8022D2051A60224B224A126802210A431A60204B214A1A60214B00221A60204B204A126808218A431A60FA23DB00180001F081F81C4B180001F035F91B4B4D
:40008000A02212011A601A4B1A4A1A601A4B822212061A60194B8022D2021A60184B40221A60184B1900082001F0B0F8082001F0D3F8074B8022D2051A60C046BD4680BDD4
:4000C00030001040001BB70004010B40060000800C020B4078002E407C002E40D0D0000064F02E406CF02E40DC050000000301400000014040FF008008010B4000010B40BE
:40010000180101401D15000080B582B000AF72B6364B00221A60FB1D00221A7022E0FB1D1A7813005B009B185B00314A9B183B603B681A78597809020A43997809040A435A
:40014000DB781B06134318003B681A795B791B0213439BB2190000F03BF9FB1D1A78FB1D01321A70FB1D1B78012BD8D9214A224B1100180000F03CF9204B214A1A60214BAD
:40018000992212041A60204BC02292041A601F4B992212041A601E4A1D4B1B78DBB23C218B43DBB214210B43DBB21370194A194B1B78DBB216210B43DBB21370164B102298
:4001C0001A60164B164A1A60164B10221A60164B1C221A60154B9222D2011A60FFF71CFF00F048F9C046BD4602B080BD6CF02E40B4300100CC300100C030010000000240AA
:40020000000007EE00500F4008500F4020500F4001700F4000700F4000000440080004400080D90018000440000204400802044010B5064C2378002B07D1054B002B02D06A
:40024000044800E000BF0123237010BD3810002000000000B0300100084B10B5002B03D00749084800E000BF07480368002B00D110BD064B002BFBD09847F9E700000000E8
:400280003C100020B0300100A80B00200000000080B500AF62B6044B180000F039FA01F0E9FD00F023F8FAE7AD02000080B582B000AF786039607B68012B02D0272B07D095
:4002C00007E0064B064A1A60064B074A1A6000E0C046C046BD4602B080BDC04660F02E4031030000080003400203008090B583B000AFFB1D00221A7001F0BCFDFA23DB00AD
:40030000180000F0CBFFFB1D1B78FA1D591C1170180000F01FF8BB1D0D4A12781A70BB1D1B78022B06D1002000F0A2F9012000F077F90AE0012000F09BF93C1D002000F03E
:400340007FFA0300238001F095FD01F093FDE2E77C21002090B58BB000AF0200FB1D1A70FB1D7B622323FB1800221A700C23FB187A6A1A600C23FB1801229A802023FB1892
:4003800012221A801423FB182022BA1812881A811423FB180C22BA1803CA03C32323FC181423F8180023002200210DF045FF03002370012000F034F92323FB181B780D2BBF
:4003C00002D1002000F02CF9C046BD460BB090BD80B582B000AF786039603A687B680021180001F00BFDC046BD4602B080BDC04680B586B000AF7860396000233B6100233B
:400400007B612FE07B699B007A68D3181B68BB600F23FB18BA681A70BB68FF229343BB6018E03B695B003A68D3181B781A00BB68D31819003B695B003A68D3185B780B708F
:400440003B6901333B610F23FB181A780F23FB18013A1A700F23FB181B78002BE1D17B6901337B617B69022BCCD9C046BD4606B080BDC04680B500AF0C4B30221A600C4B68
:4004800003221A600B4B03221A600B4B802212061A600A4B802212031A60094B00221A60012000F00FF8C046BD4680BD08210240300030403000314000003A4000033A40A7
:4004C000000E3F4080B584B000AF0200FB1D1A700B4B1B68FB60FB1D1B78002B05D0FB68802212061343FB6003E0FB685B005B08FB60034BFA681A60C046BD4604B080BD83
:4005000080033A4080B500AF01F034FC03001B680C2B00D1FEE7FEE780B586B000AF224B7B61224B3B61204B7B6135E03B691B68FB603B695B68BB603B699B683B60002330
:400540007B600CE0FB681A68BB681A60BB680433BB60FB680433FB607B6804337B607A683B689A42EED13B69DB683B6000237B6008E0BB6800221A60BB680433BB607B6834
:4005800004337B607A683B689A42F2D13B6910333B617B69013B7B617B69002BC6D101F0EFFBFFF775FEFEE701000000E032010080B582B000AF154B144A126801218A4366
:4005C0001A6000237B600FE07B68032B04D8104B7A689200D35800E00E4B0F4A796889008B507B6801337B607B682F2BECD9FFF78BFD0A4B00221A60044B044A126801213A
:400600000A431A60C046BD4602B080BD00001040000000000505000000000020C000002080B584B000AF0200FB1D1A700F4B1B68DAB20F23FB1808218A431A70FB1D1B780C
:40064000DB00DBB208221340D9B20F23FB180F22BA1812780A431A70044B0F22BA1812781A60C046BD4604B080BDC0460002044080B584B000AF0200FB1D1A700F4B1B682C
:40068000DAB20F23FB1804218A431A70FB1D1B789B00DBB204221340D9B20F23FB180F22BA1812780A431A70044B0F22BA1812781A60C046BD4604B080BDC04600020440D1
:4006C00080B500AF094B00221A70094B00221A70084B00221A7000F013F8074B00221A70064B00221A70C046BD4680BD8721002080210020862100206C2100207421002029
:4007000080B500AF00F03CFCC046BD4680BDC046B0B594B004AF78603E23FB1800221A802823FA183D4B1000190014231A0001F05CFB3B4B1B78002B04D1FFF7C1FF384B04
:4007400001221A707B68002B5CD0364B7A681A603E23FB181B88002B29D11023FB181C22BA185A601023FB182022BA181A601023FB1800221A812023FB181B221A80202322
:40078000FB181B225A802023FB1804221A711C23FB1808221A703E23FC180E23FA181023FB181100180001F041FC030023803E23FB181B88002B29D13E23FC182823FD18F6
:4007C000AE231A0118491948194B0293194B0193052300932B0001F07FFB030023803E23FB181B88002B11D1134B01221A703E23FC18124B0D22142118000DF005FD0300E4
:40080000238003E03E23FB1801221A803E23FB181B881800BD4610B0B0BDC046E03001005410002070210020C8000020890B000079020000003C01007C210020FC30010038
:4008400090B585B000AF0200FB1D1A70FB1D1B78022B04D90E23FB1801221A804AE0294B1B78042B41D1284B1B78DBB21A00042313403AD1FB1D1B78002B0BD1234B1E22F1
:400880001A82224B5B6820221A80204B5B6830225A8010E0FB1D1B78012B0CD11B4B96221A821A4B5B68C822D2001A80174B5B688022D2015A80164BFA1D12781A700E2329
:4008C000FC18124B18000BF0D5FC030023800E23FB181B88002B0DD10B4B1B78DBB204221343DAB2084B1A7004E00E23FB180422FF321A800E23FB181B881800BD4605B0E2
:4009000090BDC0467C21002087210020FC0B00208621002080B584B000AF78600A00FB1C1A700023BB60FB1C1B78002B01D1154BBB60BB68002B20D07B689A79BB681A7015
:400940000F23FB1800221A7012E00F23FB181B780133BA68D3180F22BA18127879688A5C1A700F23FB181A780F23FB1801321A700F23FB181B78052BE7D9C046BD4604B03F
:4009800080BDC046D00B002080B582B000AF78607B681B789AB27B6801331B789BB21B029BB213439BB21800BD4602B080BDC04690B585B000AF78600F23FB1800221A7043
:4009C0007B689B890F22934232D17B68181D7A680F23FC18402300210DF02EFC030023700F23FB181B78002B1AD17B685B681800FFF7CAFF03001A00022313409BB2002BEE
:400A000007D00F4B1B687968822252001000984706E00B4B1B6879680622FF3210009847084B1B78DBB201229343DAB2054B1A700F23FB181B781800BD4605B090BDC04687
:400A4000702100208721002090B585B000AF78600F23FC187B681800FFF7AAFF03002370154B1B78DBB21A00012313401FD10F23FB181B78002B16D00823FB1812229A7020
:400A80007B689A890823FB181A800823FB180F22BA181278DA700823FA187B68110018680CF034FD03E07B6818680CF0B1FDC046BD4605B090BDC0468721002080B582B035
:400AC00000AF7860C046BD4602B080BD80B500AF044B00225A70034B00221A70C046BD4680BDC0468421002080B582B000AF7860C046BD4602B080BD80B500AFC046BD467A
:400B000080BDC04680B584B000AF78600E23FB1800221A707B689B79002B1CD10F23FB1800221A7012E00F23FB181B787A68D35C002B04D00E23FB1801221A700BE00F23AA
:400B4000FB181A780F23FB1801321A700F23FB181B78052BE7D90E23FB181B781800BD4604B080BD80B582B000AF0200BB1D1A80C046BD4602B080BD80B582B000AF7860B3
:400B8000C046BD4602B080BD80B588B000AF02003960FB1D1A70C44B1B78DBB201221343DAB2C14B1A70FB1D1B78412B00D152E123DC212B00D1C6E00DDC022B00D198E0DE
:400BC00002DC012B3BD0BBE1052B00D196E0062B00D198E0B4E1272B00D1EEE006DC242B00D1E0E0262B00D1F3E0A9E1282B00D1EBE02A2B00D1DBE0A2E14F2B00D192E17B
:400C00000BDC432B00D145E100DA40E14C2B00D177E14E2B00D188E192E1572B00D186E106DC502B00D184E1542B00D16EE187E1712B00D109E1FA2B00D16CE180E1142321
:400C4000FB1802221A701423FB1800225A701423FB18180003F0EEF81423FB1802221A701423FB1801225A701423FB18180003F0E1F80B23002B01D001F0F4F88B4B1B6885
:400C80001800FFF73FFF031E11D0884B1B68180001F0F4F8854B1B6800211800FFF73AFE824B1B6801211800FFF734FE0DE0804B180001F0E3F87E4B00211800FFF72AFE73
:400CC0007B4B01211800FFF725FE03200BF066F91023FB183F221A701023FB1800225A701023FB1818000BF077F9724B04221A7026E13B681800FFF7F7FE21E13B681A78E1
:400D00006D4B1A701CE13B68BB61BB691B78002B00D010E1BB695B78002B0BD1674B0022DA80664B00229A80644B654A1A60BB69624A5A605C4B1B78DBB201229343DAB24B
:400D4000594B1A70F7E0584B1B78DBB21A002023134000D0F1E05B4B1B78102B02D1594B0522DA70584B1B78564A110018000BF03FFA03001A000E23FB181A800E23FB188C
:400D80001B88002B06D0514B1B680E22BA18110036209847444B1B78DBB201221343DAB2414B1A70C9E03B685A78494B1A70C7E03B681800FFF7E0FEC2E03B681800FFF799
:400DC000DBFE3C4B02221A70BAE03A4B04221A70B6E0384B1B78022B00D1B0E0324B1B78DBB21A000123134000D1A8E02E4B1B78DBB21A00042313400BD02E4B03221A7025
:400E0000294B1B78DBB204229343DAB2264B1A7095E0254B1B78DBB21A00082313400BD0244B04221A70204B1B78DBB208229343DAB21D4B1A7082E01E4B1B78032B00D09F
:400E40007DE01C4B04221A7079E03B681B881800FFF788FE74E01C4A3B681000190002231A0000F0C2FF144B00221A70164B1B789E339A00174BD3180133174A10001900E0
:400E800004231A0000F0B1FFFFF736FE58E0FFF71DFE55E03B685B88162B1FD81E23FB183A6852881A801DE087210020180C0020100C00207C210020802100205810002036
:400EC000A80B00208C0C0020842100207021002074210020003C0100782100201E23FB1817221A801E23FB1819883B681A8800231204120C1B0C1B04134318000CF010FBD3
:400F00001EE03B681800FFF79FFD19E03B681800FFF7D4FD14E0174B1B7801221343DAB2144B1A700CE0C0460AE0C04608E0C04606E0C04604E0C04602E0C04600E0C046A0
:400F40000D4B1B78DBB21A00112313400ED00A4B1B78DBB201229343DAB2074B1A70074B1B68FA1D1278396810009847C046BD4608B080BD6C21002087210020702100207A
:400F800080B500AFC046BD4680BDC04690B585B000AF78600C23FC1800F03FFB030023707B68022B00D8B3E07B68302B00D9AFE05E4B1B78DBB21A007B689A420AD35C4AB7
:400FC0000F23FB1812781A705A4A0E23FB1812781A703FE0584B1B78DBB21A007B689A420AD3564A0F23FB1812781A70544A0E23FB1812781A702DE0524B1B78DBB21A0031
:401000007B689A420AD3504A0F23FB1812781A704E4A0E23FB1812781A701BE04C4B1B78DBB21A007B689A420AD34A4A0F23FB1812781A70484A0E23FB1812781A7009E009
:40104000464A0F23FB1812781A70454A0E23FB1812781A707B68DA1E0B23FB1841498A5C1A700B23FB181B782F2B0DD97B682A2B0AD93D4B19221A60052000F0C5FA0D231A
:40108000FB1819221A7007E0374B1B68DAB20D23FB183F210A401A700B23FA180D23FB1812781B789A4208D22F4B7A68033A2D498A5C1A60052000F0A7FA7B68284A9A18E7
:4010C0000A23FB1812781A70284B0A22BA1812781A60274B0F22BA1812781A60254B0E22BA1812781A60052000F0FEF80B23FA180D23FB1812781B789A420CD91A4B7A6885
:40110000033A18498A5C1A60052000F07DFA02E0002000F0B7F80C23FB181B78180000F080FAC046BD4605B090BDC04640F3FF0F41F3FF0F42F3FF0F43F3FF0F44F3FF0FCD
:4011400045F3FF0F46F3FF0F47F3FF0F48F3FF0F49F3FF0F4AF3FF0F4BF3FF0F4CF3FF0F4DF3FF0F8C3201002CFF0B4028FF0B401CFF0B4020FF0B4080B584B000AF78606E
:401180000023FB60154B154A126801210A431A60134B144A1A60144B134A1268802109020A431A607B68002B12D01023FB600CE0012000F099F800F019F8031E02D000238D
:4011C000FB6005E07B68013B7B607B68002BEFD1FB681800BD4604B080BDC04660F02E4078002E400220000010002E4080B582B000AF054B1B68012213407B607B681800F9
:40120000BD4602B080BDC0460C002E4080B584B000AF02003960FB1D1A7080239B05FB60FB1D1B781F2B02D9002000F02BF8FB1D1B7810339B00FA68D3181B68BB60FB1DBA
:401240001B7810339B00FA68D3183A681A60BB681800BD4604B080BD80B582B000AF0200FB1D1A70064BFA1D12781F210A40012191400A001A60C046BD4602B080BDC046BA
:4012800000E100E080B582B000AF0200FB1D1A7001BEC046BD4602B080BDC04680B582B000AF786009E00D4B1B68180000F0ACF97B680B4A944663447B607A6880231B0261
:4012C0009A42F0D8074B1B687A685343180000F09BF9C046BD4602B080BDC046A00C00200080FFFF980C002080B582B000AF0200BB1D1A80BB1D1B88044A127853431800CA
:4013000000F082F9C046BD4602B080BD9C0C002080B500AF0F4B0F4A126801218A431A600C4B0C4A126802218A431A600A4B0A4A126830218A4310210A431A60064B064A9D
:40134000126807218A4301210A431A60C046BD4680BDC04600F02E4000FF2E4080B500AF0F4B0F4A126802218A431A600D4B0D4A126807218A4302210A431A60094B094AD4
:40138000126830218A4320210A431A60044B044A126801210A431A60C046BD4680BDC04600F02E4000FF2E4080B500AFFFF7B0FF044B044A1268802109060A431A60C04659
:4013C000BD4680BD00F02E4080B584B000AF78600C4B1B6801221340FB607B68002B02D0012B03D005E0FFF793FF06E0FFF7B6FF03E00020FFF746FFC046FB681800BD4615
:4014000004B080BD00F02E4090B583B000AFFC1D00F003F903002370074B074A1268C02109020A431A60FB1D1B78180000F0F9F8C046BD4603B090BD00010B4080B500AFEE
:40144000054B1A68C0231B02134001D0012300E000231800BD4680BD00010B4090B583B000AFFC1D00F0D9F8030023700D4B0D4A12680D490A408021C9010A431A60094BC5
:40148000084A126808490A40802109020A431A60FB1D1B78180000F0C4F8C046BD4603B090BDC04600010B40FF3FFFFF90B585B000AF78600B23FC1800F0AFF803002370DC
:4014C000FFF7BCFF031E04D00123FB60FFF7C6FF01E00023FB607B680D4A13407B600D4B0C4A12680C4911407A680A431A60094B1B68FB68012B01D1FFF786FF0B23FB18DA
:401500001B78180000F08DF8C046BD4605B090BD0404040010020B40FBFBFBFF80B500AF344B1B68042213401FD0334B1B680422134017D0314B1B6804221340DA432E4B6A
:401540001B681A402C4B1A602C4B1B68042293431A002A4B1A602A4B1B68002B02D0284B1B6898470420FFF7A1FF224B1A688023DB00134022D0204B1A688023DB001340AA
:4015800017D01E4B1A688023DB001340DA431A4B1B681A40184B1A60184B1B68194A1A40164B1A60164B5B68002B02D0144B5B6898478023DB001800FFF778FF0D4B1A68CF
:4015C0008023DB02134011D00B4B1A688023DB02134006D00A4B9B68002B02D0084B9B6898478023DB021800FFF760FFC046BD4680BDC04610020B40AC0C00206810002026
:401600006C100020FFFBFFFF0230800803D00138FDD1C046C046C0467047EFF3108072B6704780F31088704780B582B000AF78600A00BB1C1A80BB1C1A887B681A60C04661
:40164000BD4602B080BDC04680B582B000AF78600A00BB1C1A80BB1C1A887B681A60C046BD4602B080BDC04680B584B000AF494B1B78DBB21B02484A1278D2B21343FB60FB
:40168000464B1B78DBB21B02454A1278D2B21343BB60BB68434A934207D1FB68072B04D1414BBB600423FB6009E0BA68D4231B019A4204D1FB68042B01D13B4BBB603B4B04
:4016C000BA681A603A4BFA681A603A4B1B78DBB21B02394A1278D2B21343FB60FA6880239B019A4202D0FB68002B01D1334BFB60334BFA681A60334B1B78DBB21B02324AD0
:401700001278D2B21343FB60FB68304A934206D0FB682F4A934202D0FB68052B01D12D4BFB602D4BFA681A602C4B1B681B097B602B4B1B68AA2B29D17B68012B26D9214B18
:401740001B78DBB20E2B21D1264B1B78DBB29BB21B0299B2244B1B78DBB29AB2BB1C0A431A80224BBA1C12881A60214B1B78DBB29BB21B0299B21F4B1B78DBB29AB23B0096
:401780000A431A801C4B3A0012881A60C046BD4604B080BD59F1FF0F58F1FF0F5FF1FF0F5EF1FF0F580B0000580D00006C002E4074002E405BF1FF0F5AF1FF0F02200000D0
:4017C00078002E405DF1FF0F5CF1FF0F0F0F000005050000050F000080002E40EC0F00F0E00F00F06DF2FF0F6CF2FF0F84002E406FF2FF0F6EF2FF0F94002E4080B582B047
:4018000000AF0200BB1D1A80BB1D1B881800FFF76BFDC046BD4602B080BDC04680B582B000AF78607B681800FFF738FDC046BD4602B080BD80B500AF00F0ECF8C046BD46C9
:4018400080BDC04680B500AF00F0F0F8C046BD4680BDC04680B500AF00F0E8F8044B180000F0A2F8032000F0ADF8C046BD4680BD791A000080B500AF034B180000F080F835
:40188000C046BD4680BDC046791A000080B500AF014B1800BD4680BD0202000080B582B000AF78602B231800BD4602B080BDC04680B582B000AF78602B231800BD4602B068
:4018C00080BDC04680B582B000AF78602B231800BD4602B080BDC04680B582B000AF78602B231800BD4602B080BDC04680B582B000AF78602B231800BD4602B080BDC046C1
:4019000080B582B000AF78602B231800BD4602B080BDC04680B582B000AF78602B231800BD4602B080BDC04680B582B000AF78602B231800BD4602B080BDC04680B500AFDF
:401940002B231800BD4680BD80B582B000AF0200FB1D1A702B231800BD4602B080BDC04680B582B000AF786039602B231800BD4602B080BD80B500AFC046BD4680BDC0469A
:4019800080B582B000AF786000F050F87B68180000F00AF8032000F015F800F03BF8C046BD4602B080BDC04680B582B000AF7860034B7A681A67C046BD4602B080BDC04636
:4019C0000000002090B585B000AF0200FB1D1A700623FB600B23FC18FFF71FFE030023700B4B0B4A1268C0218A431100FA1D1078FA68904002000A431A600B23FB181B7839
:401A00001800FFF70EFEC046BD4605B090BDC0460CE400E080B500AF034B802252011A60C046BD4680BDC04600E100E080B500AF034B802252011A60C046BD4680BDC04610
:401A400080E100E090B583B000AFFC1DFFF7E5FD03002370074B074A126804218A431A6030BFFB1D1B781800FFF7DBFDC046BD4603B090BD10ED00E080B500AF11F004FBA4
:401A8000C046BD4680BDC046002243088B4274D303098B425FD3030A8B4244D3030B8B4228D3030C8B420DD3FF22090212BA030C8B4202D31212090265D0030B8B4219D3F7
:401AC00000E0090AC30B8B4201D3CB03C01A5241830B8B4201D38B03C01A5241430B8B4201D34B03C01A5241030B8B4201D30B03C01A5241C30A8B4201D3CB02C01A5241A3
:401B0000830A8B4201D38B02C01A5241430A8B4201D34B02C01A5241030A8B4201D30B02C01A5241CDD2C3098B4201D3CB01C01A524183098B4201D38B01C01A52414309F6
:401B40008B4201D34B01C01A524103098B4201D30B01C01A5241C3088B4201D3CB00C01A524183088B4201D38B00C01A524143088B4201D34B00C01A5241411A00D2014605
:401B8000524110467047FFE701B5002000F0F0F802BDC0460029F7D076E7704703460B437FD4002243088B4274D303098B425FD3030A8B4244D3030B8B4228D3030C8B420F
:401BC0000DD3FF22090212BA030C8B4202D31212090265D0030B8B4219D300E0090AC30B8B4201D3CB03C01A5241830B8B4201D38B03C01A5241430B8B4201D34B03C01A53
:401C00005241030B8B4201D30B03C01A5241C30A8B4201D3CB02C01A5241830A8B4201D38B02C01A5241430A8B4201D34B02C01A5241030A8B4201D30B02C01A5241CDD2A8
:401C4000C3098B4201D3CB01C01A524183098B4201D38B01C01A524143098B4201D34B01C01A524103098B4201D30B01C01A5241C3088B4201D3CB00C01A524183088B42D0
:401C800001D38B00C01A524143088B4201D34B00C01A5241411A00D201465241104670475DE0CA0F00D04942031000D34042534000229C4603098B422DD3030A8B4212D398
:401CC000FC22890112BA030A8B420CD3890192118B4208D3890192118B4204D389013AD0921100E08909C3098B4201D3CB01C01A524183098B4201D38B01C01A5241430950
:401D00008B4201D34B01C01A524103098B4201D30B01C01A5241C3088B4201D3CB00C01A524183088B4201D38B00C01A5241D9D243088B4201D34B00C01A5241411A00D2DF
:401D40000146634652415B10104601D34042002B00D54942704763465B1000D3404201B5002000F005F802BD0029F8D016E770477047C046014B18687047C046341000204D
:401D80000E4B70B500251E000D4CE41AA410A54204D0AB00F35898470135F8E711F08EFA084B00251E00084CE41AA410A54204D0AB00F35898470135F8E770BDC8320100C0
:401DC000C8320100C8320100D032010030B50024A24208D0035D651C0C5DA34201D0181B02E02C00F4E7002030BD002310B59A4203D0CC5CC4540133F9E710BD03008218A7
:401E0000934202D019700133FAE77047134A1088810703D08107890F401A001D11791030484381B25088820703D08207920F801A001D800040180A494030098980B2CA07F2
:401E400001D0503080B2890706D504495422091F09785143081880B270470000B60C00209410002010B501F005FF10BD10B501F007FF10BD10B500F055FA10BD10B50749CF
:401E8000044609780220002907D1204601F048FF002802D120460AF091F910BD540E002070B504460120002C12D02368002B0FD0616800290CD0074D062228892081184635
:401EC0002968FFF792FF6968606809780170002070BD000094100020FFB585B0002768460E9D07734F481C460078002802D0082009B0F0BD10990F9801900095029105A89C
:401F000007C800F001F90028F2D16946264603AB84460873002C19D0002115E08A00B75A082F09D990198078002805D0083FB7521878401C187005E0002914D00027B7528C
:401F400090198770491CC9B2A942E7D360460028CED10F98002809D0109901F03BFA002804D00120C4E701208446EFE701F088FE2D48002141608160059901602188818097
:401F8000022D07D3A1798171A17AC171A1890181218A418100211EE0481C19E082008B00A75AE65ABE46BE4211D26F463E80B4461E190296B678BE7001967646E6521719A2
:401FC000029EBB78B3706646A652019EBE70401CA842E3D3491CA942DED3134822460C3000906846037B0799069800F015F90028B8D168460B4C007B60700B480C3001F005
:402000006FFE0028AED1084907480C3107F076F90028A7D107F090F90028A3D10121217066E70000B00C002088100020F8B5054633480E460078002802D002242046F8BD7F
:40204000002E5BD000242F49002D16D02A89D0070DD02868002808D003881B3BE12B04D24088FB2801D81B2801D2012409E0900707D56868002804D1F7E700200881086087
:402080004860002CDAD11F482F8907811C481B21801D018041800421017119490020891C0870F80705D016480622801D2968FFF79CFE1449B80703D56A6811481278827092
:4020C0000F480D46801D0860001F486001F04EFE0B48801D01F03CFE28890DF0A1F928890DF008FB03461033FFF790FE1F21C018890140180249308088809FE701249DE7DD
:40210000B00C002094100020FFB58446384F1C460020BB883F78054602460646002F11D100290ED0029999420BD36146002908D0002C06D00A99002906D02E4B0B999942EF
:4021400002D2012004B0F0BD002144E0AB001F19BF78002F3BD0E35A002B38D07B43591889B22B0000F04AF8050410161C253100A7782388BC46FF27233BEB37BB4222D235
:402180006346032B1FD322E0A388002B1FD0302B19D31CE02389002B19D0282B13D316E0A289002A13D01346134F233BBB420AD20DE0268A002A0AD033460F4F233BBB42E0
:4021C00001D2964203D901200EE0002001E000280AD16D1CEDB2099B9D42B7D31C2463435B1802998B42ACD89642AAD8AAE70000B00C002079020000BAFF000030B4744632
:40220000641E2578641CAB4200D21D46635D5B00E31830BC18470000FFB583B0002469460C801F4606468C80002806D00598002803D004983043800701D0012466E0002FE2
:40224000FBD03449049809888842F6D3FFF712FBFFF7F8FA00F012FC002855D100F07AFD002851D12C49084601F0E8F805042D0C4AD12A480499066081800021C18007811D
:402280000C98007AC00704D0684601F012FD040007D10C98007A800703D501A801F012FD0446BF1DFEB2002C20D13146059800F05DF804001AD10DF02BFA040016D16A46BD
:4022C0001088928808368518144AF1B29088D288AEB29319984207D3401B801A80B201F09DFB050007D000E0FF25012400F05EFA002D04D008E0F8B200F01CF9F6E700F0BC
:4023000081FA07490120087000F0CAFB204607B0F0BD0000B40C002059240000A0100020BC0C002010B503480078012801D101F017FA10BDBC0C002070B5084B0446DA8847
:402340009E8800205518B54206D81D68AA182260DA885118D98070BD032070BDA01000200148008970470000A0100020F0B587B007460D4600208900009006916846FFF752
:40238000DBFF844600285DD1304800990160002117E02E4B88001A680629115406D22C4C0419667882185670628805E0C419203CA67A8218567022891B68C018491C428022
:4023C000C9B2A942E5D300242DE0601CC2B2059025E01E4FA30039689600581840887118039604904E88B04217D938466F46FE80B6464F786E4677710297049F4F80016893
:40240000039F5E18767879184E700168764659184E800068029F18184770521CD2B2AA42D7D30598C4B2AC42CFD36046002809D168460699FFF780FF8446002802D105494B
:4024400000980860604607B0F0BD0000C00C0020F0320100C40C00207047000010B5002809D005494A68002A05D0011F08788000105801F081FA10BDC00C002010B504461B
:40248000FFF76EFFC0B2801DA0420CD307484068002808D0A100405801F0E0F9002801D00470001D10BD002010BD0000C00C0020F8B516460D460446FFF752FFC0B2801DC3
:4024C000A04203D20020C0430090F8BDB2B2E9B2684601F0E9F90099481C03D0024AA000526811500098F8BDC00C0020F8B50746FFF736FF801DC6B20A49002005460C68C1
:402500000DE06178002907D06188B94202D32078FFF7B4FF002804D1241D6D1CEDB2B542EFD3F8BDC00C002010B5002801D0FFF795FF10BD70B506460948002504680BE0C8
:402540006178002905D062882078121D0023FFF7AFFF241D6D1CEDB2B542F1D370BD0000C00C0020FFB581B00A9F16000C4620D000F0F2F8054604281BD0002F0CD0384624
:40258000FFF7B4FF20492A0151184860002810D03A460499FFF729FC1B4928010E504618778101980570200406D47D20C000444304E0FF2005B0F0BD6404640C00F0BAF87D
:4025C0000746042807D000F04FFAA0420BD800F04BFA201A03E0204600F0AAFA0020F06035720020E6E700F03FFA009000F0B6FA00980121001B009000F0ECF802493A0125
:4026000051180098C860E6E7AC100020F8B5060116483418217A042903D0E068002802D017E00020F8BD00F01FFA054600F096FA00F0A0F804280CD001010C480F18F86880
:402640000021451900F0C6F80020F860284600F06FFA6068054D002801D0FFF765FF042020720020A8516081E060DAE7AC100020FEB500266A4630460123254905016918DC
:402680000D7A042D02D0C96800291BD000211154401CC0B20428F0D300246846005D002830D01B48210108184189476805680291002101604160042241810272C160002EC5
:4026C00002D015E01354E3E700F054F804280ED001010F4808180190C6680021304600F079F801980021C160304600F021FA0126002D07D038460299A847002F02D038465E
:40270000FFF712FF641CE4B2042CC6D3FEBD0000AC1000200EB5002005216A460090118150810348694600680DF057FE0EBD0000C80C0020074A0020010189180B7A042B35
:4027400002D0C968002903D0401CC0B20428F3D370470000AC1000200549002002015218127A042A03D0401CC0B20428F6D37047AC10002030B50A4B04200A4C00210A0169
:402780001219157A042D06D0D268002A03D09A4201D808461346491CC9B20429EFD330BDFFFF0000AC1000207047000030B50020074C05460423020111190B72A5504D6062
:4027C000401C4D81C0B2CD600428F4D330BD0000AC10002030B5094C00231A011219157A042D04D0D568002906D02D18D5605B1CDBB2042BF1D330BD2D1AF7E7AC10002082
:40280000002070471CB5002469460C70142001902346054A05480DF0E5FD04480068401C00D1FF2420461CBD81280000C80C00203EB5124A0146FF20002301241268002978
:402840000DD0012914D0042908D104206946009308814B8110460DF0C0FD80B23EBD6846009304814381694610460DF0B1FDF4E768460093048143816946EBE7C80C00205B
:4028800070B545890468416800890300FFF7B6FC08280509091E22282628002005F0F0FB1EE0022908D0C8B22A4621460BF024FF2046FFF739FE13E002202A4621460BF0F5
:4028C0001BFF2946204600F00DF809E000200DF083FA05E02046FFF7CBFE01E0FFF74AF8002070BD014B0022DB681847CC0C002070B5448905680089022803D0032809D010
:40290000FF2070BD2246094C0023A46829460120A04708E0FFF7AAFA241DA2B200232946022006F09EFB002070BD0000CC0C0020704700000248002141600180418070478D
:40294000CC0C002070B50C46002186B016460391012802D0022859D116E003A9012006F0D5FB01281BD1039D324621462846FFF73CFA0095287801900220694608814E81AC
:402980006846FFF7B5FF41E0214D002B686809D0049004A9022006F0B9FB01281DD0022006B070BD002812D0298840182146FFF71CFA28880024801980B228806988091D50
:4029C000884206D12C801348FFF792FF03E00320E6E788421AD96C6018E004986860E278A378110219430B4A698000231060E3565360032313815181A1788170E178C1702F
:402A00006178417021780170042028800020C7E7CC0C0020EC1000203EB515460C46022803D004280CD000203EBD0091019002206946088107484A8100680DF0CEFC07E0E8
:402A40000BF05AFE044B0022DB6829462046984701203EBDC80C0020CC0C0020014AD16090607047CC0C0020034801688068081A0A21484300097047F810002010B5FEF762
:402A8000E9FE482204490548FFF7AFF903490120C870002010BD00000C330100FC14002010B5FEF7C7FE10BD70B5134C2368002B08D0207B1149C20705D04008400020737F
:402AC0008868A08070BD88680B4AA18880B29268814203D90A4D691A091802E0814202D2411A5118A160A080A0689842EAD30DF091FC00F013F870BDF8100020C0102E4050
:402B0000FFFF000010B508461946FFF7A7FF10BD704710B5FFF780FF10BD000003480021016041608160C16070470000F8100020024610B5FF20002A0CD0FFF7EFFF064C47
:402B40000321207B0843207310010A21FFF722F82060002010BD0000F810002000B504480A21806848430209FFF7D8FF104600BDF81000200248007B8007C00F7047000053
:402B8000F810002010B54B490868002802DA4A4B01221A70022290430860484800694549C00B4031096A0246C907C90F0A4259D0012000F097FA3F480E216C30FEF744FDBA
:402BC0003E4820218430FEF73FFD3C4814219C30FEF73AFD3948FF21C131A430FEF734FD3648FF212F31B030FEF72EFD33483449BC30FEF729FD31483249AC30FEF724FD08
:402C000030492E48491CB430FEF71EFD2B482E49B830FEF719FD29482C49CC30FEF714FD26482B490830FEF70FFD24482949A830FEF70AFD214828498830FEF705FD1F48CA
:402C400026498C30FEF700FD1C481921C9029030FEF7FAFCFEF708FDFEF718FEC0B2022812D01FE000290BD0002101420AD0114801216030FEF7E8FC0120FEF7CFFD97E71B
:402C80000121F2E7FF2010BD15491648FEF7DCFC14481549001DFEF7D7FC124800210830FEF7D2FC54200449C043891C0870002010BD000000F02E40DC0C002000002E40ED
:402CC000320300002F3F00003102000010520000EC160000FA12000031D000003AE300009956000080012E40F80F000070B50646581C80B245086D00002408E0304600F048
:402D0000C1F81055000A1119A41C4870A4B2AC42F4D3D80705D0D0182038D15CC47FD454C17770BD30B50A4C002100195B1E07E0541864782502545C2C430480891C89B206
:402D40009942F5DB994201D1515C018030BD000000102E4010B5FF2000F0C4F90F49FF2048700E481021801D41800121417001700A490020C91C4870FFF704FF04000AD191
:402D800000F010F907210648FEF74EFC044807211830FEF749FC204610BD0000DC0C0020CC112E4070B5002405465B1E0AE0284600F068F8010A161971702D1D1055A41CAA
:402DC000ADB2A4B29C42F2DB9C4203D1284600F059F8105570BD000070B500210A4D5B1E0AE0541864782602545C344346193480001D891C80B289B29942F2DB994202D151
:402E0000515C4019018070BD00102E40F0B50599091FCFB200217E1E0BE0541864782502545C2C43164D45192C80001D891C80B289B2B142F1DBFC0712D01C78515C240297
:402E40000F4A0C4381180C809C785D78001D210280B2294384182180001D80B2D9780CE059781A7809021143054A84182180001DD9789B78090280B2194380180180F0BDC7
:402E800000102E40014940180088704700102E4010B50B490020487000F084F8002000F047F9002000F034F907210648FEF7BCFB044807211830FEF7B7FB002010BD0000D9
:402EC000DF0C0020CC112E4010B50B46062812D006DC01280CD0032801D1FFF7D9FF10BD0A28FCD00B28FAD105480078107010BDFFF730FF10BD1146184600F035F910BD37
:402F0000E20C0020F8B5244DAC6A0127A007234E002816DA307806280ED1286A384328621F480069F903084381B21D481030FEF78BFB042000F0D6F8174802212830FEF790
:402F400073FBE00718D000F01DFF01280FD1002000F06AFF062000F0C5F81049FF20C91E48707078002802D1686B384368630A4801212830FEF758FBE0050BD530780428F3
:402F800002D1052000F0AEF80348FF2101312830FEF74AFBF8BD000040F02E40DF0C002000002E4010B503212348FEF74DFB0120FEF724FC20483038406A204C800761787B
:402FC000800F890001431C480C38FEF73DFB6078002808D0401E022181401820FEF7C4FEC000083800E0B82081B21548FEF72CFB1348032109021438FEF726FB1048114995
:40300000B830FEF721FB612189010F48FEF71CFB0D480321001FFEF717FB0C490C48FEF713FB0B480B496038FEF70EFB084801218838FEF709FB10BD70F02E40E20C0020CC
:40304000D8102E4090890000041E2E40FF0F000058122E40209000000849087806280BD148780749002803D1486B400840004863C86A01221043C86270470000DF0C00205A
:4030800040F02E400148007870470000DF0C002000B50300FFF7B2F8080D050D0B070507090D012000BD032000BD042000BD022000BDFF2000BD0000074A9168D26889B223
:4030C000064B92B2994204D105498A4201D1012100E000210170704780002E4033D000003FE3000010B50446FEF7ACFB072C01D9FF2C01D102480470FEF79CFB10BD000075
:40310000DF0C00200149487070470000DC0C002010B5064A012805D01921C9021046FEF793FA10BD1D21C902F8E7000090002E4010B50A4A141D012808D009491046FEF738
:4031400083FA08492046FEF77FFA10BD04491046891CFEF779FA0349491DF3E788002E4031D000003AE3000070B50C460546FEF78DFBC0B202280E49287804D0FF2810D0E3
:403180004C280CD810E0FF2809D10A4AD0680004800F032801D0087807E09069000A553803E00878207070BD4F382070087070BDDE0C002000002E40F0B50122002834D06C
:4031C000002932D00424420600D00524792342065B06D21800D0641C034600221EE00C2516466E43124D00277519AF72104F002ABB51696007D0661EB24209D10D4E86195F
:403200007606760E05E05E06760E8027BE1B00E080269B198919521C2E81D2B2A242DED303480549006B002288611046F0BD00008413002079020000E80C002018B50020EA
:40324000694608700A48006900280ED0132149014018047E684604704F21C900054800F059F8A04201D0012018BD002018BD0000E80C002008110020074900200C22424317
:403280005218927A012A05D0401CC0B20628F5D3002070470120704784130020F8B50E000446154609D0194F19497868A04202D94018A04201D38D4201D90120F8BD3146CA
:4032C0002046FEF783FD00281ED02A4631462046FEF78BFDE8B200210C224A43D21913895568EE18A6420BD90126641B1B1B9672834209DA1469C01A044AC0B22032967686
:40330000491CC9B20629E7D30020F8BD8413002079020000034610B50020024604E09C5C2018521CC0B292B28A42F8D310BD000070B500F05FF8084C064A216907480D466F
:40334000FEF753FD05492846FFF736FFFFF776FF207070BD79020000E80C002008110020002070470020054A002902D0012902D002E0906000E0D06000207047E80C002027
:4033800070B5084C154608460549E26889182A46FEF72BFDE0684019E06028B270BD000008110020E80C00203EB50A226946FFF7E7FF044606480A2200686946FEF706FD73
:4033C000002802D00020C0433EBD20463EBD0000EC0C0020002802D0044A914201D2FF20704703494A6108610020704779020000E80C0020024800218160C160704700008E
:40340000E80C002070B5074C15460548A26880182A46FFF743FFA0684019A06028B270BD08110020E80C002010B503490A220968FFF7E8FF10BD0000EC0C002010B50F4ACB
:40344000002313600E4A13600E4B18600E4801600E49012008600E490860000290600E490C4808600D4914300860FF381538506000F0BCF800F0CAF9002010BD1C0D0020FC
:40348000040D0020300D0020340D0020200D0020100D0020CC140020140D0020280D0020014610B50020002910D0094B1A689C685118A14209D25868196080188A0704D091
:4034C0008A07920F891A091D196010BD002010BD040D0020F8B50024164E671E321F3D463168136806E01422624310328A58521C1BD0641C9C42F6D36A1C14D02C46142254
:40350000544322460C3288500C214843FFF7C8FF3168002808510AD031680020103408517068401C70602846F8BD2546E4E73846F8BD0000140D0020F3B50026F64381B0AE
:4035400000281BDB1E490968884217D80299002914D01B4F142204463F1D54432546396810354859401C09D0FEF76CF938682F1F4159C359994203DBFEF75CF93046FEBDBE
:40358000214608310091465801590C20704308180C220299FEF729FC0948761C001D0068C159B14200D100260549009A091D865008684159491C4151FEF73CF90020FEBDAA
:4035C000100D0020002803DB07490968884202D90020C043704704491422091D096850431030085870470000100D0020F0B500200D4A451E0346171F50600FE014260146E9
:40360000714314680E1DA3510C461668083433511668083435511468401C635039688842ECD30020F0BD0000140D0020F3B50026F64381B0002841DB2349096888423DD870
:40364000029900293AD0204F142204463F1D54432546396810354859401C2FD0FEF7F2F83868415900292BD0211D009146580C21005971430F46C1190C220298FEF7B5FBCD
:4036800011480021001D0068761C00590C34C0190160416081600C48001D00680159B14200D100260849009A091D865008684159491E4151FEF7BEF80020FEBD3046FEBD66
:4036C000FEF7B8F8FAE70000100D0020FEB504460D4600201E49089E0860471E009001900290002C11D0486885420ED2002A0CD0002E0AD0642E08D808460C3001681C20F7
:4037000068430C18207A002801D03846FEBD0120226020721846FFF7DDFE6060401C13D06681A6810A4827610C3067610179A94200D205710021684601810A462846029B46
:4037400000F040F82846FEBD00202072DDE700001C0D002038B50124009400F039F838BDFEB50027164EFF433D4600240EE01C20316860430818017A002906D04068FFF7B8
:4037800021FF002801D0254603E0641C3079A042EDDA681C12D01C2130684D434419FEF751F869466068FFF741FF0546FEF742F8002DD9D1216868468847D5E7FEBD0000EF
:4037C000280D002038B50024009400F001F838BD1FB500220C49541E0A60002811DB496888420ED808491C220C31096850430818406801A9FFF7A0FE401C02D0002004B07D
:4038000010BD2046FBE700001C0D0020F0B50021114A4D1E174611710C3F0B46BD6016E008461C2460431668041D355114680646235014680836A3551468361DA3530446BE
:4038400016680A34335318301468491C255078688142E5D30020F0BD280D002038B500210091002811DB0F49097888420DDA0D4D04010C3529680859002807D0201D0818C0
:40388000694600F06FF9002801D0002038BDFDF7D9FF28680F34015D491E0155FDF7CAFF009838BD380D0020F7B582B0002502986E1E06602E48D21C024017462D4A2C460F
:4038C00010460C380178106805E02301C358002B0FD0641CE4B28C42F7D3711C28D03401211D40180191039900F02AF900281FD101E02646F1E71F48016820460C300F52C0
:403900001C480399026820460E30115419480399026820460F3011540398784300F0A0F8144900280968085102D00024009011E001251AE00F48016801980818009900F0DD
:403940002CF9002801D0012502E00098C0190090641CE4B203988442ECD3002D05D10298066004480179491C0171284605B0F0BDFCFF0000440D0020F8B50D4600216A463D
:403980008C461180002839DB23490978884235DA214B04010C3319680A59002A2ED020460C300B5A801C0E5C184670438018954224D3854222D2002006E007465F43BF18DB
:4039C000AF4206D0401CC0B2B042F6D36046002814D0114E271DC8190C366A46294600F006F900280AD168460088012808D030682946C01900F0D1F8002803D00120F8BD4D
:403A00000020F8BDFDF71EFF30680F34015D491C0155FDF70FFFF3E7380D0020F8B50F46002400F031F8002817D10C4900220B460C334A600EE021011D680E466A501D6843
:403A40000C36AA53B61C1D680F31AA551D68641C6A54E4B2BC42EED31A71F8BD380D002000280BD0C01C074A81085068890053884118994203D8936851601818704700201D
:403A800070470000380D0020F8B5064600200F4D009029700C0121466846FEF74DFC00280CD129460C3100980860301B001F84B221466846FEF740FC002801D0FF20F8BD88
:403AC0006C800098A8600020F8BD0000380D0020F8B5002827DB19490978884223DA174C05010C342168485900281CD028460C30085A009028460E300E5C401C0E542068A0
:403B00002F1DC01900F064F800280CD12068002445590EE0094829460C300068C01900F03CF8002801D00120F8BD00982D18641CE4B2B442EED30020F8BD0000380D0020C3
:403B400030B50D4604000BD0A800FFF789FF6060002805D000202570C0436080002030BD012030BD70B50D46040005D0002D03D00220205E002801DA012070BDFDF762FE02
:403B80000221615E60688900405828606088401E6080FDF74FFE002070BD70B50D46040007D0002D05D002212078615E401E814201DB012070BDFDF745FE6088401C00B2B7
:403BC0006080616880000D50FDF734FE002070BD10B5040009D0227800216068FEF70EF90020C0436080002010BD012010BDF0B500231D46002802D00224045F0AE0012014
:403C0000F0BD46689F00F6598E4201D1012503E05B1CDBB29C42F4DA15700020F0BD000001480078704700004C0D00207CB505460024FEF71BF9A8796946087000A80622DC
:403C400029460130FEF7D1F80021684604F0DEFC0C2806D0072806D01F2806D0122806D006E0022404E0042402E0272400E0012420467CBD01480121417270470416002015
:403C800010B500F05FF9FFF7FDF9FFF701FA10BD70B504460025FEF7E9F8002C06D0A079012803D8214602F07BFC00E00125284670BD01460120002902D0502008800020D8
:403CC0007047000001460120002905D0034854220078504308800020704700004E0D002010B502460D49FE204870032410460CF097FE002810D10CF03BFE00280CD105F082
:403D000061FA002808D100F013FB002804D104F023FF002800D10024204610BD4C0D002070B50025044600280ED0A07901280BD8FEF79CF8A0790028204602D002F0D6FFC5
:403D400003E002F0ABFF00E00125284670BD0000014610B50120002904D006220248FEF744F8002010BD0000580D002001460120002903D008780249087000207047000066
:403D80004E0D00200148007A704700000416002038B504460120002C20D0617801291DD800290BD0FF25E535FEF760F80C4828180088C0B22070072803D00EE0FF25CD35A5
:403DC000F2E70020694608706846FFF775F969460878012801D108202070002038BD000000102E40014A0021926810474C0D002008B500226B461A7026280CD0094A3428F3
:403E000052680BD0352805D1900703D50021352005F0B4FA08BD19462620F9E7D007F9D03420F5E74C0D0020014908727047000004160020F8B504460120002C26D06178D7
:403E4000012902D92278092A20D8002905D0FF25E5352078092803D004E0FF25CD35F8E708202070FEF702F82078114F114E08280DD00020FFF75CF970780128207810D0B8
:403E80000D4969180880FE2070700020F8BD0120FFF74EF90720B8810549203188800120F2E7B8810248217820308180EBE70000C0112E404C0D002000102E4070B50E4683
:403EC000050001D0002400E00C4C002C11D0E28A500609D5D107C90F022002F09BFFE08A40218843E08204E0D107C90F012002F091FF3146284602F079FC70BD6415002044
:403F0000F8B50546002004460D4E009013E022466946284600F0D6FF0098002801D00CF061FDA878214602F099FAA878214602F087FA641CE4B2308AA042E8D8F8BD0000DF
:403F40003016002038B51E4CFFF79CF8042813D0052811D0062812D003282AD007280AD100206946087002460120FEF7ADFFFFF789F80128FBD138BD00F077FB38BD02F0A3
:403F8000C3FA00F072FB02F03FFB8007800F0228F4D10C4841880029F0D05B21095D0029ECD101210170A07D0140022002F032FF38BD02F0ADFA0120FFF794F838BD00008C
:403FC00064150020720D0020F8B50646002402F08FFF0546304602F0A5FF03460A480021068A0DE001228A401046174628401F40002803D0002F01D1224394B2491CC9B26E
:404000008E42EFD82046F8BD301600201CB50020694648706846FFF7BBFE01AA69460A20FEF752FF6946042008561CBD70B50D4601F028FB04000BD02079002808D0FDF7E7
:4040400015FFE178A0782A4602F056FC002070BD022070BD01480078704700003C1500204030C07E002800D00120704700B500F001F800BD902148430749084A40186030E3
:40408000417F491CC9B24177D289914201D300214177C8B270470000441500203016002013B501F0EFFA04000BD001F08CFE002807D0214601AA0A310620FEF705FF002036
:4040C0001CBD02201CBD000010B50C4601F0DAFA00280AD001F077FE002806D0224604490A20FEF7F1FE002010BD022010BD000025150020F3B581B0074601460026029884
:4041000002F0EEFE0446002F01D0002500E0154D002D21D0284601F0EBFA032C04D13946029802F039FF06463846029902F088F9032C06D0002C10D00121384601F0DEFBF4
:4041400003E03146384603F025F9284602F06CF80221284602F082F8FEBD3846029902F06FF9FEBD6415002010B5044600F066FA002804D103F0D8FD002801D00C2010BDFD
:404180002078611C02F0BAFCFF2801D01F2010BD02F000FDFF280AD02178621C02F0DEF8044821780068026B601C904710BD072010BD0000980D002010B503F0B5FD00284A
:4041C00001D00C2010BD02F07BFC03480068C06A8047002010BD0000980D002070B50D46044610210CF03EFB1021601806460CF039FB334610221946204603F0C3FD102195
:4042000030460CF02FFB02202870204604F0DAFB70BD0000F8B504464078217802028006870FE0781143A67809050002090D0643084601F027FA00210546F2B2002812D0B1
:40424000002C10D0022F0ED0032F0CD0002A0AD00279092A07D0002A05D0134A5A23527E1B5C9A4207D82889002104F0E0FA20460CF0B8FBFF21002914D10C4822460068AA
:404280002946436930469847C0B2FF280AD128464030817EF2B2491C8176FF232146284600F0E3F8F8BD0000FC140020B40D00200020704710B5044603F036FD002801D0B0
:4042C0000C2010BD2078611C02F018FCFF2808D002F050FB044821780068426B601C904710BD1F2010BD0000980D002010B500F06BF904F031FC002010BD10B504460078D5
:404300006178E2780843A17811430843217908436179084305D003F0F9FC002803D00C2010BD122010BD204602F0E0FC002010BD10B5FDF7ABFA02F0FDFD044803F060FD86
:4043400002F022FB012000F003F810BD0C150020F1B586B003A8009005A8019028489F22817A114081726846FDF79AFD002845D169460989C90705D0224806990068C26857
:404380006846904769460989890706D5002835D11D480068816A0698884700282ED11B4E0025757075737571F575357675767575B570F570B5713746F5730120D0373873BF
:4043C0001F20F880FF2130467972A0300176457600F0D0FA00242046069901F09FFC002803D1641C2406240EF5D0FD720749BD72B573C0310D704D704D600D7207B0F0BDA6
:40440000FC140020B40D0020980D00204415002070B505460E46084602F06AFD0446304602F080FD0121A9400A46224001400A4301D0012070BD002070BD10B5044608467F
:4044400002F070FD0121A140014201D0012010BD002010BD10B5FEF715FE032804D102F057F80120FEF73EFE10BDFEB51C4616460F46054601F0D8FEA878FFF7F7FD024694
:404480000190334639460094284600F00DF8002808D1A8780199FFF711FDFF2C02D138460CF0A0FAFEBD0000FFB585B005460E980C46FF2810D02B49C00009680A5840185E
:4044C0000179C0795278814201D9012601E09006860F6846038108E06078A1788006860FE0780002014368460181284601F076FC070007D021462846079A00F077FC384675
:4045000009B0F0BD304600F025FD04AE0346039002AA29460096204600F0B1FB3C20405D002818D0284601F059FC012813D0684600890096C0B20190A878231DFF22079992
:4045400002F008F968460089039BC2B2A878079902F048FCD3E7684600890021C0B20091E9E70000B00D0020F8B5002600253046FFF72AFD07001DD09020114970434018B3
:404580006030447F12E0601CFDF704FBCCB23846E040C007C00F07D02146304601F048FF21463046FFF7A6FD6D1CEDB20548018AA942E8D8761C3606360ED7D0F8BD00001A
:4045C000441500203016002010B502F0DDF90020FFF7BEFE0CF09CFA002010BDF8B5002400F0B2F80123012800D10124104F00203E4620360425082203E0002801D00021A7
:4046000000E031460979002907D001290BD002290BD0114681402143CCB2401C0006000EEBD07C70F8BD1C43F7E72C43F5E700004415002010B5FFF7D1FF10BD10B5044668
:4046400004F0DCFB002802D1601C00F001F810BD1CB500240094062269460194FDF7B6FB002800D1122420461CBD10B5FCF7D5FF0446FEF707FD012809D0FEF703FD02284A
:4046800005D0FDF7DFF92046FCF7CBFFEEE72046FCF7C7FF10BD10B50B4681791943817103D08078114602F06BFB10BD10B582798A43827102D1807802F076FB10BD000055
:4046C00030B50C4C0220A28A0B4B9978002901D0022906D11D785B78EB18282B01D9032002E0032900D101205105490DC0020143A18230BDC0112E40680D002000B500F0D6
:4047000029F8002807D0012805D0032801D0042801D0002000BD012000BD014600B50020C90701D000F010F800BD014600B50020C90701D000F008F800BD0000014800681A
:4047400070470000600D002001480088000A704720102E400448008B410501D5042070474007800F7047000000102E4010B501F011FF044601F04EFF0146204601F032FFCF
:4047800010BD00000148406870470000600D002038B50446000610D5FFF7DCFF01280CD1684601F0C5FE6846007800F023FB012001F0A2FD0220FFF73DFF600708D50748D0
:4047C0000179012904D1002101712620FFF710FB0348006801692046884738BD6C0D0020980D002070B505460C49007800240870FFF7AAFF012803D1FFF7B8FF022803D39F
:40480000284602F0DFF907E0284600F0EBF8040002D1034801210170204670BD680D00200416002070B50446FFF78EFF002801D00C2070BDA27B01211F48002A827801D022
:404840000A4301E05208520082706279012A14D0C17849084900C170184D2868016820468847207901280CD06188208803F00EF82080207904280FD015E0C2780A43C270D1
:40488000EAE72868C168E01D8847E01D02F01AFA0B48808C208006E02868C168E01D8847E01D02F00FFA074920798870204602F097F9002070BD000044150020980D0020E9
:4048C000FC140020680D002008B50178FFF73CFF814201D10C2008BD002914D0072069460870FFF70BFF012807D10121684600F0D9F8012801D0092008BDFFF7E1FE02F06A
:40490000A3F9012011E0FFF7F9FE012806D1684601F00EFE6846007800F0A0FA02F08AF9FFF712FF0028FBD10220FFF783FE002008BD000070B505460C490078002448707A
:40494000FFF702FF012803D1FFF710FF022803D3284602F0F5F907E0284600F05DF8040002D1034801214170204670BD680D00200416002038B568460BF0CAFF002801D0A7
:404980001F2038BD01210098C90201804180002505714571857107214173857302F020F9009C202200212046FDF728FA25702A460021601CFDF722FA204602F003F92046EF
:4049C00002F0BEF900980CF00DF8062200210448FDF714FA02480C388560002038BD00006C0D0020F8B504460025684600950BF08FFF002801D007250AE0064E009830604A
:404A00002278611C401CFDF7F0F93168207808702846F8BD600D0020F8B504460025684600950BF075FF002801D007250AE0064E009870602278611C401CFDF7D6F9716825
:404A4000207808702846F8BD600D00200346084800B5834209D8184600F014FE002804D00089984201D1012000BD002000BD0000FF0E0000074A9179491C8906890E917141
:404A800038220A4092014907090E1143084302490840704744150020FF0E0000C006C00E70470000F8B507460E4600240D4803E0002C01D0002500E005462979002905D007
:404AC000641C2406240EF3D00020F8BD0021204601F024F92E712046FFF7CCFF28813C700120F8BD6415002010B503F07FF90222002100F003F801F0F3FE10BD10B5094BFB
:404B000040074907000F090F185A595A40185043C0086421FDF73EF8002800D1012080B210BD000054330100F7B53D20405C88B015460C46002802D02878042802D200204B
:404B40000BB0F0BD6946087200262046FFF788FA012800D00126204603A938300191009023460327A17E34333246206A03F062F902A8089900900B46019120463A4603A92B
:404B8000243003F0DFF802466846007A2870204601F0B0F81046D3E7FFB587B00C4605461078694608723D20005D1746002826D000262046FFF754FA012800D001262046FC
:404BC00003A93830019100902346A17E34333246206A03F02FF902A80090291D019120462B1D03A924300A9A03F0ACF802006846007A388002D1204601F07CF810460BB0E7
:404C0000F0BDF0B505463C20405C89B016460C4600280CD0307869460873002806D000272046FFF71DFA012803D003E01F2009B0F0BD012703200890204604A93830019116
:404C400000902346E17E34333A46E06903F0F2F86846007B03A928180290009120462B46019504A92430089A03F0A0F802466846007B3070204601F047F81046D7E7FFB58D
:404C800005463C20405C89B016460C46002810D0084601F0A3F801280BD0308869468883002809D000272046FFF7DAF9012805D005E000200DB0F0BD0220FBE7012720461C
:404CC00003A93830019100902346E17E34333A46E06903F0AFF8291D2B1D07A8129A6D4607C5204603A924300C9A03F05FF802466846808B3080204601F006F81046D9E712
:404D000070B50D460446FFF7ABF901280AD0E87AA97A00020143A07801F0DEFC012808D0002070BD00222421204602F001FD242070BD28214C200155204600F0B1FB282095
:404D400070BD0000002801D0002000E003484030C07F012800D0002070470000641500200146002049070ED50021084B03E0002901D0002200E01A461279022A04D0491C6D
:404D80000906090EF3D0704701207047641500200146002049070ED50021084B03E0002901D0002200E01A461279022A04D0491C0906090EF3D07047012070476415002094
:404DC00010B5044680346068002803D00BF01EFE0020606010BD4030417070474030817070474030017070470171704792001018C166704770B53C2501F096F9040004D042
:404E000020460021433001F01BFCFF222946204600F0E2FB002C02D0A07801F007F970BD10B5002801D0002000E00348002802D0008903F043FD10BD6415002010B5002867
:404E400001D0002000E00448002804D00179072901D100F047F810BD6415002010B501F063F9002802D0807801F0E0F810BD00207047000070B50546008A00281ED010492E
:404E8000F122897A1140C90618D5294640314A8A098A521C4A4392B2D10800D10121540801E0621A94B2A042FBD9FEF7B9FE012804D1298AA878224601F0D4FC70BD0000F5
:404EC000FC14002010B50023054C0B60248A944204D992001018C26E0A60C36610BD00003016002038B5044600200090A079002814D14020015D052901D00E290ED168463F
:404F00000BF016FD002809D12046009902F0EEFB03481021C28A2046FFF7BDFB38BD0000FC14002010B50B4604460146184602F067F8002802D020460BF05EFD10BD13B5E5
:404F4000044601AA11460620FDF7BEFF6846818861811CBD002800D10220704770470000F8B504462346401D543300909A1EA078911E01F0F9FA25464035A88A298A800097
:404F8000FCF708FE401E81B2688A884203D96982A07801F079FF698A8C20015120460021433001F04DFB27480088E88102F01EFFE989891C8AB26179FFF7A0FD01F090FC93
:404FC00002F014FF2A8A6179FFF798FD074601F07BFC688A002806D01B49088A032212021043088202E0002001F042FF1648803801886E8A002E0CD0304648431349FCF7BD
:40500000B3FE0004000C01D0401C80B21049488002E00F4800214180288A704381B2A07801F09CFEFF2228374932B9B21346204602F030FCE98AA07801F010FEA07801F003
:405040001FFAF8BD80102E40E0112E4071020000720D00207FB504468034616805460E46183108226846FCF7C0FE31462031082202A8FCF7BAFE102168460BF0F3FB6068B0
:40508000102108300BF0EEFB60682B46083024331022694602F076FE7FBD10B504460821FFF704FB10212046FFF700FB207905281FD006281DD008281AD12189002003F0FB
:4050C00075FB072020712046FEF7CAFF014620464030012913D00E21017000210176204600F0B6FF2046FFF76BFE2046FFF7C2FE10BD20890122002103F03CFBE1E7052144
:40510000EAE70000FFB581B01F4604460821FFF7CDFA10212046FFF7C9FA2079082803D0092804D0042203E00422012501E009220025204600F03EFE264600204036307079
:4051400022712046FFF73CFE0398002D02D0012808D00BE001280AD120890022029903F009FB04E02189029803F020FB012700203076012F04D0204600F06AFF05B0F0BDD6
:4051800002983073204602F0FFFA054605480121C28A2046FFF77FFA002DEFD109202071ECE70000FC14002070B50C460546FEF757FF012809D108212846FFF777FA0023AB
:4051C000012221462846FFF79DFF70BD10B5044600F0F0FD2046FFF7F3FD00214034217010BD70B505461A24FEF73AFF012809D108212846FFF75AFA0023012221462846F2
:40520000FFF780FF70BD0000F8B50446002000900E4668460BF08CFB002801D00D20F8BD8420005908212030009D00F026FA20460421383000F021FA002E02D1204600F04E
:40524000F5FD2946204602F0E0F90E480821C28A2046FFF720FA204600F06BFF25464035002808D0204600F023F8002801D0092028700020F8BD08202870204600F0D4FFD2
:40528000F7E70000FC140020014610B540310A460978082906D0092907D00A2901D100F091F810BD0B20107010BD00F001F810BD70B50446007925464035052805D0062811
:4052C00003D008280FD00C2070BD03220621204602F02EFA0D480821C28A2046FFF7DBF91120287010E006202873204602F04CFA0646AA8A0A20424301212046FFF7CBF924
:40530000002E01D109202071002070BDFC14002038B504460020009068460BF009FB002801D00D2038BD2046009D00F0BDF908202071204600F07AFD2946204602F098F900
:4053400000213D2001550F2040210855204600F06BFF002038BD00B5024600F02BFD10214032117000BD10B50446FEF779FE012809D04020005D112805D100231A460621AE
:405380002046FFF7BFFE10BD10B5FFF786FE10BD38B504460021684600910BF0C9FA00280CD12046009902F0E4F905480821C28A2046FFF770F90D204034207038BD000026
:4053C000FC14002038B504460021684600910BF0AFFA002801D00D2038BD2046009902F0BDF905480821C28A2046FFF754F90C2040342070002038BDFC1400200078704771
:40540000F8B5002569460D70002801D0002400E01F4C002C18D0204600F0D5FC002813D0207903280BD005280CD026464036B18AA07801F09DFCB078012806D01DE0042011
:4054400020711DE006202071F8BD0021204601F0F4FD274680373868002802D00BF0D6FA3D600020B0702079072802D12046FFF701FD0221204600F0F1FE20790428E3D18D
:40548000207A694608703420FEF7B2FCF8BD00006415002010B54C22115400F04CF810BD10B50446FF21FFF701F909202071A07801F084FC10BD000038B5FF216A461180D0
:4054C000002801D0002400E0084C002C0DD011460620FDF7F9FC684601882046FFF72FFD03480068C1692046884738BD64150020B40D002010B504468079002809D0222160
:405500004C200155FF212046FFF7D0F8204600F012F810BD10B5037902464032002B03D01173092B02D003E0002100E02221117300F001F810BDFEB5044600890027009017
:405540002781207926464036002817D0012815D002280AD112E002AA01A9204601F03EFD002807D101980BF047FA204601F05EFD0028F0D02046FEF7C3FCB7762546803536
:405580002868002802D00BF041FA2F606868002802D00BF03BFA6F60317B002919D0009800F064F8A078002100F086FF2046FFF79BFAA07801F07AF8A07800F037FDFF21BB
:4055C0002046FFF773F80B20FFF734F800F068FCFEBD1F213173E2E7F8B517460E46054602F000FC04003CD020460C3001F018F82046062200211830FCF700FC204606221D
:4056000000211230FCF7FAFB1648224600683946436A28469847074626702846FEF720FD012148406070002D10D02889608028464030C1782171002E0FD169796171018A07
:40564000E180418A2181808A608106E00648008BC005C00F2071002060803946204603F028F8F8BD980D002000102E400A4610B50146002003F03AF910BD10B50AF0CEFEA3
:4056800010BD000000B50146FFF708FA002801D0002000E00348002802D002898A4200D0002000BD6415002038B5044680346068002806D168460BF04BF9002801D100981D
:4056C0006060606838BD000010B5014600F086FB0128887802D0FEF7CDFC10BD90214843024940186030007F10BD00004415002070B5054604464035A87F012811D1A1787C
:405700009020084A484380186030067F3046FEF77FFE002805D10220A877A078314601F06FF870BD4415002010B50C4CA07A002813D0FEF719FF0A48027F417F408B00F0DE
:40574000B7FB012809D10020A07200F007FF05498989090B01D000F03BFA10BD1416002044150020A0102E4070477047490510B5490F0B00FCF742FD060704080C0C0F07D7
:405780003E21FFF787FE10BD0821FFF7C3FE10BDFFF7D1FE10BDFFF7ADFE10BDF8B507460025002D01D0002600E0204E00F09AFE3046403044890021418100F09DFE3046E5
:4057C00000F001FB01282BD1A00702D52846FFF717FEE00602D52846FFF76EFEA00601D5FEF7C2FE600601D500F014FB200602D5284600F01DF8600702D5284600F02CFA76
:40580000380402D52846FFF719FB780402D52846FFF706FBE00703D021463046FFF7A6FF6D1C2D062D0EBCD0F8BD000064150020F8B5002801D0002400E0284C002C4BD0BD
:4058400025464035A878012846D1FF278820493700593E46002805D02149897A890601D5878AC68A2046FEF7FBFB012834D002F0BDFA2A8A6179FFF741F9009001F024F80B
:4058800000983346283081B23A46204602F002F8E98AA07801F0E2F912480188688A124E002810D048431149FCF75EFA0004000C01D0401C80B27080A07DC107C90F00207A
:4058C00001F0A8FA01E000207080288A698A484381B2A07801F042FAF8BD000064150020FC14002060112E40720D0020710200000149096809680847B40D002070B50D4639
:405900000026194A0146002801D0002401E014462034002C26D0204600F060FA01280AD19020484380186030007FFEF771FD002801D101F0A9FE0D48006881692046884762
:4059400000280CD020464030817EA94202D3491B817600E086762089294602F068FF204600F062FC70BD000044150020B40D002070B503460088FFF785FE040013D000F065
:4059800022FA00280FD02079092819D02546997840352973204601F0F7FE0646A878012803D0AA8A02E0022070BDEA880A20424301212046FEF76FFE002E01D109202071A6
:4059C000002070BD0EB5002217216B460292198100905A810120029B00990BF0B7F80EBDF8B518480024807A002822D1164E0025B089000B22E0204600F032FE1249A03958
:405A0000401807882A462146384600F051FA012810D00E480122478305770A4944778A72002D01D0002000E02030002801D000F0FBFBF8BDB089000B641CE4B20028DAD10E
:405A4000F8BD000014160020A0102E404415002010B50088FFF716FE002809D0014640310C460978082905D00B2903D00C2010BD022010BDFFF71CFC002801D009202070F8
:405A8000002010BD70B503460088FFF7FBFD040008D0254640352878082805D00B2803D00C2070BD022070BD8420005910220830991CFCF79AF92046FFF7CCFA2878082872
:405AC00004D02046FFF77EFC002801D00A202870204600F0A9FB002070BD000010B50C46002121700088FFF7CDFD03000BD000F06AF9002807D00948F121807A0840C0064E
:405B000003D4112010BD022010BD022020701A8A1889002102F006FF002010BDFC140020F8B50F46002100910088FFF7ABFD040012D000F048F900280ED0E079410641D4C9
:405B4000617E02264A07002A08DB8907402500291ADA2843E07135E00220F8BD02F042F90021017021894180A1898180217E4170E189C1803E7005460178134802F0ACFB50
:405B8000284602F073FE1DE0204600F02DF9012806D068460AF0CCFE002803D00720F8BD2A20F8BDE07900992843E071204601F015FE607E0421304360760448C28A2046F2
:405BC000FEF769FD0020F8BD1D040000FC1400203EB500220F236C460292238100910190628169460EC900200AF0B0FF3EBD0000F8B50F46054600F097FA040025D00320BA
:405C00002071254600264035EE76E6702046FFF7A7F901F00FF80920FEF70CFDA07800F033FD0121204600F019FB2E706E70AE703A4600212046FFF7CFFC0649887B401C24
:405C40008873A078FFF754FEF8BD284601F0B6F8F8BD00004415002010B5002801D0002000E0094800280DD0014640310A464978022901D100215170807DC107C90F002060
:405C800001F0C8F810BD00006415002070B503460D460088FFF7F6FC04000BD000F093F8002807D01248F121807A0840C00603D4112070BD022070BD20464030418A008A20
:405CC000491C41430804C10C5888884201D2122070BD20822079072802D12046FFF7CAF8022028702089002102F044FE002070BDFC140020016A491C016204D1817E491C0A
:405D00004906490E81767047C169491CC16104D1C17E491C4906490EC1767047F0B5074687B003A8009005A800260D460190002F01D0002400E01B4C002C05D06846FCF729
:405D4000AFF8002803D00BE0022007B0F0BD68460089C00704D1902200212046FCF74EF8114829460068826820469047050016D1A77066762746267140373E70204600F016
:405D800019F8204601F04EF9084820820848BE77807AF121084000D001202075E682E8B2D3E7000064150020B40D0020B80B0000FC140020002101628176C161C176203096
:405DC0000177417770470079002805D0012803D0022801D001207047002070474030807F002800D00120704740300078002807D0012805D0052803D00E2801D0012070479D
:405E00000020704710B5807801F08CF8002800D0012010BD10B500F0A1FB03498989090B01D0FFF7D5FE10BDA0102E4070B5054604464035A87F002825D1FF206075A078AB
:405E40009021154A484380186030417F9023491CC9B24177A0785843104B8018DB896030994201D300214177A0789021484380186030467F0677A1783046FEF7C9FA002805
:405E800002D00120A87770BD0220A877A078314600F0B6FC70BD000044150020301600200020401C0006000EFBD0002070470000F0B515468207920F85B0000A02926A4646
:405EC0009080002D01D0002400E0564C002C28D0084600F0C5FB07466846808800280BD00298012843D0022841D003280BD03D20005D012879D08FE04B4838180188204642
:405F0000FFF71DF888E00020029002A80AF0F0FC002807D03D20005D012802D12046FFF7E9FE7CE06846029E8388324600213846FCF7DCFE3C48381801882046FEF7FFFF65
:405F4000284600F0A9FA01AA21463046FEF7ECFD002806D030460AF03BFD3D204C21085531E0F5773146204601F0C4F957E0002000902089039068460AF0AAFC002802D07A
:405F8000002005B0F0BD6846009E8388321D00213846FCF7ABFE2448381801882046FEF7CEFF284600F078FA2046FFF70CFF002805D025464035287E002810D107E03046F1
:405FC0000AF0FCFC2BE02046FFF76AFA27E001AA21463046029BFEF7DFFD002806D030460AF0ECFC3D202873EDE712E00298FEF7B5FF0399317003990001090A014371707E
:4060000068468088B070000AF0703046FFF7DAFC05E02046FFF76EFE284600F03DFA0120AFE700006415002000102E4010B5074A917B002901D0491E91730021FFF76EFEC4
:40604000002801D0002010BD012010BD44150020F8B5074606464037B87F00282DD0B078902100904843234945186035287F0099FEF7E3F901281ED0287F401CC4B21E4861
:40608000C089A04200D800240020B877FF276F772F77A87702460146009800F01DFD717DFF2903D0304600F07EFF777501F0ECFA0025114F19E00320B877F8BD00200090A4
:4060C000224669463046FEF7FDFE0099002904D0FF231A463046FEF7C8F9641CF889E4B2A04200D800246D1CEDB2F889A842E5D8F8BD0000441500203016002010B5024679
:406100000021084B03E0002901D0002000E018460479944204D0491C0906090EF3D0002010BD00006415002000B50120FFF7E6FF00BD10B5044601F055FE21890180803415
:406140006168416061682831816002F049FB10BDF7B50646087982B00C46092807D0A078F0770846FFF73AFE012806D010E030460AF042FC022005B0F0BDA1789020294A52
:40618000484380186030007FFEF742F9012810D0A078FEF7D7FD01280BD037780121304601F01EFA25462035062F38D00B2F0FD107E06846027C21463046FEF7B3FE0D2065
:4061C000D9E72046FDF74CFF012801D1002028772046FFF779FA054604AA21463046FEF710FD01205F2108556946097C002001910090A07833463A46294600F0ABFA6946A1
:406200000A7CA0780323294600F0ECFDA0782946FDF754FE30460AF0EFFB0020ABE70120D5E700004415002010B502464032937F0021002B03D1927E002A00D00121064AF6
:40624000927A002A00D000210279092A00D10121807800F0FFFD10BD1416002070B50C460546FDF7FDFE00280BD1012C06D92879092806D02846FFF7C5FD0446002C02D084
:4062800004E0012402E0A87DC007FAD1A87DC107C90F204600F0BEFD70BD0000012807D0082804D104480282034808300180704701488038FAE70000A0102E4001490881D6
:4062C0007047000000102E4010B50446FF20F130012C01D1FF20D530002200F0EDFD044A108A044980B2A0430880108210BD000000102E40760D0020034B198A034A89B230
:40630000814311801982704700102E40760D002010B50446012802D0082C07D102E0FF20D53001E0FF20F13000F0BEFD0348018A034A89B221431180018210BD00102E408C
:40634000760D0020034B198A034A89B2014311801982704700102E40760D0020F8B505460120A84086B214460F46012231467C2000F0A2FD3A463146782000F09DFD60781B
:40638000267800020643E078A2780002024360792379000203430C2045430D2080010549281844182680001D44182280001D40180380F8BD00102E40CB065B0E0343480975
:4063C00001021943D00108430121C902084301490881704780142E404278037812021343084A1382C37880781B021843908248780B78000203431383C87889780002014373
:406400009183704700142E40024A1080000C90801181704700142E40044A002180180288491C89B21029FAD37047000000102E40024A10820148803081817047A0102E4032
:4064400010B5054A1082084600F05AFD024A0021A03A8018018010BDA0102E4010B50B46044600F005F819462046FFF7E1FF10BD024A10820148803001817047A0102E40B3
:4064800010B504490882FF20002220211D3000F013FD10BDA0102E40000202494D3008807047000000102E400249888A0422904388827047C0112E4010B5084B074C02023A
:4064C000A03B0029208202D075321A8010BD04490020088088807632F7E70000A0102E40201A2E4000B5034908884880FFF704FF00BD0000760D002000B502484088FFF75E
:4065000021FF00BD760D002010B5FCF7A5FD10BD014952200880704700102E40884201D8081A03E00022D243101A401880B2704700210170704700000748808806492039A9
:40654000098B884201D8081A03E00022D243101A401880B27047000020112E400148008AC0B27047A0102E4070B5084C049D2082074804890548603006880E8001891180D8
:40658000808818806007400F287070BDA0102E40E0112E400148008970470000C0102E4000280FD00D4A108B0870000A4870908B8870000AC8700948203000880871000A48
:4065C00048717047064A10880870000A487090888870000AC8701089F0E7000040102E40C0112E4000B5024A00F004F800BD0000FF7F000000B51346FFF790FF984201D8DC
:40660000022800D2002000BD0148008A70470000001A2E40014880887047000020102E40064B1A8999891B8A0270120A42708170090AC1700371190A4171704760102E40BB
:40664000012904D00549098BC90B017070470349403109898907C90FF7E7000000102E40014840897047000030160020044A10820448028980894843101880B270470000A0
:40668000A0102E40301600209021074B414300B5C918FF2260314A770A7700228A77114600F01AFA00BD00004415002090225043074A10B58018FF2160304177017700219D
:4066C00081770448418EFF201D3000F0EDFB10BD44150020FC14002000B5044A1082034880308088022200F003F800BDA0102E4010B50023884201D8081A03E00024E44370
:40670000201A4018044980B2884201D8824200D90123184610BD0000FF7F000070B55478157824022543D47888232602947834435679127936023243002900D09823044985
:4067400008820348A038181805808480028170BDA0102E40FFB581B014460D4607460A9E0B9BFFF783FF002E0AD0009333460021049AFCF74BFB05484019C45505B0F0BD13
:406780000021049AFCF728FBF5E700007A0D002070B502460448054D808808242C800B460021FCF719FB70BD30160020A0142E4010B5212402466401044953200880102336
:4067C00000212046FCF708FB10BD000000102E40417802780902044B0A431A83C1788078090208439883704760142E40034A1082802001430148803001817047A0102E400C
:40680000054A1082044A6032908B0009000108439115084390837047A0102E4030B500210F4B0A46012809D0032802D005280AD107E04021198102210A2204E004210C222F
:4068400001E004210D221882054C20342088C0B205460D42FAD022800021198230BD000080142E4010B5044607480482074801808280032189030820FFF74AFD20020249A1
:406880007530A039088010BDA0102E40201A2E40054A1082044A60321183000202494B30A039088070470000A0102E40054A491E1082044A60321183000202494C30A0398E
:4068C00008807047A0102E400349884200D908460249088070470000FF0F000060112E400349884200D908460249888070470000FF0F000060112E408823002900D09823F4
:40690000084908820748A038191808881070000A507088889070000AD07008891071000A50717047A0102E4010B51446024606480B46C0880021FCF735FA012C02D1034961
:406940005420088010BD00003016002000102E40064A11880170090A417091888170090AC1700349542008807047000080142E4000102E400121814010B589B200227C20DE
:4069800000F09AFA10BD0000FEB5FF210120FFF79BFCFF210820FFF797FC3020FFF7ACFC3F48802101803F483F4D00784007400F02286FD001286BD100202880002211466D
:4069C0000320FCF781FA394E3949B08D8882384F002420373248A0300482308F38822046FFF764FE641C2406240EF3D0B08F38832E48103000F052F971693069019100908E
:406A000069464879C021084369464871684600F06DF900F055F82548214C40304188A03421838188A1831E49C088C0318880708E38802048002606823920FFF783FC184FB0
:406A4000532038801C490720088354203880E020FFF7E2FCE820FFF7DFFCF020FFF7DCFC0020FEF741F813488682282101838015A0810F48403086815B203880094800781F
:406A80004007400F022807D0012801D10B482880FEBDFFE7032090E70848C01CF7E7000000102E4030160020001F2E40FC140020C0112E40001A2E4080142E40E023000097
:406AC000044800218183018302497420603908807047000060102E40074B1882064B6033988B00090001084399158843002A01D11021484098837047A0102E40F3B50D22CF
:406B000084B0920100924A780B78120213430393CA788B78120213434A790979FF20120211431A4A8C46918B9E460291118B01911649742260390A80154900220F7821E025
:406B40000121124B9140009C603BE3181D8889B21C881B88039E6E407546654064462E435C4026430CD1029B194209D00199D140CB070499DB0F8B4202D1104606B0F0BD92
:406B8000521CD2B29742DBD8F8E7000060102E403C15002030B50949FF208C8B084A00210125137805E02A468A40224204D0491CC9B28B42F7D830BD084630BD60102E40BF
:406BC0003C15002010B50446E020FFF725FC20782246401CC3B20021E020FCF7A3F810BD42790021012A02D901214171090342790A430179042914D049001143827B032A95
:406C000001D8D2001143427B52010A43817909021143012252031143054A118300889083704711460122920211430222E5E7000000102E4000B50120FFF75EFB01494120FE
:406C4000088000BD00102E4000B50120FFF77AFB01494020088000BD00102E40024A10820148603081817047A0102E4010B5044C208204488180028183815143018210BDA6
:406C8000A0102E40A0132E40034B1882024820388180028070470000A0102E404178027809020A4306490A80C2788378120213438B804279007912021043088170470000CA
:406CC000C0112E404178027809020A4306490A81C2788378120213438B81427900791202104308827047000060102E40417802780902084B0A431A83C178827809020A4385
:406D00009A8341790079090208430249203108807047000040102E404178027809020A4306498A80C2788378120213430B814279007912021043888170470000001F2E401D
:406D400010B50446E820FFF767FB20782246401CC3B20021E820FBF7E5FF10BD024A10820248818370470000A0102E40001A2E40024A10820148603081807047A0102E40F1
:406D800010B5044688000521FAF704FF04490C8204498880200202497230A039088010BDA0102E40001A2E4003490882000202497330A03908807047A0102E40034908823D
:406DC000000202497030A03908807047A0102E4003490882000202497130A03908807047A0102E40F8B505461C4617460E46084600F086F8054AB90021431582034AA03A85
:406E000080180180024880194455F8BDA0102E407F0D002030B50E4C238A01251A46012804D0022804D000290BD00CE02A430AE0002908D12A4322825008400020821A46DD
:406E400001E05A0852009A4200D0228230BD0000001A2E40054A1082044A6032908B4023984389010143918370470000A0102E40044A118A0223002801D0194300E09943C8
:406E800011827047001A2E4000B5064A1082054860300181002901D0012000E00020FFF7E7FF00BDA0102E40024A801802880A430280704700102E4070B5084BC5182C88BD
:406EC0000023080003D104E040085B1C9BB2C607FAD08C439A4022432A8070BD00102E40024A1018405C8007800F70477F0D0020024908820148803080897047A0102E4074
:406F00008000FF3041307047044B02461B8AFF208B4202D902484018805C7047301600207A0D0020024908820148803000897047A0102E40174902460B680020002B08D1CA
:406F40000A605207520F012A04D0022A10D0086012207047112292018A80CA80032252020A810122D2024A8140228A8105220DE0092252028A80CA80012252030A81032235
:406F8000D2024A81012252028A810422CA810A8270470000301600200A4600B501461046FFF7B2FF00BD38B50C46054600216846009109F0BDFC002804D1009928464C7034
:406FC00000F0FEFB38BD10B5044680780021FFF745FE01212046FFF741F910BD436E002B0CD00B60014660318B781370826E4266CA788A700021816608467047FF20704795
:4070000010B50346446E6033002C04D0846E002C04D0FF2010BD41669A7001E08166DA70002010BD0021416681667047406E002801D000207047FF20704770B50446C0790D
:407040000D46810610D5DF210840E07100F0CAFE0570218941804034218A8180618AC180A18A018101F0F8FA70BD000010B50446FEF7B4FE01280AD1A1789020054A4843BA
:4070800080186030007FFDF7C3F9012801D000F0FBFA10BD44150020F8B50E460446FCF7DFFF01282BD02079042801D0072825D1F079B77900020743A0783946FFF70CFBE0
:4070C00025464035012820D03A46711C204600F088FA02212046FDF77EFEA07DC107C90F0220FFF797FE688A002807D0E87E002804D1032109020820FFF70AF9F8BD0122D3
:407100002421204600F014FBF8BD282028732046FEF7C6F9F8BD70B50D460646FDF7F0FD002852D120213046FDF7C0FA3446687840346073E87820220002E081A9780843D7
:40714000E0816879010228790843218A814203D0F1791143F1712082E8790102A8790843618A814203D0F1791143F1716082687A0102287A0843A18AE180814203D0F1792A
:407180001143F171A082A08A218A8000FAF702FD401E618A80B2814200D9608201213046FDF71CFEE87AA97A000201430022304600F02EFB608A002807D0E07E002804D153
:4071C000032109020820FFF7A3F870BDF8B50C4605460027FCF744FF012847D0284EB07AC00709D02846403000900078002806D0102803D01F212CE01A212AE0012728463D
:40720000FEF752FA002823D02E4680360822611C7068FAF7EAFD7068617A20300172A17A417270682146183008220B31FAF7DDFD21462846042213313430FAF7D6FD39468F
