:400000000080002011000000710400007104000080B500AF00F036FA80B500AF284B12221A6002F0A1F8274B180002F0CDF9012002F0AAF8302001F089FE234B234A1A607D
:40004000234B8022D2051A60224B224A126802210A431A60204B214A1A60214B00221A60204B204A126808218A431A60FA23DB00180001F061FF1C4B180002F015F81B4B86
:40008000A02212011A601A4B1A4A1A601A4B822212061A60194B8022D2021A60184B40221A60184B1900082001F090FF082001F0B3FF074B8022D2051A60C046BD4680BD06
:4000C00030001040001BB70004010B40060000800C020B4078002E407C002E40D0D0000064F02E406CF02E40DC050000000301400000014040FF008008010B4000010B40BE
:4001000018010140DD22000080B582B000AF72B6364B00221A60FB1D00221A7022E0FB1D1A7813005B009B185B00314A9B183B603B681A78597809020A43997809040A438D
:40014000DB781B06134318003B681A795B791B0213439BB2190000F0F1F8FB1D1A78FB1D01321A70FB1D1B78012BD8D9214A224B1100180000F0F2F8204B214A1A60214B43
:40018000992212041A60204BC02292041A601F4B992212041A601E4A1D4B1B78DBB23C218B43DBB214210B43DBB21370194A194B1B78DBB216210B43DBB21370164B102298
:4001C0001A60164B164A1A60164B10221A60164B1C221A60154B9222D2011A60FFF71CFF00F0FEF8C046BD4602B080BD6CF02E40F03E0100083F0100FC3E01000000024016
:40020000000007EE00500F4008500F4020500F4001700F4000700F4000000440080004400080D90018000440000204400802044010B5064C2378002B07D1054B002B02D06A
:40024000044800E000BF0123237010BDA010002000000000EC3E0100084B10B5002B03D00749084800E000BF07480368002B00D110BD064B002BFBD09847F9E70000000036
:40028000A4100020EC3E0100A80B00200000000080B500AF62B6044B180000F0F1F902F0C9FC00F01FF8FAE7AD02000080B582B000AF786039607B68012B00D006E0054B45
:4002C000054A1A60054B064A1A60C046C046BD4602B080BD60F02E4031030000080003400203008090B583B000AF02F0A3FCFB1D114A12781A70FB1D1B78022B06D100204D
:4003000000F06CF9012000F041F911E0012000F065F93C1D002000F04BFA0300238002F089FC3B1D1B88002B02D1002000F02EF902F080FCDBE7C0461022002080B582B0D3
:4003400000AF786039603A687B680021180002F035FCC046BD4602B080BDC04680B586B000AF7860396000233B6100237B612FE07B699B007A68D3181B68BB600F23FB18F7
:40038000BA681A70BB68FF229343BB6018E03B695B003A68D3181B781A00BB68D31819003B695B003A68D3185B780B703B6901333B610F23FB181A780F23FB18013A1A70D5
:4003C0000F23FB181B78002BE1D17B6901337B617B69022BCCD9C046BD4606B080BDC04680B500AF0C4B30221A600C4B03221A600B4B03221A600B4B802212061A600A4BCB
:40040000802212031A60094B00221A60012000F00FF8C046BD4680BD08210240300030403000314000003A4000033A40000E3F4080B584B000AF0200FB1D1A700B4B1B6878
:40044000FB60FB1D1B78002B05D0FB68802212061343FB6003E0FB685B005B08FB60034BFA681A60C046BD4604B080BD80033A4080B500AF02F05EFB03001B680C2B00D16B
:40048000FEE7FEE780B586B000AF224B7B61224B3B61204B7B6135E03B691B68FB603B695B68BB603B699B683B6000237B600CE0FB681A68BB681A60BB680433BB60FB6820
:4004C0000433FB607B6804337B607A683B689A42EED13B69DB683B6000237B6008E0BB6800221A60BB680433BB607B6804337B607A683B689A42F2D13B6910333B617B6939
:40050000013B7B617B69002BC6D102F019FBFFF7BFFEFEE7010000009C42010080B582B000AF154B144A126801218A431A6000237B600FE07B68032B04D8104B7A6892001F
:40054000D35800E00E4B0F4A796889008B507B6801337B607B682F2BECD9FFF7D5FD0A4B00221A60044B044A126801210A431A60C046BD4602B080BD000010400000000084
:400580007104000000000020C000002080B584B000AF0200FB1D1A700F4B1B68DAB20F23FB1808218A431A70FB1D1B78DB00DBB208221340D9B20F23FB180F22BA181278EF
:4005C0000A431A70044B0F22BA1812781A60C046BD4604B080BDC0460002044080B584B000AF0200FB1D1A700F4B1B68DAB20F23FB1804218A431A70FB1D1B789B00DBB2CF
:4006000004221340D9B20F23FB180F22BA1812780A431A70044B0F22BA1812781A60C046BD4604B080BDC0460002044080B500AF094B00221A70094B00221A70084B002218
:400640001A7000F013F8074B00221A70064B00221A70C046BD4680BD1B220020142200201A220020002200200822002080B500AF00F076FC00F07AFCC046BD4680BDC04621
:40068000B0B594B004AF78603E23FB1800221A802823FA183D4B1000190014231A0002F084FA3B4B1B78002B04D1FFF7BFFF384B01221A707B68002B5CD0364B7A681A60F3
:4006C0003E23FB181B88002B29D11023FB181C22BA185A601023FB182022BA181A601023FB1800221A812023FB181B221A802023FB181B225A802023FB1804221A711C23F7
:40070000FB1808221A703E23FC180E23FA181023FB181100180002F069FB030023803E23FB181B88002B29D13E23FC182823FD18AE231A0118491948194B0293194B01931F
:40074000052300932B0002F0A7FA030023803E23FB181B88002B11D1134B01221A703E23FC18124B0D221D2118000EF0E9FF0300238003E03E23FB1801221A803E23FB18C0
:400780001B881800BD4610B0B0BDC0461C3F0100BC10002004220020C8000020490B000079020000004B010010220020383F010090B585B000AF0200FB1D1A70FB1D1B7875
:4007C000022B04D90E23FB1801221A804AE0294B1B78042B41D1284B1B78DBB21A00042313403AD1FB1D1B78002B0BD1234B1E221A82224B5B6820221A80204B5B683022C2
:400800005A8010E0FB1D1B78012B0CD11B4B96221A821A4B5B68C822D2001A80174B5B688022D2015A80164BFA1D12781A700E23FC18124B18000CF0FDFB030023800E237D
:40084000FB181B88002B0DD10B4B1B78DBB204221343DAB2084B1A7004E00E23FB180422FF321A800E23FB181B881800BD4605B090BDC046102200201B220020DC0B002085
:400880001A22002080B584B000AF78600A00FB1C1A700023BB60FB1C1B78002B01D1154BBB60BB68002B20D07B689A79BB681A700F23FB1800221A7012E00F23FB181B7845
:4008C0000133BA68D3180F22BA18127879688A5C1A700F23FB181A780F23FB1801321A700F23FB181B78052BE7D9C046BD4604B080BDC046D00B002080B582B000AF78604F
:400900007B681B789AB27B6801331B789BB21B029BB213439BB21800BD4602B080BDC04690B585B000AF78600F23FB1800221A707B689B890F22934232D17B68181D7A68E5
:400940000F23FC18402300210EF048FF030023700F23FB181B78002B1AD17B685B681800FFF7CAFF03001A00022313409BB2002B07D00F4B1B6879688222520010009847E0
:4009800006E00B4B1B6879680622FF3210009847084B1B78DBB201229343DAB2054B1A700F23FB181B781800BD4605B090BDC046042200201B22002090B585B000AF7860DE
:4009C000244B00221A700F23FC187B681800FFF7A7FF03002370204B1B78DBB21A00012313400CD00F23FB181B78002B07D10F23FC187B68180000F03DFC03002370164B35
:400A00001B78DBB21A00012313401FD10F23FB181B78002B16D00823FB1812229A707B689A890823FB181A800823FB180F22BA181278DA700823FA187B68110018680DF00F
:400A400045FC03E07B6818680DF0CAFCC046BD4605B090BD1C2200201B22002080B582B000AF78607B68002B0AD0074B1B78DBB21A000123134003D07B68180001F08CF84A
:400A8000C046BD4602B080BD1B22002080B500AF044B00225A70034B00221A70C046BD4680BDC0461822002080B582B000AF7860C046BD4602B080BD80B500AFC046BD464F
:400AC00080BDC04680B584B000AF78600E23FB1800221A707B689B79002B1CD10F23FB1800221A7012E00F23FB181B787A68D35C002B04D00E23FB1801221A700BE00F23EB
:400B0000FB181A780F23FB1801321A700F23FB181B78052BE7D90E23FB181B781800BD4604B080BD80B582B000AF0200BB1D1A80C046BD4602B080BD80B582B000AF7860F3
:400B4000C046BD4602B080BD80B588B000AF02003960FB1D1A70C44B1B78DBB201221343DAB2C14B1A70FB1D1B78412B00D152E123DC212B00D1C6E00DDC022B00D198E01E
:400B800002DC012B3BD0CAE1052B00D196E0062B00D198E0C3E1272B00D1EEE006DC242B00D1E0E0262B00D1F3E0B8E1282B00D1EBE02A2B00D1DBE0B1E14F2B00D185E18C
:400BC0000BDC432B00D145E100DA40E14C2B00D177E14E2B00D197E1A1E1572B00D195E106DC502B00D17DE1542B00D17FE196E1712B00D109E1FA2B00D17DE18FE11423FC
:400C0000FB1802221A701423FB1800225A701423FB18180003F0EEFF1423FB1802221A701423FB1801225A701423FB18180003F0E1FF0B23002B01D001F0F4FF8B4B1B68B0
:400C40001800FFF73FFF031E11D0884B1B68180001F0F4FF854B1B6800211800FFF712FE824B1B6801211800FFF70CFE0DE0804B180001F0E3FF7E4B00211800FFF702FE1D
:400C80007B4B01211800FFF7FDFD03200CF066F81023FB183F221A701023FB1800225A701023FB1818000CF077F8724B04221A7035E13B681800FFF7F7FE30E13B681A782C
:400CC0006D4B1A702BE13B68BB61BB691B78002B00D01DE1BB695B78002B0BD1674B0022DA80664B00229A80644B654A1A60BB69624A5A605C4B1B78DBB201229343DAB270
:400D0000594B1A7004E1584B1B78DBB21A002023134000D0FEE05B4B1B78102B02D1594B0522DA70584B1B78564A110018000CF03FF903001A000E23FB181A800E23FB18B1
:400D40001B88002B06D0514B1B680E22BA18110036209847444B1B78DBB201221343DAB2414B1A70D6E03B685A78494B1A70D6E03B681800FFF7E0FED1E03B681800FFF7AE
:400D8000DBFE3C4B02221A70C9E03A4B04221A70C5E0384B1B78022B00D1BDE0324B1B78DBB21A000123134000D1B5E02E4B1B78DBB21A00042313400BD02E4B03221A702D
:400DC000294B1B78DBB204229343DAB2264B1A70A2E0254B1B78DBB21A00082313400BD0244B04221A70204B1B78DBB208229343DAB21D4B1A708FE01E4B1B78032B00D0C6
:400E00008AE01C4B04221A7086E03B681B881800FFF788FE83E01C4A3B681000190002231A0001F0C2FE144B00221A70164B1B789E339A00174BD3180133174A10001900F7
:400E400004231A0001F0B1FEFFF736FE67E0FFF71DFE64E03B685B88162B1FD81E23FB183A6852881A801DE01B220020F80B0020F00B00201022002014220020E41000204F
:400E8000A80B0020B00C0020182200200422002008220020004B01000C2200201E23FB1817221A801E23FB1819883B681A8800231204120C1B0C1B04134318000DF010FA8C
:400EC0002DE03B681800FFF777FD28E0214B1B78DBB21A000123134020D03B68180000F0AFFC1BE03B68180000F040FD17E03B681800FFF7B3FD12E0174B1B7801221343BA
:400F0000DAB2154B1A700AE0C04608E0C04606E0C04604E0C04602E0C04600E0C0460D4B1B78DBB21A00112313400ED0094B1B78DBB201229343DAB2064B1A70074B1B6819
:400F4000FA1D1278396810009847C046BD4608B080BDC0461B220020002200200422002080B500AFC046BD4680BDC04680B500AF024B00221A80C046BD4680BDEC100020D8
:400F800080B582B000AF78607B681B781A007B6801331B781B021A437B6802331B781B0413431800BD4602B080BDC04680B582B000AF78607B681B781A007B6801331B7837
:400FC0001B021A437B6802331B781B041A437B6803331B781B0613431800BD4602B080BD80B586B000AFF860B9607A601A00FB1C1A701723FB1800221A70FB1C1B78072B2E
:4010000035D89A00234BD3181B689F46FA687B689A4203D8BA687B689A422DD21723FB18FF221A7028E01723FB18FF221A702AE0BA687B689A4221D21723FB18FF221A709E
:401040001CE0FA687B689A421AD91723FB18FF221A7015E0FA687B689A4203D8BA687B689A420FD21723FB18FF221A700AE01723FB18FF221A7006E0C04604E0C04602E023
:40108000C04600E0C0461723FB181B781800BD4606B080BDD4410100B0B58CB002AF05000C0010001900FB1D2A1C1A70BB1D221C1A703B1D021C1A80FB1C0A1C1A7027230B
:4010C000FB1800221A702623FB1800221A7000233B620023FB610023BB6100237B611323FB180E221A703B1D1A88BB1D1978FB1D18780823FB1800931300082200F08EFD15
:40110000031E00D0AFE03B1D1B88042B16D002DC022B05D05AE0062B29D0082B40D055E0BB6B1B78BB610823FB181B78FB610823FB185B783B6280237B614CE0BB6B1800CA
:40114000FFF7DAFB0300BB610823FB181800FFF7D3FB0300FB610823FB1802331800FFF7CBFB03003B6280231B027B6133E0BB6B1800FFF705FF0300BB610823FB181800C9
:40118000FFF7FEFE0300FB610823FB1803331800FFF7F6FE03003B6280231B047B611AE0BB6B1800FFF702FF0300BB610823FB181800FFF7FBFE0300FB610823FB180433C3
:4011C0001800FFF7F3FE03003B6204E02623FB1801221A70C0462623FB181B78002B36D1FB1C1B78002B2ED0FB697A691A407B699A4201D1022200E000222723FB181A7029
:401200003B6A7A691A407B699A4201D1012300E000232722BA1812781343DBB22722BA18DB181370BB697A691A407B699A4201D1012300E000232722BA182721791809786B
:401240000B43137003E02723FB1800221A701323FC182723FB181B78BA69396AF869FFF7BFFE030023701323FB181B781800BD460AB0B0BD90B58DB002AF78608223FF3307
:401280003B621F23FB1800221A701E23FB1800221A701C23FB187A6892891A80CF4B1B68002B00D1B0E20C23FB1809221A712723FB1800221A7097E22723FB181B78C84A00
:4012C0009B00D31804331B68002B00D185E22623FB1800221A7075E22723FB181B78C04A9B00D318043319682623FB181A7813009B009B189B00CB18BB61BB695B881C2286
:40130000BA1812889A4200D079E0BB691B885A1EB44913009B009B189B00CB1804331A6880235B0313402BD07B685B681800FFF7E3FA03001A00012313409BB2002B03D0A9
:401340007C23FF333B6202E0BE235B003B620C23FB1800229A600C23FB1800221A711F23FB1802221A70A04B1B78012B00D095E09E4B1B7802221343DAB29C4B1A708DE0A5
:40138000BB691B885A1E974913009B009B189B00CB1804331A6880239B0313402AD07B685B681800FFF7A8FA03001A00022313409BB2002B03D07E23FF333B6202E0BF237E
:4013C0005B003B620C23FB1800229A600C23FB1800221A711F23FB1802221A70824B1B78012B5BD1814B1B7802221343DAB27F4B1A7053E01E23FB1880221A704EE0BB692F
:401400001B891C22BA1812889A4208D10C23FB1803221A711F23FB1802221A703EE0BB695B891C22BA1812889A4208D10C23FB1804221A711F23FB1802221A702EE0BB6907
:401440009B891C22BA1812889A4208D10C23FB1805221A711F23FB1802221A701EE0BB69DB891C22BA1812889A4208D10C23FB1806221A711F23FB1802221A700EE0BB6903
:401480001B8A1C22BA1812889A4207D10C23FB1807221A711F23FB1802221A701E23FB181B78002B00D086E11F23FB181B78002B00D180E10C23FB181B79062B00D1F6E0F4
:4014C00003DC032B00DA1FE103E0072B00D1F8E01AE17B685B681B78092B04D91E23FB1881221A7013E1BB695B8A002B00D1AFE07B681B89012B00D8AAE07B685B681B78AB
:40150000032B00D8A4E02723FB181B78142B00D996E09A00364BD3181B689F467B685B6801331E22BC182622BA1811782722BA181078009300230222FFF7AEFD03002370F0
:4015400084E07B685B6801331E22BC182622BA1811782722BA181078009300230422FFF79BFD0300237071E07B685B6801331E22BC182622BA1811782722BA1810780093BB
:4015800000230622FFF788FD030023705EE07B685B6801331E22BC182622BA1811782722BA181078009300230822FFF775FD030023704BE07B685B6801331E22BC1826221E
:4015C000BA1811782722BA181078009301230222FFF762FD0300237038E0C046F01000207C410100383F01000822002000220020F44101007B685B6801331E22BC182622BB
:40160000BA1811782722BA181078009301230422FFF742FD0300237018E07B685B6801331E22BC182622BA1811782722BA181078009301230622FFF72FFD0300237005E05C
:401640001E23FB180E221A7000E0C046C0465EE00C23FB181B79BA695B00D31802331B885A1E734913009B009B189B00CB180C331A887B681B899A4214D30C23FB181B7907
:40168000BA695B00D31802331B885A1E684913009B009B189B00CB1810331B687A6812891A8034E01E23FB180D221A702FE07B685B681B78012B29D91E23FB1880221A70ED
:4016C00024E0BB691B8A5A1E594913009B009B189B00CB180C331A887B681B899A420ED3BB691B8A5A1E524913009B009B189B00CB1810331B687A6812891A8007E01E233F
:40170000FB180D221A7002E0C04600E0C0461E23FB181B78002B45D17B689B8979681E22BC18422218000DF0EBF9030023701E23FB181B78002B35D10C23FB187A68128822
:401740001A800C23FB182722BA1812789A700C23FB182622BA181278DA700C23FB1800225A710C23FB181B79002B04D07B681A1D0C23FB189A602F4B1B680C22B9183A6AB4
:40178000100098470C23FB185B79002B0AD17B68181D7A681E23FC18402300210EF01EF803002370244B1B78DBB201229343DAB2214B1A7011E02623FB181A782623FB185C
:4017C00001321A702723FB181B781C4AD35C2622BA1812789A4200D27EE52723FB181A782723FB1801321A702723FB181B78142B0AD81F23FB181B78002B05D11E23FB189B
:401800001B78002B00D157E51E23FB181B78002B07D0094B1B78DBB201229343DAB2064B1A701E23FB181B781800BD460BB090BD383F0100F01000201B220020E00C002015
:4018400080B584B000AF78600D23FB1800221A70404B1B68002B00D178E00F23FB1800221A7069E00F23FB181B783B4A9B00D31804331B68002B58D00E23FB1800221A700D
:4018800044E00F23FB181B78334A9B00D318043319680E23FB181A7813009B009B189B00CB18BB607B685A687B681B7A2B498C4663441B01D3181A89BB681B8A9A421ED15A
:4018C000274B1B88002B0ED101200CF03DFD7B685A687B681B7A21498C4663441B01D3181A891F4B1A801F4B1B78DBB201229343DAB21C4B1A700D23FB1801221A700E23A3
:40190000FB181A780E23FB1801321A700F23FB181B78154AD35C0E22BA1812789A4204D20D23FB181B78002BABD00F23FB181A780F23FB1801321A700F23FB181B78142BF1
:4019400004D80D23FB181B78002B8BD0C046BD4604B080BDF01000207C410100FFFFFF0FEC1000201B220020E00C002080B58AB000AF78602423FB1800221A702223FB1872
:4019800000221A807E4B1B68002B00D1F3E02723FB1800221A70E3E02723FB181B78794A9B00D31804331B68002B00D1D1E02623FB1800221A70BCE07B685B6819892723AE
:4019C000FB181B786F4A9B00D318043318682623FB181A7813009B009B189B00C3181B8A994200D09EE07B685B681A89664B1B889A4200D096E07B685B7A012B00D082E0E3
:401A00002523FB1800221A7015E07B685A682523FB181B781B01D31899882223FB182222BA1812888A181A802523FB181A782523FB1801321A707B681B7A2522BA1812788B
:401A40009A42E2D3504B1B885A1E504913009B009B189B00CB180C331B882222BA1812889A4247D80C23FB187A6812881A800C23FB182722BA1812789A700C23FB18262247
:401A8000BA181278DA700C23FB1800225A717B685A681823FB1803CA03C30C23FB181822BA189A600C23FB189B682222BA1812889A800C23FB1807221A71314B1B680C2251
:401AC000B9188222FF32100098470C23FB185B79002B13D12C4B1B885A1E2C4913009B009B189B00CB1810331B682222BA1812881A8003E00C23FB180D225A710C23FB18D5
:401B00005A797B681A732423FB1801221A70204B1B78DBB201229343DAB21D4B1A701A4B00221A802623FB181A782623FB1801321A702723FB181B78164AD35C2622BA1898
:401B400012789A4205D22423FB181B78002B00D132E72723FB181A782723FB1801321A702723FB181B78142B05D82423FB181B78002B00D110E7C046BD460AB080BDC0462B
:401B8000F01000207C410100EC100020383F01001B220020E00C002080B584B000AF78601A4B1B68002B2DD0194B1B88002B29D0184B1A88164B1B889A4223D10823FA1809
:401BC0007B681000190002231A0000F0EEFF0823FB1800229A700823FB1800225A600E4B1B78DBB201229343DAB20B4B1A70084B00221A80054B1B680822B9188022FF32AB
:401C000010009847C046BD4604B080BDF0100020EC100020B80C00201B220020B0B586B000AF05000C0010001900FB1D2A1C1A70BB1D221C1A707B1D021C1A70BB1C0A1CF5
:401C40001A801623FB1801221A80FB1D1B78142B00D96FE0FB1D1B783A4AD35CBA1D12789A4267D27B1D1B78082B63D8FB1D1B78354A9B00D31804331B68002B54D0FB1D71
:401C80001B78314A9B00D31804331968BB1D1A7813009B009B189B00CB181B88002B43D0FB1D1B78284A9B00D31804331968BB1D1A7813009B009B189B00CA187B1D1B78E0
:401CC0005B00D31802331B88002B2DD0FB1D1B781D4A9B00D31804331968BB1D1A7813009B009B189B00CA187B1D1B785B00D31802331A880823FB181A810823FB18BA1CD1
:401D000012889A800823FB18BA6A1A600823FB180022002118000DF02BFD031E09D11623FB1800221A8004E01623FB1813221A8000E0C0461623FB181B881800BD4606B0AD
:401D4000B0BDC046E00C00207C41010090B585B000AF78600C23FC1800F03FFB030023707B68022B00D8B3E07B68302B00D9AFE05E4B1B78DBB21A007B689A420AD35C4ADC
:401D80000F23FB1812781A705A4A0E23FB1812781A703FE0584B1B78DBB21A007B689A420AD3564A0F23FB1812781A70544A0E23FB1812781A702DE0524B1B78DBB21A0063
:401DC0007B689A420AD3504A0F23FB1812781A704E4A0E23FB1812781A701BE04C4B1B78DBB21A007B689A420AD34A4A0F23FB1812781A70484A0E23FB1812781A7009E03C
:401E0000464A0F23FB1812781A70454A0E23FB1812781A707B68DA1E0B23FB1841498A5C1A700B23FB181B782F2B0DD97B682A2B0AD93D4B19221A60052000F0C5FA0D234C
:401E4000FB1819221A7007E0374B1B68DAB20D23FB183F210A401A700B23FA180D23FB1812781B789A4208D22F4B7A68033A2D498A5C1A60052000F0A7FA7B68284A9A1819
:401E80000A23FB1812781A70284B0A22BA1812781A60274B0F22BA1812781A60254B0E22BA1812781A60052000F0FEF80B23FA180D23FB1812781B789A420CD91A4B7A68B7
:401EC000033A18498A5C1A60052000F07DFA02E0002000F0B7F80C23FB181B78180000F080FAC046BD4605B090BDC04640F3FF0F41F3FF0F42F3FF0F43F3FF0F44F3FF0F00
:401F000045F3FF0F46F3FF0F47F3FF0F48F3FF0F49F3FF0F4AF3FF0F4BF3FF0F4CF3FF0F4DF3FF0F484201002CFF0B4028FF0B401CFF0B4020FF0B4080B584B000AF7860D4
:401F40000023FB60154B154A126801210A431A60134B144A1A60144B134A1268802109020A431A607B68002B12D01023FB600CE0012000F099F800F019F8031E02D00023BF
:401F8000FB6005E07B68013B7B607B68002BEFD1FB681800BD4604B080BDC04660F02E4078002E400220000010002E4080B582B000AF054B1B68012213407B607B6818002B
:401FC000BD4602B080BDC0460C002E4080B584B000AF02003960FB1D1A7080239B05FB60FB1D1B781F2B02D9002000F02BF8FB1D1B7810339B00FA68D3181B68BB60FB1DED
:402000001B7810339B00FA68D3183A681A60BB681800BD4604B080BD80B582B000AF0200FB1D1A70064BFA1D12781F210A40012191400A001A60C046BD4602B080BDC046EC
:4020400000E100E080B582B000AF0200FB1D1A7001BEC046BD4602B080BDC04680B582B000AF786009E00D4B1B68180000F0ACF97B680B4A944663447B607A6880231B0293
:402080009A42F0D8074B1B687A685343180000F09BF9C046BD4602B080BDC046040D00200080FFFFFC0C002080B582B000AF0200BB1D1A80BB1D1B88044A12785343180033
:4020C00000F082F9C046BD4602B080BD000D002080B500AF0F4B0F4A126801218A431A600C4B0C4A126802218A431A600A4B0A4A126830218A4310210A431A60064B064A6B
:40210000126807218A4301210A431A60C046BD4680BDC04600F02E4000FF2E4080B500AF0F4B0F4A126802218A431A600D4B0D4A126807218A4302210A431A60094B094A06
:40214000126830218A4320210A431A60044B044A126801210A431A60C046BD4680BDC04600F02E4000FF2E4080B500AFFFF7B0FF044B044A1268802109060A431A60C0468B
:40218000BD4680BD00F02E4080B584B000AF78600C4B1B6801221340FB607B68002B02D0012B03D005E0FFF793FF06E0FFF7B6FF03E00020FFF746FFC046FB681800BD4647
:4021C00004B080BD00F02E4090B583B000AFFC1D00F003F903002370074B074A1268C02109020A431A60FB1D1B78180000F0F9F8C046BD4603B090BD00010B4080B500AF21
:40220000054B1A68C0231B02134001D0012300E000231800BD4680BD00010B4090B583B000AFFC1D00F0D9F8030023700D4B0D4A12680D490A408021C9010A431A60094BF7
:40224000084A126808490A40802109020A431A60FB1D1B78180000F0C4F8C046BD4603B090BDC04600010B40FF3FFFFF90B585B000AF78600B23FC1800F0AFF8030023700E
:40228000FFF7BCFF031E04D00123FB60FFF7C6FF01E00023FB607B680D4A13407B600D4B0C4A12680C4911407A680A431A60094B1B68FB68012B01D1FFF786FF0B23FB180C
:4022C0001B78180000F08DF8C046BD4605B090BD0404040010020B40FBFBFBFF80B500AF344B1B68042213401FD0334B1B680422134017D0314B1B6804221340DA432E4B9D
:402300001B681A402C4B1A602C4B1B68042293431A002A4B1A602A4B1B68002B02D0284B1B6898470420FFF7A1FF224B1A688023DB00134022D0204B1A688023DB001340DC
:4023400017D01E4B1A688023DB001340DA431A4B1B681A40184B1A60184B1B68194A1A40164B1A60164B5B68002B02D0144B5B6898478023DB001800FFF778FF0D4B1A6801
:402380008023DB02134011D00B4B1A688023DB02134006D00A4B9B68002B02D0084B9B6898478023DB021800FFF760FFC046BD4680BDC04610020B40100D0020FC1000205F
:4023C00000110020FFFBFFFF0230800803D00138FDD1C046C046C0467047EFF3108072B6704780F31088704780B582B000AF78600A00BB1C1A80BB1C1A887B681A60C046FF
:40240000BD4602B080BDC04680B582B000AF78600A00BB1C1A80BB1C1A887B681A60C046BD4602B080BDC04680B584B000AF494B1B78DBB21B02484A1278D2B21343FB602D
:40244000464B1B78DBB21B02454A1278D2B21343BB60BB68434A934207D1FB68072B04D1414BBB600423FB6009E0BA68D4231B019A4204D1FB68042B01D13B4BBB603B4B36
:40248000BA681A603A4BFA681A603A4B1B78DBB21B02394A1278D2B21343FB60FA6880239B019A4202D0FB68002B01D1334BFB60334BFA681A60334B1B78DBB21B02324A02
:4024C0001278D2B21343FB60FB68304A934206D0FB682F4A934202D0FB68052B01D12D4BFB602D4BFA681A602C4B1B681B097B602B4B1B68AA2B29D17B68012B26D9214B4B
:402500001B78DBB20E2B21D1264B1B78DBB29BB21B0299B2244B1B78DBB29AB2BB1C0A431A80224BBA1C12881A60214B1B78DBB29BB21B0299B21F4B1B78DBB29AB23B00C8
:402540000A431A801C4B3A0012881A60C046BD4604B080BD59F1FF0F58F1FF0F5FF1FF0F5EF1FF0F580B0000580D00006C002E4074002E405BF1FF0F5AF1FF0F0220000002
:4025800078002E405DF1FF0F5CF1FF0F0F0F000005050000050F000080002E40EC0F00F0E00F00F06DF2FF0F6CF2FF0F84002E406FF2FF0F6EF2FF0F94002E4080B582B079
:4025C00000AF0200BB1D1A80BB1D1B881800FFF76BFDC046BD4602B080BDC04680B582B000AF78607B681800FFF738FDC046BD4602B080BD80B500AF00F0ECF8C046BD46FC
:4026000080BDC04680B500AF00F0F0F8C046BD4680BDC04680B500AF00F0E8F8044B180000F0A2F8032000F0ADF8C046BD4680BD3928000080B500AF034B180000F080F899
:40264000C046BD4680BDC0463928000080B500AF014B1800BD4680BD0202000080B582B000AF78602B231800BD4602B080BDC04680B582B000AF78602B231800BD4602B0CC
:4026800080BDC04680B582B000AF78602B231800BD4602B080BDC04680B582B000AF78602B231800BD4602B080BDC04680B582B000AF78602B231800BD4602B080BDC046F3
:4026C00080B582B000AF78602B231800BD4602B080BDC04680B582B000AF78602B231800BD4602B080BDC04680B582B000AF78602B231800BD4602B080BDC04680B500AF12
:402700002B231800BD4680BD80B582B000AF0200FB1D1A702B231800BD4602B080BDC04680B582B000AF786039602B231800BD4602B080BD80B500AFC046BD4680BDC046CC
:4027400080B582B000AF786000F050F87B68180000F00AF8032000F015F800F03BF8C046BD4602B080BDC04680B582B000AF7860034B7A681A67C046BD4602B080BDC04668
:402780000000002090B585B000AF0200FB1D1A700623FB600B23FC18FFF71FFE030023700B4B0B4A1268C0218A431100FA1D1078FA68904002000A431A600B23FB181B786B
:4027C0001800FFF70EFEC046BD4605B090BDC0460CE400E080B500AF034B802252011A60C046BD4680BDC04600E100E080B500AF034B802252011A60C046BD4680BDC04643
:4028000080E100E090B583B000AFFC1DFFF7E5FD03002370074B074A126804218A431A6030BFFB1D1B781800FFF7DBFDC046BD4603B090BD10ED00E080B500AF11F042FB98
:40284000C046BD4680BDC046002243088B4274D303098B425FD3030A8B4244D3030B8B4228D3030C8B420DD3FF22090212BA030C8B4202D31212090265D0030B8B4219D329
:4028800000E0090AC30B8B4201D3CB03C01A5241830B8B4201D38B03C01A5241430B8B4201D34B03C01A5241030B8B4201D30B03C01A5241C30A8B4201D3CB02C01A5241D5
:4028C000830A8B4201D38B02C01A5241430A8B4201D34B02C01A5241030A8B4201D30B02C01A5241CDD2C3098B4201D3CB01C01A524183098B4201D38B01C01A5241430929
:402900008B4201D34B01C01A524103098B4201D30B01C01A5241C3088B4201D3CB00C01A524183088B4201D38B00C01A524143088B4201D34B00C01A5241411A00D2014637
:40294000524110467047FFE701B5002000F0F0F802BDC0460029F7D076E7704703460B437FD4002243088B4274D303098B425FD3030A8B4244D3030B8B4228D3030C8B4241
:402980000DD3FF22090212BA030C8B4202D31212090265D0030B8B4219D300E0090AC30B8B4201D3CB03C01A5241830B8B4201D38B03C01A5241430B8B4201D34B03C01A85
:4029C0005241030B8B4201D30B03C01A5241C30A8B4201D3CB02C01A5241830A8B4201D38B02C01A5241430A8B4201D34B02C01A5241030A8B4201D30B02C01A5241CDD2DB
:402A0000C3098B4201D3CB01C01A524183098B4201D38B01C01A524143098B4201D34B01C01A524103098B4201D30B01C01A5241C3088B4201D3CB00C01A524183088B4202
:402A400001D38B00C01A524143088B4201D34B00C01A5241411A00D201465241104670475DE0CA0F00D04942031000D34042534000229C4603098B422DD3030A8B4212D3CA
:402A8000FC22890112BA030A8B420CD3890192118B4208D3890192118B4204D389013AD0921100E08909C3098B4201D3CB01C01A524183098B4201D38B01C01A5241430982
:402AC0008B4201D34B01C01A524103098B4201D30B01C01A5241C3088B4201D3CB00C01A524183088B4201D38B00C01A5241D9D243088B4201D34B00C01A5241411A00D212
:402B00000146634652415B10104601D34042002B00D54942704763465B1000D3404201B5002000F005F802BD0029F8D016E770477047C046014B18687047C0469C10002017
:402B40000E4B70B500251E000D4CE41AA410A54204D0AB00F35898470135F8E711F08CFB084B00251E00084CE41AA410A54204D0AB00F35898470135F8E770BD8442010027
:402B800084420100844201008C42010030B50024A24208D0035D651C0C5DA34201D0181B02E02C00F4E7002030BD002310B59A4203D0CC5CC4540133F9E710BD0300821875
:402BC000934202D019700133FAE77047134A1088810703D08107890F401A001D11791030484381B25088820703D08207920F801A001D800040180A494030098980B2CA0725
:402C000001D0503080B2890706D504495422091F09785143081880B2704700001A0D00202811002010B501F005FF10BD10B501F007FF10BD10B500F055FA10BD10B5074907
:402C4000044609780220002907D1204601F048FF002802D120460AF091F910BDB80E002070B504460120002C12D02368002B0FD0616800290CD0074D062228892081184603
:402C80002968FFF792FF6968606809780170002070BD000028110020FFB585B0002768460E9D07734F481C460078002802D0082009B0F0BD10990F9801900095029105A839
:402CC00007C800F001F90028F2D16946264603AB84460873002C19D0002115E08A00B75A082F09D990198078002805D0083FB7521878401C187005E0002914D00027B752BF
:402D000090198770491CC9B2A942E7D360460028CED10F98002809D0109901F03BFA002804D00120C4E701208446EFE701F088FE2D480021416081600599016021888180C9
:402D4000022D07D3A1798171A17AC171A1890181218A418100211EE0481C19E082008B00A75AE65ABE46BE4211D26F463E80B4461E190296B678BE7001967646E6521719D4
:402D8000029EBB78B3706646A652019EBE70401CA842E3D3491CA942DED3134822460C3000906846037B0799069800F015F90028B8D168460B4C007B60700B480C3001F037
:402DC0006FFE0028AED1084907480C3107F076F90028A7D107F090F90028A3D10121217066E70000140D00201C110020F8B5054633480E460078002802D002242046F8BDB8
:402E0000002E5BD000242F49002D16D02A89D0070DD02868002808D003881B3BE12B04D24088FB2801D81B2801D2012409E0900707D56868002804D1F7E7002008810860B9
:402E40004860002CDAD11F482F8907811C481B21801D018041800421017119490020891C0870F80705D016480622801D2968FFF79CFE1449B80703D56A68114812788270C4
:402E80000F480D46801D0860001F486001F04EFE0B48801D01F03CFE28890DF093FD28890DF0FAFE03461033FFF790FE1F21C018890140180249308088809FE701249DE724
:402EC000140D002028110020FFB58446384F1C460020BB883F78054602460646002F11D100290ED0029999420BD36146002908D0002C06D00A99002906D02E4B0B99994228
:402F000002D2012004B0F0BD002144E0AB001F19BF78002F3BD0E35A002B38D07B43591889B22B0000F04AF8050410161C253100A7782388BC46FF27233BEB37BB4222D267
:402F40006346032B1FD322E0A388002B1FD0302B19D31CE02389002B19D0282B13D316E0A289002A13D01346134F233BBB420AD20DE0268A002A0AD033460F4F233BBB4212
:402F800001D2964203D901200EE0002001E000280AD16D1CEDB2099B9D42B7D31C2463435B1802998B42ACD89642AAD8AAE70000140D002079020000BAFF000030B47446FF
:402FC000641E2578641CAB4200D21D46635D5B00E31830BC18470000FFB583B0002469460C801F4606468C80002806D00598002803D004983043800701D0012466E0002F15
:40300000FBD03449049809888842F6D3FFF712FBFFF7F8FA00F012FC002855D100F07AFD002851D12C49084601F0E8F805042D0C4AD12A480499066081800021C18007814F
:403040000C98007AC00704D0684601F012FD040007D10C98007A800703D501A801F012FD0446BF1DFEB2002C20D13146059800F05DF804001AD10DF01DFE040016D16A46F9
:403080001088928808368518144AF1B29088D288AEB29319984207D3401B801A80B201F09DFB050007D000E0FF25012400F05EFA002D04D008E0F8B200F01CF9F6E700F0EE
:4030C00081FA07490120087000F0CAFB204607B0F0BD0000180D00201932000034110020200D002010B503480078012801D101F017FA10BD200D002070B5084B0446DA88E8
:403100009E8800205518B54206D81D68AA182260DA885118D98070BD032070BD34110020014800897047000034110020F0B587B007460D4600208900009006916846FFF75A
:40314000DBFF844600285DD1304800990160002117E02E4B88001A680629115406D22C4C0419667882185670628805E0C419203CA67A8218567022891B68C018491C428054
:40318000C9B2A942E5D300242DE0601CC2B2059025E01E4FA30039689600581840887118039604904E88B04217D938466F46FE80B6464F786E4677710297049F4F800168C5
:4031C000039F5E18767879184E700168764659184E800068029F18184770521CD2B2AA42D7D30598C4B2AC42CFD36046002809D168460699FFF780FF8446002802D105497E
:4032000000980860604607B0F0BD0000240D0020B0420100280D00207047000010B5002809D005494A68002A05D0011F08788000105801F081FA10BD240D002010B504464E
:40324000FFF76EFFC0B2801DA0420CD307484068002808D0A100405801F0E0F9002801D00470001D10BD002010BD0000240D0020F8B516460D460446FFF752FFC0B2801D90
:40328000A04203D20020C0430090F8BDB2B2E9B2684601F0E9F90099481C03D0024AA000526811500098F8BD240D0020F8B50746FFF736FF801DC6B20A49002005460C688E
:4032C0000DE06178002907D06188B94202D32078FFF7B4FF002804D1241D6D1CEDB2B542EFD3F8BD240D002010B5002801D0FFF795FF10BD70B506460948002504680BE096
:403300006178002905D062882078121D0023FFF7AFFF241D6D1CEDB2B542F1D370BD0000240D0020FFB581B00A9F16000C4620D000F0F2F8054604281BD0002F0CD03846F1
:40334000FFF7B4FF20492A0151184860002810D03A460499FFF729FC1B4928010E504618778101980570200406D47D20C000444304E0FF2005B0F0BD6404640C00F0BAF8AF
:403380000746042807D000F04FFAA0420BD800F04BFA201A03E0204600F0AAFA0020F06035720020E6E700F03FFA009000F0B6FA00980121001B009000F0ECF802493A0157
:4033C00051180098C860E6E740110020F8B5060116483418217A042903D0E068002802D017E00020F8BD00F01FFA054600F096FA00F0A0F804280CD001010C480F18F8681E
:403400000021451900F0C6F80020F860284600F06FFA6068054D002801D0FFF765FF042020720020A8516081E060DAE740110020FEB500266A463046012325490501691879
:403440000D7A042D02D0C96800291BD000211154401CC0B20428F0D300246846005D002830D01B48210108184189476805680291002101604160042241810272C160002EF7
:4034800002D015E01354E3E700F054F804280ED001010F4808180190C6680021304600F079F801980021C160304600F021FA0126002D07D038460299A847002F02D0384690
:4034C000FFF712FF641CE4B2042CC6D3FEBD0000401100200EB5002005216A460090118150810348694600680EF049FA0EBD00002C0D0020074A0020010189180B7A042B7F
:4035000002D0C968002903D0401CC0B20428F3D370470000401100200549002002015218127A042A03D0401CC0B20428F6D370474011002030B50A4B04200A4C00210A0171
:403540001219157A042D06D0D268002A03D09A4201D808461346491CC9B20429EFD330BDFFFF0000401100207047000030B50020074C05460423020111190B72A5504D60FF
:40358000401C4D81C0B2CD600428F4D330BD00004011002030B5094C00231A011219157A042D04D0D568002906D02D18D5605B1CDBB2042BF1D330BD2D1AF7E7401100208A
:4035C000002070471CB5002469460C70142001902346054A05480EF0D7F904480068401C00D1FF2420461CBD413600002C0D00203EB5124A0146FF20002301241268002989
:403600000DD0012914D0042908D104206946009308814B8110460EF0B2F980B23EBD6846009304814381694610460EF0A3F9F4E768460093048143816946EBE72C0D00204A
:4036400070B545890468416800890300FFF7B6FC08280509091E22282628002005F0F0FB1EE0022908D0C8B22A4621460CF016FB2046FFF739FE13E002202A4621460CF037
:403680000DFB2946204600F00DF809E000200DF075FE05E02046FFF7CBFE01E0FFF74AF8002070BD014B0022DB681847300D002070B5448905680089022803D0032809D0F9
:4036C000FF2070BD2246094C0023A46829460120A04708E0FFF7AAFA241DA2B200232946022006F09EFB002070BD0000300D0020704700000248002141600180418070475B
:40370000300D002070B50C46002186B016460391012802D0022859D116E003A9012006F0D5FB01281BD1039D324621462846FFF73CFA0095287801900220694608814E8179
:403740006846FFF7B5FF41E0214D002B686809D0049004A9022006F0B9FB01281DD0022006B070BD002812D0298840182146FFF71CFA28880024801980B228806988091D82
:40378000884206D12C801348FFF792FF03E00320E6E788421AD96C6018E004986860E278A378110219430B4A698000231060E3565360032313815181A1788170E178C17061
:4037C0006178417021780170042028800020C7E7300D0020801100203EB515460C46022803D004280CD000203EBD0091019002206946088107484A8100680EF0C0F807E032
:403800000CF04CFA044B0022DB6829462046984701203EBD2C0D0020300D0020014AD16090607047300D0020034801688068081A0A214843000970478C11002010B5FEF7E1
:40384000E9FE482204490548FFF7AFF903490120C870002010BD0000CC4201009015002010B5FEF7C7FE10BD70B5134C2368002B08D0207B1149C20705D04008400020734D
:403880008868A08070BD88680B4AA18880B29268814203D90A4D691A091802E0814202D2411A5118A160A080A0689842EAD30EF083F800F013F870BD8C110020C0102E40FE
:4038C000FFFF000010B508461946FFF7A7FF10BD704710B5FFF780FF10BD000003480021016041608160C160704700008C110020024610B5FF20002A0CD0FFF7EFFF064CE5
:403900000321207B0843207310010A21FFF722F82060002010BD00008C11002000B504480A21806848430209FFF7D8FF104600BD8C1100200248007B8007C00F704700005B
:403940008C11002010B54B490868002802DA4A4B01221A70022290430860484800694549C00B4031096A0246C907C90F0A4259D0012000F097FA3F480E216C30FEF744FD57
:403980003E4820218430FEF73FFD3C4814219C30FEF73AFD3948FF21C131A430FEF734FD3648FF212F31B030FEF72EFD33483449BC30FEF729FD31483249AC30FEF724FD3A
:4039C00030492E48491CB430FEF71EFD2B482E49B830FEF719FD29482C49CC30FEF714FD26482B490830FEF70FFD24482949A830FEF70AFD214828498830FEF705FD1F48FD
:403A000026498C30FEF700FD1C481921C9029030FEF7FAFCFEF708FDFEF718FEC0B2022812D01FE000290BD0002101420AD0114801216030FEF7E8FC0120FEF7CFFD97E74D
:403A40000121F2E7FF2010BD15491648FEF7DCFC14481549001DFEF7D7FC124800210830FEF7D2FC54200449C043891C0870002010BD000000F02E40400D002000002E40BA
:403A8000320300002F3F00003102000010520000EC160000FA12000031D000003AE300009956000080012E40F80F000070B50646581C80B245086D00002408E0304600F07A
:403AC000C1F81055000A1119A41C4870A4B2AC42F4D3D80705D0D0182038D15CC47FD454C17770BD30B50A4C002100195B1E07E0541864782502545C2C430480891C89B239
:403B00009942F5DB994201D1515C018030BD000000102E4010B5FF2000F0C4F90F49FF2048700E481021801D41800121417001700A490020C91C4870FFF704FF04000AD1C3
:403B400000F010F907210648FEF74EFC044807211830FEF749FC204610BD0000400D0020CC112E4070B5002405465B1E0AE0284600F068F8010A161971702D1D1055A41C77
:403B8000ADB2A4B29C42F2DB9C4203D1284600F059F8105570BD000070B500210A4D5B1E0AE0541864782602545C344346193480001D891C80B289B29942F2DB994202D183
:403BC000515C4019018070BD00102E40F0B50599091FCFB200217E1E0BE0541864782502545C2C43164D45192C80001D891C80B289B2B142F1DBFC0712D01C78515C2402CA
:403C00000F4A0C4381180C809C785D78001D210280B2294384182180001D80B2D9780CE059781A7809021143054A84182180001DD9789B78090280B2194380180180F0BDF9
:403C400000102E40014940180088704700102E4010B50B490020487000F084F8002000F047F9002000F034F907210648FEF7BCFB044807211830FEF7B7FB002010BD00000B
:403C8000430D0020CC112E4010B50B46062812D006DC01280CD0032801D1FFF7D9FF10BD0A28FCD00B28FAD105480078107010BDFFF730FF10BD1146184600F035F910BD04
:403CC000460D0020F8B5244DAC6A0127A007234E002816DA307806280ED1286A384328621F480069F903084381B21D481030FEF78BFB042000F0D6F8174802212830FEF75E
:403D000073FBE00718D000F01DFF01280FD1002000F06AFF062000F0C5F81049FF20C91E48707078002802D1686B384368630A4801212830FEF758FBE0050BD53078042825
:403D400002D1052000F0AEF80348FF2101312830FEF74AFBF8BD000040F02E40430D002000002E4010B503212348FEF74DFB0120FEF724FC20483038406A204C8007617848
:403D8000800F890001431C480C38FEF73DFB6078002808D0401E022181401820FEF7C4FEC000083800E0B82081B21548FEF72CFB1348032109021438FEF726FB10481149C7
:403DC000B830FEF721FB612189010F48FEF71CFB0D480321001FFEF717FB0C490C48FEF713FB0B480B496038FEF70EFB084801218838FEF709FB10BD70F02E40460D00209A
:403E0000D8102E4090890000041E2E40FF0F000058122E40209000000849087806280BD148780749002803D1486B400840004863C86A01221043C86270470000430D002027
:403E400040F02E400148007870470000430D002000B50300FFF7B2F8080D050D0B070507090D012000BD032000BD042000BD022000BDFF2000BD0000074A9168D26889B2F0
:403E8000064B92B2994204D105498A4201D1012100E000210170704780002E4033D000003FE3000010B50446FEF7ACFB072C01D9FF2C01D102480470FEF79CFB10BD0000A7
:403EC000430D00200149487070470000400D002010B5064A012805D01921C9021046FEF793FA10BD1D21C902F8E7000090002E4010B50A4A141D012808D009491046FEF7A1
:403F000083FA08492046FEF77FFA10BD04491046891CFEF779FA0349491DF3E788002E4031D000003AE3000070B50C460546FEF78DFBC0B202280E49287804D0FF2810D015
:403F40004C280CD810E0FF2809D10A4AD0680004800F032801D0087807E09069000A553803E00878207070BD4F382070087070BD420D002000002E40F0B50122002834D039
:403F8000002932D00424420600D00524792342065B06D21800D0641C034600221EE00C2516466E43124D00277519AF72104F002ABB51696007D0661EB24209D10D4E861991
:403FC0007606760E05E05E06760E8027BE1B00E080269B198919521C2E81D2B2A242DED303480549006B002288611046F0BD000018140020790200004C0D002018B5002023
:40400000694608700A48006900280ED0132149014018047E684604704F21C900054800F059F8A04201D0012018BD002018BD00004C0D00209C110020074900200C22424350
:404040005218927A012A05D0401CC0B20628F5D3002070470120704718140020F8B50E000446154609D0194F19497868A04202D94018A04201D38D4201D90120F8BD314667
:404080002046FEF783FD00281ED02A4631462046FEF78BFDE8B200210C224A43D21913895568EE18A6420BD90126641B1B1B9672834209DA1469C01A044AC0B220329676B8
:4040C000491CC9B20629E7D30020F8BD1814002079020000034610B50020024604E09C5C2018521CC0B292B28A42F8D310BD000070B500F05FF8084C064A216907480D460D
:40410000FEF753FD05492846FFF736FFFFF776FF207070BD790200004C0D00209C110020002070470020054A002902D0012902D002E0906000E0D060002070474C0D0020FB
:4041400070B5084C154608460549E26889182A46FEF72BFDE0684019E06028B270BD00009C1100204C0D00203EB50A226946FFF7E7FF044606480A2200686946FEF706FDAC
:40418000002802D00020C0433EBD20463EBD0000500D0020002802D0044A914201D2FF20704703494A61086100207047790200004C0D0020024800218160C16070470000F6
:4041C0004C0D002070B5074C15460548A26880182A46FFF743FFA0684019A06028B270BD9C1100204C0D002010B503490A220968FFF7E8FF10BD0000500D002010B50F4A3B
:40420000002313600E4A13600E4B18600E4801600E49012008600E490860000290600E490C4808600D4914300860FF381538506000F0BCF800F0CAF9002010BD800D0020CA
:40424000680D0020940D0020980D0020840D0020740D002060150020780D00208C0D0020014610B50020002910D0094B1A689C685118A14209D25868196080188A0704D072
:404280008A07920F891A091D196010BD002010BD680D0020F8B50024164E671E321F3D463168136806E01422624310328A58521C1BD0641C9C42F6D36A1C14D02C46142222
:4042C000544322460C3288500C214843FFF7C8FF3168002808510AD031680020103408517068401C70602846F8BD2546E4E73846F8BD0000780D0020F3B50026F64381B07D
:4043000000281BDB1E490968884217D80299002914D01B4F142204463F1D54432546396810354859401C09D0FEF76CF938682F1F4159C359994203DBFEF75CF93046FEBDF0
:40434000214608310091465801590C20704308180C220299FEF729FC0948761C001D0068C159B14200D100260549009A091D865008684159491C4151FEF73CF90020FEBDDC
:40438000740D0020002803DB07490968884202D90020C043704704491422091D096850431030085870470000740D0020F0B500200D4A451E0346171F50600FE01426014653
:4043C000714314680E1DA3510C461668083433511668083435511468401C635039688842ECD30020F0BD0000780D0020F3B50026F64381B0002841DB2349096888423DD83F
:40440000029900293AD0204F142204463F1D54432546396810354859401C2FD0FEF7F2F83868415900292BD0211D009146580C21005971430F46C1190C220298FEF7B5FBFF
:4044400011480021001D0068761C00590C34C0190160416081600C48001D00680159B14200D100260849009A091D865008684159491E4151FEF7BEF80020FEBD3046FEBD98
:40448000FEF7B8F8FAE70000740D0020FEB504460D4600201E49089E0860471E009001900290002C11D0486885420ED2002A0CD0002E0AD0642E08D808460C3001681C20C5
:4044C00068430C18207A002801D03846FEBD0120226020721846FFF7DDFE6060401C13D06681A6810A4827610C3067610179A94200D205710021684601810A462846029B79
:4045000000F040F82846FEBD00202072DDE70000800D002038B50124009400F039F838BDFEB50027164EFF433D4600240EE01C20316860430818017A002906D04068FFF786
:4045400021FF002801D0254603E0641C3079A042EDDA681C12D01C2130684D434419FEF751F869466068FFF741FF0546FEF742F8002DD9D1216868468847D5E7FEBD000021
:404580008C0D002038B50024009400F001F838BD1FB500220C49541E0A60002811DB496888420ED808491C220C31096850430818406801A9FFF7A0FE401C02D0002004B04B
:4045C00010BD2046FBE70000800D0020F0B50021114A4D1E174611710C3F0B46BD6016E008461C2460431668041D355114680646235014680836A3551468361DA35304468D
:4046000016680A34335318301468491C255078688142E5D30020F0BD8C0D002038B500210091002811DB0F49097888420DDA0D4D04010C3529680859002807D0201D08188E
:40464000694600F06FF9002801D0002038BDFDF7D9FF28680F34015D491E0155FDF7CAFF009838BD9C0D0020F7B582B0002502986E1E06602E48D21C024017462D4A2C46DD
:4046800010460C380178106805E02301C358002B0FD0641CE4B28C42F7D3711C28D03401211D40180191039900F02AF900281FD101E02646F1E71F48016820460C300F52F2
:4046C0001C480399026820460E30115419480399026820460F3011540398784300F0A0F8144900280968085102D00024009011E001251AE00F48016801980818009900F010
:404700002CF9002801D0012502E00098C0190090641CE4B203988442ECD3002D05D10298066004480179491C0171284605B0F0BDFCFF0000A80D0020F8B50D4600216A460B
:404740008C461180002839DB23490978884235DA214B04010C3319680A59002A2ED020460C300B5A801C0E5C184670438018954224D3854222D2002006E007465F43BF180D
:40478000AF4206D0401CC0B2B042F6D36046002814D0114E271DC8190C366A46294600F006F900280AD168460088012808D030682946C01900F0D1F8002803D00120F8BD7F
:4047C0000020F8BDFDF71EFF30680F34015D491C0155FDF70FFFF3E79C0D0020F8B50F46002400F031F8002817D10C4900220B460C334A600EE021011D680E466A501D6812
:404800000C36AA53B61C1D680F31AA551D68641C6A54E4B2BC42EED31A71F8BD9C0D002000280BD0C01C074A81085068890053884118994203D893685160181870470020EB
:40484000704700009C0D0020F8B5064600200F4D009029700C0121466846FEF74DFC00280CD129460C3100980860301B001F84B221466846FEF740FC002801D0FF20F8BD56
:404880006C800098A8600020F8BD00009C0D0020F8B5002827DB19490978884223DA174C05010C342168485900281CD028460C30085A009028460E300E5C401C0E5420686E
:4048C0002F1DC01900F064F800280CD12068002445590EE0094829460C300068C01900F03CF8002801D00120F8BD00982D18641CE4B2B442EED30020F8BD00009C0D002092
:4049000030B50D4604000BD0A800FFF789FF6060002805D000202570C0436080002030BD012030BD70B50D46040005D0002D03D00220205E002801DA012070BDFDF762FE34
:404940000221615E60688900405828606088401E6080FDF74FFE002070BD70B50D46040007D0002D05D002212078615E401E814201DB012070BDFDF745FE6088401C00B2E9
:404980006080616880000D50FDF734FE002070BD10B5040009D0227800216068FEF70EF90020C0436080002010BD012010BDF0B500231D46002802D00224045F0AE0012046
:4049C000F0BD46689F00F6598E4201D1012503E05B1CDBB29C42F4DA15700020F0BD00000148007870470000B00D00207CB505460024FEF71BF9A8796946087000A80622AB
:404A000029460130FEF7D1F80021684604F0DEFC0C2806D0072806D01F2806D0122806D006E0022404E0042402E0272400E0012420467CBD014801214172704798160020B3
:404A400010B500F05FF9FFF7FDF9FFF701FA10BD70B504460025FEF7E9F8002C06D0A079012803D8214602F07BFC00E00125284670BD01460120002902D05020088000200A
:404A80007047000001460120002905D003485422007850430880002070470000B20D002010B502460D49FE204870032410460DF089FA002810D10DF02DFA00280CD105F072
:404AC00061FA002808D100F013FB002804D104F023FF002800D10024204610BDB00D002070B50025044600280ED0A07901280BD8FEF79CF8A0790028204602D002F0D6FF94
:404B000003E002F0ABFF00E00125284670BD0000014610B50120002904D006220248FEF744F8002010BD0000BC0D002001460120002903D008780249087000207047000034
:404B4000B20D00200148007A704700009816002038B504460120002C20D0617801291DD800290BD0FF25E535FEF760F80C4828180088C0B22070072803D00EE0FF25CD35DF
:404B8000F2E70020694608706846FFF775F969460878012801D108202070002038BD000000102E40014A002192681047B00D002008B500226B461A7026280CD0094A3428C1
:404BC00052680BD0352805D1900703D50021352005F0B4FA08BD19462620F9E7D007F9D03420F5E7B00D0020014908727047000098160020F8B504460120002C26D0617812
:404C0000012902D92278092A20D8002905D0FF25E5352078092803D004E0FF25CD35F8E708202070FEF702F82078114F114E08280DD00020FFF75CF970780128207810D0EA
:404C40000D4969180880FE2070700020F8BD0120FFF74EF90720B8810549203188800120F2E7B8810248217820308180EBE70000C0112E40B00D002000102E4070B50E4651
:404C8000050001D0002400E00C4C002C11D0E28A500609D5D107C90F022002F09BFFE08A40218843E08204E0D107C90F012002F091FF3146284602F079FC70BDF8150020E2
:404CC000F8B50546002004460D4E009013E022466946284600F0D6FF0098002801D00DF053F9A878214602F099FAA878214602F087FA641CE4B2308AA042E8D8F8BD000023
:404D0000C416002038B51E4CFFF79CF8042813D0052811D0062812D003282AD007280AD100206946087002460120FEF7ADFFFFF789F80128FBD138BD00F077FB38BD02F041
:404D4000C3FA00F072FB02F03FFB8007800F0228F4D10C4841880029F0D05B21095D0029ECD101210170A07D0140022002F032FF38BD02F0ADFA0120FFF794F838BD0000BE
:404D8000F8150020D60D0020F8B50646002402F08FFF0546304602F0A5FF03460A480021068A0DE001228A401046174628401F40002803D0002F01D1224394B2491CC9B2A8
:404DC0008E42EFD82046F8BDC41600201CB50020694648706846FFF7BBFE01AA69460A20FEF752FF6946042008561CBD70B50D4601F028FB04000BD02079002808D0FDF786
:404E000015FFE178A0782A4602F056FC002070BD022070BD0148007870470000D01500204030C07E002800D00120704700B500F001F800BD902148430749084A4018603081
:404E4000417F491CC9B24177D289914201D300214177C8B270470000D8150020C416002013B501F0EFFA04000BD001F08CFE002807D0214601AA0A310620FEF705FF002040
:404E80001CBD02201CBD000010B50C4601F0DAFA00280AD001F077FE002806D0224604490A20FEF7F1FE002010BD022010BD0000B9150020F3B581B0074601460026029822
:404EC00002F0EEFE0446002F01D0002500E0154D002D21D0284601F0EBFA032C04D13946029802F039FF06463846029902F088F9032C06D0002C10D00121384601F0DEFB27
:404F000003E03146384603F025F9284602F06CF80221284602F082F8FEBD3846029902F06FF9FEBDF815002010B5044600F066FA002804D103F0D8FD002801D00C2010BD9B
:404F40002078611C02F0BAFCFF2801D01F2010BD02F000FDFF280AD02178621C02F0DEF8044821780068026B601C904710BD072010BD0000FC0D002010B503F0B5FD002818
:404F800001D00C2010BD02F07BFC03480068C06A8047002010BD0000FC0D002070B50D46044610210CF030FF1021601806460CF02BFF334610221946204603F0C3FD102177
:404FC00030460CF021FF02202870204604F0DAFB70BD0000F8B504464078217802028006870FE0781143A67809050002090D0643084601F027FA00210546F2B2002812D0EE
:40500000002C10D0022F0ED0032F0CD0002A0AD00279092A07D0002A05D0134A5A23527E1B5C9A4207D82889002104F0E0FA20460CF0AAFFFF21002914D10C4822460068E6
:405040002946436930469847C0B2FF280AD128464030817EF2B2491C8176FF232146284600F0E3F8F8BD000090150020180E00200020704710B5044603F036FD002801D0E8
:405080000C2010BD2078611C02F018FCFF2808D002F050FB044821780068426B601C904710BD1F2010BD0000FC0D002010B500F06BF904F031FC002010BD10B504460078A3
:4050C0006178E2780843A17811430843217908436179084305D003F0F9FC002803D00C2010BD122010BD204602F0E0FC002010BD10B5FDF7ABFA02F0FDFD044803F060FDB9
:4051000002F022FB012000F003F810BDA0150020F1B586B003A8009005A8019028489F22817A114081726846FDF79AFD002845D169460989C90705D0224806990068C268F5
:405140006846904769460989890706D5002835D11D480068816A0698884700282ED11B4E0025757075737571F575357675767575B570F570B5713746F5730120D0373873F1
:405180001F20F880FF2130467972A0300176457600F0D0FA00242046069901F09FFC002803D1641C2406240EF5D0FD720749BD72B573C0310D704D704D600D7207B0F0BDD8
:4051C00090150020180E0020FC0D0020D815002070B505460E46084602F06AFD0446304602F080FD0121A9400A46224001400A4301D0012070BD002070BD10B504460846C0
:4052000002F070FD0121A140014201D0012010BD002010BD10B5FEF715FE032804D102F057F80120FEF73EFE10BDFEB51C4616460F46054601F0D8FEA878FFF7F7FD0246C6
:405240000190334639460094284600F00DF8002808D1A8780199FFF711FDFF2C02D138460CF092FEFEBD0000FFB585B005460E980C46FF2810D02B49C00009680A5840189A
:405280000179C0795278814201D9012601E09006860F6846038108E06078A1788006860FE0780002014368460181284601F076FC070007D021462846079A00F077FC3846A7
:4052C00009B0F0BD304600F025FD04AE0346039002AA29460096204600F0B1FB3C20405D002818D0284601F059FC012813D0684600890096C0B20190A878231DFF220799C5
:4053000002F008F968460089039BC2B2A878079902F048FCD3E7684600890021C0B20091E9E70000140E0020F8B5002600253046FFF72AFD07001DD0902011497043401880
:405340006030447F12E0601CFDF704FBCCB23846E040C007C00F07D02146304601F048FF21463046FFF7A6FD6D1CEDB20548018AA942E8D8761C3606360ED7D0F8BD00004C
:40538000D8150020C416002010B502F0DDF90020FFF7BEFE0CF08EFE002010BDF8B5002400F0B2F80123012800D10124104F00203E4620360425082203E0002801D00021BB
:4053C00000E031460979002907D001290BD002290BD0114681402143CCB2401C0006000EEBD07C70F8BD1C43F7E72C43F5E70000D815002010B5FFF7D1FF10BD10B5044607
:4054000004F0DCFB002802D1601C00F001F810BD1CB500240094062269460194FDF7B6FB002800D1122420461CBD10B5FCF7D5FF0446FEF707FD012809D0FEF703FD02287C
:4054400005D0FDF7DFF92046FCF7CBFFEEE72046FCF7C7FF10BD10B50B4681791943817103D08078114602F06BFB10BD10B582798A43827102D1807802F076FB10BD000087
:4054800030B50C4C0220A28A0B4B9978002901D0022906D11D785B78EB18282B01D9032002E0032900D101205105490DC0020143A18230BDC0112E40CC0D002000B500F0A4
:4054C00029F8002807D0012805D0032801D0042801D0002000BD012000BD014600B50020C90701D000F010F800BD014600B50020C90701D000F008F800BD0000014800684D
:4055000070470000C40D002001480088000A704720102E400448008B410501D5042070474007800F7047000000102E4010B501F011FF044601F04EFF0146204601F032FF9D
:4055400010BD00000148406870470000C40D002038B50446000610D5FFF7DCFF01280CD1684601F0C5FE6846007800F023FB012001F0A2FD0220FFF73DFF600708D507489E
:405580000179012904D1002101712620FFF710FB0348006801692046884738BDD00D0020FC0D002070B505460C49007800240870FFF7AAFF012803D1FFF7B8FF022803D309
:4055C000284602F0DFF907E0284600F0EBF8040002D1034801210170204670BDCC0D00209816002070B50446FFF78EFF002801D00C2070BDA27B01211F48002A827801D05D
:405600000A4301E05208520082706279012A14D0C17849084900C170184D2868016820468847207901280CD06188208803F00EF82080207904280FD015E0C2780A43C27003
:40564000EAE72868C168E01D8847E01D02F01AFA0B48808C208006E02868C168E01D8847E01D02F00FFA074920798870204602F097F9002070BD0000D8150020FC0D002023
:4056800090150020CC0D002008B50178FFF73CFF814201D10C2008BD002914D0072069460870FFF70BFF012807D10121684600F0D9F8012801D0092008BDFFF7E1FE02F0A3
:4056C000A3F9012011E0FFF7F9FE012806D1684601F00EFE6846007800F0A0FA02F08AF9FFF712FF0028FBD10220FFF783FE002008BD000070B505460C49007800244870AD
:40570000FFF702FF012803D1FFF710FF022803D3284602F0F5F907E0284600F05DF8040002D1034801214170204670BDCC0D00209816002038B568460CF0BCFB002801D0F2
:405740001F2038BD01210098C90201804180002505714571857107214173857302F020F9009C202200212046FDF728FA25702A460021601CFDF722FA204602F003F9204621
:4057800002F0BEF900980CF0FFFB062200210448FDF714FA02480C388560002038BD0000D00D0020F8B504460025684600950CF081FB002801D007250AE0064E0098306034
:4057C0002278611C401CFDF7F0F93168207808702846F8BDC40D0020F8B504460025684600950CF067FB002801D007250AE0064E009870602278611C401CFDF7D6F9716805
:40580000207808702846F8BDC40D00200346084800B5834209D8184600F014FE002804D00089984201D1012000BD002000BD0000FF0E0000074A9179491C8906890E91710F
:4058400038220A4092014907090E11430843024908407047D8150020FF0E0000C006C00E70470000F8B507460E4600240D4803E0002C01D0002500E005462979002905D0A5
:40588000641C2406240EF3D00020F8BD0021204601F024F92E712046FFF7CCFF28813C700120F8BDF815002010B503F07FF90222002100F003F801F0F3FE10BD10B5094B99
:4058C00040074907000F090F185A595A40185043C0086421FDF73EF8002800D1012080B210BD000014430100F7B53D20405C88B015460C46002802D02878042802D20020AE
:405900000BB0F0BD6946087200262046FFF788FA012800D00126204603A938300191009023460327A17E34333246206A03F062F902A8089900900B46019120463A4603A95D
:40594000243003F0DFF802466846007A2870204601F0B0F81046D3E7FFB587B00C4605461078694608723D20005D1746002826D000262046FFF754FA012800D0012620462E
:4059800003A93830019100902346A17E34333246206A03F02FF902A80090291D019120462B1D03A924300A9A03F0ACF802006846007A388002D1204601F07CF810460BB019
:4059C000F0BDF0B505463C20405C89B016460C4600280CD0307869460873002806D000272046FFF71DFA012803D003E01F2009B0F0BD012703200890204604A93830019149
:405A000000902346E17E34333A46E06903F0F2F86846007B03A928180290009120462B46019504A92430089A03F0A0F802466846007B3070204601F047F81046D7E7FFB5BF
:405A400005463C20405C89B016460C46002810D0084601F0A3F801280BD0308869468883002809D000272046FFF7DAF9012805D005E000200DB0F0BD0220FBE7012720464E
:405A800003A93830019100902346E17E34333A46E06903F0AFF8291D2B1D07A8129A6D4607C5204603A924300C9A03F05FF802466846808B3080204601F006F81046D9E744
:405AC00070B50D460446FFF7ABF901280AD0E87AA97A00020143A07801F0DEFC012808D0002070BD00222421204602F001FD242070BD28214C200155204600F0B1FB2820C8
:405B000070BD0000002801D0002000E003484030C07F012800D0002070470000F81500200146002049070ED50021084B03E0002901D0002200E01A461279022A04D0491C0B
:405B40000906090EF3D0704701207047F81500200146002049070ED50021084B03E0002901D0002200E01A461279022A04D0491C0906090EF3D0704701207047F81500209E
:405B800010B5044680346068002803D00CF010FA0020606010BD4030417070474030817070474030017070470171704792001018C166704770B53C2501F096F9040004D085
:405BC00020460021433001F01BFCFF222946204600F0E2FB002C02D0A07801F007F970BD10B5002801D0002000E00348002802D0008903F043FD10BDF815002010B5002806
:405C000001D0002000E00448002804D00179072901D100F047F810BDF815002010B501F063F9002802D0807801F0E0F810BD00207047000070B50546008A00281ED01049CC
:405C4000F122897A1140C90618D5294640314A8A098A521C4A4392B2D10800D10121540801E0621A94B2A042FBD9FEF7B9FE012804D1298AA878224601F0D4FC70BD000027
:405C80009015002010B50023054C0B60248A944204D992001018C26E0A60C36610BD0000C416002038B5044600200090A079002814D14020015D052901D00E290ED1684648
:405CC0000CF008F9002809D12046009902F0EEFB03481021C28A2046FFF7BDFB38BD00009015002010B50B4604460146184602F067F8002802D020460CF050F910BD13B5A5
:405D0000044601AA11460620FDF7BEFF6846818861811CBD002800D10220704770470000F8B504462346401D543300909A1EA078911E01F0F9FA25464035A88A298A8000C9
:405D4000FCF708FE401E81B2688A884203D96982A07801F079FF698A8C20015120460021433001F04DFB27480088E88102F01EFFE989891C8AB26179FFF7A0FD01F090FCC5
:405D800002F014FF2A8A6179FFF798FD074601F07BFC688A002806D01B49088A032212021043088202E0002001F042FF1648803801886E8A002E0CD0304648431349FCF7EF
:405DC000B3FE0004000C01D0401C80B21049488002E00F4800214180288A704381B2A07801F09CFEFF2228374932B9B21346204602F030FCE98AA07801F010FEA07801F036
:405E00001FFAF8BD80102E40E0112E4071020000D60D00207FB504468034616805460E46183108226846FCF7C0FE31462031082202A8FCF7BAFE102168460BF0E5FF606888
:405E4000102108300BF0E0FF60682B46083024331022694602F076FE7FBD10B504460821FFF704FB10212046FFF700FB207905281FD006281DD008281AD12189002003F037
:405E800075FB072020712046FEF7CAFF014620464030012913D00E21017000210176204600F0B6FF2046FFF76BFE2046FFF7C2FE10BD20890122002103F03CFBE1E7052176
:405EC000EAE70000FFB581B01F4604460821FFF7CDFA10212046FFF7C9FA2079082803D0092804D0042203E00422012501E009220025204600F03EFE2646002040363070AC
:405F000022712046FFF73CFE0398002D02D0012808D00BE001280AD120890022029903F009FB04E02189029803F020FB012700203076012F04D0204600F06AFF05B0F0BD08
:405F400002983073204602F0FFFA054605480121C28A2046FFF77FFA002DEFD109202071ECE700009015002070B50C460546FEF757FF012809D108212846FFF777FA002348
:405F8000012221462846FFF79DFF70BD10B5044600F0F0FD2046FFF7F3FD00214034217010BD70B505461A24FEF73AFF012809D108212846FFF75AFA002301222146284624
:405FC000FFF780FF70BD0000F8B50446002000900E4668460BF07EFF002801D00D20F8BD8420005908212030009D00F026FA20460421383000F021FA002E02D1204600F08B
:40600000F5FD2946204602F0E0F90E480821C28A2046FFF720FA204600F06BFF25464035002808D0204600F023F8002801D0092028700020F8BD08202870204600F0D4FF04
:40604000F7E7000090150020014610B540310A460978082906D0092907D00A2901D100F091F810BD0B20107010BD00F001F810BD70B50446007925464035052805D00628AE
:4060800003D008280FD00C2070BD03220621204602F02EFA0D480821C28A2046FFF7DBF91120287010E006202873204602F04CFA0646AA8A0A20424301212046FFF7CBF956
:4060C000002E01D109202071002070BD9015002038B504460020009068460BF0FBFE002801D00D2038BD2046009D00F0BDF908202071204600F07AFD2946204602F098F9A9
:4061000000213D2001550F2040210855204600F06BFF002038BD00B5024600F02BFD10214032117000BD10B50446FEF779FE012809D04020005D112805D100231A460621E0
:406140002046FFF7BFFE10BD10B5FFF786FE10BD38B504460021684600910BF0BBFE00280CD12046009902F0E4F905480821C28A2046FFF770F90D204034207038BD000062
:406180009015002038B504460021684600910BF0A1FE002801D00D2038BD2046009902F0BDF905480821C28A2046FFF754F90C2040342070002038BD901500200078704783
:4061C000F8B5002569460D70002801D0002400E01F4C002C18D0204600F0D5FC002813D0207903280BD005280CD026464036B18AA07801F09DFCB078012806D01DE0042044
:4062000020711DE006202071F8BD0021204601F0F4FD274680373868002802D00BF0C8FE3D600020B0702079072802D12046FFF701FD0221204600F0F1FE20790428E3D1C9
:40624000207A694608703420FEF7B2FCF8BD0000F815002010B54C22115400F04CF810BD10B50446FF21FFF701F909202071A07801F084FC10BD000038B5FF216A4611806E
:40628000002801D0002400E0084C002C0DD011460620FDF7F9FC684601882046FFF72FFD03480068C1692046884738BDF8150020180E002010B504468079002809D0222199
:4062C0004C200155FF212046FFF7D0F8204600F012F810BD10B5037902464032002B03D01173092B02D003E0002100E02221117300F001F810BDFEB504460089002700904A
:406300002781207926464036002817D0012815D002280AD112E002AA01A9204601F03EFD002807D101980BF039FE204601F05EFD0028F0D02046FEF7C3FCB7762546803572
:406340002868002802D00BF033FE2F606868002802D00BF02DFE6F60317B002919D0009800F064F8A078002100F086FF2046FFF79BFAA07801F07AF8A07800F037FDFF2101
:406380002046FFF773F80B20FFF734F800F068FCFEBD1F213173E2E7F8B517460E46054602F000FC04003CD020460C3001F018F82046062200211830FCF700FC204606224F
:4063C00000211230FCF7FAFB1648224600683946436A28469847074626702846FEF720FD012148406070002D10D02889608028464030C1782171002E0FD169796171018A3A
:40640000E180418A2181808A608106E00648008BC005C00F2071002060803946204603F028F8F8BDFC0D002000102E400A4610B50146002003F03AF910BD10B50BF0C0FA82
:4064400010BD000000B50146FFF708FA002801D0002000E00348002802D002898A4200D0002000BDF815002038B5044680346068002806D168460BF03DFD002801D10098C5
:406480006060606838BD000010B5014600F086FB0128887802D0FEF7CDFC10BD90214843024940186030007F10BD0000D815002070B5054604464035A87F012811D1A1781A
:4064C0009020084A484380186030067F3046FEF77FFE002805D10220A877A078314601F06FF870BDD815002010B50C4CA07A002813D0FEF719FF0A48027F417F408B00F07D
:40650000B7FB012809D10020A07200F007FF05498989090B01D000F03BFA10BDA8160020D8150020A0102E4070477047490510B5490F0B00FCF742FD060704080C0C0F07E1
:406540003E21FFF787FE10BD0821FFF7C3FE10BDFFF7D1FE10BDFFF7ADFE10BDF8B507460025002D01D0002600E0204E00F09AFE3046403044890021418100F09DFE304617
:4065800000F001FB01282BD1A00702D52846FFF717FEE00602D52846FFF76EFEA00601D5FEF7C2FE600601D500F014FB200602D5284600F01DF8600702D5284600F02CFAA8
:4065C000380402D52846FFF719FB780402D52846FFF706FBE00703D021463046FFF7A6FF6D1C2D062D0EBCD0F8BD0000F8150020F8B5002801D0002400E0284C002C4BD05C
:4066000025464035A878012846D1FF278820493700593E46002805D02149897A890601D5878AC68A2046FEF7FBFB012834D002F0BDFA2A8A6179FFF741F9009001F024F83D
:4066400000983346283081B23A46204602F002F8E98AA07801F0E2F912480188688A124E002810D048431149FCF75EFA0004000C01D0401C80B27080A07DC107C90F0020AC
:4066800001F0A8FA01E000207080288A698A484381B2A07801F042FAF8BD0000F81500209015002060112E40D60D0020710200000149096809680847180E002070B50D4679
:4066C0000026194A0146002801D0002401E014462034002C26D0204600F060FA01280AD19020484380186030007FFEF771FD002801D101F0A9FE0D48006881692046884795
:4067000000280CD020464030817EA94202D3491B817600E086762089294602F068FF204600F062FC70BD0000D8150020180E002070B503460088FFF785FE040013D000F09E
:4067400022FA00280FD02079092819D02546997840352973204601F0F7FE0646A878012803D0AA8A02E0022070BDEA880A20424301212046FEF76FFE002E01D109202071D8
:40678000002070BD0EB5002217216B460292198100905A810120029B00990BF0A9FC0EBDF8B518480024807A002822D1164E0025B089000B22E0204600F032FE1249A03994
:4067C000401807882A462146384600F051FA012810D00E480122478305770A4944778A72002D01D0002000E02030002801D000F0FBFBF8BDB089000B641CE4B20028DAD141
:40680000F8BD0000A8160020A0102E40D815002010B50088FFF716FE002809D0014640310C460978082905D00B2903D00C2010BD022010BDFFF71CFC002801D00920207002
:40684000002010BD70B503460088FFF7FBFD040008D0254640352878082805D00B2803D00C2070BD022070BD8420005910220830991CFCF79AF92046FFF7CCFA28780828A4
:4068800004D02046FFF77EFC002801D00A202870204600F0A9FB002070BD000010B50C46002121700088FFF7CDFD03000BD000F06AF9002807D00948F121807A0840C00680
:4068C00003D4112010BD022010BD022020701A8A1889002102F006FF002010BD90150020F8B50F46002100910088FFF7ABFD040012D000F048F900280ED0E079410641D467
:40690000617E02264A07002A08DB8907402500291ADA2843E07135E00220F8BD02F042F90021017021894180A1898180217E4170E189C1803E7005460178134802F0ACFB82
:40694000284602F073FE1DE0204600F02DF9012806D068460BF0BEFA002803D00720F8BD2A20F8BDE07900992843E071204601F015FE607E0421304360760448C28A204635
:40698000FEF769FD0020F8BD1D040000901500203EB500220F236C460292238100910190628169460EC900200BF0A2FB3EBD0000F8B50F46054600F097FA040025D0032068
:4069C0002071254600264035EE76E6702046FFF7A7F901F00FF80920FEF70CFDA07800F033FD0121204600F019FB2E706E70AE703A4600212046FFF7CFFC0649887B401C57
:406A00008873A078FFF754FEF8BD284601F0B6F8F8BD0000D815002010B5002801D0002000E0094800280DD0014640310A464978022901D100215170807DC107C90F0020FE
:406A400001F0C8F810BD0000F815002070B503460D460088FFF7F6FC04000BD000F093F8002807D01248F121807A0840C00603D4112070BD022070BD20464030418A008ABE
:406A8000491C41430804C10C5888884201D2122070BD20822079072802D12046FFF7CAF8022028702089002102F044FE002070BD90150020016A491C016204D1817E491CA7
:406AC0004906490E81767047C169491CC16104D1C17E491C4906490EC1767047F0B5074687B003A8009005A800260D460190002F01D0002400E01B4C002C05D06846FCF75C
:406B0000AFF8002803D00BE0022007B0F0BD68460089C00704D1902200212046FCF74EF8114829460068826820469047050016D1A77066762746267140373E70204600F048
:406B400019F8204601F04EF9084820820848BE77807AF121084000D001202075E682E8B2D3E70000F8150020180E0020B80B000090150020002101628176C161C17620303A
:406B80000177417770470079002805D0012803D0022801D001207047002070474030807F002800D00120704740300078002807D0012805D0052803D00E2801D001207047CF
:406BC0000020704710B5807801F08CF8002800D0012010BD10B500F0A1FB03498989090B01D0FFF7D5FE10BDA0102E4070B5054604464035A87F002825D1FF206075A078DE
:406C00009021154A484380186030417F9023491CC9B24177A0785843104B8018DB896030994201D300214177A0789021484380186030467F0677A1783046FEF7C9FA002837
:406C400002D00120A87770BD0220A877A078314600F0B6FC70BD0000D8150020C41600200020401C0006000EFBD0002070470000F0B515468207920F85B0000A02926A4650
:406C80009080002D01D0002400E0564C002C28D0084600F0C5FB07466846808800280BD00298012843D0022841D003280BD03D20005D012879D08FE04B4838180188204674
:406CC000FFF71DF888E00020029002A80BF0E2F8002807D03D20005D012802D12046FFF7E9FE7CE06846029E8388324600213846FCF7DCFE3C48381801882046FEF7FFFFA9
:406D0000284600F0A9FA01AA21463046FEF7ECFD002806D030460BF02DF93D204C21085531E0F5773146204601F0C4F957E0002000902089039068460BF09CF8002802D0CE
:406D4000002005B0F0BD6846009E8388321D00213846FCF7ABFE2448381801882046FEF7CEFF284600F078FA2046FFF70CFF002805D025464035287E002810D107E0304623
:406D80000BF0EEF82BE02046FFF76AFA27E001AA21463046029BFEF7DFFD002806D030460BF0DEF83D202873EDE712E00298FEF7B5FF0399317003990001090A01437170D2
:406DC00068468088B070000AF0703046FFF7DAFC05E02046FFF76EFE284600F03DFA0120AFE70000F815002000102E4010B5074A917B002901D0491E91730021FFF76EFE63
:406E0000002801D0002010BD012010BDD8150020F8B5074606464037B87F00282DD0B078902100904843234945186035287F0099FEF7E3F901281ED0287F401CC4B21E48FF
:406E4000C089A04200D800240020B877FF276F772F77A87702460146009800F01DFD717DFF2903D0304600F07EFF777501F0ECFA0025114F19E00320B877F8BD00200090D6
:406E8000224669463046FEF7FDFE0099002904D0FF231A463046FEF7C8F9641CF889E4B2A04200D800246D1CEDB2F889A842E5D8F8BD0000D8150020C416002010B5024683
:406EC0000021084B03E0002901D0002000E018460479944204D0491C0906090EF3D0002010BD0000F815002000B50120FFF7E6FF00BD10B5044601F055FE218901808034B4
:406F00006168416061682831816002F049FB10BDF7B50646087982B00C46092807D0A078F0770846FFF73AFE012806D010E030460BF034F8022005B0F0BDA1789020294A95
:406F4000484380186030007FFEF742F9012810D0A078FEF7D7FD01280BD037780121304601F01EFA25462035062F38D00B2F0FD107E06846027C21463046FEF7B3FE0D2097
:406F8000D9E72046FDF74CFF012801D1002028772046FFF779FA054604AA21463046FEF710FD01205F2108556946097C002001910090A07833463A46294600F0ABFA6946D3
:406FC0000A7CA0780323294600F0ECFDA0782946FDF754FE30460AF0E1FF0020ABE70120D5E70000D815002010B502464032937F0021002B03D1927E002A00D00121064A9F
:40700000927A002A00D000210279092A00D10121807800F0FFFD10BDA816002070B50C460546FDF7FDFE00280BD1012C06D92879092806D02846FFF7C5FD0446002C02D022
:4070400004E0012402E0A87DC007FAD1A87DC107C90F204600F0BEFD70BD0000012807D0082804D104480282034808300180704701488038FAE70000A0102E400149088108
:407080007047000000102E4010B50446FF20F130012C01D1FF20D530002200F0EDFD044A108A044980B2A0430880108210BD000000102E40DA0D0020034B198A034A89B2FE
:4070C000814311801982704700102E40DA0D002010B50446012802D0082C07D102E0FF20D53001E0FF20F13000F0BEFD0348018A034A89B221431180018210BD00102E405B
:40710000DA0D0020034B198A034A89B2014311801982704700102E40DA0D0020F8B505460120A84086B214460F46012231467C2000F0A2FD3A463146782000F09DFD607885
:40714000267800020643E078A2780002024360792379000203430C2045430D2080010549281844182680001D44182280001D40180380F8BD00102E40CB065B0E03434809A7
:4071800001021943D00108430121C902084301490881704780142E404278037812021343084A1382C37880781B021843908248780B78000203431383C878897800020143A5
:4071C0009183704700142E40024A1080000C90801181704700142E40044A002180180288491C89B21029FAD37047000000102E40024A10820148803081817047A0102E4065
:4072000010B5054A1082084600F05AFD024A0021A03A8018018010BDA0102E4010B50B46044600F005F819462046FFF7E1FF10BD024A10820148803001817047A0102E40E5
