:400000000080002011000000090300000903000080B500AF00F082F980B500AF234B12221A6002F0C7FC224B180002F0F5FD012002F0D0FC302002F0AFFA1E4B1E4A1A6075
:400040001E4B8022D2051A601D4B1D4A126802210A431A601B4B1C4A1A601C4B00221A601B4B1B4A126808218A431A60FA23DB00180002F087FB174B180002F03BFC164B6B
:40008000802212061A60154B8022D2021A60144B1900082002F0C0FB082002F0E3FB074B8022D2051A60C046BD4680BD30001040001BB70004010B40060000800C020B406B
:4000C00078002E407C002E40D0D0000064F02E406CF02E40DC05000008010B4000010B40292B000080B582B000AF72B62A4B00221A60FB1D00221A7022E0FB1D1A7813005D
:400100005B009B185B00254A9B183B603B681A78597809020A43997809040A43DB781B06134318003B681A795B791B0213439BB2190000F0C5F8FB1D1A78FB1D01321A70DF
:40014000FB1D1B78012BD8D9154BEE2212061A60144B992212041A60134B992212041A60124A124B1B78DBB206210B43DBB213700F4BD82212041A600E4B0C221A600E4B06
:40018000902212011A60FFF747FF00F0A9F8C046BD4602B080BDC0466CF02E40904701000000024000500F4020500F4000700F4008000440000204400802044010B5064C3D
:4001C0002378002B07D1054B002B02D0044800E000BF0123237010BD40100020000000008C470100084B10B5002B03D00749084800E000BF07480368002B00D110BD064B38
:40020000002BFBD09847F9E700000000441000208C470100A80B00200000000080B500AF62B6044B180000F08FF900F021F803F029F9FCE73902000080B582B000AF7860E9
:4002400039607B68012B00D006E0054B054A1A60054B064A1A60C046C046BD4602B080BD60F02E4031030000080003400203008090B583B000AF03F005F9BC1D002000F02C
:40028000FFF90300238003F0FDF8BB1D1B88002B02D1002000F0C6F87B1D084A12781A707B1D1B78022B03D1002000F0E3F802E0012000F0DFF803F0E5F8EDE7CA210020E3
:4002C00080B582B000AF786039603A687B680021180003F09BF8C046BD4602B080BDC04680B500AF054B03221A60054B03221A60044B00221A60C046BD4680BD30003040A2
:4003000030003140000E3F4080B500AF03F03AF803001B680C2B00D1FEE7FEE780B586B000AF224B7B61224B3B61204B7B6135E03B691B68FB603B695B68BB603B699B68BB
:400340003B6000237B600CE0FB681A68BB681A60BB680433BB60FB680433FB607B6804337B607A683B689A42EED13B69DB683B6000237B6008E0BB6800221A60BB68043376
:40038000BB607B6804337B607A683B689A42F2D13B6910333B617B69013B7B617B69002BC6D102F0F5FFFFF739FFFEE701000000604D010080B582B000AF154B144A1268EE
:4003C00001218A431A6000237B600FE07B68032B04D8104B7A689200D35800E00E4B0F4A796889008B507B6801337B607B682F2BECD9FFF777FE0A4B00221A60044B044AFC
:40040000126801210A431A60C046BD4602B080BD00001040000000000903000000000020C000002080B584B000AF0200FB1D1A700F4B1B68DAB20F23FB1808218A431A701B
:40044000FB1D1B78DB00DBB208221340D9B20F23FB180F22BA1812780A431A70044B0F22BA1812781A60C046BD4604B080BDC0460002044080B584B000AF0200FB1D1A7060
:400480000F4B1B68DAB20F23FB1804218A431A70FB1D1B789B00DBB204221340D9B20F23FB180F22BA1812780A431A70044B0F22BA1812781A60C046BD4604B080BDC0463C
:4004C0000002044080B500AF094B00221A70094B00221A70084B00221A7000F013F8074B00221A70064B00221A70C046BD4680BDF0210020D8210020EE210020BC21002021
:40050000C421002080B500AF0C4B1B88002B05D10B4B0E220021180002F078FF074BDB88002B05D1074B06220021180002F06EFF01F0A8FCC046BD4680BDC046540C002086
:40054000E0210020D0210020B0B594B004AF78603E23FB1800221A802823FA183E4B1000190014231A0002F048FF3C4B1B78002B04D1FFF7A7FF394B01221A707B68002B57
:400580005FD0374B7A681A603E23FB181B88002B29D11023FB181C22BA185A601023FB182022BA181A601023FB1800221A812023FB181B221A802023FB181B225A8020232E
:4005C000FB1804221A711C23FB1808221A703E23FC180E23FA181023FB181100180003F02DF8030023803E23FB181B88002B2CD13E23FC182823FD18AE231A0119491A4888
:400600001A4B02931A4B0193052300932B0002F06BFF030023803E23FB181B88002B14D1144B01221A70144B08221A703E23FC18124B0D220F2118000FF054F9030023805E
:4006400003E03E23FB1801221A803E23FB181B881800BD4610B0B0BD9C4701005C100020C0210020C80000209D0D00007902000000560100CA210020CB210020B84701001B
:4006800090B585B000AF0200FB1D1A70FB1D1B78022B04D90E23FB1801221A804AE0294B1B78042B41D1284B1B78DBB21A00042313403AD1FB1D1B78002B0BD1234B1E22B3
:4006C0001A82224B5B6820221A80204B5B6830225A8010E0FB1D1B78012B0CD11B4B96221A821A4B5B68C822D2001A80174B5B688022D2015A80164BFA1D12781A700E23EB
:40070000FC18124B18000DF0BDF8030023800E23FB181B88002B0DD10B4B1B78DBB204221343DAB2084B1A7004E00E23FB180422FF321A800E23FB181B881800BD4605B0BD
:4007400090BDC046CA210020F0210020DC0B0020EE21002080B584B000AF78600A00FB1C1A700023BB60FB1C1B78002B01D1154BBB60BB68002B20D07B689A79BB681A70D8
:400780000F23FB1800221A7012E00F23FB181B780133BA68D3180F22BA18127879688A5C1A700F23FB181A780F23FB1801321A700F23FB181B78052BE7D9C046BD4604B001
:4007C00080BDC046D00B002080B582B000AF78607B681B789AB27B6801331B789BB21B029BB213439BB21800BD4602B080BDC04690B585B000AF78600F23FB1800221A7005
:400800007B689B890F22934232D17B68181D7A680F23FC18402300210FF07CF8030023700F23FB181B78002B1AD17B685B681800FFF7CAFF03001A00022313409BB2002B63
:4008400007D00F4B1B687968822252001000984706E00B4B1B6879680622FF3210009847084B1B78DBB201229343DAB2054B1A700F23FB181B781800BD4605B090BDC04649
:40088000C0210020F021002080B582B000AF78607B68DB880D4A934214D10D4B5B88002B08D17B689A880A4B5A807B689A78084B1A7007E0074B1B687A68911D8622520036
:4008C00010009847C046BD4602B080BD052A0000D0210020C021002080B582B000AF78607B689B880B4A934210D10B4B9B88002B04D17B685A88084B9A8007E0074B1B686A
:400900007A68111D8622520010009847C046BD4602B080BD02290000D0210020C021002080B582B000AF78600C4B5A887B689B899A420ED10A4B1B687968832252001000E0
:400940009847084B1B78DBB201229343DAB2054B1A70C046BD4602B080BDC046D0210020C0210020F021002090B585B000AF78600F23FC187B681800FFF73AFF030023707E
:40098000154B1B78DBB21A00012313401FD10F23FB181B78002B16D00823FB1812229A707B689A890823FB181A800823FB180F22BA181278DA700823FA187B68110018682D
:4009C0000EF012F903E07B6818680EF08FF9C046BD4605B090BDC046F021002080B582B000AF7860C046BD4602B080BD80B582B000AF7860C046BD4602B080BD80B582B0AD
:400A000000AF7860C046BD4602B080BD80B582B000AF7860C046BD4602B080BD80B588B000AF7860394B1B78022B6AD1384B1B88002B66D00C23F918354B022208009B18B8
:400A40000422190002F0D9FC7B6859687B681B891A000C23FB180433180002F0CEFC0C23FB18180001F082FA294B1B8801339AB20C23FB181A80274B1B781900264A0B000B
:400A80005B005B185B00D31802331A880C23FB185A800C23FB181A880C23FB185B889A4221D80C23F9181D4B1A785B781B021A4300231204120C1B0C1B04134318000DF0C2
:400AC00059FD031E12D0164B1B6884225200002110009847134B1B78DBB202229343DAB2104B1A7002E0012000F03EFC0D4B1B78DBB201229343DAB20A4B1A70044B00224E
:400B00001A80C046BD4608B080BDC046CB21002084100020EF210020540C0020DC210020C0210020F021002080B588B000AF7860394B1B78022B6AD1384B1B88002B66D05E
:400B40000C23F918354B022208009B180422190002F053FC7B6859687B681B891A000C23FB180433180002F048FC0C23FB18180001F0FCF9294B1B8801339AB20C23FB1831
:400B80001A80274B1B781900264A0B005B005B185B00D31802331A880C23FB185A800C23FB181A880C23FB185B889A4221D80C23F9181D4B1A785B781B021A43002312045D
:400BC000120C1B0C1B04134318000DF0D3FC031E12D0164B1B6884225200002110009847134B1B78DBB202229343DAB2104B1A7002E0012000F0B8FB0D4B1B78DBB201223E
:400C00009343DAB20A4B1A70044B00221A80C046BD4608B080BDC046CB21002084100020EF210020540C0020DC210020C0210020F021002080B500AF094B00225A70084B2E
:400C400000221A70074B1B78052B03D1054B07221A7002E0034B08221A70C046BD4680BDDC210020CB21002080B582B000AF78607B681B78032B3ED1214B1B78DBB21A0042
:400C80000223134037D01F4B1B78022B10D002DC012B05D024E0032B12D0042B18D01FE0194B1B680822FF3200211000984717E0154B1B68842252000021100098470FE07F
:400CC000114B1B680A22FF3200211000984707E00D4B1B6885225200002110009847C046074B1B78DBB202229343DAB2044B1A70044B00221A70C046BD4602B080BDC0460D
:400D0000F0210020CB210020C021002080B500AFC046BD4680BDC04680B584B000AF78600E23FB1800221A707B689B79002B1CD10F23FB1800221A7012E00F23FB181B789B
:400D40007A68D35C002B04D00E23FB1801221A700BE00F23FB181A780F23FB1801321A700F23FB181B78052BE7D90E23FB181B781800BD4604B080BD80B582B000AF0200EB
:400D8000BB1D1A80C046BD4602B080BD80B582B000AF7860C046BD4602B080BD80B588B000AF02003960FB1D1A70DA4B1B78DBB201221343DAB2D74B1A70FB1D1B78FA2BC4
:400DC00000D9A1E19A00D44BD3181B689F461423FB1808221A701423FB1800225A701423FB18180004F02EFB1423FB1808221A701423FB1801225A701423FB18180004F04E
:400E000021FB0B23002B01D002F034FBC34B1B681800FFF781FF031E11D0C04B1B68180002F034FBBD4B1B6800211800FFF792FCBA4B1B6801211800FFF78CFC0DE0B84BEB
:400E4000180002F023FBB64B00211800FFF782FCB34B01211800FFF77DFC00200CF0A6FB1023FB183F221A701023FB1800225A701023FB1818000CF0B7FBAA4B04221A7024
:400E80006BE13B681800FFF7EFFE66E13B681A78A54B1A7061E13B68BB61BB691B78002B00D033E1BB695B78002B0BD19F4B0022DA809E4B00229A809C4B9D4A1A60BB6996
:400EC0009A4A5A60934B1B78DBB201229343DAB2904B1A701AE18F4B1B78DBB21A002023134000D014E1934B1B78102B02D1914B0522DA70904B1B788E4A110018000CF0CB
:400F00007FFC03001A000E23FB181A800E23FB181B88002B06D0894B1B680E22BA181100362098477B4B1B78DBB201221343DAB2784B1A70ECE03B685A78814B1A700CE1F8
:400F40003B681800FFF722FF07E13B681800FFF71DFF744B02221A70FFE0724B04221A70FBE0704B1B78022B00D1F3E0694B1B78DBB21A000123134000D1EBE0654B1B78F3
:400F8000DBB21A00042313400BD0664B03221A70604B1B78DBB204229343DAB25D4B1A70D8E05C4B1B78DBB21A00082313400BD05C4B04221A70574B1B78DBB20822934345
:400FC000DAB2544B1A70C5E0564B1B78032B00D0C0E0544B04221A70BCE03B681B881800FFF7CAFEB9E0544A3B681000190002231A0002F002FA4C4B00221A704E4B1B781F
:401000003D33FF335A004F4BD31801334E4A1000190002231A0002F0F0F94C4B00221A70FFF774FE99E0FFF705FE96E03B685B88162B05D81E23FB183A6852881A8003E09C
:401040001E23FB1817221A801E23FB1819883B681A8800231204120C1B0C1B04134318000DF0CCFD79E03B681800FFF77DFC74E03B681800FFF7B2FC6FE03B68180000F00E
:401080008BF86AE03B68180000F0A6FA65E000F091FE62E03B68180000F038FD5DE03B68180000F0D7FE58E03B681800FFF7A6FC53E03B681800FFF733FC3B681800FFF726
:4010C000A5FC144B1B78DBB21A000123134043D13B6818680DF014FA3EE03B681800FFF79DFC3AE03B681800FFF71EFD35E03B681800FFF77BFC30E0154B1B7801221343F6
:40110000DAB2134B1A7028E0C04626E0C04624E0C04622E0F0210020F0480100F80B0020F00B0020CA210020D82100209C100020A80B0020680C0020DC210020C0210020F8
:40114000C421002000560100C8210020CB210020BC210020C04600E0C0460D4B1B78DBB21A00112313400ED0094B1B78DBB201229343DAB2064B1A70064B1B68FA1D1278D5
:40118000396810009847C046BD4608B080BDC046F0210020C021002080B586B000AF78600023FB606B4B1B78012B00D0CDE06A4B1B78DBB21A000223134000D1C5E00A23FD
:4011C000FB187A6812891A800A23FB181B88062B05D00A23FB181B88142B00D0AEE00823FB187A6852891A801423FB1800221A8092E07B685A681423FB181B88D318FB6077
:401200001323FB1800221A70FB681A88534B1B889A4200D276E0FB681A88504B5B889A4200D96FE00A23FB181B88062B00D065E01623FB1800221A8055E01623FB181A8894
:40124000474913005B009B185B00CB1804331A88FB689B889A423FD11623FB181A88404913005B009B185B005B5A002B13D11623FB181A883A4913005B009B185B00FA682E
:40128000CB1811000422180002F0B7F81323FB1801221A7020E01623FB181B88012B0FD81623FB181B885A1C2D4913005B009B185B00CB1804331A88FB689B889A420BD013
:4012C000284B1B68FA68111D0C22FF32100098471323FB1801221A701623FB181A881623FB1801321A801623FB181B88022B09D81323FB181B78002B9FD003E0FB6818004C
:4013000000F034FE1423FB181422B9180A22BA18098812888A181A801423FA180823FB1812881B889A4200D263E70B4B1B78DBB201229343DAB2084B1A7006E0094B1B6884
:401340000822FF32002110009847C046BD4606B080BDC046CB210020F0210020CC210020540C0020C021002080B582B000AF0200FB1D1A70FB1D1B78002B06D0344B1B78BD
:401380000133DAB2324B1A700CE0314B00221A70304B00221A8005E02D4B1B780133DAB22B4B1A702A4B1B78022B19D8284B1B781900294A0B005B005B185B009A5A274B19
:4013C0001B889A42E8D3224B1B781900224A0B005B005B185B009A5A204B5B889A42DBD81B4B1B78022B28D8194B1B781A0013005B009B185B00184A9918194B1A785B789A
:401400001B021A4300231204120C1B0C1B04134318000DF0AFF8031E15D0124B1B68842252000021100098470F4B1B78DBB202229343DAB20C4B1A7005E00C4B03221A70C9
:40144000002000F0ADFAC046BD4602B080BDC046EF21002084100020540C0020CC210020DC210020C0210020F0210020CB21002080B582B000AF78607B68DB884F4A934249
:4014800000D184E04D4A93420BDC4D4A934224D04B4A934200DD68E0A822920193420AD087E0484A93423CD0474A93424BD0474A934224D07DE0464B1B88002B04D17B6880
:4014C0009A88434B1A8074E0424B1B687A68911D86225200100098476BE03D4B5B88002B04D17B689A883A4B5A8062E0394B1B687A68911D862252001000984759E0344B31
:401500001B89002B04D17B689A88314B1A8150E0304B1B687A68911D862252001000984747E02B4B5B89002B04D17B689A88284B5A813EE0274B1B687A68911D86225200D3
:401540001000984735E0224B9B89002B04D17B689A881F4B9A812CE01E4B1B687A68911D862252001000984723E0194B9B88002B04D17B689A88164B9A801AE0154B1B68F4
:401580007A68911D862252001000984711E0104BDB88002B04D17B689A880D4BDA8007E00C4B1B687A68911D8622520010009847C046C046BD4602B080BDC046032A0000E1
:4015C000012A0000A62A0000C92A0000042A0000E0210020C021002090B593B000AF7860D44B1B78DBB21A000223134000D1D1E13E23FB187A6812891A803C23FB187A686B
:4016000052891A807B685B683B64CB4B1B78032B00D0C7E04623FB1800221A80B8E03B6C1800FFF7D1F803001A002423FB181A803B6C02333B643B6C1A782423FB189A702B
:401640003B6C01333B643B6C1800FFF7BDF803001A002423FB189A803B6C02333B643E23FB181B88152B33D12423FB1802229A752423FB180622396C9B181022180001F07D
:40168000BCFE3B6C10333B64AC4B1B781900AC4A0B005B005B185B00D31804331B881A00A84B9A425DD0A54B1B78012B5BD9A34B1B78022B57D8A14B1B789BB2023B9BB229
:4016C0002422BA181100180000F0B8FCC0464AE03E23FB181B88072B48D12423FB1801229A753B6C1800FFF76FF803001A002423FB18DA803B6C02333B64904B1B781900F8
:401700008F4A0B005B005B185B00D31804331B88C0225201934203D08B4A934206D00BE02423FB181800FFF7A3FE1FE02423FB181800FFF7A9F819E0804B1B78012B14D90E
:401740007E4B1B78022B10D87C4B1B789BB2023B9BB22422BA181100180000F06FFCC04603E0C04602E0C04600E0C046714B1B78DBB201229343DAB26E4B1A704623FB184E
:401780004622B9183E22BA18098812888A181A804623FA183C23FB1812881B889A4200D23DE7F7E0644B1B78022B00D0F2E04623FB1800221A80E4E03B6C1800FFF704F8C6
:4017C00003001A000C23FB181A803B6C02333B643B6C1800FEF7F8FF03001A000C23FB185A803B6C02333B643B6C1800FEF7ECFF03001A000C23FB189A803B6C02333B6483
:401800003E23FB181B88062B30D10C23FB1802229A750CF02BFF0C23FB1859884B4B1A785B781B021A4300231204120C1B0C1B04134318000CF0BCFE031E07D1444B0C22B5
:40184000BA1813CA13C313CA13C388E0414B1B6884225200002110009847364B1B78DBB202229343DAB2334B1A7078E03E23FB181B88082B00D072E00C23FB1801229A754A
:401880003B6C1800FEF7A0FF03001A000C23FB18DA803B6C02333B644423FB1800221A8033E04423FB181A88254913005B009B185B00CB1804331A880C23FB18DB889A4215
:4018C0001CD14423FB181A881D4913005B009B185B005B5A002B11D14423FB181A88184913005B009B185B000C22BA180220CB1811180422180001F080FD0BE04423FB1803
:401900001A884423FB1801321A804423FB181B88022BC6D9094B1B781900094A0B005B005B185B00D31804331B881A000A4B9A4214D014E0F0210020CB210020EF210020F9
:40194000540C0020FEFF000001180000DC21002084100020C021002012180000C0460F4B1B78DBB201229343DAB20C4B1A704623FB184622B9183E22BA18098812888A183B
:401980001A804623FA183C23FB1812881B889A4200D211E7C046BD4613B090BDF021002080B582B000AF0200FB1D1A70FB1D1B78002B06D0354B1B780133DAB2334B1A7032
:4019C00009E0324B00221A7005E0304B1B780133DAB22E4B1A702D4B1B78022B19D82B4B1B7819002A4A0B005B005B185B009A5A284B1B889A42E8D3244B1B781900244A02
:401A00000B005B005B185B009A5A224B5B889A42DBD81E4B1B78022B2DD81C4B1B781A001B4913005B009B185B001B4A585ACB185B881B04034319001378527812021A435C
:401A400000231204120C1B0C1B04134318000CF075FD031E15D0114B1B680A22FF320021100098470E4B1B78DBB202229343DAB20B4B1A7005E00B4B04221A70002000F0C1
:401A8000E9F8C046BD4602B080BDC046EF210020540C0020CC210020DC210020C0210020F0210020CB21002080B582B000AF3B0000221A803B0000225A80114B1B78002BD1
:401AC00009D1104B5B8801339AB23B001A800E4B1A893B005A803B1D3A0012681A603A1D002311880904090C1B0C1B040B43528812041B041B0C13431800BD4602B080BD83
:401B0000EF210020D0210020540C002080B58AB000AF78600823FB1800225A804A4B1B78042B00D08BE0494B1B78DBB21A000223134000D183E01E23FB187A6812891A803D
:401B40007B681A7B0823FB181A750823FB187A6812881A800823FB181B7D012B04D12623FB1804221A8003E02623FB1812221A807B685B683B622423FB1800221A804EE045
:401B80003B6A1800FEF720FE03001A000823FB185A803B6A02333B620823FB181B7D022B15D10823FB183A6A043311001022180001F023FC3B6A10333B62254B1B78012B88
:401BC00023D10823FB18180000F0FEFB1DE03B6A1800FEF7F9FD03001A000823FB189A803B6A02333B621A4B1B78002B04D10823FB181800FEF770FE154B1B78012B04D17C
:401C00000823FB18180000F0DFFB2423FB182422B9182622BA18098812888A181A802423FA181E23FB1812881B889A42A8D3074B1B78DBB201229343DAB2044B1A70C0467B
:401C4000BD460AB080BDC046CB210020F0210020EF21002080B584B000AF0200FB1D1A700C23FB1800221A800C23FB1800225A804A4B1B78012B17D0FB1D1B78002B0DD011
:401C8000464B1B780133DAB2444B1A70434B1B78012B09D1FB1D00221A7005E03F4B00221A70FB1D01221A703C4B1B78012B0CD1FB1D1B78180000F0C5FA03001A000C237B
:401CC000FB181A60FB1D01221A70344B1B78012B06D0FFF7E9FE03001A000C23FB181A600C23FB181A882E4B1B889A4215D90C23FB181A882A4B5B889A420ED80C23FB18BE
:401D00005A88274B1B889A4207D30C23FB181A880C23FB185B889A4203D9204B1B78012BA6D91E4B1B78012B21D80C23F9181D4B1A785B781B021A4300231204120C1B0C66
:401D40001B04134318000CF0E3FB031E21D0164B1B6885225200002110009847134B1B78DBB202229343DAB2104B1A7011E0104B05221A700C4B1B681222FF3200211000A7
:401D800098470A4B1B78DBB202229343DAB2074B1A70C046BD4604B080BDC046EF210020CC210020DC210020C0210020F0210020CB21002080B500AF244B1B78DBB21A0048
:401DC000022313403FD0224B1B78022B17D002DC012B05D037E0032B1DD0042B27D032E01B4B02221A700020FFF7BEFA174B1B78DBB201229343DAB2144B1A7023E0012009
:401E0000FFF7B2FA114B1B78DBB201229343DAB20E4B1A7017E00120FFF7C2FD0B4B1B78DBB201229343DAB2084B1A700BE00120FFF710FF054B1B78DBB201229343DAB271
:401E4000024B1A70C046C046BD4680BDF0210020CB21002080B582B000AF7860084B1B78DBB21A000223134005D07B689B790A2B01D1FFF79FFFC046BD4602B080BDC046AA
:401E8000F021002080B582B000AFBB1D00221A8060E0BB1D1B889A1C324913005B009B185B005B5A002B50D13B1D00221A8040E0BB1D1B882C4A1B01D3180C331A683B1D99
:401EC0001B881B01D31800221A80BB1C00221A8019E0BB1D1B88244A1B01D3180C331A683B1D1B881B01D318D968BB1C1A8813005B009B189B00CB1800221A80BB1C1A88AF
:401F0000BB1C01321A80BB1D1B88174A1B01D3180C331A683B1D1B881B01D3189B7A9BB2BA1C12889A42D4D33B1D1A883B1D01321A80BB1D1B880C4A1B01D31809331B783C
:401F40009BB23A1D12889A42B2D3BB1D1A88BB1D01321A80BB1D1B88002B9AD0C046BD4602B080BD540C00208C0C002080B584B000AF78600D23FB1800221A700E23FB1840
:401F800000221A8046E00E23FB181B88284A1B01D31808331B78022B35D10E23FB181B88234A1B01D318043318687B6804331022190001F013FA031E25D10E23FB181B886B
:401FC0009A1C1C4913005B009B185B005B5A002B19D10E23FB181B889A1C164913005B009B185B007A68CB1811000422180001F004FA114B1B780133DAB20F4B1A700D2342
:40200000FB1801221A700E23FB181A880E23FB1801321A800E23FB181B88002B04D10D23FB181B78002BAED0C046BD4604B080BD8C0C0020540C0020EF21002080B584B0B8
:4020400000AF02003960BB1D1A800D23FB1800221A70774B1B68002B0FD0764B1B88BA1D12889A4206D1724B1B683A681288013A92B21A806E4B00221A600E23FB1800228E
:402080001A80ABE00C23FB1800221A703B689B7D022B27D1BB1D1B88674A1B01D3180C331A680E23FB181B881B01D3181B7A022B18D1BB1D1B88604A1B01D3180C331A68B3
:4020C0000E23FB181B881B01D31858683B6806331022190001F082F9031E03D10C23FB1801221A703B689B7D012B27D1BB1D1B88514A1B01D3180C331A680E23FB181B8817
:402100001B01D3181B7A012B18D1BB1D1B884A4A1B01D3180C331A680E23FB181B881B01D31858683B6806330222190001F056F9031E03D10C23FB1801221A700C23FB18EA
:402140001B78012B43D1BB1D1B883B4A1B01D3180C331A680E23FB181B881B01D3181B88002B34D1BB1D1B88334A1B01D3180C331A680E23FB181B881B01D3183A68928899
:402180001A80BB1D1B882C4A1B01D3180C331A680E23FB181B881B01D3183A6892785A72BB1D1B88244A1B01D3180C331A680E23FB181B881B01D3189A1C1D4B1A601D4BC7
:4021C000BA1D12881A800D23FB1801221A700E23FB181A880E23FB1801321A80BB1D1B88154A1B01D31809331B789BB20E22BA1812889A4205D20D23FB181B78002B00D1CF
:4022000040E70B4B1B68002B0DD0094B1A680B4B1B7818000A4903005B001B185B00CB1802331B881380C046BD4604B080BDC046A8100020AC1000208C0C0020EF21002096
:40224000540C002080B584B000AF0200FB1D1A700823FB1800221A800823FB1800225A80FB1D1B78002B2DD0524B1B880133524A1288524912018A1809321278934206D2AF
:402280004C4B1B8801339AB24A4B1A8023E04A4B1B88013309D1484B1B8801339AB2464B1A80444B00221A8015E0454B1B780133DAB2434B1A703F4B1B8801339AB23D4B9B
:4022C0001A8008E03C4B00221A803A4B00221A80FB1D01221A70384B1B88384A1B01D31809331B789AB2334B1B889A421FD9324B1B88324A1B01D3180C331A682D4B1B88D5
:402300001B01D3181B8801339AB20823FB181A80294B1B88294A1B01D3180C331A68254B1B881B01D3185A880823FB185A800823FB181A88234B1B889A4215D90823FB183C
:402340001A88204B5B889A420ED80823FB185A881C4B1B889A4207D30823FB181A880823FB185B889A420CD9134B1B88134A1B01D31809331B789AB20E4B1B889A4200D9D8
:402380006EE70C23FB180822BA1812681A600C23FA18002311880904090C1B0C1B040B43528812041B041B0C13431800BD4604B080BDC046A6100020A41000208C0C0020E3
:4023C000EF210020CC21002080B584B000AF78600E23FB1800221A700F23FB1800221A70B9E00D23FB1800221A707B681B7D022B37D1664B1B88664A1B01D3180C331A68CB
:40240000644B1B881B01D318D9680F23FB181A7813005B009B189B00CB181B7A022B20D15A4B1B885A4A1B01D3180C331A68594B1B881B01D318D9680F23FB181A781300AC
:402440005B009B189B00CB1858687B6804331022190000F0C3FF031E03D10D23FB1801221A707B681B7D012B37D1484B1B88484A1B01D3180C331A68464B1B881B01D3189A
:40248000D9680F23FB181A7813005B009B189B00CB181B7A012B20D13C4B1B883C4A1B01D3180C331A683B4B1B881B01D318D9680F23FB181A7813005B009B189B00CB1854
:4024C00058687B6804330222190000F087FF031E03D10D23FB1801221A700D23FB181B78012B31D1294B1B88294A1B01D3180C331A68284B1B881B01D318D9680F23FB1871
:402500001A7813005B009B189B00CB181B88002B1AD11E4B1B881E4A1B01D3180C331A681C4B1B881B01D318D9680F23FB181A7813005B009B189B00CB187A6852881A8057
:402540000E23FB1801221A700F23FB181A780F23FB1801321A700D4B1B880D4A1B01D3180C331A680B4B1B881B01D3189B7A0F22BA1812789A4205D20E23FB181B78002B20
:4025800000D12EE7C046BD4604B080BDA41000208C0C0020A610002090B585B000AF78600C23FC1800F041FB030023707B68022B00D8B3E07B68302B00D9AFE05E4B1B7876
:4025C000DBB21A007B689A420AD35C4A0F23FB1812781A705A4A0E23FB1812781A703FE0584B1B78DBB21A007B689A420AD3564A0F23FB1812781A70544A0E23FB181278A0
:402600001A702DE0524B1B78DBB21A007B689A420AD3504A0F23FB1812781A704E4A0E23FB1812781A701BE04C4B1B78DBB21A007B689A420AD34A4A0F23FB1812781A7058
:40264000484A0E23FB1812781A7009E0464A0F23FB1812781A70454A0E23FB1812781A707B68DA1E0B23FB1841498A5C1A700B23FB181B782F2B0DD97B682A2B0AD93D4BEA
:4026800019221A60052000F0C7FA0D23FB1819221A7007E0374B1B68DAB20D23FB183F210A401A700B23FA180D23FB1812781B789A4208D22F4B7A68033A2D498A5C1A60D3
:4026C000052000F0A9FA7B68284A9A180A23FB1812781A70284B0A22BA1812781A60274B0F22BA1812781A60254B0E22BA1812781A60052000F0FEF80B23FA180D23FB18D5
:4027000012781B789A420CD91A4B7A68033A18498A5C1A60052000F07FFA02E0002000F0B7F80C23FB181B78180000F082FAC046BD4605B090BDC04640F3FF0F41F3FF0F5A
:4027400042F3FF0F43F3FF0F44F3FF0F45F3FF0F46F3FF0F47F3FF0F48F3FF0F49F3FF0F4AF3FF0F4BF3FF0F4CF3FF0F4DF3FF0F0C4D01002CFF0B4028FF0B401CFF0B404B
:4027800020FF0B4080B584B000AF78600023FB60154B154A126801210A431A60134B144A1A60144B134A1268802109020A431A607B68002B12D01023FB600CE0012000F0C5
:4027C00099F800F019F8031E02D00023FB6005E07B68013B7B607B68002BEFD1FB681800BD4604B080BDC04660F02E4078002E400220000010002E4080B582B000AF054B0A
:402800001B68012213407B607B681800BD4602B080BDC0460C002E4080B584B000AF02003960FB1D1A7080239B05FB60FB1D1B781F2B02D9002000F02BF8FB1D1B78103373
:402840009B00FA68D3181B68BB60FB1D1B7810339B00FA68D3183A681A60BB681800BD4604B080BD80B582B000AF0200FB1D1A70064BFA1D12781F210A40012191400A007E
:402880001A60C046BD4602B080BDC04600E100E080B582B000AF0200FB1D1A7001BEC046BD4602B080BDC04680B582B000AF786009E00D4B1B68180000F0AEF97B680B4ACF
:4028C000944663447B607A6880231B029A42F0D8074B1B687A685343180000F09DF9C046BD4602B080BDC046A80C00200080FFFFA00C002080B582B000AF0200BB1D1A80A5
:40290000BB1D1B88044A12785343180000F084F9C046BD4602B080BDA40C002080B500AF0F4B0F4A126801218A431A600C4B0C4A126802218A431A600A4B0A4A12683021E2
:402940008A4310210A431A60064B064A126807218A4301210A431A60C046BD4680BDC04600F02E4000FF2E4080B500AF0F4B0F4A126802218A431A600D4B0D4A12680721B6
:402980008A4302210A431A60094B094A126830218A4320210A431A60044B044A126801210A431A60C046BD4680BDC04600F02E4000FF2E4080B500AFFFF7B0FF044B044ADC
:4029C0001268802109060A431A60C046BD4680BD00F02E4080B584B000AF78600C4B1B6801221340FB607B68002B02D0012B03D005E0FFF793FF06E0FFF7B6FF03E00020C7
:402A0000FFF746FFC046FB681800BD4604B080BD00F02E4090B583B000AFFC1D00F005F903002370074B074A1268C02109020A431A60FB1D1B78180000F0FBF8C046BD4645
:402A400003B090BD00010B4080B500AF054B1A68C0231B02134001D0012300E000231800BD4680BD00010B4090B583B000AFFC1D00F0DBF8030023700D4B0D4A12680D494D
:402A80000A408021C9010A431A60094B084A126808490A40802109020A431A60FB1D1B78180000F0C6F8C046BD4603B090BDC04600010B40FF3FFFFF90B585B000AF786063
:402AC0000B23FC1800F0B1F803002370FFF7BCFF031E04D00123FB60FFF7C6FF01E00023FB607B680D4A13407B600D4B0C4A12680C4911407A680A431A60094B1B68FB680D
:402B0000012B01D1FFF786FF0B23FB181B78180000F08FF8C046BD4605B090BD0404040010020B40FBFBFBFF80B500AF344B1B68042213401FD0334B1B680422134017D0A6
:402B4000314B1B6804221340DA432E4B1B681A402C4B1A602C4B1B68042293431A002A4B1A602A4B1B68002B02D0284B1B6898470420FFF7A1FF224B1A688023DB00134036
:402B800022D0204B1A688023DB00134017D01E4B1A688023DB001340DA431A4B1B681A40184B1A60184B1B68194A1A40164B1A60164B5B68002B02D0144B5B689847802343
:402BC000DB001800FFF778FF0D4B1A688023DB02134011D00B4B1A688023DB02134006D00A4B9B68002B02D0084B9B6898478023DB021800FFF760FFC046BD4680BDC046A3
:402C000010020B40B40C0020B8100020BC100020FFFBFFFF000000000230800803D00138FDD1C046C046C0467047EFF3108072B6704780F31088704780B582B000AF78602D
:402C40000A00BB1C1A80BB1C1A887B681A60C046BD4602B080BDC04680B582B000AF78600A00BB1C1A80BB1C1A887B681A60C046BD4602B080BDC04680B584B000AF494B1C
:402C80001B78DBB21B02484A1278D2B21343FB60464B1B78DBB21B02454A1278D2B21343BB60BB68434A934207D1FB68072B04D1414BBB600423FB6009E0BA68D4231B019C
:402CC0009A4204D1FB68042B01D13B4BBB603B4BBA681A603A4BFA681A603A4B1B78DBB21B02394A1278D2B21343FB60FA6880239B019A4202D0FB68002B01D1334BFB600F
:402D0000334BFA681A60334B1B78DBB21B02324A1278D2B21343FB60FB68304A934206D0FB682F4A934202D0FB68052B01D12D4BFB602D4BFA681A602C4B1B681B097B60B3
:402D40002B4B1B68AA2B29D17B68012B26D9214B1B78DBB20E2B21D1264B1B78DBB29BB21B0299B2244B1B78DBB29AB2BB1C0A431A80224BBA1C12881A60214B1B78DBB204
:402D80009BB21B0299B21F4B1B78DBB29AB23B000A431A801C4B3A0012881A60C046BD4604B080BD59F1FF0F58F1FF0F5FF1FF0F5EF1FF0F580B0000580D00006C002E40AB
:402DC00074002E405BF1FF0F5AF1FF0F0220000078002E405DF1FF0F5CF1FF0F0F0F000005050000050F000080002E40EC0F00F0E00F00F06DF2FF0F6CF2FF0F84002E40C0
:402E00006FF2FF0F6EF2FF0F94002E4080B582B000AF0200BB1D1A80BB1D1B881800FFF769FDC046BD4602B080BDC04680B582B000AF78607B681800FFF736FDC046BD4621
:402E400002B080BD80B500AF00F0ECF8C046BD4680BDC04680B500AF00F0F0F8C046BD4680BDC04680B500AF00F0E8F8044B180000F0A2F8032000F0ADF8C046BD4680BDB4
:402E80008930000080B500AF034B180000F080F8C046BD4680BDC0468930000080B500AF014B1800BD4680BD0202000080B582B000AF78602B231800BD4602B080BDC046CA
:402EC00080B582B000AF78602B231800BD4602B080BDC04680B582B000AF78602B231800BD4602B080BDC04680B582B000AF78602B231800BD4602B080BDC04680B582B087
:402F000000AF78602B231800BD4602B080BDC04680B582B000AF78602B231800BD4602B080BDC04680B582B000AF78602B231800BD4602B080BDC04680B582B000AF786026
:402F40002B231800BD4602B080BDC04680B500AF2B231800BD4680BD80B582B000AF0200FB1D1A702B231800BD4602B080BDC04680B582B000AF786039602B231800BD4661
:402F800002B080BD80B500AFC046BD4680BDC04680B582B000AF786000F050F87B68180000F00AF8032000F015F800F03BF8C046BD4602B080BDC04680B582B000AF7860B0
:402FC000034B7A681A67C046BD4602B080BDC0460000002090B585B000AF0200FB1D1A700623FB600B23FC18FFF71FFE030023700B4B0B4A1268C0218A431100FA1D107843
:40300000FA68904002000A431A600B23FB181B781800FFF70EFEC046BD4605B090BDC0460CE400E080B500AF034B802252011A60C046BD4680BDC04600E100E080B500AF34
:40304000034B802252011A60C046BD4680BDC04680E100E090B583B000AFFC1DFFF7E5FD03002370074B074A126804218A431A6030BFFB1D1B781800FFF7DBFDC046BD4646
:4030800003B090BD10ED00E080B500AF11F06AFBC046BD4680BDC046002243088B4274D303098B425FD3030A8B4244D3030B8B4228D3030C8B420DD3FF22090212BA030C87
:4030C0008B4202D31212090265D0030B8B4219D300E0090AC30B8B4201D3CB03C01A5241830B8B4201D38B03C01A5241430B8B4201D34B03C01A5241030B8B4201D30B03D5
:40310000C01A5241C30A8B4201D3CB02C01A5241830A8B4201D38B02C01A5241430A8B4201D34B02C01A5241030A8B4201D30B02C01A5241CDD2C3098B4201D3CB01C01AD0
:40314000524183098B4201D38B01C01A524143098B4201D34B01C01A524103098B4201D30B01C01A5241C3088B4201D3CB00C01A524183088B4201D38B00C01A52414308B7
:403180008B4201D34B00C01A5241411A00D20146524110467047FFE701B5002000F0F0F802BDC0460029F7D076E7704703460B437FD4002243088B4274D303098B425FD3CF
:4031C000030A8B4244D3030B8B4228D3030C8B420DD3FF22090212BA030C8B4202D31212090265D0030B8B4219D300E0090AC30B8B4201D3CB03C01A5241830B8B4201D3AC
:403200008B03C01A5241430B8B4201D34B03C01A5241030B8B4201D30B03C01A5241C30A8B4201D3CB02C01A5241830A8B4201D38B02C01A5241430A8B4201D34B02C01ADA
:403240005241030A8B4201D30B02C01A5241CDD2C3098B4201D3CB01C01A524183098B4201D38B01C01A524143098B4201D34B01C01A524103098B4201D30B01C01A52415C
:40328000C3088B4201D3CB00C01A524183088B4201D38B00C01A524143088B4201D34B00C01A5241411A00D201465241104670475DE0CA0F00D04942031000D34042534022
:4032C00000229C4603098B422DD3030A8B4212D3FC22890112BA030A8B420CD3890192118B4208D3890192118B4204D389013AD0921100E08909C3098B4201D3CB01C01AA3
:40330000524183098B4201D38B01C01A524143098B4201D34B01C01A524103098B4201D30B01C01A5241C3088B4201D3CB00C01A524183088B4201D38B00C01A5241D9D295
:4033400043088B4201D34B00C01A5241411A00D20146634652415B10104601D34042002B00D54942704763465B1000D3404201B5002000F005F802BD0029F8D016E7704710
:403380007047C046014B18687047C0463C1000200E4B70B500251E000D4CE41AA410A54204D0AB00F35898470135F8E711F0C6FC084B00251E00084CE41AA410A54204D0D0
:4033C000AB00F35898470135F8E770BD484D0100484D0100484D0100504D010030B50024A24208D0035D651C0C5DA34201D0181B02E02C00F4E7002030BD002310B59A42A4
:4034000003D0CC5CC4540133F9E710BD03008218934202D019700133FAE77047134A1088810703D08107890F401A001D11791030484381B25088820703D08207920F801A98
:40344000001D800040180A494030098980B2CA0701D0503080B2890706D504495422091F09785143081880B270470000BE0C0020E410002010B501F005FF10BD10B501F0CD
:4034800007FF10BD10B500F055FA10BD10B50749044609780220002907D1204601F048FF002802D120460AF091F910BD5C0E002070B504460120002C12D02368002B0FD058
:4034C000616800290CD0074D06222889208118462968FFF792FF6968606809780170002070BD0000E4100020FFB585B0002768460E9D07734F481C460078002802D0082058
:4035000009B0F0BD10990F9801900095029105A807C800F001F90028F2D16946264603AB84460873002C19D0002115E08A00B75A082F09D990198078002805D0083FB752F0
:403540001878401C187005E0002914D00027B75290198770491CC9B2A942E7D360460028CED10F98002809D0109901F03BFA002804D00120C4E701208446EFE701F088FEAC
:403580002D480021416081600599016021888180022D07D3A1798171A17AC171A1890181218A418100211EE0481C19E082008B00A75AE65ABE46BE4211D26F463E80B446B1
:4035C0001E190296B678BE7001967646E6521719029EBB78B3706646A652019EBE70401CA842E3D3491CA942DED3134822460C3000906846037B0799069800F015F9002862
:40360000B8D168460B4C007B60700B480C3001F06FFE0028AED1084907480C3107F076F90028A7D107F090F90028A3D10121217066E70000B80C0020D8100020F8B505463A
:4036400033480E460078002802D002242046F8BD002E5BD000242F49002D16D02A89D0070DD02868002808D003881B3BE12B04D24088FB2801D81B2801D2012409E0900787
:4036800007D56868002804D1F7E70020088108604860002CDAD11F482F8907811C481B21801D018041800421017119490020891C0870F80705D016480622801D2968FFF719
:4036C0009CFE1449B80703D56A681148127882700F480D46801D0860001F486001F04EFE0B48801D01F03CFE28890DF007FA28890DF06EFB03461033FFF790FE1F21C018D9
:40370000890140180249308088809FE701249DE7B80C0020E4100020FFB58446384F1C460020BB883F78054602460646002F11D100290ED0029999420BD36146002908D009
:40374000002C06D00A99002906D02E4B0B99994202D2012004B0F0BD002144E0AB001F19BF78002F3BD0E35A002B38D07B43591889B22B0000F04AF8050410161C253100E6
:40378000A7782388BC46FF27233BEB37BB4222D26346032B1FD322E0A388002B1FD0302B19D31CE02389002B19D0282B13D316E0A289002A13D01346134F233BBB420AD23A
:4037C0000DE0268A002A0AD033460F4F233BBB4201D2964203D901200EE0002001E000280AD16D1CEDB2099B9D42B7D31C2463435B1802998B42ACD89642AAD8AAE70000F7
:40380000B80C002079020000BAFF000030B47446641E2578641CAB4200D21D46635D5B00E31830BC18470000FFB583B0002469460C801F4606468C80002806D005980028EA
:4038400003D004983043800701D0012466E0002FFBD03449049809888842F6D3FFF712FBFFF7F8FA00F012FC002855D100F07AFD002851D12C49084601F0E8F805042D0CAE
:403880004AD12A480499066081800021C18007810C98007AC00704D0684601F012FD040007D10C98007A800703D501A801F012FD0446BF1DFEB2002C20D13146059800F02D
:4038C0005DF804001AD10DF091FA040016D16A461088928808368518144AF1B29088D288AEB29319984207D3401B801A80B201F09DFB050007D000E0FF25012400F05EFAA4
:40390000002D04D008E0F8B200F01CF9F6E700F081FA07490120087000F0CAFB204607B0F0BD0000BC0C0020693A0000F0100020C40C002010B503480078012801D101F030
:4039400017FA10BDC40C002070B5084B0446DA889E8800205518B54206D81D68AA182260DA885118D98070BD032070BDF01000200148008970470000F0100020F0B587B0BE
:4039800007460D4600208900009006916846FFF7DBFF844600285DD1304800990160002117E02E4B88001A680629115406D22C4C0419667882185670628805E0C419203CA5
:4039C000A67A8218567022891B68C018491C4280C9B2A942E5D300242DE0601CC2B2059025E01E4FA30039689600581840887118039604904E88B04217D938466F46FE80A3
:403A0000B6464F786E4677710297049F4F800168039F5E18767879184E700168764659184E800068029F18184770521CD2B2AA42D7D30598C4B2AC42CFD36046002809D137
:403A400068460699FFF780FF8446002802D1054900980860604607B0F0BD0000C80C0020704D0100CC0C00207047000010B5002809D005494A68002A05D0011F0878800021
:403A8000105801F081FA10BDC80C002010B50446FFF76EFFC0B2801DA0420CD307484068002808D0A100405801F0E0F9002801D00470001D10BD002010BD0000C80C0020FD
:403AC000F8B516460D460446FFF752FFC0B2801DA04203D20020C0430090F8BDB2B2E9B2684601F0E9F90099481C03D0024AA000526811500098F8BDC80C0020F8B5074619
:403B0000FFF736FF801DC6B20A49002005460C680DE06178002907D06188B94202D32078FFF7B4FF002804D1241D6D1CEDB2B542EFD3F8BDC80C002010B5002801D0FFF7D7
:403B400095FF10BD70B506460948002504680BE06178002905D062882078121D0023FFF7AFFF241D6D1CEDB2B542F1D370BD0000C80C0020FFB581B00A9F16000C4620D02C
:403B800000F0F2F8054604281BD0002F0CD03846FFF7B4FF20492A0151184860002810D03A460499FFF729FC1B4928010E504618778101980570200406D47D20C000444381
:403BC00004E0FF2005B0F0BD6404640C00F0BAF80746042807D000F04FFAA0420BD800F04BFA201A03E0204600F0AAFA0020F06035720020E6E700F03FFA009000F0B6FAEF
:403C000000980121001B009000F0ECF802493A0151180098C860E6E7FC100020F8B5060116483418217A042903D0E068002802D017E00020F8BD00F01FFA054600F096FAC8
:403C400000F0A0F804280CD001010C480F18F8680021451900F0C6F80020F860284600F06FFA6068054D002801D0FFF765FF042020720020A8516081E060DAE7FC10002021
:403C8000FEB500266A46304601232549050169180D7A042D02D0C96800291BD000211154401CC0B20428F0D300246846005D002830D01B4821010818418947680568029165
:403CC000002101604160042241810272C160002E02D015E01354E3E700F054F804280ED001010F4808180190C6680021304600F079F801980021C160304600F021FA012605
:403D0000002D07D038460299A847002F02D03846FFF712FF641CE4B2042CC6D3FEBD0000FC1000200EB5002005216A460090118150810348694600680DF0BDFE0EBD00009A
:403D4000D00C0020074A0020010189180B7A042B02D0C968002903D0401CC0B20428F3D370470000FC1000200549002002015218127A042A03D0401CC0B20428F6D37047FB
:403D8000FC10002030B50A4B04200A4C00210A011219157A042D06D0D268002A03D09A4201D808461346491CC9B20429EFD330BDFFFF0000FC1000207047000030B5002001
:403DC000074C05460423020111190B72A5504D60401C4D81C0B2CD600428F4D330BD0000FC10002030B5094C00231A011219157A042D04D0D568002906D02D18D5605B1C79
:403E0000DBB2042BF1D330BD2D1AF7E7FC100020002070471CB5002469460C70142001902346054A05480DF04BFE04480068401C00D1FF2420461CBD913E0000D00C0020AF
:403E40003EB5124A0146FF2000230124126800290DD0012914D0042908D104206946009308814B8110460DF026FE80B23EBD6846009304814381694610460DF017FEF4E7D6
:403E800068460093048143816946EBE7D00C002070B545890468416800890300FFF7B6FC08280509091E22282628002005F0F0FB1EE0022908D0C8B22A4621460BF08AFFEC
:403EC0002046FFF739FE13E002202A4621460BF081FF2946204600F00DF809E000200DF0E9FA05E02046FFF7CBFE01E0FFF74AF8002070BD014B0022DB681847D40C002095
:403F000070B5448905680089022803D0032809D0FF2070BD2246094C0023A46829460120A04708E0FFF7AAFA241DA2B200232946022006F09EFB002070BD0000D40C002042
:403F400070470000024800214160018041807047D40C002070B50C46002186B016460391012802D0022859D116E003A9012006F0D5FB01281BD1039D324621462846FFF7F7
:403F80003CFA0095287801900220694608814E816846FFF7B5FF41E0214D002B686809D0049004A9022006F0B9FB01281DD0022006B070BD002812D0298840182146FFF789
:403FC0001CFA28880024801980B228806988091D884206D12C801348FFF792FF03E00320E6E788421AD96C6018E004986860E278A378110219430B4A698000231060E35678
:404000005360032313815181A1788170E178C1706178417021780170042028800020C7E7D40C00203C1100203EB515460C46022803D004280CD000203EBD0091019002200E
:404040006946088107484A8100680DF034FD07E00BF0C0FE044B0022DB6829462046984701203EBDD00C0020D40C0020014AD16090607047D40C0020034801688068081A57
:404080000A214843000970474811002010B5FEF7E9FE482204490548FFF7AFF903490120C870002010BD00008C4D01004C15002010B5FEF7C7FE10BD70B5134C2368002B5B
:4040C00008D0207B1149C20705D04008400020738868A08070BD88680B4AA18880B29268814203D90A4D691A091802E0814202D2411A5118A160A080A0689842EAD30DF0CF
:40410000F7FC00F013F870BD48110020C0102E40FFFF000010B508461946FFF7A7FF10BD704710B5FFF780FF10BD000003480021016041608160C160704700004811002076
:40414000024610B5FF20002A0CD0FFF7EFFF064C0321207B0843207310010A21FFF722F82060002010BD00004811002000B504480A21806848430209FFF7D8FF104600BD7E
:40418000481100200248007B8007C00F704700004811002010B54B490868002802DA4A4B01221A70022290430860484800694549C00B4031096A0246C907C90F0A4259D032
:4041C000012000F097FA3F480E216C30FEF744FD3E4820218430FEF73FFD3C4814219C30FEF73AFD3948FF21C131A430FEF734FD3648FF212F31B030FEF72EFD33483449B5
:40420000BC30FEF729FD31483249AC30FEF724FD30492E48491CB430FEF71EFD2B482E49B830FEF719FD29482C49CC30FEF714FD26482B490830FEF70FFD24482949A830B3
:40424000FEF70AFD214828498830FEF705FD1F4826498C30FEF700FD1C481921C9029030FEF7FAFCFEF708FDFEF718FEC0B2022812D01FE000290BD0002101420AD0114804
:4042800001216030FEF7E8FC0120FEF7CFFD97E70121F2E7FF2010BD15491648FEF7DCFC14481549001DFEF7D7FC124800210830FEF7D2FC54200449C043891C087000208D
:4042C00010BD000000F02E40E40C002000002E40320300002F3F00003102000010520000EC160000FA12000031D000003AE300009956000080012E40F80F000070B506465B
:40430000581C80B245086D00002408E0304600F0C1F81055000A1119A41C4870A4B2AC42F4D3D80705D0D0182038D15CC47FD454C17770BD30B50A4C002100195B1E07E010
:40434000541864782502545C2C430480891C89B29942F5DB994201D1515C018030BD000000102E4010B5FF2000F0C4F90F49FF2048700E481021801D418001214170017071
:404380000A490020C91C4870FFF704FF04000AD100F010F907210648FEF74EFC044807211830FEF749FC204610BD0000E40C0020CC112E4070B5002405465B1E0AE028467E
:4043C00000F068F8010A161971702D1D1055A41CADB2A4B29C42F2DB9C4203D1284600F059F8105570BD000070B500210A4D5B1E0AE0541864782602545C344346193480E6
:40440000001D891C80B289B29942F2DB994202D1515C4019018070BD00102E40F0B50599091FCFB200217E1E0BE0541864782502545C2C43164D45192C80001D891C80B242
:4044400089B2B142F1DBFC0712D01C78515C24020F4A0C4381180C809C785D78001D210280B2294384182180001D80B2D9780CE059781A7809021143054A84182180001D2E
:40448000D9789B78090280B2194380180180F0BD00102E40014940180088704700102E4010B50B490020487000F084F8002000F047F9002000F034F907210648FEF7BCFB50
:4044C000044807211830FEF7B7FB002010BD0000E70C0020CC112E4010B50B46062812D006DC01280CD0032801D1FFF7D9FF10BD0A28FCD00B28FAD105480078107010BD5B
:40450000FFF730FF10BD1146184600F035F910BDEA0C0020F8B5244DAC6A0127A007234E002816DA307806280ED1286A384328621F480069F903084381B21D481030FEF717
:404540008BFB042000F0D6F8174802212830FEF773FBE00718D000F01DFF01280FD1002000F06AFF062000F0C5F81049FF20C91E48707078002802D1686B384368630A4801
:4045800001212830FEF758FBE0050BD53078042802D1052000F0AEF80348FF2101312830FEF74AFBF8BD000040F02E40E70C002000002E4010B503212348FEF74DFB01205D
:4045C000FEF724FC20483038406A204C80076178800F890001431C480C38FEF73DFB6078002808D0401E022181401820FEF7C4FEC000083800E0B82081B21548FEF72CFBC2
:404600001348032109021438FEF726FB10481149B830FEF721FB612189010F48FEF71CFB0D480321001FFEF717FB0C490C48FEF713FB0B480B496038FEF70EFB084801217A
:404640008838FEF709FB10BD70F02E40EA0C0020D8102E4090890000041E2E40FF0F000058122E40209000000849087806280BD148780749002803D1486B4008400048636E
:40468000C86A01221043C86270470000E70C002040F02E400148007870470000E70C002000B50300FFF7B2F8080D050D0B070507090D012000BD032000BD042000BD0220C1
:4046C00000BDFF2000BD0000074A9168D26889B2064B92B2994204D105498A4201D1012100E000210170704780002E4033D000003FE3000010B50446FEF7ACFB072C01D91B
:40470000FF2C01D102480470FEF79CFB10BD0000E70C00200149487070470000E40C002010B5064A012805D01921C9021046FEF793FA10BD1D21C902F8E7000090002E40E6
:4047400010B50A4A141D012808D009491046FEF783FA08492046FEF77FFA10BD04491046891CFEF779FA0349491DF3E788002E4031D000003AE3000070B50C460546FEF7DB
:404780008DFBC0B202280E49287804D0FF2810D04C280CD810E0FF2809D10A4AD0680004800F032801D0087807E09069000A553803E00878207070BD4F382070087070BDCC
:4047C000E60C002000002E40F0B50122002834D0002932D00424420600D00524792342065B06D21800D0641C034600221EE00C2516466E43124D00277519AF72104F002ACD
:40480000BB51696007D0661EB24209D10D4E86197606760E05E05E06760E8027BE1B00E080269B198919521C2E81D2B2A242DED303480549006B002288611046F0BD00000F
:40484000D413002079020000F00C002018B50020694608700A48006900280ED0132149014018047E684604704F21C900054800F059F8A04201D0012018BD002018BD0000E6
:40488000F00C002058110020074900200C2242435218927A012A05D0401CC0B20628F5D30020704701207047D4130020F8B50E000446154609D0194F19497868A04202D9A0
:4048C0004018A04201D38D4201D90120F8BD31462046FEF783FD00281ED02A4631462046FEF78BFDE8B200210C224A43D21913895568EE18A6420BD90126641B1B1B967289
:40490000834209DA1469C01A044AC0B220329676491CC9B20629E7D30020F8BDD413002079020000034610B50020024604E09C5C2018521CC0B292B28A42F8D310BD000028
:4049400070B500F05FF8084C064A216907480D46FEF753FD05492846FFF736FFFFF776FF207070BD79020000F00C002058110020002070470020054A002902D0012902D04A
:4049800002E0906000E0D06000207047F00C002070B5084C154608460549E26889182A46FEF72BFDE0684019E06028B270BD000058110020F00C00203EB50A226946FFF7E9
:4049C000E7FF044606480A2200686946FEF706FD002802D00020C0433EBD20463EBD0000F40C0020002802D0044A914201D2FF20704703494A6108610020704779020000EF
:404A0000F00C0020024800218160C16070470000F00C002070B5074C15460548A26880182A46FFF743FFA0684019A06028B270BD58110020F00C002010B503490A220968F5
:404A4000FFF7E8FF10BD0000F40C002010B50F4A002313600E4A13600E4B18600E4801600E49012008600E490860000290600E490C4808600D4914300860FF38153850608B
:404A800000F0BCF800F0CAF9002010BD240D00200C0D0020380D00203C0D0020280D0020180D00201C1500201C0D0020300D0020014610B50020002910D0094B1A689C68BA
:404AC0005118A14209D25868196080188A0704D08A07920F891A091D196010BD002010BD0C0D0020F8B50024164E671E321F3D463168136806E01422624310328A58521CFD
:404B00001BD0641C9C42F6D36A1C14D02C461422544322460C3288500C214843FFF7C8FF3168002808510AD031680020103408517068401C70602846F8BD2546E4E73846A2
:404B4000F8BD00001C0D0020F3B50026F64381B000281BDB1E490968884217D80299002914D01B4F142204463F1D54432546396810354859401C09D0FEF76CF938682F1F5C
:404B80004159C359994203DBFEF75CF93046FEBD214608310091465801590C20704308180C220299FEF729FC0948761C001D0068C159B14200D100260549009A091D8650B0
:404BC00008684159491C4151FEF73CF90020FEBD180D0020002803DB07490968884202D90020C043704704491422091D096850431030085870470000180D0020F0B5002016
:404C00000D4A451E0346171F50600FE014260146714314680E1DA3510C461668083433511668083435511468401C635039688842ECD30020F0BD00001C0D0020F3B5002663
:404C4000F64381B0002841DB2349096888423DD8029900293AD0204F142204463F1D54432546396810354859401C2FD0FEF7F2F83868415900292BD0211D009146580C21F6
:404C8000005971430F46C1190C220298FEF7B5FB11480021001D0068761C00590C34C0190160416081600C48001D00680159B14200D100260849009A091D86500868415957
:404CC000491E4151FEF7BEF80020FEBD3046FEBDFEF7B8F8FAE70000180D0020FEB504460D4600201E49089E0860471E009001900290002C11D0486885420ED2002A0CD0D2
:404D0000002E0AD0642E08D808460C3001681C2068430C18207A002801D03846FEBD0120226020721846FFF7DDFE6060401C13D06681A6810A4827610C3067610179A9427B
:404D400000D205710021684601810A462846029B00F040F82846FEBD00202072DDE70000240D002038B50124009400F039F838BDFEB50027164EFF433D4600240EE01C201A
:404D8000316860430818017A002906D04068FFF721FF002801D0254603E0641C3079A042EDDA681C12D01C2130684D434419FEF751F869466068FFF741FF0546FEF742F8B9
:404DC000002DD9D1216868468847D5E7FEBD0000300D002038B50024009400F001F838BD1FB500220C49541E0A60002811DB496888420ED808491C220C31096850430818F3
:404E0000406801A9FFF7A0FE401C02D0002004B010BD2046FBE70000240D0020F0B50021114A4D1E174611710C3F0B46BD6016E008461C2460431668041D355114680646EC
:404E4000235014680836A3551468361DA353044616680A34335318301468491C255078688142E5D30020F0BD300D002038B500210091002811DB0F49097888420DDA0D4D02
:404E800004010C3529680859002807D0201D0818694600F06FF9002801D0002038BDFDF7D9FF28680F34015D491E0155FDF7CAFF009838BD400D0020F7B582B0002502983B
:404EC0006E1E06602E48D21C024017462D4A2C4610460C380178106805E02301C358002B0FD0641CE4B28C42F7D3711C28D03401211D40180191039900F02AF900281FD1C4
:404F000001E02646F1E71F48016820460C300F521C480399026820460E30115419480399026820460F3011540398784300F0A0F8144900280968085102D00024009011E0F1
:404F400001251AE00F48016801980818009900F02CF9002801D0012502E00098C0190090641CE4B203988442ECD3002D05D10298066004480179491C0171284605B0F0BD42
:404F8000FCFF00004C0D0020F8B50D4600216A468C461180002839DB23490978884235DA214B04010C3319680A59002A2ED020460C300B5A801C0E5C1846704380189542FE
:404FC00024D3854222D2002006E007465F43BF18AF4206D0401CC0B2B042F6D36046002814D0114E271DC8190C366A46294600F006F900280AD168460088012808D030688B
:405000002946C01900F0D1F8002803D00120F8BD0020F8BDFDF71EFF30680F34015D491C0155FDF70FFFF3E7400D0020F8B50F46002400F031F8002817D10C4900220B4664
:405040000C334A600EE021011D680E466A501D680C36AA53B61C1D680F31AA551D68641C6A54E4B2BC42EED31A71F8BD400D002000280BD0C01C074A8108506889005388B0
:405080004118994203D89368516018187047002070470000400D0020F8B5064600200F4D009029700C0121466846FEF74DFC00280CD129460C3100980860301B001F84B2BB
:4050C00021466846FEF740FC002801D0FF20F8BD6C800098A8600020F8BD0000400D0020F8B5002827DB19490978884223DA174C05010C342168485900281CD028460C30BD
:40510000085A009028460E300E5C401C0E5420682F1DC01900F064F800280CD12068002445590EE0094829460C300068C01900F03CF8002801D00120F8BD00982D18641CE6
:40514000E4B2B442EED30020F8BD0000400D002030B50D4604000BD0A800FFF789FF6060002805D000202570C0436080002030BD012030BD70B50D46040005D0002D03D0A2
:405180000220205E002801DA012070BDFDF762FE0221615E60688900405828606088401E6080FDF74FFE002070BD70B50D46040007D0002D05D002212078615E401E8142B3
:4051C00001DB012070BDFDF745FE6088401C00B26080616880000D50FDF734FE002070BD10B5040009D0227800216068FEF70EF90020C0436080002010BD012010BDF0B5BB
:4052000000231D46002802D00224045F0AE00120F0BD46689F00F6598E4201D1012503E05B1CDBB29C42F4DA15700020F0BD00000148007870470000540D00207CB50546EF
:405240000024FEF71BF9A8796946087000A8062229460130FEF7D1F80021684604F0DEFC0C2806D0072806D01F2806D0122806D006E0022404E0042402E0272400E0012468
:4052800020467CBD01480121417270475416002010B500F05FF9FFF7FDF9FFF701FA10BD70B504460025FEF7E9F8002C06D0A079012803D8214602F07BFC00E0012528466C
:4052C00070BD01460120002902D05020088000207047000001460120002905D003485422007850430880002070470000560D002010B502460D49FE204870032410460CF089
:40530000FDFE002810D10CF0A1FE00280CD105F061FA002808D100F013FB002804D104F023FF002800D10024204610BD540D002070B50025044600280ED0A07901280BD8D7
:40534000FEF79CF8A0790028204602D002F0D6FF03E002F0ABFF00E00125284670BD0000014610B50120002904D006220248FEF744F8002010BD0000600D00200146012095
:40538000002903D0087802490870002070470000560D00200148007A704700005416002038B504460120002C20D0617801291DD800290BD0FF25E535FEF760F80C482818C1
:4053C0000088C0B22070072803D00EE0FF25CD35F2E70020694608706846FFF775F969460878012801D108202070002038BD000000102E40014A002192681047540D002028
:4054000008B500226B461A7026280CD0094A342852680BD0352805D1900703D50021352005F0B4FA08BD19462620F9E7D007F9D03420F5E7540D0020014908727047000013
:4054400054160020F8B504460120002C26D06178012902D92278092A20D8002905D0FF25E5352078092803D004E0FF25CD35F8E708202070FEF702F82078114F114E0828D6
:405480000DD00020FFF75CF970780128207810D00D4969180880FE2070700020F8BD0120FFF74EF90720B8810549203188800120F2E7B8810248217820308180EBE700004B
:4054C000C0112E40540D002000102E4070B50E46050001D0002400E00C4C002C11D0E28A500609D5D107C90F022002F09BFFE08A40218843E08204E0D107C90F012002F019
:4055000091FF3146284602F079FC70BDB4150020F8B50546002004460D4E009013E022466946284600F0D6FF0098002801D00CF0C7FDA878214602F099FAA878214602F019
:4055400087FA641CE4B2308AA042E8D8F8BD00008016002038B51E4CFFF79CF8042813D0052811D0062812D003282AD007280AD100206946087002460120FEF7ADFFFFF749
:4055800089F80128FBD138BD00F077FB38BD02F0C3FA00F072FB02F03FFB8007800F0228F4D10C4841880029F0D05B21095D0029ECD101210170A07D0140022002F032FFE8
:4055C00038BD02F0ADFA0120FFF794F838BD0000B41500207A0D0020F8B50646002402F08FFF0546304602F0A5FF03460A480021068A0DE001228A401046174628401F4061
:40560000002803D0002F01D1224394B2491CC9B28E42EFD82046F8BD801600201CB50020694648706846FFF7BBFE01AA69460A20FEF752FF6946042008561CBD70B50D467A
:4056400001F028FB04000BD02079002808D0FDF715FFE178A0782A4602F056FC002070BD022070BD01480078704700008C1500204030C07E002800D00120704700B500F079
:4056800001F800BD902148430749084A40186030417F491CC9B24177D289914201D300214177C8B270470000941500208016002013B501F0EFFA04000BD001F08CFE002867
:4056C00007D0214601AA0A310620FEF705FF00201CBD02201CBD000010B50C4601F0DAFA00280AD001F077FE002806D0224604490A20FEF7F1FE002010BD022010BD000092
:4057000075150020F3B581B0074601460026029802F0EEFE0446002F01D0002500E0154D002D21D0284601F0EBFA032C04D13946029802F039FF06463846029902F088F982
:40574000032C06D0002C10D00121384601F0DEFB03E03146384603F025F9284602F06CF80221284602F082F8FEBD3846029902F06FF9FEBDB415002010B5044600F066FAD3
:40578000002804D103F0D8FD002801D00C2010BD2078611C02F0BAFCFF2801D01F2010BD02F000FDFF280AD02178621C02F0DEF8044821780068026B601C904710BD0720A1
:4057C00010BD0000A00D002010B503F0B5FD002801D00C2010BD02F07BFC03480068C06A8047002010BD0000A00D002070B50D46044610210CF0A4FB1021601806460CF06D
:405800009FFB334610221946204603F0C3FD102130460CF095FB02202870204604F0DAFB70BD0000F8B504464078217802028006870FE0781143A67809050002090D0643C1
:40584000084601F027FA00210546F2B2002812D0002C10D0022F0ED0032F0CD0002A0AD00279092A07D0002A05D0134A5A23527E1B5C9A4207D82889002104F0E0FA20461B
:405880000CF01EFCFF21002914D10C48224600682946436930469847C0B2FF280AD128464030817EF2B2491C8176FF232146284600F0E3F8F8BD00004C150020BC0D0020DE
:4058C0000020704710B5044603F036FD002801D00C2010BD2078611C02F018FCFF2808D002F050FB044821780068426B601C904710BD1F2010BD0000A00D002010B500F0AB
:405900006BF904F031FC002010BD10B5044600786178E2780843A17811430843217908436179084305D003F0F9FC002803D00C2010BD122010BD204602F0E0FC002010BD5D
:4059400010B5FDF7ABFA02F0FDFD044803F060FD02F022FB012000F003F810BD5C150020F1B586B003A8009005A8019028489F22817A114081726846FDF79AFD002845D18C
:4059800069460989C90705D0224806990068C2686846904769460989890706D5002835D11D480068816A0698884700282ED11B4E0025757075737571F57535767576757590
:4059C000B570F570B5713746F5730120D03738731F20F880FF2130467972A0300176457600F0D0FA00242046069901F09FFC002803D1641C2406240EF5D0FD720749BD720B
:405A0000B573C0310D704D704D600D7207B0F0BD4C150020BC0D0020A00D00209415002070B505460E46084602F06AFD0446304602F080FD0121A9400A46224001400A439E
:405A400001D0012070BD002070BD10B50446084602F070FD0121A140014201D0012010BD002010BD10B5FEF715FE032804D102F057F80120FEF73EFE10BDFEB51C4616466E
:405A80000F46054601F0D8FEA878FFF7F7FD02460190334639460094284600F00DF8002808D1A8780199FFF711FDFF2C02D138460CF006FBFEBD0000FFB585B005460E98E0
:405AC0000C46FF2810D02B49C00009680A5840180179C0795278814201D9012601E09006860F6846038108E06078A1788006860FE0780002014368460181284601F076FCDC
:405B0000070007D021462846079A00F077FC384609B0F0BD304600F025FD04AE0346039002AA29460096204600F0B1FB3C20405D002818D0284601F059FC012813D068468A
:405B400000890096C0B20190A878231DFF22079902F008F968460089039BC2B2A878079902F048FCD3E7684600890021C0B20091E9E70000B80D0020F8B500260025304678
:405B8000FFF72AFD07001DD090201149704340186030447F12E0601CFDF704FBCCB23846E040C007C00F07D02146304601F048FF21463046FFF7A6FD6D1CEDB20548018AF7
:405BC000A942E8D8761C3606360ED7D0F8BD0000941500208016002010B502F0DDF90020FFF7BEFE0CF002FB002010BDF8B5002400F0B2F80123012800D10124104F00209B
:405C00003E4620360425082203E0002801D0002100E031460979002907D001290BD002290BD0114681402143CCB2401C0006000EEBD07C70F8BD1C43F7E72C43F5E7000008
:405C40009415002010B5FFF7D1FF10BD10B5044604F0DCFB002802D1601C00F001F810BD1CB500240094062269460194FDF7B6FB002800D1122420461CBD10B5FCF7D5FF68
:405C80000446FEF707FD012809D0FEF703FD022805D0FDF7DFF92046FCF7CBFFEEE72046FCF7C7FF10BD10B50B4681791943817103D08078114602F06BFB10BD10B5827996
:405CC0008A43827102D1807802F076FB10BD000030B50C4C0220A28A0B4B9978002901D0022906D11D785B78EB18282B01D9032002E0032900D101205105490DC00201438E
:405D0000A18230BDC0112E40700D002000B500F029F8002807D0012805D0032801D0042801D0002000BD012000BD014600B50020C90701D000F010F800BD014600B5002072
:405D4000C90701D000F008F800BD00000148006870470000680D002001480088000A704720102E400448008B410501D5042070474007800F7047000000102E4010B501F019
:405D800011FF044601F04EFF0146204601F032FF10BD00000148406870470000680D002038B50446000610D5FFF7DCFF01280CD1684601F0C5FE6846007800F023FB0120C2
:405DC00001F0A2FD0220FFF73DFF600708D507480179012904D1002101712620FFF710FB0348006801692046884738BD740D0020A00D002070B505460C490078002408704B
:405E0000FFF7AAFF012803D1FFF7B8FF022803D3284602F0DFF907E0284600F0EBF8040002D1034801210170204670BD700D00205416002070B50446FFF78EFF002801D05F
:405E40000C2070BDA27B01211F48002A827801D00A4301E05208520082706279012A14D0C17849084900C170184D2868016820468847207901280CD06188208803F00EF8B9
:405E80002080207904280FD015E0C2780A43C270EAE72868C168E01D8847E01D02F01AFA0B48808C208006E02868C168E01D8847E01D02F00FFA074920798870204602F0FC
:405EC00097F9002070BD000094150020A00D00204C150020700D002008B50178FFF73CFF814201D10C2008BD002914D0072069460870FFF70BFF012807D10121684600F008
:405F0000D9F8012801D0092008BDFFF7E1FE02F0A3F9012011E0FFF7F9FE012806D1684601F00EFE6846007800F0A0FA02F08AF9FFF712FF0028FBD10220FFF783FE0020C2
:405F400008BD000070B505460C49007800244870FFF702FF012803D1FFF710FF022803D3284602F0F5F907E0284600F05DF8040002D1034801214170204670BD700D00203D
:405F80005416002038B568460CF030F8002801D01F2038BD01210098C90201804180002505714571857107214173857302F020F9009C202200212046FDF728FA25702A46FE
:405FC0000021601CFDF722FA204602F003F9204602F0BEF900980CF073F8062200210448FDF714FA02480C388560002038BD0000740D0020F8B504460025684600950BF078
:40600000F5FF002801D007250AE0064E009830602278611C401CFDF7F0F93168207808702846F8BD680D0020F8B504460025684600950BF0DBFF002801D007250AE0064E99
:40604000009870602278611C401CFDF7D6F97168207808702846F8BD680D00200346084800B5834209D8184600F014FE002804D00089984201D1012000BD002000BD0000A1
:40608000FF0E0000074A9179491C8906890E917138220A4092014907090E1143084302490840704794150020FF0E0000C006C00E70470000F8B507460E4600240D4803E099
:4060C000002C01D0002500E005462979002905D0641C2406240EF3D00020F8BD0021204601F024F92E712046FFF7CCFF28813C700120F8BDB415002010B503F07FF902227C
:40610000002100F003F801F0F3FE10BD10B5094B40074907000F090F185A595A40185043C0086421FDF73EF8002800D1012080B210BD0000D44D0100F7B53D20405C88B02E
:4061400015460C46002802D02878042802D200200BB0F0BD6946087200262046FFF788FA012800D00126204603A938300191009023460327A17E34333246206A03F062F9FE
:4061800002A8089900900B46019120463A4603A9243003F0DFF802466846007A2870204601F0B0F81046D3E7FFB587B00C4605461078694608723D20005D1746002826D0EC
:4061C00000262046FFF754FA012800D00126204603A93830019100902346A17E34333246206A03F02FF902A80090291D019120462B1D03A924300A9A03F0ACF8020068465C
:40620000007A388002D1204601F07CF810460BB0F0BDF0B505463C20405C89B016460C4600280CD0307869460873002806D000272046FFF71DFA012803D003E01F2009B0BC
:40624000F0BD012703200890204604A93830019100902346E17E34333A46E06903F0F2F86846007B03A928180290009120462B46019504A92430089A03F0A0F80246684653
:40628000007B3070204601F047F81046D7E7FFB505463C20405C89B016460C46002810D0084601F0A3F801280BD0308869468883002809D000272046FFF7DAF9012805D08E
:4062C00005E000200DB0F0BD0220FBE70127204603A93830019100902346E17E34333A46E06903F0AFF8291D2B1D07A8129A6D4607C5204603A924300C9A03F05FF80246CF
:406300006846808B3080204601F006F81046D9E770B50D460446FFF7ABF901280AD0E87AA97A00020143A07801F0DEFC012808D0002070BD00222421204602F001FD24202D
:4063400070BD28214C200155204600F0B1FB282070BD0000002801D0002000E003484030C07F012800D0002070470000B41500200146002049070ED50021084B03E00029A8
:4063800001D0002200E01A461279022A04D0491C0906090EF3D0704701207047B41500200146002049070ED50021084B03E0002901D0002200E01A461279022A04D0491C1C
:4063C0000906090EF3D0704701207047B415002010B5044680346068002803D00BF084FE0020606010BD403041707047403081707047403001707047017170479200101821
:40640000C166704770B53C2501F096F9040004D020460021433001F01BFCFF222946204600F0E2FB002C02D0A07801F007F970BD10B5002801D0002000E00348002802D0A4
:40644000008903F043FD10BDB415002010B5002801D0002000E00448002804D00179072901D100F047F810BDB415002010B501F063F9002802D0807801F0E0F810BD002089
:406480007047000070B50546008A00281ED01049F122897A1140C90618D5294640314A8A098A521C4A4392B2D10800D10121540801E0621A94B2A042FBD9FEF7B9FE0128BD
:4064C00004D1298AA878224601F0D4FC70BD00004C15002010B50023054C0B60248A944204D992001018C26E0A60C36610BD00008016002038B5044600200090A0790028F0
:4065000014D14020015D052901D00E290ED168460BF07CFD002809D12046009902F0EEFB03481021C28A2046FFF7BDFB38BD00004C15002010B50B4604460146184602F05C
:4065400067F8002802D020460BF0C4FD10BD13B5044601AA11460620FDF7BEFF6846818861811CBD002800D10220704770470000F8B504462346401D543300909A1EA07849
:40658000911E01F0F9FA25464035A88A298A8000FCF708FE401E81B2688A884203D96982A07801F079FF698A8C20015120460021433001F04DFB27480088E88102F01EFFE2
:4065C000E989891C8AB26179FFF7A0FD01F090FC02F014FF2A8A6179FFF798FD074601F07BFC688A002806D01B49088A032212021043088202E0002001F042FF1648803845
:4066000001886E8A002E0CD0304648431349FCF7B3FE0004000C01D0401C80B21049488002E00F4800214180288A704381B2A07801F09CFEFF2228374932B9B213462046C3
:4066400002F030FCE98AA07801F010FEA07801F01FFAF8BD80102E40E0112E40710200007A0D00207FB504468034616805460E46183108226846FCF7C0FE314620310822C6
:4066800002A8FCF7BAFE102168460BF059FC6068102108300BF054FC60682B46083024331022694602F076FE7FBD10B504460821FFF704FB10212046FFF700FB2079052814
:4066C0001FD006281DD008281AD12189002003F075FB072020712046FEF7CAFF014620464030012913D00E21017000210176204600F0B6FF2046FFF76BFE2046FFF7C2FE1E
:4067000010BD20890122002103F03CFBE1E70521EAE70000FFB581B01F4604460821FFF7CDFA10212046FFF7C9FA2079082803D0092804D0042203E00422012501E00922EA
:406740000025204600F03EFE264600204036307022712046FFF73CFE0398002D02D0012808D00BE001280AD120890022029903F009FB04E02189029803F020FB0127002032
:406780003076012F04D0204600F06AFF05B0F0BD02983073204602F0FFFA054605480121C28A2046FFF77FFA002DEFD109202071ECE700004C15002070B50C460546FEF7F3
:4067C00057FF012809D108212846FFF777FA0023012221462846FFF79DFF70BD10B5044600F0F0FD2046FFF7F3FD00214034217010BD70B505461A24FEF73AFF012809D15E
:4068000008212846FFF75AFA0023012221462846FFF780FF70BD0000F8B50446002000900E4668460BF0F2FB002801D00D20F8BD8420005908212030009D00F026FA2046C5
:406840000421383000F021FA002E02D1204600F0F5FD2946204602F0E0F90E480821C28A2046FFF720FA204600F06BFF25464035002808D0204600F023F8002801D0092023
:4068800028700020F8BD08202870204600F0D4FFF7E700004C150020014610B540310A460978082906D0092907D00A2901D100F091F810BD0B20107010BD00F001F810BD4C
:4068C00070B50446007925464035052805D0062803D008280FD00C2070BD03220621204602F02EFA0D480821C28A2046FFF7DBF91120287010E006202873204602F04CFA87
:406900000646AA8A0A20424301212046FFF7CBF9002E01D109202071002070BD4C15002038B504460020009068460BF06FFB002801D00D2038BD2046009D00F0BDF9082078
:406940002071204600F07AFD2946204602F098F900213D2001550F2040210855204600F06BFF002038BD00B5024600F02BFD10214032117000BD10B50446FEF779FE012831
:4069800009D04020005D112805D100231A4606212046FFF7BFFE10BD10B5FFF786FE10BD38B504460021684600910BF02FFB00280CD12046009902F0E4F905480821C28A45
:4069C0002046FFF770F90D204034207038BD00004C15002038B504460021684600910BF015FB002801D00D2038BD2046009902F0BDF905480821C28A2046FFF754F90C2030
:406A000040342070002038BD4C15002000787047F8B5002569460D70002801D0002400E01F4C002C18D0204600F0D5FC002813D0207903280BD005280CD026464036B18A1C
:406A4000A07801F09DFCB078012806D01DE0042020711DE006202071F8BD0021204601F0F4FD274680373868002802D00BF03CFB3D600020B0702079072802D12046FFF705
:406A800001FD0221204600F0F1FE20790428E3D1207A694608703420FEF7B2FCF8BD0000B415002010B54C22115400F04CF810BD10B50446FF21FFF701F909202071A07817
:406AC00001F084FC10BD000038B5FF216A461180002801D0002400E0084C002C0DD011460620FDF7F9FC684601882046FFF72FFD03480068C1692046884738BDB41500209B
:406B0000BC0D002010B504468079002809D022214C200155FF212046FFF7D0F8204600F012F810BD10B5037902464032002B03D01173092B02D003E0002100E022211173BF
:406B400000F001F810BDFEB504460089002700902781207926464036002817D0012815D002280AD112E002AA01A9204601F03EFD002807D101980BF0ADFA204601F05EFD16
:406B80000028F0D02046FEF7C3FCB776254680352868002802D00BF0A7FA2F606868002802D00BF0A1FA6F60317B002919D0009800F064F8A078002100F086FF2046FFF7F6
:406BC0009BFAA07801F07AF8A07800F037FDFF212046FFF773F80B20FFF734F800F068FCFEBD1F213173E2E7F8B517460E46054602F000FC04003CD020460C3001F018F80F
:406C00002046062200211830FCF700FC2046062200211230FCF7FAFB1648224600683946436A28469847074626702846FEF720FD012148406070002D10D028896080284605
:406C40004030C1782171002E0FD169796171018AE180418A2181808A608106E00648008BC005C00F2071002060803946204603F028F8F8BDA00D002000102E400A4610B5E2
:406C80000146002003F03AF910BD10B50AF034FF10BD000000B50146FFF708FA002801D0002000E00348002802D002898A4200D0002000BDB415002038B5044680346068E9
:406CC000002806D168460BF0B1F9002801D100986060606838BD000010B5014600F086FB0128887802D0FEF7CDFC10BD90214843024940186030007F10BD000094150020AC
:406D000070B5054604464035A87F012811D1A1789020084A484380186030067F3046FEF77FFE002805D10220A877A078314601F06FF870BD9415002010B50C4CA07A00283C
:406D400013D0FEF719FF0A48027F417F408B00F0B7FB012809D10020A07200F007FF05498989090B01D000F03BFA10BD6416002094150020A0102E4070477047490510B5BF
:406D8000490F0B00FCF742FD060704080C0C0F073E21FFF787FE10BD0821FFF7C3FE10BDFFF7D1FE10BDFFF7ADFE10BDF8B507460025002D01D0002600E0204E00F09AFE8A
:406DC0003046403044890021418100F09DFE304600F001FB01282BD1A00702D52846FFF717FEE00602D52846FFF76EFEA00601D5FEF7C2FE600601D500F014FB200602D5FE
:406E0000284600F01DF8600702D5284600F02CFA380402D52846FFF719FB780402D52846FFF706FBE00703D021463046FFF7A6FF6D1C2D062D0EBCD0F8BD0000B415002087
:406E4000F8B5002801D0002400E0284C002C4BD025464035A878012846D1FF278820493700593E46002805D02149897A890601D5878AC68A2046FEF7FBFB012834D002F0A2
:406E8000BDFA2A8A6179FFF741F9009001F024F800983346283081B23A46204602F002F8E98AA07801F0E2F912480188688A124E002810D048431149FCF75EFA0004000C7E
:406EC00001D0401C80B27080A07DC107C90F002001F0A8FA01E000207080288A698A484381B2A07801F042FAF8BD0000B41500204C15002060112E407A0D00207102000022
:406F00000149096809680847BC0D002070B50D460026194A0146002801D0002401E014462034002C26D0204600F060FA01280AD19020484380186030007FFEF771FD0028B6
:406F400001D101F0A9FE0D48006881692046884700280CD020464030817EA94202D3491B817600E086762089294602F068FF204600F062FC70BD000094150020BC0D0020F7
:406F800070B503460088FFF785FE040013D000F022FA00280FD02079092819D02546997840352973204601F0F7FE0646A878012803D0AA8A02E0022070BDEA880A204243EE
:406FC00001212046FEF76FFE002E01D109202071002070BD0EB5002217216B460292198100905A810120029B00990BF01DF90EBDF8B518480024807A002822D1164E002537
:40700000B089000B22E0204600F032FE1249A039401807882A462146384600F051FA012810D00E480122478305770A4944778A72002D01D0002000E02030002801D000F0D0
:40704000FBFBF8BDB089000B641CE4B20028DAD1F8BD000064160020A0102E409415002010B50088FFF716FE002809D0014640310C460978082905D00B2903D00C2010BD19
:40708000022010BDFFF71CFC002801D009202070002010BD70B503460088FFF7FBFD040008D0254640352878082805D00B2803D00C2070BD022070BD8420005910220830DA
:4070C000991CFCF79AF92046FFF7CCFA2878082804D02046FFF77EFC002801D00A202870204600F0A9FB002070BD000010B50C46002121700088FFF7CDFD03000BD000F0D8
:407100006AF9002807D00948F121807A0840C00603D4112010BD022010BD022020701A8A1889002102F006FF002010BD4C150020F8B50F46002100910088FFF7ABFD040063
:4071400012D000F048F900280ED0E079410641D4617E02264A07002A08DB8907402500291ADA2843E07135E00220F8BD02F042F90021017021894180A1898180217E41707D
:40718000E189C1803E7005460178134802F0ACFB284602F073FE1DE0204600F02DF9012806D068460AF032FF002803D00720F8BD2A20F8BDE07900992843E071204601F0C1
:4071C00015FE607E0421304360760448C28A2046FEF769FD0020F8BD1D0400004C1500203EB500220F236C460292238100910190628169460EC900200BF016F83EBD000080
:40720000F8B50F46054600F097FA040025D003202071254600264035EE76E6702046FFF7A7F901F00FF80920FEF70CFDA07800F033FD0121204600F019FB2E706E70AE709A
